{
  "abi": [
    {
      "inputs": [],
      "stateMutability": "nonpayable",
      "type": "constructor"
    },
    {
      "inputs": [],
      "name": "contractFreezed",
      "type": "error"
    },
    {
      "inputs": [],
      "name": "exceedAllowedToken1Mint",
      "type": "error"
    },
    {
      "inputs": [],
      "name": "exceedAllowedToken2Mint",
      "type": "error"
    },
    {
      "inputs": [],
      "name": "invalidAmountSend",
      "type": "error"
    },
    {
      "inputs": [],
      "name": "invalidSaleStatus",
      "type": "error"
    },
    {
      "inputs": [],
      "name": "invalidSignature",
      "type": "error"
    },
    {
      "inputs": [],
      "name": "maxMintWalletReachToken1",
      "type": "error"
    },
    {
      "inputs": [],
      "name": "maxMintWalletReachToken2",
      "type": "error"
    },
    {
      "inputs": [],
      "name": "maxSupplyToken1Reach",
      "type": "error"
    },
    {
      "inputs": [],
      "name": "maxSupplyToken2Reach",
      "type": "error"
    },
    {
      "inputs": [],
      "name": "onlyApprovedPaymentAddress",
      "type": "error"
    },
    {
      "anonymous": false,
      "inputs": [
        {
          "indexed": true,
          "internalType": "address",
          "name": "owner",
          "type": "address"
        },
        {
          "indexed": true,
          "internalType": "address",
          "name": "approved",
          "type": "address"
        },
        {
          "indexed": true,
          "internalType": "uint256",
          "name": "tokenId",
          "type": "uint256"
        }
      ],
      "name": "Approval",
      "type": "event"
    },
    {
      "anonymous": false,
      "inputs": [
        {
          "indexed": true,
          "internalType": "address",
          "name": "owner",
          "type": "address"
        },
        {
          "indexed": true,
          "internalType": "address",
          "name": "operator",
          "type": "address"
        },
        {
          "indexed": false,
          "internalType": "bool",
          "name": "approved",
          "type": "bool"
        }
      ],
      "name": "ApprovalForAll",
      "type": "event"
    },
    {
      "anonymous": false,
      "inputs": [
        {
          "indexed": true,
          "internalType": "address",
          "name": "previousOwner",
          "type": "address"
        },
        {
          "indexed": true,
          "internalType": "address",
          "name": "newOwner",
          "type": "address"
        }
      ],
      "name": "OwnershipTransferred",
      "type": "event"
    },
    {
      "anonymous": false,
      "inputs": [
        {
          "indexed": true,
          "internalType": "address",
          "name": "from",
          "type": "address"
        },
        {
          "indexed": true,
          "internalType": "address",
          "name": "to",
          "type": "address"
        },
        {
          "indexed": true,
          "internalType": "uint256",
          "name": "tokenId",
          "type": "uint256"
        }
      ],
      "name": "Transfer",
      "type": "event"
    },
    {
      "inputs": [
        {
          "internalType": "string",
          "name": "prefixURI",
          "type": "string"
        },
        {
          "internalType": "string",
          "name": "suffixURI",
          "type": "string"
        }
      ],
      "name": "addPermanentBaseURI",
      "outputs": [],
      "stateMutability": "nonpayable",
      "type": "function"
    },
    {
      "inputs": [
        {
          "internalType": "string",
          "name": "permanentGlobalUri",
          "type": "string"
        }
      ],
      "name": "addPermanentGlobalURI",
      "outputs": [],
      "stateMutability": "nonpayable",
      "type": "function"
    },
    {
      "inputs": [
        {
          "internalType": "uint256",
          "name": "tokenId",
          "type": "uint256"
        },
        {
          "internalType": "string",
          "name": "permanentTokenURI",
          "type": "string"
        }
      ],
      "name": "addPermanentTokenURI",
      "outputs": [],
      "stateMutability": "nonpayable",
      "type": "function"
    },
    {
      "inputs": [
        {
          "internalType": "address",
          "name": "_to",
          "type": "address"
        },
        {
          "internalType": "uint256",
          "name": "_amount1",
          "type": "uint256"
        },
        {
          "internalType": "uint256",
          "name": "_amount2",
          "type": "uint256"
        },
        {
          "internalType": "uint256",
          "name": "_amount1Sign",
          "type": "uint256"
        },
        {
          "internalType": "uint256",
          "name": "_amount2Sign",
          "type": "uint256"
        },
        {
          "internalType": "bytes",
          "name": "_sign",
          "type": "bytes"
        }
      ],
      "name": "allowlistMint",
      "outputs": [],
      "stateMutability": "nonpayable",
      "type": "function"
    },
    {
      "inputs": [
        {
          "internalType": "address",
          "name": "to",
          "type": "address"
        },
        {
          "internalType": "uint256",
          "name": "tokenId",
          "type": "uint256"
        }
      ],
      "name": "approve",
      "outputs": [],
      "stateMutability": "nonpayable",
      "type": "function"
    },
    {
      "inputs": [
        {
          "internalType": "address",
          "name": "owner",
          "type": "address"
        }
      ],
      "name": "balanceOf",
      "outputs": [
        {
          "internalType": "uint256",
          "name": "",
          "type": "uint256"
        }
      ],
      "stateMutability": "view",
      "type": "function"
    },
    {
      "inputs": [
        {
          "internalType": "address",
          "name": "_to",
          "type": "address"
        },
        {
          "internalType": "uint256",
          "name": "_amount1",
          "type": "uint256"
        },
        {
          "internalType": "uint256",
          "name": "_amount2",
          "type": "uint256"
        },
        {
          "internalType": "uint256",
          "name": "_amount1Sign",
          "type": "uint256"
        },
        {
          "internalType": "uint256",
          "name": "_amount2Sign",
          "type": "uint256"
        },
        {
          "internalType": "bytes",
          "name": "_sign",
          "type": "bytes"
        }
      ],
      "name": "fiatPaymentMint",
      "outputs": [],
      "stateMutability": "payable",
      "type": "function"
    },
    {
      "inputs": [],
      "name": "freezeContract",
      "outputs": [],
      "stateMutability": "nonpayable",
      "type": "function"
    },
    {
      "inputs": [],
      "name": "getAllSupply",
      "outputs": [
        {
          "internalType": "uint256",
          "name": "",
          "type": "uint256"
        }
      ],
      "stateMutability": "view",
      "type": "function"
    },
    {
      "inputs": [
        {
          "internalType": "uint256",
          "name": "tokenId",
          "type": "uint256"
        }
      ],
      "name": "getApproved",
      "outputs": [
        {
          "internalType": "address",
          "name": "",
          "type": "address"
        }
      ],
      "stateMutability": "view",
      "type": "function"
    },
    {
      "inputs": [
        {
          "internalType": "address",
          "name": "_address",
          "type": "address"
        }
      ],
      "name": "getBalanceOfCover1",
      "outputs": [
        {
          "internalType": "uint256",
          "name": "",
          "type": "uint256"
        }
      ],
      "stateMutability": "view",
      "type": "function"
    },
    {
      "inputs": [
        {
          "internalType": "address",
          "name": "_address",
          "type": "address"
        }
      ],
      "name": "getBalanceOfCover2",
      "outputs": [
        {
          "internalType": "uint256",
          "name": "",
          "type": "uint256"
        }
      ],
      "stateMutability": "view",
      "type": "function"
    },
    {
      "inputs": [],
      "name": "getCurrentStatus",
      "outputs": [
        {
          "internalType": "enum Status",
          "name": "",
          "type": "uint8"
        }
      ],
      "stateMutability": "view",
      "type": "function"
    },
    {
      "inputs": [],
      "name": "getPublicPrice",
      "outputs": [
        {
          "internalType": "uint256",
          "name": "",
          "type": "uint256"
        }
      ],
      "stateMutability": "view",
      "type": "function"
    },
    {
      "inputs": [],
      "name": "getToken1Supply",
      "outputs": [
        {
          "internalType": "uint256",
          "name": "",
          "type": "uint256"
        }
      ],
      "stateMutability": "view",
      "type": "function"
    },
    {
      "inputs": [],
      "name": "getToken2Supply",
      "outputs": [
        {
          "internalType": "uint256",
          "name": "",
          "type": "uint256"
        }
      ],
      "stateMutability": "view",
      "type": "function"
    },
    {
      "inputs": [],
      "name": "getWhitelistPrice",
      "outputs": [
        {
          "internalType": "uint256",
          "name": "",
          "type": "uint256"
        }
      ],
      "stateMutability": "view",
      "type": "function"
    },
    {
      "inputs": [
        {
          "internalType": "address",
          "name": "owner",
          "type": "address"
        },
        {
          "internalType": "address",
          "name": "operator",
          "type": "address"
        }
      ],
      "name": "isApprovedForAll",
      "outputs": [
        {
          "internalType": "bool",
          "name": "",
          "type": "bool"
        }
      ],
      "stateMutability": "view",
      "type": "function"
    },
    {
      "inputs": [
        {
          "internalType": "address",
          "name": "_to",
          "type": "address"
        },
        {
          "internalType": "uint256",
          "name": "_amount1",
          "type": "uint256"
        },
        {
          "internalType": "uint256",
          "name": "_amount2",
          "type": "uint256"
        }
      ],
      "name": "mint",
      "outputs": [],
      "stateMutability": "payable",
      "type": "function"
    },
    {
      "inputs": [],
      "name": "name",
      "outputs": [
        {
          "internalType": "string",
          "name": "",
          "type": "string"
        }
      ],
      "stateMutability": "view",
      "type": "function"
    },
    {
      "inputs": [],
      "name": "owner",
      "outputs": [
        {
          "internalType": "address",
          "name": "",
          "type": "address"
        }
      ],
      "stateMutability": "view",
      "type": "function"
    },
    {
      "inputs": [
        {
          "internalType": "uint256",
          "name": "tokenId",
          "type": "uint256"
        }
      ],
      "name": "ownerOf",
      "outputs": [
        {
          "internalType": "address",
          "name": "",
          "type": "address"
        }
      ],
      "stateMutability": "view",
      "type": "function"
    },
    {
      "inputs": [],
      "name": "renounceOwnership",
      "outputs": [],
      "stateMutability": "nonpayable",
      "type": "function"
    },
    {
      "inputs": [
        {
          "internalType": "uint256",
          "name": "tokenId",
          "type": "uint256"
        },
        {
          "internalType": "uint256",
          "name": "salePrice",
          "type": "uint256"
        }
      ],
      "name": "royaltyInfo",
      "outputs": [
        {
          "internalType": "address",
          "name": "",
          "type": "address"
        },
        {
          "internalType": "uint256",
          "name": "",
          "type": "uint256"
        }
      ],
      "stateMutability": "view",
      "type": "function"
    },
    {
      "inputs": [
        {
          "internalType": "address",
          "name": "from",
          "type": "address"
        },
        {
          "internalType": "address",
          "name": "to",
          "type": "address"
        },
        {
          "internalType": "uint256",
          "name": "tokenId",
          "type": "uint256"
        }
      ],
      "name": "safeTransferFrom",
      "outputs": [],
      "stateMutability": "nonpayable",
      "type": "function"
    },
    {
      "inputs": [
        {
          "internalType": "address",
          "name": "from",
          "type": "address"
        },
        {
          "internalType": "address",
          "name": "to",
          "type": "address"
        },
        {
          "internalType": "uint256",
          "name": "tokenId",
          "type": "uint256"
        },
        {
          "internalType": "bytes",
          "name": "data",
          "type": "bytes"
        }
      ],
      "name": "safeTransferFrom",
      "outputs": [],
      "stateMutability": "nonpayable",
      "type": "function"
    },
    {
      "inputs": [
        {
          "internalType": "address",
          "name": "operator",
          "type": "address"
        },
        {
          "internalType": "bool",
          "name": "approved",
          "type": "bool"
        }
      ],
      "name": "setApprovalForAll",
      "outputs": [],
      "stateMutability": "nonpayable",
      "type": "function"
    },
    {
      "inputs": [
        {
          "internalType": "string",
          "name": "_newBaseURI",
          "type": "string"
        }
      ],
      "name": "setBaseMediaURICover1",
      "outputs": [],
      "stateMutability": "nonpayable",
      "type": "function"
    },
    {
      "inputs": [
        {
          "internalType": "string",
          "name": "_newBaseURI",
          "type": "string"
        }
      ],
      "name": "setBaseMediaURICover2",
      "outputs": [],
      "stateMutability": "nonpayable",
      "type": "function"
    },
    {
      "inputs": [
        {
          "internalType": "string",
          "name": "_newBaseURI",
          "type": "string"
        }
      ],
      "name": "setBaseURI",
      "outputs": [],
      "stateMutability": "nonpayable",
      "type": "function"
    },
    {
      "inputs": [
        {
          "internalType": "address",
          "name": "_recipient",
          "type": "address"
        },
        {
          "internalType": "uint96",
          "name": "_feeNumerator",
          "type": "uint96"
        }
      ],
      "name": "setDefaultRoyalties",
      "outputs": [],
      "stateMutability": "nonpayable",
      "type": "function"
    },
    {
      "inputs": [
        {
          "internalType": "address",
          "name": "_newFiatPayment",
          "type": "address"
        }
      ],
      "name": "setFiatPayment",
      "outputs": [],
      "stateMutability": "nonpayable",
      "type": "function"
    },
    {
      "inputs": [
        {
          "internalType": "uint256",
          "name": "_newMaxMintWallet",
          "type": "uint256"
        }
      ],
      "name": "setMaxMintWallet",
      "outputs": [],
      "stateMutability": "nonpayable",
      "type": "function"
    },
    {
      "inputs": [
        {
          "internalType": "uint256",
          "name": "_newPublicPrice",
          "type": "uint256"
        }
      ],
      "name": "setPublicPrice",
      "outputs": [],
      "stateMutability": "nonpayable",
      "type": "function"
    },
    {
      "inputs": [
        {
          "internalType": "address",
          "name": "_newSigner",
          "type": "address"
        }
      ],
      "name": "setSigner",
      "outputs": [],
      "stateMutability": "nonpayable",
      "type": "function"
    },
    {
      "inputs": [
        {
          "internalType": "enum Status",
          "name": "_newStatus",
          "type": "uint8"
        }
      ],
      "name": "setStatus",
      "outputs": [],
      "stateMutability": "nonpayable",
      "type": "function"
    },
    {
      "inputs": [
        {
          "internalType": "string",
          "name": "_newSufixURI",
          "type": "string"
        }
      ],
      "name": "setSufixURI",
      "outputs": [],
      "stateMutability": "nonpayable",
      "type": "function"
    },
    {
      "inputs": [
        {
          "internalType": "uint256",
          "name": "_newWhitelistPrice",
          "type": "uint256"
        }
      ],
      "name": "setWhitelistPrice",
      "outputs": [],
      "stateMutability": "nonpayable",
      "type": "function"
    },
    {
      "inputs": [
        {
          "internalType": "bytes4",
          "name": "interfaceId",
          "type": "bytes4"
        }
      ],
      "name": "supportsInterface",
      "outputs": [
        {
          "internalType": "bool",
          "name": "",
          "type": "bool"
        }
      ],
      "stateMutability": "view",
      "type": "function"
    },
    {
      "inputs": [],
      "name": "symbol",
      "outputs": [
        {
          "internalType": "string",
          "name": "",
          "type": "string"
        }
      ],
      "stateMutability": "view",
      "type": "function"
    },
    {
      "inputs": [
        {
          "internalType": "uint256",
          "name": "index",
          "type": "uint256"
        }
      ],
      "name": "tokenByIndex",
      "outputs": [
        {
          "internalType": "uint256",
          "name": "",
          "type": "uint256"
        }
      ],
      "stateMutability": "view",
      "type": "function"
    },
    {
      "inputs": [
        {
          "internalType": "address",
          "name": "owner",
          "type": "address"
        },
        {
          "internalType": "uint256",
          "name": "index",
          "type": "uint256"
        }
      ],
      "name": "tokenOfOwnerByIndex",
      "outputs": [
        {
          "internalType": "uint256",
          "name": "",
          "type": "uint256"
        }
      ],
      "stateMutability": "view",
      "type": "function"
    },
    {
      "inputs": [
        {
          "internalType": "uint256",
          "name": "tokenId",
          "type": "uint256"
        }
      ],
      "name": "tokenURI",
      "outputs": [
        {
          "internalType": "string",
          "name": "",
          "type": "string"
        }
      ],
      "stateMutability": "view",
      "type": "function"
    },
    {
      "inputs": [
        {
          "internalType": "uint256",
          "name": "tokenId",
          "type": "uint256"
        }
      ],
      "name": "tokenURIsPermanent",
      "outputs": [
        {
          "internalType": "string[]",
          "name": "",
          "type": "string[]"
        }
      ],
      "stateMutability": "view",
      "type": "function"
    },
    {
      "inputs": [],
      "name": "totalSupply",
      "outputs": [
        {
          "internalType": "uint256",
          "name": "",
          "type": "uint256"
        }
      ],
      "stateMutability": "view",
      "type": "function"
    },
    {
      "inputs": [
        {
          "internalType": "address",
          "name": "from",
          "type": "address"
        },
        {
          "internalType": "address",
          "name": "to",
          "type": "address"
        },
        {
          "internalType": "uint256",
          "name": "tokenId",
          "type": "uint256"
        }
      ],
      "name": "transferFrom",
      "outputs": [],
      "stateMutability": "nonpayable",
      "type": "function"
    },
    {
      "inputs": [
        {
          "internalType": "address",
          "name": "newOwner",
          "type": "address"
        }
      ],
      "name": "transferOwnership",
      "outputs": [],
      "stateMutability": "nonpayable",
      "type": "function"
    },
    {
      "inputs": [
        {
          "internalType": "address",
          "name": "_to",
          "type": "address"
        },
        {
          "internalType": "uint256",
          "name": "_amount1",
          "type": "uint256"
        },
        {
          "internalType": "uint256",
          "name": "_amount2",
          "type": "uint256"
        },
        {
          "internalType": "uint256",
          "name": "_amount1Sign",
          "type": "uint256"
        },
        {
          "internalType": "uint256",
          "name": "_amount2Sign",
          "type": "uint256"
        },
        {
          "internalType": "bytes",
          "name": "_sign",
          "type": "bytes"
        }
      ],
      "name": "whitelistMint",
      "outputs": [],
      "stateMutability": "payable",
      "type": "function"
    }
  ],
  "bytecode": {
    "object": "0x6000600f5560c0604052600e60809081526d594f55522042415345205552492f60901b60a05260129062000034908262000239565b5060408051808201909152600e81526d594f55522042415345205552492f60901b602082015260139062000069908262000239565b5060408051808201909152600e81526d594f55522042415345205552492f60901b60208201526014906200009e908262000239565b50604080518082019091526005815264173539b7b760d91b6020820152601590620000ca908262000239565b5060c8601655600a6017556001601855606560195566038d7ea4c68000601a556605543df729c000601b55601c80546001600160a01b0319167390d41fa17a8df96e7dff80227b4fc7d208dfd0261790553480156200012857600080fd5b506040518060400160405280600881526020016715539113d616115160c21b815250604051806040016040528060048152602001630aa9c88b60e31b815250816000908162000178919062000239565b50600162000187828262000239565b50505033600a5562000305565b634e487b7160e01b600052604160045260246000fd5b600181811c90821680620001bf57607f821691505b602082108103620001e057634e487b7160e01b600052602260045260246000fd5b50919050565b601f8211156200023457600081815260208120601f850160051c810160208610156200020f5750805b601f850160051c820191505b8181101562000230578281556001016200021b565b5050505b505050565b81516001600160401b0381111562000255576200025562000194565b6200026d81620002668454620001aa565b84620001e6565b602080601f831160018114620002a557600084156200028c5750858301515b600019600386901b1c1916600185901b17855562000230565b600085815260208120601f198616915b82811015620002d657888601518255948401946001909101908401620002b5565b5085821015620002f55787850151600019600388901b60f8161c191681555b5050505050600190811b01905550565b613a3e80620003156000396000f3fe6080604052600436106102935760003560e01c8063717d57d31161015a578063b64759d4116100c1578063dc17a3bb1161007a578063dc17a3bb14610818578063de914f261461082b578063e93f7ed214610840578063e985e9c514610860578063f01c9474146108a9578063f2fde38b146108be57600080fd5b8063b64759d414610736578063b88d4fde14610756578063c627525514610776578063c87b56dd14610796578063cd02771a146107b6578063d998922a146107d657600080fd5b8063991f48ea11610113578063991f48ea146106585780639e69413d14610678578063a22cb465146106ba578063a3dd2619146106da578063a584a9b514610701578063a6722dc81461071657600080fd5b8063717d57d3146105ac578063752e8a0d146105cc5780637dd36e34146105f95780638b927e14146106195780638da5cb5b1461062e57806395d89b411461064357600080fd5b80632ee52fe7116101fe57806355f804b3116101b757806355f804b3146104f757806363222812146105175780636352211e146105375780636c19e7831461055757806370a0823114610577578063715018a61461059757600080fd5b80632ee52fe7146104425780632f745c591461046257806330b8a56914610482578063363e86fe146104a257806342842e0e146104b75780634f6ccce7146104d757600080fd5b8063156e29f611610250578063156e29f61461038857806318160ddd1461039b5780631b851194146103b057806323b872dd146103c35780632a55205a146103e35780632e49d78b1461042257600080fd5b806301ffc9a71461029857806306fdde03146102cd578063081812fc146102ef578063095ea7b3146103275780630da51cd7146103495780630e4dc25514610368575b600080fd5b3480156102a457600080fd5b506102b86102b3366004612f48565b6108de565b60405190151581526020015b60405180910390f35b3480156102d957600080fd5b506102e26108ef565b6040516102c49190612fbc565b3480156102fb57600080fd5b5061030f61030a366004612fcf565b610981565b6040516001600160a01b0390911681526020016102c4565b34801561033357600080fd5b50610347610342366004613004565b6109a8565b005b34801561035557600080fd5b50601a545b6040519081526020016102c4565b34801561037457600080fd5b50610347610383366004613070565b610ac2565b6103476103963660046130b2565b610b14565b3480156103a757600080fd5b5060085461035a565b6103476103be366004613188565b610c78565b3480156103cf57600080fd5b506103476103de3660046131fb565b610e63565b3480156103ef57600080fd5b506104036103fe366004613237565b610e94565b604080516001600160a01b0390931683526020830191909152016102c4565b34801561042e57600080fd5b5061034761043d366004613259565b610f42565b34801561044e57600080fd5b5061034761045d36600461327a565b610fb4565b34801561046e57600080fd5b5061035a61047d366004613004565b610ff2565b34801561048e57600080fd5b5061034761049d366004613188565b611088565b3480156104ae57600080fd5b50601b5461035a565b3480156104c357600080fd5b506103476104d23660046131fb565b6111dd565b3480156104e357600080fd5b5061035a6104f2366004612fcf565b6111f8565b34801561050357600080fd5b50610347610512366004613070565b61128b565b34801561052357600080fd5b50610347610532366004612fcf565b6112dd565b34801561054357600080fd5b5061030f610552366004612fcf565b611327565b34801561056357600080fd5b5061034761057236600461327a565b611387565b34801561058357600080fd5b5061035a61059236600461327a565b6113ee565b3480156105a357600080fd5b50610347611474565b3480156105b857600080fd5b506103476105c7366004612fcf565b61149a565b3480156105d857600080fd5b506105ec6105e7366004612fcf565b6114e4565b6040516102c49190613295565b34801561060557600080fd5b506103476106143660046132f7565b6117c0565b34801561062557600080fd5b5061035a61184d565b34801561063a57600080fd5b5061030f611863565b34801561064f57600080fd5b506102e2611871565b34801561066457600080fd5b50610347610673366004613070565b611880565b34801561068457600080fd5b5061035a61069336600461327a565b6001600160a01b03166000908152601e602090815260408083206002845290915290205490565b3480156106c657600080fd5b506103476106d5366004613363565b6118d2565b3480156106e657600080fd5b50601c54600160a81b900460ff166040516102c491906133b5565b34801561070d57600080fd5b506103476118e1565b34801561072257600080fd5b50610347610731366004613070565b61193b565b34801561074257600080fd5b50610347610751366004613070565b611994565b34801561076257600080fd5b506103476107713660046133dd565b6119e6565b34801561078257600080fd5b50610347610791366004612fcf565b611a18565b3480156107a257600080fd5b506102e26107b1366004612fcf565b611a62565b3480156107c257600080fd5b506103476107d1366004613445565b611aca565b3480156107e257600080fd5b5061035a6107f136600461327a565b6001600160a01b03166000908152601e602090815260408083206001845290915290205490565b610347610826366004613188565b611aee565b34801561083757600080fd5b5061035a611d6d565b34801561084c57600080fd5b5061034761085b36600461347d565b611d7e565b34801561086c57600080fd5b506102b861087b3660046134c9565b6001600160a01b03918216600090815260056020908152604080832093909416825291909152205460ff1690565b3480156108b557600080fd5b5061035a611dd8565b3480156108ca57600080fd5b506103476108d936600461327a565b611df6565b60006108e982611e32565b92915050565b6060600080546108fe906134fc565b80601f016020809104026020016040519081016040528092919081815260200182805461092a906134fc565b80156109775780601f1061094c57610100808354040283529160200191610977565b820191906000526020600020905b81548152906001019060200180831161095a57829003601f168201915b5050505050905090565b600061098c82611e57565b506000908152600460205260409020546001600160a01b031690565b60006109b382611327565b9050806001600160a01b0316836001600160a01b031603610a255760405162461bcd60e51b815260206004820152602160248201527f4552433732313a20617070726f76616c20746f2063757272656e74206f776e656044820152603960f91b60648201526084015b60405180910390fd5b336001600160a01b0382161480610a415750610a41813361087b565b610ab35760405162461bcd60e51b815260206004820152603d60248201527f4552433732313a20617070726f76652063616c6c6572206973206e6f7420746f60448201527f6b656e206f776e6572206f7220617070726f76656420666f7220616c6c0000006064820152608401610a1c565b610abd8383611eb6565b505050565b600a543314610adc5763bbe424b960e01b60005260046000fd5b601c54600160a01b900460ff1615610b0757604051631342a2d360e31b815260040160405180910390fd5b6013610abd82848361357c565b600380601c54600160a81b900460ff166005811115610b3557610b3561339f565b14610b5357604051639cc783ed60e01b815260040160405180910390fd5b336001600160a01b03851614610b9357336000908152601d602052604090205460ff16610b9357604051634b25c25160e01b815260040160405180910390fd5b6017546001600160a01b0385166000908152601e6020908152604080832060018452909152902054610bc6908590613652565b1115610be557604051634c9664e760e01b815260040160405180910390fd5b6017546001600160a01b0385166000908152601e6020908152604080832060028452909152902054610c18908490613652565b1115610c375760405163816c37b360e01b815260040160405180910390fd5b34601b54838501021115610c5e57604051631bfc08e760e11b815260040160405180910390fd5b610c688484611f24565b610c728483612038565b50505050565b600280601c54600160a81b900460ff166005811115610c9957610c9961339f565b14610cb757604051639cc783ed60e01b815260040160405180910390fd5b601c548790859085906002908690610cdc906001600160a01b031686868686866120c9565b610cf9576040516368e6090160e11b815260040160405180910390fd5b336001600160a01b038d1614610d3957336000908152601d602052604090205460ff16610d3957604051634b25c25160e01b815260040160405180910390fd5b88601f88604051610d4a9190613665565b9081526020016040518091039020548c610d649190613652565b1115610d8357604051632508c3ed60e11b815260040160405180910390fd5b87602088604051610d949190613665565b9081526020016040518091039020548b610dae9190613652565b1115610dcd5760405163d4b4828d60e01b815260040160405180910390fd5b34601a548b8d01021115610df457604051631bfc08e760e11b815260040160405180910390fd5b8a601f88604051610e059190613665565b908152604051602091819003820181208054939093019092558b91610e2b908a90613665565b90815260405190819003602001902080549091019055610e4b8c8c611f24565b610e558c8b612038565b505050505050505050505050565b610e6d3382612160565b610e895760405162461bcd60e51b8152600401610a1c90613681565b610abd8383836121df565b6000828152600c602090815260408083208151808301909252546001600160a01b038116808352600160a01b9091046001600160601b0316928201929092528291610f09575060408051808201909152600b546001600160a01b0381168252600160a01b90046001600160601b031660208201525b602081015160009061271090610f28906001600160601b0316876136ce565b610f3291906136e5565b91519350909150505b9250929050565b600a543314610f5c5763bbe424b960e01b60005260046000fd5b601c54600160a01b900460ff1615610f8757604051631342a2d360e31b815260040160405180910390fd5b601c805482919060ff60a81b1916600160a81b836005811115610fac57610fac61339f565b021790555050565b600a543314610fce5763bbe424b960e01b60005260046000fd5b6001600160a01b03166000908152601d60205260409020805460ff19166001179055565b6000610ffd836113ee565b821061105f5760405162461bcd60e51b815260206004820152602b60248201527f455243373231456e756d657261626c653a206f776e657220696e646578206f7560448201526a74206f6620626f756e647360a81b6064820152608401610a1c565b506001600160a01b03919091166000908152600660209081526040808320938352929052205490565b600180601c54600160a81b900460ff1660058111156110a9576110a961339f565b146110c757604051639cc783ed60e01b815260040160405180910390fd5b601c5487908590859060019086906110ec906001600160a01b031686868686866120c9565b611109576040516368e6090160e11b815260040160405180910390fd5b336001600160a01b038d161461114957336000908152601d602052604090205460ff1661114957604051634b25c25160e01b815260040160405180910390fd5b88601f8860405161115a9190613665565b9081526020016040518091039020548c6111749190613652565b111561119357604051632508c3ed60e11b815260040160405180910390fd5b876020886040516111a49190613665565b9081526020016040518091039020548b6111be9190613652565b1115610df45760405163d4b4828d60e01b815260040160405180910390fd5b610abd838383604051806020016040528060008152506119e6565b600061120360085490565b82106112665760405162461bcd60e51b815260206004820152602c60248201527f455243373231456e756d657261626c653a20676c6f62616c20696e646578206f60448201526b7574206f6620626f756e647360a01b6064820152608401610a1c565b6008828154811061127957611279613707565b90600052602060002001549050919050565b600a5433146112a55763bbe424b960e01b60005260046000fd5b601c54600160a01b900460ff16156112d057604051631342a2d360e31b815260040160405180910390fd5b6012610abd82848361357c565b600a5433146112f75763bbe424b960e01b60005260046000fd5b601c54600160a01b900460ff161561132257604051631342a2d360e31b815260040160405180910390fd5b601755565b6000818152600260205260408120546001600160a01b0316806108e95760405162461bcd60e51b8152602060048201526018602482015277115490cdcc8c4e881a5b9d985b1a59081d1bdad95b88125160421b6044820152606401610a1c565b600a5433146113a15763bbe424b960e01b60005260046000fd5b601c54600160a01b900460ff16156113cc57604051631342a2d360e31b815260040160405180910390fd5b601c80546001600160a01b0319166001600160a01b0392909216919091179055565b60006001600160a01b0382166114585760405162461bcd60e51b815260206004820152602960248201527f4552433732313a2061646472657373207a65726f206973206e6f7420612076616044820152683634b21037bbb732b960b91b6064820152608401610a1c565b506001600160a01b031660009081526003602052604090205490565b600a54331461148e5763bbe424b960e01b60005260046000fd5b6114986000612350565b565b600a5433146114b45763bbe424b960e01b60005260046000fd5b601c54600160a01b900460ff16156114df57604051631342a2d360e31b815260040160405180910390fd5b601a55565b60606114ef82611e57565b6000828152600e6020526040812054600f54600d5483929161151091613652565b61151a9190613652565b67ffffffffffffffff811115611532576115326130e5565b60405190808252806020026020018201604052801561156557816020015b60608152602001906001900390816115505790505b50905060005b600d5481101561164457600d818154811061158857611588613707565b90600052602060002001805461159d906134fc565b80601f01602080910402602001604051908101604052809291908181526020018280546115c9906134fc565b80156116165780601f106115eb57610100808354040283529160200191611616565b820191906000526020600020905b8154815290600101906020018083116115f957829003601f168201915b505050505082848151811061162d5761162d613707565b60209081029190910101526001928301920161156b565b5060005b600f548110156116c257600081815260106020526040902061166986612382565b600083815260116020908152604091829020915161168a9493929101613790565b6040516020818303038152906040528284815181106116ab576116ab613707565b602090810291909101015260019283019201611648565b5060005b6000858152600e60205260409020548110156117b8576000858152600e602052604090208054829081106116fc576116fc613707565b906000526020600020018054611711906134fc565b80601f016020809104026020016040519081016040528092919081815260200182805461173d906134fc565b801561178a5780601f1061175f5761010080835404028352916020019161178a565b820191906000526020600020905b81548152906001019060200180831161176d57829003601f168201915b50505050508284815181106117a1576117a1613707565b6020908102919091010152600192830192016116c6565b509392505050565b600a5433146117da5763bbe424b960e01b60005260046000fd5b610c7284848080601f01602080910402602001604051908101604052809392919081815260200183838082843760009201919091525050604080516020601f8801819004810282018101909252868152925086915085908190840183828082843760009201919091525061241592505050565b6000600160185461185e91906137c3565b905090565b6000600a5460005260206000f35b6060600180546108fe906134fc565b600a54331461189a5763bbe424b960e01b60005260046000fd5b601c54600160a01b900460ff16156118c557604051631342a2d360e31b815260040160405180910390fd5b6015610abd82848361357c565b6118dd338383612466565b5050565b600a5433146118fb5763bbe424b960e01b60005260046000fd5b601c54600160a01b900460ff161561192657604051631342a2d360e31b815260040160405180910390fd5b601c805460ff60a01b1916600160a01b179055565b600a5433146119555763bbe424b960e01b60005260046000fd5b6118dd82828080601f01602080910402602001604051908101604052809392919081815260200183838082843760009201919091525061253492505050565b600a5433146119ae5763bbe424b960e01b60005260046000fd5b601c54600160a01b900460ff16156119d957604051631342a2d360e31b815260040160405180910390fd5b6014610abd82848361357c565b6119f03383612160565b611a0c5760405162461bcd60e51b8152600401610a1c90613681565b610c7284848484612570565b600a543314611a325763bbe424b960e01b60005260046000fd5b601c54600160a01b900460ff1615611a5d57604051631342a2d360e31b815260040160405180910390fd5b601b55565b6000818152600260205260409020546060906001600160a01b0316611a9557505060408051602081019091526000815290565b6012611aa083612382565b6015604051602001611ab493929190613790565b6040516020818303038152906040529050919050565b600a543314611ae45763bbe424b960e01b60005260046000fd5b6118dd82826125a3565b336000908152601d602052604090205460ff16611b1e57604051634b25c25160e01b815260040160405180910390fd5b6002601c54600160a81b900460ff166005811115611b3e57611b3e61339f565b03611c4857601c54611b6b906001600160a01b03811690889086908690600160a81b900460ff16866120c9565b611b88576040516368e6090160e11b815260040160405180910390fd5b82601f82604051611b999190613665565b90815260200160405180910390205486611bb39190613652565b1115611bd257604051632508c3ed60e11b815260040160405180910390fd5b81602082604051611be39190613665565b90815260200160405180910390205485611bfd9190613652565b1115611c1c5760405163d4b4828d60e01b815260040160405180910390fd5b34601a54858701021115611c4357604051631bfc08e760e11b815260040160405180910390fd5b611d51565b6003601c54600160a81b900460ff166005811115611c6857611c6861339f565b03611d38576017546001600160a01b0387166000908152601e6020908152604080832060018452909152902054611ca0908790613652565b1115611cbf57604051634c9664e760e01b815260040160405180910390fd5b6017546001600160a01b0387166000908152601e6020908152604080832060028452909152902054611cf2908690613652565b1115611d115760405163816c37b360e01b815260040160405180910390fd5b34601b54858701021115611c4357604051631bfc08e760e11b815260040160405180910390fd5b604051639cc783ed60e01b815260040160405180910390fd5b611d5b8686611f24565b611d658685612038565b505050505050565b6000606560195461185e91906137c3565b600a543314611d985763bbe424b960e01b60005260046000fd5b610abd8383838080601f0160208091040260200160405190810160405280939291908181526020018383808284376000920191909152506126a092505050565b60006066601954601854611dec9190613652565b61185e91906137c3565b600a543314611e105763bbe424b960e01b60005260046000fd5b80611e265763bbee60dd60e01b60005260046000fd5b611e2f81612350565b50565b60006001600160e01b0319821663152a902d60e11b14806108e957506108e982612752565b6000818152600260205260409020546001600160a01b0316611e2f5760405162461bcd60e51b8152602060048201526018602482015277115490cdcc8c4e881a5b9d985b1a59081d1bdad95b88125160421b6044820152606401610a1c565b600081815260046020526040902080546001600160a01b0319166001600160a01b0384169081179091558190611eeb82611327565b6001600160a01b03167f8c5be1e5ebec7d5bd14f71427d1e84f3dd0314c0f7b2291e5b200ac8c7c3b92560405160405180910390a45050565b606581601854011115611f4a576040516306ab2e5160e01b815260040160405180910390fd5b60005b8181101561200957611f6183601854612777565b611ff760185460138054611f74906134fc565b80601f0160208091040260200160405190810160405280929190818152602001828054611fa0906134fc565b8015611fed5780601f10611fc257610100808354040283529160200191611fed565b820191906000526020600020905b815481529060010190602001808311611fd057829003601f168201915b50505050506126a0565b60188054600190810190915501611f4d565b506001600160a01b039091166000908152601e6020908152604080832060018452909152902080549091019055565b60c98160195401111561205e5760405163c62be36d60e01b815260040160405180910390fd5b60005b8181101561209a5761207583601954612777565b61208860195460148054611f74906134fc565b60198054600190810190915501612061565b506001600160a01b039091166000908152601e6020908152604080832060028452909152902080549091019055565b6000806120d887878787612910565b90506000612133826040517f19457468657265756d205369676e6564204d6573736167653a0a3332000000006020820152603c8101829052600090605c01604051602081830303815290604052805190602001209050919050565b9050886001600160a01b03166121498286612949565b6001600160a01b0316149998505050505050505050565b60008061216c83611327565b9050806001600160a01b0316846001600160a01b031614806121b357506001600160a01b0380821660009081526005602090815260408083209388168352929052205460ff165b806121d75750836001600160a01b03166121cc84610981565b6001600160a01b0316145b949350505050565b826001600160a01b03166121f282611327565b6001600160a01b0316146122185760405162461bcd60e51b8152600401610a1c906137d6565b6001600160a01b03821661227a5760405162461bcd60e51b8152602060048201526024808201527f4552433732313a207472616e7366657220746f20746865207a65726f206164646044820152637265737360e01b6064820152608401610a1c565b61228783838360016129c8565b826001600160a01b031661229a82611327565b6001600160a01b0316146122c05760405162461bcd60e51b8152600401610a1c906137d6565b600081815260046020908152604080832080546001600160a01b03199081169091556001600160a01b0387811680865260038552838620805460001901905590871680865283862080546001019055868652600290945282852080549092168417909155905184937fddf252ad1be2c89b69c2b068fc378daa952ba7f163c4a11628f55a4df523b3ef91a4505050565b600a5481600a5581817f8be0079c531659141344cd1fd0a4f28419497f9722a3daafe3b4186f6b6457e0600080a35050565b6060600061238f836129d4565b600101905060008167ffffffffffffffff8111156123af576123af6130e5565b6040519080825280601f01601f1916602001820160405280156123d9576020820181803683370190505b5090508181016020015b600019016f181899199a1a9b1b9c1cb0b131b232b360811b600a86061a8153600a85049450846123e357509392505050565b600f546000908152601060205260409020612430838261381b565b50600f54600090815260116020526040902061244c828261381b565b50600f805490600061245d836138db565b91905055505050565b816001600160a01b0316836001600160a01b0316036124c75760405162461bcd60e51b815260206004820152601960248201527f4552433732313a20617070726f766520746f2063616c6c6572000000000000006044820152606401610a1c565b6001600160a01b03838116600081815260056020908152604080832094871680845294825291829020805460ff191686151590811790915591519182527f17307eab39ab6107e8899845ad3d59bd9653f200f220920489ca2b5937696c31910160405180910390a3505050565b600d80546001810182556000919091527fd7b6990105719101dabeb77144f2a3385c8033acd3af97e9423a695e81ad1eb5016118dd828261381b565b61257b8484846121df565b61258784848484612aac565b610c725760405162461bcd60e51b8152600401610a1c906138f4565b6127106001600160601b03821611156126115760405162461bcd60e51b815260206004820152602a60248201527f455243323938313a20726f79616c7479206665652077696c6c206578636565646044820152692073616c65507269636560b01b6064820152608401610a1c565b6001600160a01b0382166126675760405162461bcd60e51b815260206004820152601960248201527f455243323938313a20696e76616c6964207265636569766572000000000000006044820152606401610a1c565b604080518082019091526001600160a01b039092168083526001600160601b039091166020909201829052600160a01b90910217600b55565b6000828152600260205260409020546001600160a01b031661272a5760405162461bcd60e51b815260206004820152603a60248201527f4552433732315065726d616e656e74555249733a205065726d616e656e74555260448201527f4920736574206f66206e6f6e6578697374656e7420746f6b656e0000000000006064820152608401610a1c565b6000828152600e6020908152604082208054600181018255908352912001610abd828261381b565b60006001600160e01b0319821663780e9d6360e01b14806108e957506108e982612baa565b6001600160a01b0382166127cd5760405162461bcd60e51b815260206004820181905260248201527f4552433732313a206d696e7420746f20746865207a65726f20616464726573736044820152606401610a1c565b6000818152600260205260409020546001600160a01b0316156128325760405162461bcd60e51b815260206004820152601c60248201527f4552433732313a20746f6b656e20616c7265616479206d696e746564000000006044820152606401610a1c565b6128406000838360016129c8565b6000818152600260205260409020546001600160a01b0316156128a55760405162461bcd60e51b815260206004820152601c60248201527f4552433732313a20746f6b656e20616c7265616479206d696e746564000000006044820152606401610a1c565b6001600160a01b038216600081815260036020908152604080832080546001019055848352600290915280822080546001600160a01b0319168417905551839291907fddf252ad1be2c89b69c2b068fc378daa952ba7f163c4a11628f55a4df523b3ef908290a45050565b6000848484846040516020016129299493929190613946565b604051602081830303815290604052805190602001209050949350505050565b60008060008061295885612bfa565b6040805160008152602081018083528b905260ff8316918101919091526060810184905260808101839052929550909350915060019060a0016020604051602081039080840390855afa1580156129b3573d6000803e3d6000fd5b5050604051601f190151979650505050505050565b610c7284848484612c6e565b60008072184f03e93ff9f4daa797ed6e38ed64bf6a1f0160401b8310612a135772184f03e93ff9f4daa797ed6e38ed64bf6a1f0160401b830492506040015b6d04ee2d6d415b85acef81000000008310612a3f576d04ee2d6d415b85acef8100000000830492506020015b662386f26fc100008310612a5d57662386f26fc10000830492506010015b6305f5e1008310612a75576305f5e100830492506008015b6127108310612a8957612710830492506004015b60648310612a9b576064830492506002015b600a83106108e95760010192915050565b60006001600160a01b0384163b15612ba257604051630a85bd0160e11b81526001600160a01b0385169063150b7a0290612af0903390899088908890600401613998565b6020604051808303816000875af1925050508015612b2b575060408051601f3d908101601f19168201909252612b28918101906139d5565b60015b612b88573d808015612b59576040519150601f19603f3d011682016040523d82523d6000602084013e612b5e565b606091505b508051600003612b805760405162461bcd60e51b8152600401610a1c906138f4565b805181602001fd5b6001600160e01b031916630a85bd0160e11b1490506121d7565b5060016121d7565b60006001600160e01b031982166380ac58cd60e01b1480612bdb57506001600160e01b03198216635b5e139f60e01b145b806108e957506301ffc9a760e01b6001600160e01b03198316146108e9565b60008060008351604114612c505760405162461bcd60e51b815260206004820152601860248201527f696e76616c6964207369676e6174757265206c656e67746800000000000000006044820152606401610a1c565b50505060208101516040820151606090920151909260009190911a90565b6001811115612cdd5760405162461bcd60e51b815260206004820152603560248201527f455243373231456e756d657261626c653a20636f6e7365637574697665207472604482015274185b9cd9995c9cc81b9bdd081cdd5c1c1bdc9d1959605a1b6064820152608401610a1c565b816001600160a01b038516612d3957612d3481600880546000838152600960205260408120829055600182018355919091527ff3f7a9fe364faab93b216da50a3214154f22a0a2b415b23a84c8169e8b636ee30155565b612d5c565b836001600160a01b0316856001600160a01b031614612d5c57612d5c8582612da2565b6001600160a01b038416612d7857612d7381612e3f565b612d9b565b846001600160a01b0316846001600160a01b031614612d9b57612d9b8482612eee565b5050505050565b60006001612daf846113ee565b612db991906137c3565b600083815260076020526040902054909150808214612e0c576001600160a01b03841660009081526006602090815260408083208584528252808320548484528184208190558352600790915290208190555b5060009182526007602090815260408084208490556001600160a01b039094168352600681528383209183525290812055565b600854600090612e51906001906137c3565b60008381526009602052604081205460088054939450909284908110612e7957612e79613707565b906000526020600020015490508060088381548110612e9a57612e9a613707565b6000918252602080832090910192909255828152600990915260408082208490558582528120556008805480612ed257612ed26139f2565b6001900381819060005260206000200160009055905550505050565b6000612ef9836113ee565b6001600160a01b039093166000908152600660209081526040808320868452825280832085905593825260079052919091209190915550565b6001600160e01b031981168114611e2f57600080fd5b600060208284031215612f5a57600080fd5b8135612f6581612f32565b9392505050565b60005b83811015612f87578181015183820152602001612f6f565b50506000910152565b60008151808452612fa8816020860160208601612f6c565b601f01601f19169290920160200192915050565b602081526000612f656020830184612f90565b600060208284031215612fe157600080fd5b5035919050565b80356001600160a01b0381168114612fff57600080fd5b919050565b6000806040838503121561301757600080fd5b61302083612fe8565b946020939093013593505050565b60008083601f84011261304057600080fd5b50813567ffffffffffffffff81111561305857600080fd5b602083019150836020828501011115610f3b57600080fd5b6000806020838503121561308357600080fd5b823567ffffffffffffffff81111561309a57600080fd5b6130a68582860161302e565b90969095509350505050565b6000806000606084860312156130c757600080fd5b6130d084612fe8565b95602085013595506040909401359392505050565b634e487b7160e01b600052604160045260246000fd5b600082601f83011261310c57600080fd5b813567ffffffffffffffff80821115613127576131276130e5565b604051601f8301601f19908116603f0116810190828211818310171561314f5761314f6130e5565b8160405283815286602085880101111561316857600080fd5b836020870160208301376000602085830101528094505050505092915050565b60008060008060008060c087890312156131a157600080fd5b6131aa87612fe8565b95506020870135945060408701359350606087013592506080870135915060a087013567ffffffffffffffff8111156131e257600080fd5b6131ee89828a016130fb565b9150509295509295509295565b60008060006060848603121561321057600080fd5b61321984612fe8565b925061322760208501612fe8565b9150604084013590509250925092565b6000806040838503121561324a57600080fd5b50508035926020909101359150565b60006020828403121561326b57600080fd5b813560068110612f6557600080fd5b60006020828403121561328c57600080fd5b612f6582612fe8565b6000602080830181845280855180835260408601915060408160051b870101925083870160005b828110156132ea57603f198886030184526132d8858351612f90565b945092850192908501906001016132bc565b5092979650505050505050565b6000806000806040858703121561330d57600080fd5b843567ffffffffffffffff8082111561332557600080fd5b6133318883890161302e565b9096509450602087013591508082111561334a57600080fd5b506133578782880161302e565b95989497509550505050565b6000806040838503121561337657600080fd5b61337f83612fe8565b91506020830135801515811461339457600080fd5b809150509250929050565b634e487b7160e01b600052602160045260246000fd5b60208101600683106133d757634e487b7160e01b600052602160045260246000fd5b91905290565b600080600080608085870312156133f357600080fd5b6133fc85612fe8565b935061340a60208601612fe8565b925060408501359150606085013567ffffffffffffffff81111561342d57600080fd5b613439878288016130fb565b91505092959194509250565b6000806040838503121561345857600080fd5b61346183612fe8565b915060208301356001600160601b038116811461339457600080fd5b60008060006040848603121561349257600080fd5b83359250602084013567ffffffffffffffff8111156134b057600080fd5b6134bc8682870161302e565b9497909650939450505050565b600080604083850312156134dc57600080fd5b6134e583612fe8565b91506134f360208401612fe8565b90509250929050565b600181811c9082168061351057607f821691505b60208210810361353057634e487b7160e01b600052602260045260246000fd5b50919050565b601f821115610abd57600081815260208120601f850160051c8101602086101561355d5750805b601f850160051c820191505b81811015611d6557828155600101613569565b67ffffffffffffffff831115613594576135946130e5565b6135a8836135a283546134fc565b83613536565b6000601f8411600181146135dc57600085156135c45750838201355b600019600387901b1c1916600186901b178355612d9b565b600083815260209020601f19861690835b8281101561360d57868501358255602094850194600190920191016135ed565b508682101561362a5760001960f88860031b161c19848701351681555b505060018560011b0183555050505050565b634e487b7160e01b600052601160045260246000fd5b808201808211156108e9576108e961363c565b60008251613677818460208701612f6c565b9190910192915050565b6020808252602d908201527f4552433732313a2063616c6c6572206973206e6f7420746f6b656e206f776e6560408201526c1c881bdc88185c1c1c9bdd9959609a1b606082015260800190565b80820281158282048414176108e9576108e961363c565b60008261370257634e487b7160e01b600052601260045260246000fd5b500490565b634e487b7160e01b600052603260045260246000fd5b6000815461372a816134fc565b60018281168015613742576001811461375757613786565b60ff1984168752821515830287019450613786565b8560005260208060002060005b8581101561377d5781548a820152908401908201613764565b50505082870194505b5050505092915050565b600061379c828661371d565b84516137ac818360208901612f6c565b6137b88183018661371d565b979650505050505050565b818103818111156108e9576108e961363c565b60208082526025908201527f4552433732313a207472616e736665722066726f6d20696e636f72726563742060408201526437bbb732b960d91b606082015260800190565b815167ffffffffffffffff811115613835576138356130e5565b6138498161384384546134fc565b84613536565b602080601f83116001811461387e57600084156138665750858301515b600019600386901b1c1916600185901b178555611d65565b600085815260208120601f198616915b828110156138ad5788860151825594840194600190910190840161388e565b50858210156138cb5787850151600019600388901b60f8161c191681555b5050505050600190811b01905550565b6000600182016138ed576138ed61363c565b5060010190565b60208082526032908201527f4552433732313a207472616e7366657220746f206e6f6e20455243373231526560408201527131b2b4bb32b91034b6b83632b6b2b73a32b960711b606082015260800190565b6001600160601b03198560601b16815283601482015282603482015260006006831061398257634e487b7160e01b600052602160045260246000fd5b5060f89190911b60548201526055019392505050565b6001600160a01b03858116825284166020820152604081018390526080606082018190526000906139cb90830184612f90565b9695505050505050565b6000602082840312156139e757600080fd5b8151612f6581612f32565b634e487b7160e01b600052603160045260246000fdfea26469706673582212201cf2debe3c62c9cf58f22a3e2935fd57ccd7c836893e6841ffd522b4d22ce71a64736f6c63430008130033",
    "linkReferences": {}
  },
  "methodIdentifiers": {
    "addPermanentBaseURI(string,string)": "7dd36e34",
    "addPermanentGlobalURI(string)": "a6722dc8",
    "addPermanentTokenURI(uint256,string)": "e93f7ed2",
    "allowlistMint(address,uint256,uint256,uint256,uint256,bytes)": "30b8a569",
    "approve(address,uint256)": "095ea7b3",
    "balanceOf(address)": "70a08231",
    "fiatPaymentMint(address,uint256,uint256,uint256,uint256,bytes)": "dc17a3bb",
    "freezeContract()": "a584a9b5",
    "getAllSupply()": "f01c9474",
    "getApproved(uint256)": "081812fc",
    "getBalanceOfCover1(address)": "d998922a",
    "getBalanceOfCover2(address)": "9e69413d",
    "getCurrentStatus()": "a3dd2619",
    "getPublicPrice()": "363e86fe",
    "getToken1Supply()": "8b927e14",
    "getToken2Supply()": "de914f26",
    "getWhitelistPrice()": "0da51cd7",
    "isApprovedForAll(address,address)": "e985e9c5",
    "mint(address,uint256,uint256)": "156e29f6",
    "name()": "06fdde03",
    "owner()": "8da5cb5b",
    "ownerOf(uint256)": "6352211e",
    "renounceOwnership()": "715018a6",
    "royaltyInfo(uint256,uint256)": "2a55205a",
    "safeTransferFrom(address,address,uint256)": "42842e0e",
    "safeTransferFrom(address,address,uint256,bytes)": "b88d4fde",
    "setApprovalForAll(address,bool)": "a22cb465",
    "setBaseMediaURICover1(string)": "0e4dc255",
    "setBaseMediaURICover2(string)": "b64759d4",
    "setBaseURI(string)": "55f804b3",
    "setDefaultRoyalties(address,uint96)": "cd02771a",
    "setFiatPayment(address)": "2ee52fe7",
    "setMaxMintWallet(uint256)": "63222812",
    "setPublicPrice(uint256)": "c6275255",
    "setSigner(address)": "6c19e783",
    "setStatus(uint8)": "2e49d78b",
    "setSufixURI(string)": "991f48ea",
    "setWhitelistPrice(uint256)": "717d57d3",
    "supportsInterface(bytes4)": "01ffc9a7",
    "symbol()": "95d89b41",
    "tokenByIndex(uint256)": "4f6ccce7",
    "tokenOfOwnerByIndex(address,uint256)": "2f745c59",
    "tokenURI(uint256)": "c87b56dd",
    "tokenURIsPermanent(uint256)": "752e8a0d",
    "totalSupply()": "18160ddd",
    "transferFrom(address,address,uint256)": "23b872dd",
    "transferOwnership(address)": "f2fde38b",
    "whitelistMint(address,uint256,uint256,uint256,uint256,bytes)": "1b851194"
  },
  "id": 35
}