{
  "abi": [
    {
      "type": "constructor",
      "inputs": [],
      "stateMutability": "nonpayable"
    },
    {
      "type": "function",
      "name": "allowlistMint",
      "inputs": [
        {
          "name": "_amount1",
          "type": "uint256",
          "internalType": "uint256"
        },
        {
          "name": "_amount2",
          "type": "uint256",
          "internalType": "uint256"
        },
        {
          "name": "_amount1Sign",
          "type": "uint256",
          "internalType": "uint256"
        },
        {
          "name": "_amount2Sign",
          "type": "uint256",
          "internalType": "uint256"
        },
        {
          "name": "_sign",
          "type": "bytes",
          "internalType": "bytes"
        }
      ],
      "outputs": [],
      "stateMutability": "nonpayable"
    },
    {
      "type": "function",
      "name": "approve",
      "inputs": [
        {
          "name": "to",
          "type": "address",
          "internalType": "address"
        },
        {
          "name": "tokenId",
          "type": "uint256",
          "internalType": "uint256"
        }
      ],
      "outputs": [],
      "stateMutability": "nonpayable"
    },
    {
      "type": "function",
      "name": "balanceOf",
      "inputs": [
        {
          "name": "owner",
          "type": "address",
          "internalType": "address"
        }
      ],
      "outputs": [
        {
          "name": "",
          "type": "uint256",
          "internalType": "uint256"
        }
      ],
      "stateMutability": "view"
    },
    {
      "type": "function",
      "name": "cover1Reserved",
      "inputs": [],
      "outputs": [
        {
          "name": "",
          "type": "uint256",
          "internalType": "uint256"
        }
      ],
      "stateMutability": "view"
    },
    {
      "type": "function",
      "name": "cover2Reserved",
      "inputs": [],
      "outputs": [
        {
          "name": "",
          "type": "uint256",
          "internalType": "uint256"
        }
      ],
      "stateMutability": "view"
    },
    {
      "type": "function",
      "name": "emergencyWithdraw",
      "inputs": [],
      "outputs": [],
      "stateMutability": "nonpayable"
    },
    {
      "type": "function",
      "name": "getAllSupply",
      "inputs": [],
      "outputs": [
        {
          "name": "",
          "type": "uint256",
          "internalType": "uint256"
        }
      ],
      "stateMutability": "view"
    },
    {
      "type": "function",
      "name": "getApproved",
      "inputs": [
        {
          "name": "tokenId",
          "type": "uint256",
          "internalType": "uint256"
        }
      ],
      "outputs": [
        {
          "name": "",
          "type": "address",
          "internalType": "address"
        }
      ],
      "stateMutability": "view"
    },
    {
      "type": "function",
      "name": "getBalanceMintBySign",
      "inputs": [
        {
          "name": "_sign",
          "type": "bytes",
          "internalType": "bytes"
        }
      ],
      "outputs": [
        {
          "name": "cover1",
          "type": "uint256",
          "internalType": "uint256"
        },
        {
          "name": "cover2",
          "type": "uint256",
          "internalType": "uint256"
        }
      ],
      "stateMutability": "view"
    },
    {
      "type": "function",
      "name": "getDescription",
      "inputs": [],
      "outputs": [
        {
          "name": "",
          "type": "string",
          "internalType": "string"
        }
      ],
      "stateMutability": "pure"
    },
    {
      "type": "function",
      "name": "getMaxSupply",
      "inputs": [],
      "outputs": [
        {
          "name": "",
          "type": "uint256",
          "internalType": "uint256"
        }
      ],
      "stateMutability": "view"
    },
    {
      "type": "function",
      "name": "getMaxSupplyCover",
      "inputs": [],
      "outputs": [
        {
          "name": "",
          "type": "uint256",
          "internalType": "uint256"
        }
      ],
      "stateMutability": "view"
    },
    {
      "type": "function",
      "name": "getMediaProofPermanent",
      "inputs": [],
      "outputs": [
        {
          "name": "",
          "type": "string",
          "internalType": "string"
        }
      ],
      "stateMutability": "pure"
    },
    {
      "type": "function",
      "name": "getPublicPrice",
      "inputs": [],
      "outputs": [
        {
          "name": "",
          "type": "uint256",
          "internalType": "uint256"
        }
      ],
      "stateMutability": "view"
    },
    {
      "type": "function",
      "name": "getToken1Supply",
      "inputs": [],
      "outputs": [
        {
          "name": "",
          "type": "uint256",
          "internalType": "uint256"
        }
      ],
      "stateMutability": "view"
    },
    {
      "type": "function",
      "name": "getToken2Supply",
      "inputs": [],
      "outputs": [
        {
          "name": "",
          "type": "uint256",
          "internalType": "uint256"
        }
      ],
      "stateMutability": "view"
    },
    {
      "type": "function",
      "name": "getTokenMediaPermanent",
      "inputs": [],
      "outputs": [
        {
          "name": "",
          "type": "string[2]",
          "internalType": "string[2]"
        }
      ],
      "stateMutability": "view"
    },
    {
      "type": "function",
      "name": "getTokenName",
      "inputs": [
        {
          "name": "_tokenId",
          "type": "uint256",
          "internalType": "uint256"
        }
      ],
      "outputs": [
        {
          "name": "",
          "type": "string",
          "internalType": "string"
        }
      ],
      "stateMutability": "view"
    },
    {
      "type": "function",
      "name": "getTotalReservedCover",
      "inputs": [],
      "outputs": [
        {
          "name": "",
          "type": "uint256",
          "internalType": "uint256"
        }
      ],
      "stateMutability": "view"
    },
    {
      "type": "function",
      "name": "getWhitelistPrice",
      "inputs": [],
      "outputs": [
        {
          "name": "",
          "type": "uint256",
          "internalType": "uint256"
        }
      ],
      "stateMutability": "view"
    },
    {
      "type": "function",
      "name": "isApprovedForAll",
      "inputs": [
        {
          "name": "owner",
          "type": "address",
          "internalType": "address"
        },
        {
          "name": "operator",
          "type": "address",
          "internalType": "address"
        }
      ],
      "outputs": [
        {
          "name": "",
          "type": "bool",
          "internalType": "bool"
        }
      ],
      "stateMutability": "view"
    },
    {
      "type": "function",
      "name": "isPublic",
      "inputs": [],
      "outputs": [
        {
          "name": "",
          "type": "bool",
          "internalType": "bool"
        }
      ],
      "stateMutability": "view"
    },
    {
      "type": "function",
      "name": "mint",
      "inputs": [
        {
          "name": "_amount1",
          "type": "uint256",
          "internalType": "uint256"
        },
        {
          "name": "_amount2",
          "type": "uint256",
          "internalType": "uint256"
        }
      ],
      "outputs": [],
      "stateMutability": "payable"
    },
    {
      "type": "function",
      "name": "name",
      "inputs": [],
      "outputs": [
        {
          "name": "",
          "type": "string",
          "internalType": "string"
        }
      ],
      "stateMutability": "view"
    },
    {
      "type": "function",
      "name": "owner",
      "inputs": [],
      "outputs": [
        {
          "name": "",
          "type": "address",
          "internalType": "address"
        }
      ],
      "stateMutability": "view"
    },
    {
      "type": "function",
      "name": "ownerOf",
      "inputs": [
        {
          "name": "tokenId",
          "type": "uint256",
          "internalType": "uint256"
        }
      ],
      "outputs": [
        {
          "name": "",
          "type": "address",
          "internalType": "address"
        }
      ],
      "stateMutability": "view"
    },
    {
      "type": "function",
      "name": "privateWhitelistMint",
      "inputs": [
        {
          "name": "_amount1",
          "type": "uint256",
          "internalType": "uint256"
        },
        {
          "name": "_amount2",
          "type": "uint256",
          "internalType": "uint256"
        },
        {
          "name": "_amount1Sign",
          "type": "uint256",
          "internalType": "uint256"
        },
        {
          "name": "_amount2Sign",
          "type": "uint256",
          "internalType": "uint256"
        },
        {
          "name": "_sign",
          "type": "bytes",
          "internalType": "bytes"
        }
      ],
      "outputs": [],
      "stateMutability": "payable"
    },
    {
      "type": "function",
      "name": "renounceOwnership",
      "inputs": [],
      "outputs": [],
      "stateMutability": "nonpayable"
    },
    {
      "type": "function",
      "name": "royaltyInfo",
      "inputs": [
        {
          "name": "tokenId",
          "type": "uint256",
          "internalType": "uint256"
        },
        {
          "name": "salePrice",
          "type": "uint256",
          "internalType": "uint256"
        }
      ],
      "outputs": [
        {
          "name": "",
          "type": "address",
          "internalType": "address"
        },
        {
          "name": "",
          "type": "uint256",
          "internalType": "uint256"
        }
      ],
      "stateMutability": "view"
    },
    {
      "type": "function",
      "name": "safeTransferFrom",
      "inputs": [
        {
          "name": "from",
          "type": "address",
          "internalType": "address"
        },
        {
          "name": "to",
          "type": "address",
          "internalType": "address"
        },
        {
          "name": "tokenId",
          "type": "uint256",
          "internalType": "uint256"
        }
      ],
      "outputs": [],
      "stateMutability": "nonpayable"
    },
    {
      "type": "function",
      "name": "safeTransferFrom",
      "inputs": [
        {
          "name": "from",
          "type": "address",
          "internalType": "address"
        },
        {
          "name": "to",
          "type": "address",
          "internalType": "address"
        },
        {
          "name": "tokenId",
          "type": "uint256",
          "internalType": "uint256"
        },
        {
          "name": "data",
          "type": "bytes",
          "internalType": "bytes"
        }
      ],
      "outputs": [],
      "stateMutability": "nonpayable"
    },
    {
      "type": "function",
      "name": "sealSupply",
      "inputs": [],
      "outputs": [],
      "stateMutability": "nonpayable"
    },
    {
      "type": "function",
      "name": "setApprovalForAll",
      "inputs": [
        {
          "name": "operator",
          "type": "address",
          "internalType": "address"
        },
        {
          "name": "approved",
          "type": "bool",
          "internalType": "bool"
        }
      ],
      "outputs": [],
      "stateMutability": "nonpayable"
    },
    {
      "type": "function",
      "name": "setDefaultRoyalties",
      "inputs": [
        {
          "name": "_recipient",
          "type": "address",
          "internalType": "address"
        },
        {
          "name": "_feeNumerator",
          "type": "uint96",
          "internalType": "uint96"
        }
      ],
      "outputs": [],
      "stateMutability": "nonpayable"
    },
    {
      "type": "function",
      "name": "setFundsReceivers",
      "inputs": [
        {
          "name": "_firstReceiver",
          "type": "address",
          "internalType": "address"
        },
        {
          "name": "_secondReceiver",
          "type": "address",
          "internalType": "address"
        }
      ],
      "outputs": [],
      "stateMutability": "nonpayable"
    },
    {
      "type": "function",
      "name": "setMaxSupply",
      "inputs": [
        {
          "name": "_newMaxSupply",
          "type": "uint256",
          "internalType": "uint256"
        }
      ],
      "outputs": [],
      "stateMutability": "nonpayable"
    },
    {
      "type": "function",
      "name": "setPercentReceiver",
      "inputs": [
        {
          "name": "_percent",
          "type": "uint256",
          "internalType": "uint256"
        }
      ],
      "outputs": [],
      "stateMutability": "nonpayable"
    },
    {
      "type": "function",
      "name": "setPublic",
      "inputs": [
        {
          "name": "_public",
          "type": "bool",
          "internalType": "bool"
        }
      ],
      "outputs": [],
      "stateMutability": "nonpayable"
    },
    {
      "type": "function",
      "name": "setPublicPrice",
      "inputs": [
        {
          "name": "_newPublicPrice",
          "type": "uint256",
          "internalType": "uint256"
        }
      ],
      "outputs": [],
      "stateMutability": "nonpayable"
    },
    {
      "type": "function",
      "name": "setReserveToken1",
      "inputs": [
        {
          "name": "_amountToken1",
          "type": "uint256",
          "internalType": "uint256"
        }
      ],
      "outputs": [],
      "stateMutability": "nonpayable"
    },
    {
      "type": "function",
      "name": "setReserveToken2",
      "inputs": [
        {
          "name": "_amountToken2",
          "type": "uint256",
          "internalType": "uint256"
        }
      ],
      "outputs": [],
      "stateMutability": "nonpayable"
    },
    {
      "type": "function",
      "name": "setSigner",
      "inputs": [
        {
          "name": "_newSigner",
          "type": "address",
          "internalType": "address"
        }
      ],
      "outputs": [],
      "stateMutability": "nonpayable"
    },
    {
      "type": "function",
      "name": "setWhitelistPrice",
      "inputs": [
        {
          "name": "_newWhitelistPrice",
          "type": "uint256",
          "internalType": "uint256"
        }
      ],
      "outputs": [],
      "stateMutability": "nonpayable"
    },
    {
      "type": "function",
      "name": "supplySealed",
      "inputs": [],
      "outputs": [
        {
          "name": "",
          "type": "bool",
          "internalType": "bool"
        }
      ],
      "stateMutability": "view"
    },
    {
      "type": "function",
      "name": "supportsInterface",
      "inputs": [
        {
          "name": "interfaceId",
          "type": "bytes4",
          "internalType": "bytes4"
        }
      ],
      "outputs": [
        {
          "name": "",
          "type": "bool",
          "internalType": "bool"
        }
      ],
      "stateMutability": "view"
    },
    {
      "type": "function",
      "name": "symbol",
      "inputs": [],
      "outputs": [
        {
          "name": "",
          "type": "string",
          "internalType": "string"
        }
      ],
      "stateMutability": "view"
    },
    {
      "type": "function",
      "name": "tokenProofPermanent",
      "inputs": [
        {
          "name": "tokenId",
          "type": "uint256",
          "internalType": "uint256"
        }
      ],
      "outputs": [
        {
          "name": "",
          "type": "string",
          "internalType": "string"
        }
      ],
      "stateMutability": "view"
    },
    {
      "type": "function",
      "name": "tokenURI",
      "inputs": [
        {
          "name": "tokenId",
          "type": "uint256",
          "internalType": "uint256"
        }
      ],
      "outputs": [
        {
          "name": "",
          "type": "string",
          "internalType": "string"
        }
      ],
      "stateMutability": "view"
    },
    {
      "type": "function",
      "name": "transferFrom",
      "inputs": [
        {
          "name": "from",
          "type": "address",
          "internalType": "address"
        },
        {
          "name": "to",
          "type": "address",
          "internalType": "address"
        },
        {
          "name": "tokenId",
          "type": "uint256",
          "internalType": "uint256"
        }
      ],
      "outputs": [],
      "stateMutability": "nonpayable"
    },
    {
      "type": "function",
      "name": "transferOwnership",
      "inputs": [
        {
          "name": "newOwner",
          "type": "address",
          "internalType": "address"
        }
      ],
      "outputs": [],
      "stateMutability": "nonpayable"
    },
    {
      "type": "function",
      "name": "whitelistMint",
      "inputs": [
        {
          "name": "_amount1",
          "type": "uint256",
          "internalType": "uint256"
        },
        {
          "name": "_amount2",
          "type": "uint256",
          "internalType": "uint256"
        },
        {
          "name": "_amount1Sign",
          "type": "uint256",
          "internalType": "uint256"
        },
        {
          "name": "_amount2Sign",
          "type": "uint256",
          "internalType": "uint256"
        },
        {
          "name": "_sign",
          "type": "bytes",
          "internalType": "bytes"
        }
      ],
      "outputs": [],
      "stateMutability": "payable"
    },
    {
      "type": "function",
      "name": "withdraw",
      "inputs": [],
      "outputs": [],
      "stateMutability": "nonpayable"
    },
    {
      "type": "event",
      "name": "Approval",
      "inputs": [
        {
          "name": "owner",
          "type": "address",
          "indexed": true,
          "internalType": "address"
        },
        {
          "name": "approved",
          "type": "address",
          "indexed": true,
          "internalType": "address"
        },
        {
          "name": "tokenId",
          "type": "uint256",
          "indexed": true,
          "internalType": "uint256"
        }
      ],
      "anonymous": false
    },
    {
      "type": "event",
      "name": "ApprovalForAll",
      "inputs": [
        {
          "name": "owner",
          "type": "address",
          "indexed": true,
          "internalType": "address"
        },
        {
          "name": "operator",
          "type": "address",
          "indexed": true,
          "internalType": "address"
        },
        {
          "name": "approved",
          "type": "bool",
          "indexed": false,
          "internalType": "bool"
        }
      ],
      "anonymous": false
    },
    {
      "type": "event",
      "name": "OwnershipTransferred",
      "inputs": [
        {
          "name": "previousOwner",
          "type": "address",
          "indexed": true,
          "internalType": "address"
        },
        {
          "name": "newOwner",
          "type": "address",
          "indexed": true,
          "internalType": "address"
        }
      ],
      "anonymous": false
    },
    {
      "type": "event",
      "name": "Transfer",
      "inputs": [
        {
          "name": "from",
          "type": "address",
          "indexed": true,
          "internalType": "address"
        },
        {
          "name": "to",
          "type": "address",
          "indexed": true,
          "internalType": "address"
        },
        {
          "name": "tokenId",
          "type": "uint256",
          "indexed": true,
          "internalType": "uint256"
        }
      ],
      "anonymous": false
    },
    {
      "type": "error",
      "name": "FeeExceed10Percent",
      "inputs": []
    },
    {
      "type": "error",
      "name": "MaxSupplyCanNotBeLowerThanActual",
      "inputs": []
    },
    {
      "type": "error",
      "name": "MaxSupplyCanNotBeMoreThan500",
      "inputs": []
    },
    {
      "type": "error",
      "name": "MaxSupplyCanNotbeOdd",
      "inputs": []
    },
    {
      "type": "error",
      "name": "NoReserveToken1",
      "inputs": []
    },
    {
      "type": "error",
      "name": "NoReserveToken2",
      "inputs": []
    },
    {
      "type": "error",
      "name": "PercentCanNotBeMoreThan100Percent",
      "inputs": []
    },
    {
      "type": "error",
      "name": "PublicSaleNotStarted",
      "inputs": []
    },
    {
      "type": "error",
      "name": "SupplySealed",
      "inputs": []
    },
    {
      "type": "error",
      "name": "WihdrawToZeroAddress",
      "inputs": []
    },
    {
      "type": "error",
      "name": "ZeroAddress",
      "inputs": []
    },
    {
      "type": "error",
      "name": "exceedAllowedToken1Mint",
      "inputs": []
    },
    {
      "type": "error",
      "name": "exceedAllowedToken2Mint",
      "inputs": []
    },
    {
      "type": "error",
      "name": "failWhithdraw",
      "inputs": []
    },
    {
      "type": "error",
      "name": "invalidAmountSend",
      "inputs": []
    },
    {
      "type": "error",
      "name": "invalidSignature",
      "inputs": []
    },
    {
      "type": "error",
      "name": "maxSupplyToken1Reach",
      "inputs": []
    },
    {
      "type": "error",
      "name": "maxSupplyToken2Reach",
      "inputs": []
    },
    {
      "type": "error",
      "name": "noSupplyAvailableToken1",
      "inputs": []
    },
    {
      "type": "error",
      "name": "noSupplyAvailableToken2",
      "inputs": []
    },
    {
      "type": "error",
      "name": "whithdrawZeroValue",
      "inputs": []
    }
  ],
  "bytecode": {
    "object": "0x60e06040526035608081815290620039c860a039600b90620000229082620004b4565b5060405180606001604052806035815260200162003a3d60359139600c906200004c9082620004b4565b5060405180606001604052806035815260200162003aa260359139600d90620000769082620004b4565b5060405180606001604052806030815260200162003a7260309139600e90620000a09082620004b4565b5060405180606001604052806040815260200162003ad760409139600f90620000ca9082620004b4565b50604051806060016040528060408152602001620039fd60409139601090620000f49082620004b4565b5061012c60115560006012819055601355670106e69ba16100006014556701434c04928f800060155560286016556023601755611770601855601980546001600160a01b0319167390d41fa17a8df96e7dff80227b4fc7d208dfd0261790553480156200016057600080fd5b506040518060400160405280601381526020017f554e444f5858454420424f4f4b20566f6c2e31000000000000000000000000008152506040518060400160405280600781526020016615539116160c8d60ca1b8152508160009081620001c89190620004b4565b506001620001d78282620004b4565b505050620001f4620001ee6200024060201b60201c565b62000244565b604080518082019091523381527319c013b64b7b2c7daa59b96514662b687665e85260208201526200022b90601a9060026200039b565b506200023a3361012c62000296565b62000580565b3390565b600680546001600160a01b038381166001600160a01b0319831681179093556040519116919082907f8be0079c531659141344cd1fd0a4f28419497f9722a3daafe3b4186f6b6457e090600090a35050565b6127106001600160601b03821611156200030a5760405162461bcd60e51b815260206004820152602a60248201527f455243323938313a20726f79616c7479206665652077696c6c206578636565646044820152692073616c65507269636560b01b60648201526084015b60405180910390fd5b6001600160a01b038216620003625760405162461bcd60e51b815260206004820152601960248201527f455243323938313a20696e76616c696420726563656976657200000000000000604482015260640162000301565b604080518082019091526001600160a01b039092168083526001600160601b039091166020909201829052600160a01b90910217600755565b8260028101928215620003e6579160200282015b82811115620003e657825182546001600160a01b0319166001600160a01b03909116178255602090920191600190910190620003af565b50620003f4929150620003f8565b5090565b5b80821115620003f45760008155600101620003f9565b634e487b7160e01b600052604160045260246000fd5b600181811c908216806200043a57607f821691505b6020821081036200045b57634e487b7160e01b600052602260045260246000fd5b50919050565b601f821115620004af57600081815260208120601f850160051c810160208610156200048a5750805b601f850160051c820191505b81811015620004ab5782815560010162000496565b5050505b505050565b81516001600160401b03811115620004d057620004d06200040f565b620004e881620004e1845462000425565b8462000461565b602080601f831160018114620005205760008415620005075750858301515b600019600386901b1c1916600185901b178555620004ab565b600085815260208120601f198616915b82811015620005515788860151825594840194600190910190840162000530565b5085821015620005705787850151600019600388901b60f8161c191681555b5050505050600190811b01905550565b61343880620005906000396000f3fe6080604052600436106102ff5760003560e01c80637b4b0a4311610190578063d44ae1e3116100dc578063e985e9c511610095578063f029da5c1161006f578063f029da5c1461089d578063f2fde38b146108b0578063fb5d9aea146108d0578063fee4a6b4146108f057600080fd5b8063e985e9c514610852578063eae241ac14610872578063f01c94741461088857600080fd5b8063d44ae1e3146107b9578063d70e6892146107d9578063db2e21bc146107ee578063dbe16c0714610803578063dc9a153514610823578063de914f261461083d57600080fd5b8063aec7a9a011610149578063bb13486e11610123578063bb13486e14610724578063c627525514610759578063c87b56dd14610779578063cd02771a1461079957600080fd5b8063aec7a9a0146106d1578063b0b6099d146106e4578063b88d4fde1461070457600080fd5b80637b4b0a431461062757806385ac09c0146106495780638b927e14146106695780638da5cb5b1461067e57806395d89b411461069c578063a22cb465146106b157600080fd5b8063363e86fe1161024f5780636352211e1161020857806370a08231116101e257806370a08231146105bd578063715018a6146105dd578063717d57d3146105f25780637695c7441461061257600080fd5b80636352211e1461055d5780636c19e7831461057d5780636f8b44b01461059d57600080fd5b8063363e86fe146104c95780633c52ad56146104de5780633ccfd60b146104f357806342842e0e146105085780634c0f38c2146105285780635cbcec4e1461053d57600080fd5b80631a092541116102bc57806323b872dd1161029657806323b872dd1461042b5780632a55205a1461044b5780632c3a0f221461048a5780632ef06a5d146104aa57600080fd5b80631a092541146103ee5780631aca9e6a146104035780631b2ef1ca1461041857600080fd5b806301ffc9a71461030457806304bc96781461033957806306fdde031461035d578063081812fc1461037f578063095ea7b3146103b75780630da51cd7146103d9575b600080fd5b34801561031057600080fd5b5061032461031f366004612a39565b610910565b60405190151581526020015b60405180910390f35b34801561034557600080fd5b5061034f60175481565b604051908152602001610330565b34801561036957600080fd5b50610372610921565b6040516103309190612aad565b34801561038b57600080fd5b5061039f61039a366004612ac0565b6109b3565b6040516001600160a01b039091168152602001610330565b3480156103c357600080fd5b506103d76103d2366004612af5565b6109da565b005b3480156103e557600080fd5b5060145461034f565b3480156103fa57600080fd5b50610372610af4565b34801561040f57600080fd5b5061034f610b17565b6103d7610426366004612b1f565b610b2d565b34801561043757600080fd5b506103d7610446366004612b41565b610c15565b34801561045757600080fd5b5061046b610466366004612b1f565b610c46565b604080516001600160a01b039093168352602083019190915201610330565b34801561049657600080fd5b506103d76104a5366004612ac0565b610cf2565b3480156104b657600080fd5b50601c5461032490610100900460ff1681565b3480156104d557600080fd5b5060155461034f565b3480156104ea57600080fd5b506103d7610d34565b3480156104ff57600080fd5b506103d7610d58565b34801561051457600080fd5b506103d7610523366004612b41565b610ed3565b34801561053457600080fd5b5060115461034f565b34801561054957600080fd5b506103d7610558366004612b8d565b610eee565b34801561056957600080fd5b5061039f610578366004612ac0565b610f09565b34801561058957600080fd5b506103d7610598366004612ba8565b610f69565b3480156105a957600080fd5b506103d76105b8366004612ac0565b610f93565b3480156105c957600080fd5b5061034f6105d8366004612ba8565b611051565b3480156105e957600080fd5b506103d76110d7565b3480156105fe57600080fd5b506103d761060d366004612ac0565b6110eb565b34801561061e57600080fd5b506103726110f8565b34801561063357600080fd5b5061063c611118565b6040516103309190612bc3565b34801561065557600080fd5b506103d7610664366004612cb3565b61124e565b34801561067557600080fd5b5060125461034f565b34801561068a57600080fd5b506006546001600160a01b031661039f565b3480156106a857600080fd5b50610372611477565b3480156106bd57600080fd5b506103d76106cc366004612d17565b611486565b6103d76106df366004612cb3565b611495565b3480156106f057600080fd5b506103d76106ff366004612ac0565b611641565b34801561071057600080fd5b506103d761071f366004612d4a565b611683565b34801561073057600080fd5b5061074461073f366004612db2565b6116b5565b60408051928352602083019190915201610330565b34801561076557600080fd5b506103d7610774366004612ac0565b6116ff565b34801561078557600080fd5b50610372610794366004612ac0565b61170c565b3480156107a557600080fd5b506103d76107b4366004612de7565b61180a565b3480156107c557600080fd5b506103d76107d4366004612e2a565b611848565b3480156107e557600080fd5b5061034f6118b9565b3480156107fa57600080fd5b506103d76118cb565b34801561080f57600080fd5b5061037261081e366004612ac0565b61193f565b34801561082f57600080fd5b50601c546103249060ff1681565b34801561084957600080fd5b5060135461034f565b34801561085e57600080fd5b5061032461086d366004612e2a565b6119df565b34801561087e57600080fd5b5061034f60165481565b34801561089457600080fd5b5061034f611a0d565b6103d76108ab366004612cb3565b611a1f565b3480156108bc57600080fd5b506103d76108cb366004612ba8565b611bf7565b3480156108dc57600080fd5b506103d76108eb366004612ac0565b611c6d565b3480156108fc57600080fd5b5061037261090b366004612ac0565b611c9d565b600061091b82611ddd565b92915050565b60606000805461093090612e54565b80601f016020809104026020016040519081016040528092919081815260200182805461095c90612e54565b80156109a95780601f1061097e576101008083540402835291602001916109a9565b820191906000526020600020905b81548152906001019060200180831161098c57829003601f168201915b5050505050905090565b60006109be82611e02565b506000908152600460205260409020546001600160a01b031690565b60006109e582610f09565b9050806001600160a01b0316836001600160a01b031603610a575760405162461bcd60e51b815260206004820152602160248201527f4552433732313a20617070726f76616c20746f2063757272656e74206f776e656044820152603960f91b60648201526084015b60405180910390fd5b336001600160a01b0382161480610a735750610a7381336119df565b610ae55760405162461bcd60e51b815260206004820152603d60248201527f4552433732313a20617070726f76652063616c6c6572206973206e6f7420746f60448201527f6b656e206f776e6572206f7220617070726f76656420666f7220616c6c0000006064820152608401610a4e565b610aef8383611e61565b505050565b6060604051806101a0016040528061017381526020016132906101739139905090565b60006002601154610b289190612eba565b905090565b336000610b38610b17565b601c5490915060ff16610b5e5760405163ac4d09c760e01b815260040160405180910390fd5b8060165485601254610b709190612ece565b610b7a9190612ece565b1115610b99576040516306ab2e5160e01b815260040160405180910390fd5b8060175484601354610bab9190612ece565b610bb59190612ece565b1115610bd45760405163c62be36d60e01b815260040160405180910390fd5b34601554848601021115610bfb57604051631bfc08e760e11b815260040160405180910390fd5b610c058285611ecf565b610c0f8284611f9a565b50505050565b610c1f3382611fe2565b610c3b5760405162461bcd60e51b8152600401610a4e90612ee1565b610aef838383612041565b60008281526008602090815260408083208151808301909252546001600160a01b038116808352600160a01b9091046001600160601b0316928201929092528291610cbb5750604080518082019091526007546001600160a01b0381168252600160a01b90046001600160601b031660208201525b602081015160009061271090610cda906001600160601b031687612f2e565b610ce49190612eba565b915196919550909350505050565b610cfa6121a5565b610d02610b17565b81601354610d109190612ece565b1115610d2f576040516313f38bd360e11b815260040160405180910390fd5b601755565b610d3c6121a5565b610d44611a0d565b601155601c805461ff001916610100179055565b610d606121a5565b601a546001600160a01b03161580610d815750601b546001600160a01b0316155b15610d9f57604051633bbc0f0760e01b815260040160405180910390fd5b476000819003610dc2576040516304abc4f760e21b815260040160405180910390fd5b600061271060185483610dd59190612f2e565b610ddf9190612eba565b601a546040519192506000916001600160a01b039091169083908381818185875af1925050503d8060008114610e31576040519150601f19603f3d011682016040523d82523d6000602084013e610e36565b606091505b5050905080610e58576040516391ac981760e01b815260040160405180910390fd5b601b546001600160a01b0316610e6e8385612f45565b604051600081818185875af1925050503d8060008114610eaa576040519150601f19603f3d011682016040523d82523d6000602084013e610eaf565b606091505b50508091505080610aef576040516391ac981760e01b815260040160405180910390fd5b610aef83838360405180602001604052806000815250611683565b610ef66121a5565b601c805460ff1916911515919091179055565b6000818152600260205260408120546001600160a01b03168061091b5760405162461bcd60e51b8152602060048201526018602482015277115490cdcc8c4e881a5b9d985b1a59081d1bdad95b88125160421b6044820152606401610a4e565b610f716121a5565b601980546001600160a01b0319166001600160a01b0392909216919091179055565b610f9b6121a5565b6101f4811115610fbe57604051632a1601a160e11b815260040160405180910390fd5b610fc9600282612f58565b600103610fe957604051635461466f60e01b815260040160405180910390fd5b610ff16118b9565b610ff9611a0d565b6110039190612ece565b8110156110235760405163cddfa3f160e01b815260040160405180910390fd5b601c54610100900460ff161561104c576040516331479d0960e01b815260040160405180910390fd5b601155565b60006001600160a01b0382166110bb5760405162461bcd60e51b815260206004820152602960248201527f4552433732313a2061646472657373207a65726f206973206e6f7420612076616044820152683634b21037bbb732b960b91b6064820152608401610a4e565b506001600160a01b031660009081526003602052604090205490565b6110df6121a5565b6110e960006121ff565b565b6110f36121a5565b601455565b606060405180606001604052806040815260200161325060409139905090565b6111206129fc565b6040518060400160405280600d805461113890612e54565b80601f016020809104026020016040519081016040528092919081815260200182805461116490612e54565b80156111b15780601f10611186576101008083540402835291602001916111b1565b820191906000526020600020905b81548152906001019060200180831161119457829003601f168201915b50505050508152602001600e80546111c890612e54565b80601f01602080910402602001604051908101604052809291908181526020018280546111f490612e54565b80156112415780601f1061121657610100808354040283529160200191611241565b820191906000526020600020905b81548152906001019060200180831161122457829003601f168201915b5050505050815250905090565b6019543390849084906001908590611273906001600160a01b03168686868686612251565b611290576040516368e6090160e11b815260040160405180910390fd5b33600061129b610b17565b905089601d896040516112ae9190612f6c565b9081526020016040518091039020548d6112c89190612ece565b11156112e757604051632508c3ed60e11b815260040160405180910390fd5b88601e896040516112f89190612f6c565b9081526020016040518091039020548c6113129190612ece565b11156113315760405163d4b4828d60e01b815260040160405180910390fd5b808c6012546113409190612ece565b111561135f576040516306ab2e5160e01b815260040160405180910390fd5b808b60135461136e9190612ece565b111561138d5760405163c62be36d60e01b815260040160405180910390fd5b6016548c11156113b0576040516306b347d360e51b815260040160405180910390fd5b6017548b11156113d35760405163783aece160e11b815260040160405180910390fd5b8b601d896040516113e49190612f6c565b90815260405190819003602001812080549092019091558b90601e9061140b908b90612f6c565b90815260405190819003602001902080549091019055601680548d9190600090611436908490612f45565b925050819055508a6017600082825461144f9190612f45565b9091555061145f9050828d611ecf565b611469828c611f9a565b505050505050505050505050565b60606001805461093090612e54565b6114913383836122e8565b5050565b60195433908490849060069085906114ba906001600160a01b03168686868686612251565b6114d7576040516368e6090160e11b815260040160405180910390fd5b3360006114e2610b17565b905089601d896040516114f59190612f6c565b9081526020016040518091039020548d61150f9190612ece565b111561152e57604051632508c3ed60e11b815260040160405180910390fd5b88601e8960405161153f9190612f6c565b9081526020016040518091039020548c6115599190612ece565b11156115785760405163d4b4828d60e01b815260040160405180910390fd5b808c6012546115879190612ece565b11156115a6576040516306ab2e5160e01b815260040160405180910390fd5b808b6013546115b59190612ece565b11156115d45760405163c62be36d60e01b815260040160405180910390fd5b6016548c11156115f7576040516306b347d360e51b815260040160405180910390fd5b6017548b111561161a5760405163783aece160e11b815260040160405180910390fd5b346014548c8e010211156113d357604051631bfc08e760e11b815260040160405180910390fd5b6116496121a5565b611651610b17565b8160125461165f9190612ece565b111561167e5760405163ba14ba6f60e01b815260040160405180910390fd5b601655565b61168d3383611fe2565b6116a95760405162461bcd60e51b8152600401610a4e90612ee1565b610c0f848484846123b6565b600080601d836040516116c89190612f6c565b9081526020016040518091039020549150601e836040516116e99190612f6c565b9081526020016040518091039020549050915091565b6117076121a5565b601555565b6000818152600260205260409020546060906001600160a01b031661173f57505060408051602081019091526000815290565b600f60405161174e9190612f88565b604051809103902061175f83611c9d565b80519060200120036117fd57600b805461177890612e54565b80601f01602080910402602001604051908101604052809291908181526020018280546117a490612e54565b80156117f15780601f106117c6576101008083540402835291602001916117f1565b820191906000526020600020905b8154815290600101906020018083116117d457829003601f168201915b50505050509050919050565b600c805461177890612e54565b6118126121a5565b6103e8816001600160601b0316111561183e57604051633f3aca3d60e21b815260040160405180910390fd5b61149182826123e9565b6118506121a5565b6001600160a01b038216158061186d57506001600160a01b038116155b1561188b5760405163d92e233d60e01b815260040160405180910390fd5b601a80546001600160a01b039384166001600160a01b031991821617909155601b8054929093169116179055565b6000601754601654610b289190612ece565b6118d36121a5565b604051600090339047908381818185875af1925050503d8060008114611915576040519150601f19603f3d011682016040523d82523d6000602084013e61191a565b606091505b505090508061193c576040516391ac981760e01b815260040160405180910390fd5b50565b6060600f6040516119509190612f88565b604051809103902061196183611c9d565b80519060200120036119a657505060408051808201909152601981527f554e444f5858454420424f4f4b20766f6c2e3120426c61636b00000000000000602082015290565b505060408051808201909152601a81527f554e444f5858454420424f4f4b20766f6c2e3120507572706c65000000000000602082015290565b6001600160a01b03918216600090815260056020908152604080832093909416825291909152205460ff1690565b6000601354601254610b289190612ece565b6019543390849084906002908590611a44906001600160a01b03168686868686612251565b611a61576040516368e6090160e11b815260040160405180910390fd5b336000611a6c610b17565b905089601d89604051611a7f9190612f6c565b9081526020016040518091039020548d611a999190612ece565b1115611ab857604051632508c3ed60e11b815260040160405180910390fd5b88601e89604051611ac99190612f6c565b9081526020016040518091039020548c611ae39190612ece565b1115611b025760405163d4b4828d60e01b815260040160405180910390fd5b806016548d601254611b149190612ece565b611b1e9190612ece565b1115611b3d576040516306ab2e5160e01b815260040160405180910390fd5b806017548c601354611b4f9190612ece565b611b599190612ece565b1115611b785760405163c62be36d60e01b815260040160405180910390fd5b346014548c8e01021115611b9f57604051631bfc08e760e11b815260040160405180910390fd5b8b601d89604051611bb09190612f6c565b90815260405190819003602001812080549092019091558b90601e90611bd7908b90612f6c565b9081526040519081900360200190208054909101905561145f828d611ecf565b611bff6121a5565b6001600160a01b038116611c645760405162461bcd60e51b815260206004820152602660248201527f4f776e61626c653a206e6577206f776e657220697320746865207a65726f206160448201526564647265737360d01b6064820152608401610a4e565b61193c816121ff565b611c756121a5565b612710811115611c9857604051630f1cc57b60e01b815260040160405180910390fd5b601855565b6060611ca882611e02565b6000828152600a602052604081208054611cc190612e54565b80601f0160208091040260200160405190810160405280929190818152602001828054611ced90612e54565b8015611d3a5780601f10611d0f57610100808354040283529160200191611d3a565b820191906000526020600020905b815481529060010190602001808311611d1d57829003601f168201915b50505050509050805160000361091b5760098054611d5790612e54565b80601f0160208091040260200160405190810160405280929190818152602001828054611d8390612e54565b8015611dd05780601f10611da557610100808354040283529160200191611dd0565b820191906000526020600020905b815481529060010190602001808311611db357829003601f168201915b5050505050915050919050565b60006001600160e01b0319821663152a902d60e11b148061091b575061091b826124e6565b6000818152600260205260409020546001600160a01b031661193c5760405162461bcd60e51b8152602060048201526018602482015277115490cdcc8c4e881a5b9d985b1a59081d1bdad95b88125160421b6044820152606401610a4e565b600081815260046020526040902080546001600160a01b0319166001600160a01b0384169081179091558190611e9682610f09565b6001600160a01b03167f8c5be1e5ebec7d5bd14f71427d1e84f3dd0314c0f7b2291e5b200ac8c7c3b92560405160405180910390a45050565b60005b81811015610aef576000611ee4611a0d565b6001019050611ef38482612536565b611f8781600f8054611f0490612e54565b80601f0160208091040260200160405190810160405280929190818152602001828054611f3090612e54565b8015611f7d5780601f10611f5257610100808354040283529160200191611f7d565b820191906000526020600020905b815481529060010190602001808311611f6057829003601f168201915b50505050506126c1565b5060128054600190810190915501611ed2565b60005b81811015610aef576000611faf611a0d565b6001019050611fbe8482612536565b611fcf8160108054611f0490612e54565b5060138054600190810190915501611f9d565b600080611fee83610f09565b9050806001600160a01b0316846001600160a01b03161480612015575061201581856119df565b806120395750836001600160a01b031661202e846109b3565b6001600160a01b0316145b949350505050565b826001600160a01b031661205482610f09565b6001600160a01b03161461207a5760405162461bcd60e51b8152600401610a4e90612ffe565b6001600160a01b0382166120dc5760405162461bcd60e51b8152602060048201526024808201527f4552433732313a207472616e7366657220746f20746865207a65726f206164646044820152637265737360e01b6064820152608401610a4e565b826001600160a01b03166120ef82610f09565b6001600160a01b0316146121155760405162461bcd60e51b8152600401610a4e90612ffe565b600081815260046020908152604080832080546001600160a01b03199081169091556001600160a01b0387811680865260038552838620805460001901905590871680865283862080546001019055868652600290945282852080549092168417909155905184937fddf252ad1be2c89b69c2b068fc378daa952ba7f163c4a11628f55a4df523b3ef91a4505050565b6006546001600160a01b031633146110e95760405162461bcd60e51b815260206004820181905260248201527f4f776e61626c653a2063616c6c6572206973206e6f7420746865206f776e65726044820152606401610a4e565b600680546001600160a01b038381166001600160a01b0319831681179093556040519116919082907f8be0079c531659141344cd1fd0a4f28419497f9722a3daafe3b4186f6b6457e090600090a35050565b600080612260878787876127d2565b905060006122bb826040517f19457468657265756d205369676e6564204d6573736167653a0a3332000000006020820152603c8101829052600090605c01604051602081830303815290604052805190602001209050919050565b9050886001600160a01b03166122d1828661280b565b6001600160a01b0316149998505050505050505050565b816001600160a01b0316836001600160a01b0316036123495760405162461bcd60e51b815260206004820152601960248201527f4552433732313a20617070726f766520746f2063616c6c6572000000000000006044820152606401610a4e565b6001600160a01b03838116600081815260056020908152604080832094871680845294825291829020805460ff191686151590811790915591519182527f17307eab39ab6107e8899845ad3d59bd9653f200f220920489ca2b5937696c31910160405180910390a3505050565b6123c1848484612041565b6123cd8484848461288a565b610c0f5760405162461bcd60e51b8152600401610a4e90613043565b6127106001600160601b03821611156124575760405162461bcd60e51b815260206004820152602a60248201527f455243323938313a20726f79616c7479206665652077696c6c206578636565646044820152692073616c65507269636560b01b6064820152608401610a4e565b6001600160a01b0382166124ad5760405162461bcd60e51b815260206004820152601960248201527f455243323938313a20696e76616c6964207265636569766572000000000000006044820152606401610a4e565b604080518082019091526001600160a01b039092168083526001600160601b039091166020909201829052600160a01b90910217600755565b60006001600160e01b031982166380ac58cd60e01b148061251757506001600160e01b03198216635b5e139f60e01b145b8061091b57506301ffc9a760e01b6001600160e01b031983161461091b565b6001600160a01b03821661258c5760405162461bcd60e51b815260206004820181905260248201527f4552433732313a206d696e7420746f20746865207a65726f20616464726573736044820152606401610a4e565b6000818152600260205260409020546001600160a01b0316156125f15760405162461bcd60e51b815260206004820152601c60248201527f4552433732313a20746f6b656e20616c7265616479206d696e746564000000006044820152606401610a4e565b6000818152600260205260409020546001600160a01b0316156126565760405162461bcd60e51b815260206004820152601c60248201527f4552433732313a20746f6b656e20616c7265616479206d696e746564000000006044820152606401610a4e565b6001600160a01b038216600081815260036020908152604080832080546001019055848352600290915280822080546001600160a01b0319168417905551839291907fddf252ad1be2c89b69c2b068fc378daa952ba7f163c4a11628f55a4df523b3ef908290a45050565b6000828152600260205260409020546001600160a01b03166127425760405162461bcd60e51b815260206004820152603460248201527f4552433732315065726d616e656e7450726f6f663a2050726f6f66207365742060448201527337b3103737b732bc34b9ba32b73a103a37b5b2b760611b6064820152608401610a4e565b6000828152600a60205260409020805461275b90612e54565b1590506127ba5760405162461bcd60e51b815260206004820152602760248201527f4552433732315065726d616e656e7450726f6f663a2050726f6f6620616c726560448201526618591e481cd95d60ca1b6064820152608401610a4e565b6000828152600a60205260409020610aef82826130e3565b6000848484846040516020016127eb94939291906131a3565b604051602081830303815290604052805190602001209050949350505050565b60008060008061281a85612988565b6040805160008152602081018083528b905260ff8316918101919091526060810184905260808101839052929550909350915060019060a0016020604051602081039080840390855afa158015612875573d6000803e3d6000fd5b5050604051601f190151979650505050505050565b60006001600160a01b0384163b1561298057604051630a85bd0160e11b81526001600160a01b0385169063150b7a02906128ce9033908990889088906004016131f5565b6020604051808303816000875af1925050508015612909575060408051601f3d908101601f1916820190925261290691810190613232565b60015b612966573d808015612937576040519150601f19603f3d011682016040523d82523d6000602084013e61293c565b606091505b50805160000361295e5760405162461bcd60e51b8152600401610a4e90613043565b805181602001fd5b6001600160e01b031916630a85bd0160e11b149050612039565b506001612039565b600080600083516041146129de5760405162461bcd60e51b815260206004820152601860248201527f696e76616c6964207369676e6174757265206c656e67746800000000000000006044820152606401610a4e565b50505060208101516040820151606090920151909260009190911a90565b60405180604001604052806002905b6060815260200190600190039081612a0b5790505090565b6001600160e01b03198116811461193c57600080fd5b600060208284031215612a4b57600080fd5b8135612a5681612a23565b9392505050565b60005b83811015612a78578181015183820152602001612a60565b50506000910152565b60008151808452612a99816020860160208601612a5d565b601f01601f19169290920160200192915050565b602081526000612a566020830184612a81565b600060208284031215612ad257600080fd5b5035919050565b80356001600160a01b0381168114612af057600080fd5b919050565b60008060408385031215612b0857600080fd5b612b1183612ad9565b946020939093013593505050565b60008060408385031215612b3257600080fd5b50508035926020909101359150565b600080600060608486031215612b5657600080fd5b612b5f84612ad9565b9250612b6d60208501612ad9565b9150604084013590509250925092565b80358015158114612af057600080fd5b600060208284031215612b9f57600080fd5b612a5682612b7d565b600060208284031215612bba57600080fd5b612a5682612ad9565b60208082526000906060830183820185845b6002811015612c0457601f19878503018352612bf2848351612a81565b93509184019190840190600101612bd5565b50919695505050505050565b634e487b7160e01b600052604160045260246000fd5b600082601f830112612c3757600080fd5b813567ffffffffffffffff80821115612c5257612c52612c10565b604051601f8301601f19908116603f01168101908282118183101715612c7a57612c7a612c10565b81604052838152866020858801011115612c9357600080fd5b836020870160208301376000602085830101528094505050505092915050565b600080600080600060a08688031215612ccb57600080fd5b85359450602086013593506040860135925060608601359150608086013567ffffffffffffffff811115612cfe57600080fd5b612d0a88828901612c26565b9150509295509295909350565b60008060408385031215612d2a57600080fd5b612d3383612ad9565b9150612d4160208401612b7d565b90509250929050565b60008060008060808587031215612d6057600080fd5b612d6985612ad9565b9350612d7760208601612ad9565b925060408501359150606085013567ffffffffffffffff811115612d9a57600080fd5b612da687828801612c26565b91505092959194509250565b600060208284031215612dc457600080fd5b813567ffffffffffffffff811115612ddb57600080fd5b61203984828501612c26565b60008060408385031215612dfa57600080fd5b612e0383612ad9565b915060208301356001600160601b0381168114612e1f57600080fd5b809150509250929050565b60008060408385031215612e3d57600080fd5b612e4683612ad9565b9150612d4160208401612ad9565b600181811c90821680612e6857607f821691505b602082108103612e8857634e487b7160e01b600052602260045260246000fd5b50919050565b634e487b7160e01b600052601260045260246000fd5b634e487b7160e01b600052601160045260246000fd5b600082612ec957612ec9612e8e565b500490565b8082018082111561091b5761091b612ea4565b6020808252602d908201527f4552433732313a2063616c6c6572206973206e6f7420746f6b656e206f776e6560408201526c1c881bdc88185c1c1c9bdd9959609a1b606082015260800190565b808202811582820484141761091b5761091b612ea4565b8181038181111561091b5761091b612ea4565b600082612f6757612f67612e8e565b500690565b60008251612f7e818460208701612a5d565b9190910192915050565b6000808354612f9681612e54565b60018281168015612fae5760018114612fc357612ff2565b60ff1984168752821515830287019450612ff2565b8760005260208060002060005b85811015612fe95781548a820152908401908201612fd0565b50505082870194505b50929695505050505050565b60208082526025908201527f4552433732313a207472616e736665722066726f6d20696e636f72726563742060408201526437bbb732b960d91b606082015260800190565b60208082526032908201527f4552433732313a207472616e7366657220746f206e6f6e20455243373231526560408201527131b2b4bb32b91034b6b83632b6b2b73a32b960711b606082015260800190565b601f821115610aef57600081815260208120601f850160051c810160208610156130bc5750805b601f850160051c820191505b818110156130db578281556001016130c8565b505050505050565b815167ffffffffffffffff8111156130fd576130fd612c10565b6131118161310b8454612e54565b84613095565b602080601f831160018114613146576000841561312e5750858301515b600019600386901b1c1916600185901b1785556130db565b600085815260208120601f198616915b8281101561317557888601518255948401946001909101908401613156565b50858210156131935787850151600019600388901b60f8161c191681555b5050505050600190811b01905550565b6001600160601b03198560601b1681528360148201528260348201526000600783106131df57634e487b7160e01b600052602160045260246000fd5b5060f89190911b60548201526055019392505050565b6001600160a01b038581168252841660208201526040810183905260806060820181905260009061322890830184612a81565b9695505050505050565b60006020828403121561324457600080fd5b8151612a5681612a2356fe61623537633838386161396431333032396236346635363365633138393431656361353035346164303032613335666666643461363830323239373564633435554e444f585845442c207468652066696e65737420696e206469676974616c206c6966657374796c652063756c747572652c20697320616e20616e6e75616c2068796272696420626f6f6b2074686174206d65726765732073747265657420616e64206c6966657374796c652063756c74757265207769746820746865206469676974616c20776f726c642e20497420666f6375736573206f6e2066617368696f6e2c20736e65616b6572732c20616e6420737472656574776561722c20636174616c6f67696e67207468652062657374206f6620706879676974616c2063756c747572652e2054686973207075626c69636174696f6e20627269646765732074686520706879736963616c20616e64206469676974616c207265616c6d732077697468696e207468652065766f6c76696e6720576562332073706163652e203344206279205279616e204f776572732c2041727420446972656374696f6e20616e64204d7573696320627920584552414b2ea2646970667358221220fa676b0010c3304a6a89fddc9b990bea74fc83ffb44368cc83781ae99b0ff16964736f6c63430008130033697066733a2f2f516d626f364d4570373838454b5766335947526b527844567262454c314c335a6a34633243345732454744586e5530303364343365633466663065343265323937383235653363316565303833386136313931623434646662336362356161313163623536353366633164633964697066733a2f2f516d506f6a695451795a6b3763704a334c766248726f4a4a4e70746f5834355a4c6a31723552556557716453795861723a2f2f2d626b32463238766d766768576f3930677242484b624331324154496a674b47334e4c3047327430473163697066733a2f2f516d585377615453674d61694552317a4b4d366d646a6a414436594d58654567514242424668643476767443566b38643339373438393834636533313161393966353166656331323935663465366332633433326533383631373030316538373961303636313530626234663163",
    "linkReferences": {}
  },
  "methodIdentifiers": {
    "allowlistMint(uint256,uint256,uint256,uint256,bytes)": "85ac09c0",
    "approve(address,uint256)": "095ea7b3",
    "balanceOf(address)": "70a08231",
    "cover1Reserved()": "eae241ac",
    "cover2Reserved()": "04bc9678",
    "emergencyWithdraw()": "db2e21bc",
    "getAllSupply()": "f01c9474",
    "getApproved(uint256)": "081812fc",
    "getBalanceMintBySign(bytes)": "bb13486e",
    "getDescription()": "1a092541",
    "getMaxSupply()": "4c0f38c2",
    "getMaxSupplyCover()": "1aca9e6a",
    "getMediaProofPermanent()": "7695c744",
    "getPublicPrice()": "363e86fe",
    "getToken1Supply()": "8b927e14",
    "getToken2Supply()": "de914f26",
    "getTokenMediaPermanent()": "7b4b0a43",
    "getTokenName(uint256)": "dbe16c07",
    "getTotalReservedCover()": "d70e6892",
    "getWhitelistPrice()": "0da51cd7",
    "isApprovedForAll(address,address)": "e985e9c5",
    "isPublic()": "dc9a1535",
    "mint(uint256,uint256)": "1b2ef1ca",
    "name()": "06fdde03",
    "owner()": "8da5cb5b",
    "ownerOf(uint256)": "6352211e",
    "privateWhitelistMint(uint256,uint256,uint256,uint256,bytes)": "aec7a9a0",
    "renounceOwnership()": "715018a6",
    "royaltyInfo(uint256,uint256)": "2a55205a",
    "safeTransferFrom(address,address,uint256)": "42842e0e",
    "safeTransferFrom(address,address,uint256,bytes)": "b88d4fde",
    "sealSupply()": "3c52ad56",
    "setApprovalForAll(address,bool)": "a22cb465",
    "setDefaultRoyalties(address,uint96)": "cd02771a",
    "setFundsReceivers(address,address)": "d44ae1e3",
    "setMaxSupply(uint256)": "6f8b44b0",
    "setPercentReceiver(uint256)": "fb5d9aea",
    "setPublic(bool)": "5cbcec4e",
    "setPublicPrice(uint256)": "c6275255",
    "setReserveToken1(uint256)": "b0b6099d",
    "setReserveToken2(uint256)": "2c3a0f22",
    "setSigner(address)": "6c19e783",
    "setWhitelistPrice(uint256)": "717d57d3",
    "supplySealed()": "2ef06a5d",
    "supportsInterface(bytes4)": "01ffc9a7",
    "symbol()": "95d89b41",
    "tokenProofPermanent(uint256)": "fee4a6b4",
    "tokenURI(uint256)": "c87b56dd",
    "transferFrom(address,address,uint256)": "23b872dd",
    "transferOwnership(address)": "f2fde38b",
    "whitelistMint(uint256,uint256,uint256,uint256,bytes)": "f029da5c",
    "withdraw()": "3ccfd60b"
  },
  "id": 34
}