{
  "abi": [
    {
      "type": "constructor",
      "inputs": [],
      "stateMutability": "nonpayable"
    },
    {
      "type": "function",
      "name": "allowlistMint",
      "inputs": [
        {
          "name": "_amount1",
          "type": "uint256",
          "internalType": "uint256"
        },
        {
          "name": "_amount2",
          "type": "uint256",
          "internalType": "uint256"
        },
        {
          "name": "_amount1Sign",
          "type": "uint256",
          "internalType": "uint256"
        },
        {
          "name": "_amount2Sign",
          "type": "uint256",
          "internalType": "uint256"
        },
        {
          "name": "_sign",
          "type": "bytes",
          "internalType": "bytes"
        }
      ],
      "outputs": [],
      "stateMutability": "nonpayable"
    },
    {
      "type": "function",
      "name": "approve",
      "inputs": [
        {
          "name": "to",
          "type": "address",
          "internalType": "address"
        },
        {
          "name": "tokenId",
          "type": "uint256",
          "internalType": "uint256"
        }
      ],
      "outputs": [],
      "stateMutability": "nonpayable"
    },
    {
      "type": "function",
      "name": "balanceOf",
      "inputs": [
        {
          "name": "owner",
          "type": "address",
          "internalType": "address"
        }
      ],
      "outputs": [
        {
          "name": "",
          "type": "uint256",
          "internalType": "uint256"
        }
      ],
      "stateMutability": "view"
    },
    {
      "type": "function",
      "name": "getAllSupply",
      "inputs": [],
      "outputs": [
        {
          "name": "",
          "type": "uint256",
          "internalType": "uint256"
        }
      ],
      "stateMutability": "view"
    },
    {
      "type": "function",
      "name": "getApproved",
      "inputs": [
        {
          "name": "tokenId",
          "type": "uint256",
          "internalType": "uint256"
        }
      ],
      "outputs": [
        {
          "name": "",
          "type": "address",
          "internalType": "address"
        }
      ],
      "stateMutability": "view"
    },
    {
      "type": "function",
      "name": "getBalanceMintBySign",
      "inputs": [
        {
          "name": "_sign",
          "type": "bytes",
          "internalType": "bytes"
        }
      ],
      "outputs": [
        {
          "name": "cover1",
          "type": "uint256",
          "internalType": "uint256"
        },
        {
          "name": "cover2",
          "type": "uint256",
          "internalType": "uint256"
        }
      ],
      "stateMutability": "view"
    },
    {
      "type": "function",
      "name": "getDescription",
      "inputs": [],
      "outputs": [
        {
          "name": "",
          "type": "string",
          "internalType": "string"
        }
      ],
      "stateMutability": "pure"
    },
    {
      "type": "function",
      "name": "getMaxSupply",
      "inputs": [],
      "outputs": [
        {
          "name": "",
          "type": "uint256",
          "internalType": "uint256"
        }
      ],
      "stateMutability": "view"
    },
    {
      "type": "function",
      "name": "getMaxSupplyCover",
      "inputs": [],
      "outputs": [
        {
          "name": "",
          "type": "uint256",
          "internalType": "uint256"
        }
      ],
      "stateMutability": "view"
    },
    {
      "type": "function",
      "name": "getMediaProofPermanent",
      "inputs": [],
      "outputs": [
        {
          "name": "",
          "type": "string",
          "internalType": "string"
        }
      ],
      "stateMutability": "pure"
    },
    {
      "type": "function",
      "name": "getPublicPrice",
      "inputs": [],
      "outputs": [
        {
          "name": "",
          "type": "uint256",
          "internalType": "uint256"
        }
      ],
      "stateMutability": "view"
    },
    {
      "type": "function",
      "name": "getToken1Supply",
      "inputs": [],
      "outputs": [
        {
          "name": "",
          "type": "uint256",
          "internalType": "uint256"
        }
      ],
      "stateMutability": "view"
    },
    {
      "type": "function",
      "name": "getToken2Supply",
      "inputs": [],
      "outputs": [
        {
          "name": "",
          "type": "uint256",
          "internalType": "uint256"
        }
      ],
      "stateMutability": "view"
    },
    {
      "type": "function",
      "name": "getTokenMediaPermanent",
      "inputs": [],
      "outputs": [
        {
          "name": "",
          "type": "string[2]",
          "internalType": "string[2]"
        }
      ],
      "stateMutability": "view"
    },
    {
      "type": "function",
      "name": "getTokenName",
      "inputs": [
        {
          "name": "_tokenId",
          "type": "uint256",
          "internalType": "uint256"
        }
      ],
      "outputs": [
        {
          "name": "",
          "type": "string",
          "internalType": "string"
        }
      ],
      "stateMutability": "view"
    },
    {
      "type": "function",
      "name": "getTotalReservedCover",
      "inputs": [],
      "outputs": [
        {
          "name": "",
          "type": "uint256",
          "internalType": "uint256"
        }
      ],
      "stateMutability": "view"
    },
    {
      "type": "function",
      "name": "getWhitelistPrice",
      "inputs": [],
      "outputs": [
        {
          "name": "",
          "type": "uint256",
          "internalType": "uint256"
        }
      ],
      "stateMutability": "view"
    },
    {
      "type": "function",
      "name": "isApprovedForAll",
      "inputs": [
        {
          "name": "owner",
          "type": "address",
          "internalType": "address"
        },
        {
          "name": "operator",
          "type": "address",
          "internalType": "address"
        }
      ],
      "outputs": [
        {
          "name": "",
          "type": "bool",
          "internalType": "bool"
        }
      ],
      "stateMutability": "view"
    },
    {
      "type": "function",
      "name": "isPublic",
      "inputs": [],
      "outputs": [
        {
          "name": "",
          "type": "bool",
          "internalType": "bool"
        }
      ],
      "stateMutability": "view"
    },
    {
      "type": "function",
      "name": "mint",
      "inputs": [
        {
          "name": "_amount1",
          "type": "uint256",
          "internalType": "uint256"
        },
        {
          "name": "_amount2",
          "type": "uint256",
          "internalType": "uint256"
        }
      ],
      "outputs": [],
      "stateMutability": "payable"
    },
    {
      "type": "function",
      "name": "name",
      "inputs": [],
      "outputs": [
        {
          "name": "",
          "type": "string",
          "internalType": "string"
        }
      ],
      "stateMutability": "view"
    },
    {
      "type": "function",
      "name": "owner",
      "inputs": [],
      "outputs": [
        {
          "name": "",
          "type": "address",
          "internalType": "address"
        }
      ],
      "stateMutability": "view"
    },
    {
      "type": "function",
      "name": "ownerOf",
      "inputs": [
        {
          "name": "tokenId",
          "type": "uint256",
          "internalType": "uint256"
        }
      ],
      "outputs": [
        {
          "name": "",
          "type": "address",
          "internalType": "address"
        }
      ],
      "stateMutability": "view"
    },
    {
      "type": "function",
      "name": "privateWhitelistMint",
      "inputs": [
        {
          "name": "_amount1",
          "type": "uint256",
          "internalType": "uint256"
        },
        {
          "name": "_amount2",
          "type": "uint256",
          "internalType": "uint256"
        },
        {
          "name": "_amount1Sign",
          "type": "uint256",
          "internalType": "uint256"
        },
        {
          "name": "_amount2Sign",
          "type": "uint256",
          "internalType": "uint256"
        },
        {
          "name": "_sign",
          "type": "bytes",
          "internalType": "bytes"
        }
      ],
      "outputs": [],
      "stateMutability": "payable"
    },
    {
      "type": "function",
      "name": "renounceOwnership",
      "inputs": [],
      "outputs": [],
      "stateMutability": "nonpayable"
    },
    {
      "type": "function",
      "name": "royaltyInfo",
      "inputs": [
        {
          "name": "tokenId",
          "type": "uint256",
          "internalType": "uint256"
        },
        {
          "name": "salePrice",
          "type": "uint256",
          "internalType": "uint256"
        }
      ],
      "outputs": [
        {
          "name": "",
          "type": "address",
          "internalType": "address"
        },
        {
          "name": "",
          "type": "uint256",
          "internalType": "uint256"
        }
      ],
      "stateMutability": "view"
    },
    {
      "type": "function",
      "name": "safeTransferFrom",
      "inputs": [
        {
          "name": "from",
          "type": "address",
          "internalType": "address"
        },
        {
          "name": "to",
          "type": "address",
          "internalType": "address"
        },
        {
          "name": "tokenId",
          "type": "uint256",
          "internalType": "uint256"
        }
      ],
      "outputs": [],
      "stateMutability": "nonpayable"
    },
    {
      "type": "function",
      "name": "safeTransferFrom",
      "inputs": [
        {
          "name": "from",
          "type": "address",
          "internalType": "address"
        },
        {
          "name": "to",
          "type": "address",
          "internalType": "address"
        },
        {
          "name": "tokenId",
          "type": "uint256",
          "internalType": "uint256"
        },
        {
          "name": "data",
          "type": "bytes",
          "internalType": "bytes"
        }
      ],
      "outputs": [],
      "stateMutability": "nonpayable"
    },
    {
      "type": "function",
      "name": "setApprovalForAll",
      "inputs": [
        {
          "name": "operator",
          "type": "address",
          "internalType": "address"
        },
        {
          "name": "approved",
          "type": "bool",
          "internalType": "bool"
        }
      ],
      "outputs": [],
      "stateMutability": "nonpayable"
    },
    {
      "type": "function",
      "name": "setDefaultRoyalties",
      "inputs": [
        {
          "name": "_recipient",
          "type": "address",
          "internalType": "address"
        },
        {
          "name": "_feeNumerator",
          "type": "uint96",
          "internalType": "uint96"
        }
      ],
      "outputs": [],
      "stateMutability": "nonpayable"
    },
    {
      "type": "function",
      "name": "setFundsReceivers",
      "inputs": [
        {
          "name": "_firstReceiver",
          "type": "address",
          "internalType": "address"
        },
        {
          "name": "_secondReceiver",
          "type": "address",
          "internalType": "address"
        }
      ],
      "outputs": [],
      "stateMutability": "nonpayable"
    },
    {
      "type": "function",
      "name": "setMaxSupply",
      "inputs": [
        {
          "name": "_newMaxSupply",
          "type": "uint256",
          "internalType": "uint256"
        }
      ],
      "outputs": [],
      "stateMutability": "nonpayable"
    },
    {
      "type": "function",
      "name": "setPercentReceiver",
      "inputs": [
        {
          "name": "_percent",
          "type": "uint256",
          "internalType": "uint256"
        }
      ],
      "outputs": [],
      "stateMutability": "nonpayable"
    },
    {
      "type": "function",
      "name": "setPublic",
      "inputs": [],
      "outputs": [],
      "stateMutability": "nonpayable"
    },
    {
      "type": "function",
      "name": "setPublicPrice",
      "inputs": [
        {
          "name": "_newPublicPrice",
          "type": "uint256",
          "internalType": "uint256"
        }
      ],
      "outputs": [],
      "stateMutability": "nonpayable"
    },
    {
      "type": "function",
      "name": "setReserveToken1",
      "inputs": [
        {
          "name": "_amountToken1",
          "type": "uint256",
          "internalType": "uint256"
        }
      ],
      "outputs": [],
      "stateMutability": "nonpayable"
    },
    {
      "type": "function",
      "name": "setReserveToken2",
      "inputs": [
        {
          "name": "_amountToken2",
          "type": "uint256",
          "internalType": "uint256"
        }
      ],
      "outputs": [],
      "stateMutability": "nonpayable"
    },
    {
      "type": "function",
      "name": "setSigner",
      "inputs": [
        {
          "name": "_newSigner",
          "type": "address",
          "internalType": "address"
        }
      ],
      "outputs": [],
      "stateMutability": "nonpayable"
    },
    {
      "type": "function",
      "name": "setWhitelistPrice",
      "inputs": [
        {
          "name": "_newWhitelistPrice",
          "type": "uint256",
          "internalType": "uint256"
        }
      ],
      "outputs": [],
      "stateMutability": "nonpayable"
    },
    {
      "type": "function",
      "name": "supportsInterface",
      "inputs": [
        {
          "name": "interfaceId",
          "type": "bytes4",
          "internalType": "bytes4"
        }
      ],
      "outputs": [
        {
          "name": "",
          "type": "bool",
          "internalType": "bool"
        }
      ],
      "stateMutability": "view"
    },
    {
      "type": "function",
      "name": "symbol",
      "inputs": [],
      "outputs": [
        {
          "name": "",
          "type": "string",
          "internalType": "string"
        }
      ],
      "stateMutability": "view"
    },
    {
      "type": "function",
      "name": "tokenProofPermanent",
      "inputs": [
        {
          "name": "tokenId",
          "type": "uint256",
          "internalType": "uint256"
        }
      ],
      "outputs": [
        {
          "name": "",
          "type": "string",
          "internalType": "string"
        }
      ],
      "stateMutability": "view"
    },
    {
      "type": "function",
      "name": "tokenURI",
      "inputs": [
        {
          "name": "tokenId",
          "type": "uint256",
          "internalType": "uint256"
        }
      ],
      "outputs": [
        {
          "name": "",
          "type": "string",
          "internalType": "string"
        }
      ],
      "stateMutability": "view"
    },
    {
      "type": "function",
      "name": "transferFrom",
      "inputs": [
        {
          "name": "from",
          "type": "address",
          "internalType": "address"
        },
        {
          "name": "to",
          "type": "address",
          "internalType": "address"
        },
        {
          "name": "tokenId",
          "type": "uint256",
          "internalType": "uint256"
        }
      ],
      "outputs": [],
      "stateMutability": "nonpayable"
    },
    {
      "type": "function",
      "name": "transferOwnership",
      "inputs": [
        {
          "name": "newOwner",
          "type": "address",
          "internalType": "address"
        }
      ],
      "outputs": [],
      "stateMutability": "nonpayable"
    },
    {
      "type": "function",
      "name": "whitelistMint",
      "inputs": [
        {
          "name": "_amount1",
          "type": "uint256",
          "internalType": "uint256"
        },
        {
          "name": "_amount2",
          "type": "uint256",
          "internalType": "uint256"
        },
        {
          "name": "_amount1Sign",
          "type": "uint256",
          "internalType": "uint256"
        },
        {
          "name": "_amount2Sign",
          "type": "uint256",
          "internalType": "uint256"
        },
        {
          "name": "_sign",
          "type": "bytes",
          "internalType": "bytes"
        }
      ],
      "outputs": [],
      "stateMutability": "payable"
    },
    {
      "type": "function",
      "name": "withdraw",
      "inputs": [],
      "outputs": [],
      "stateMutability": "nonpayable"
    },
    {
      "type": "event",
      "name": "Approval",
      "inputs": [
        {
          "name": "owner",
          "type": "address",
          "indexed": true,
          "internalType": "address"
        },
        {
          "name": "approved",
          "type": "address",
          "indexed": true,
          "internalType": "address"
        },
        {
          "name": "tokenId",
          "type": "uint256",
          "indexed": true,
          "internalType": "uint256"
        }
      ],
      "anonymous": false
    },
    {
      "type": "event",
      "name": "ApprovalForAll",
      "inputs": [
        {
          "name": "owner",
          "type": "address",
          "indexed": true,
          "internalType": "address"
        },
        {
          "name": "operator",
          "type": "address",
          "indexed": true,
          "internalType": "address"
        },
        {
          "name": "approved",
          "type": "bool",
          "indexed": false,
          "internalType": "bool"
        }
      ],
      "anonymous": false
    },
    {
      "type": "event",
      "name": "OwnershipTransferred",
      "inputs": [
        {
          "name": "previousOwner",
          "type": "address",
          "indexed": true,
          "internalType": "address"
        },
        {
          "name": "newOwner",
          "type": "address",
          "indexed": true,
          "internalType": "address"
        }
      ],
      "anonymous": false
    },
    {
      "type": "event",
      "name": "Transfer",
      "inputs": [
        {
          "name": "from",
          "type": "address",
          "indexed": true,
          "internalType": "address"
        },
        {
          "name": "to",
          "type": "address",
          "indexed": true,
          "internalType": "address"
        },
        {
          "name": "tokenId",
          "type": "uint256",
          "indexed": true,
          "internalType": "uint256"
        }
      ],
      "anonymous": false
    },
    {
      "type": "error",
      "name": "FeeExceed10Percent",
      "inputs": []
    },
    {
      "type": "error",
      "name": "MaxSupplyCanNotBeLowerThan200",
      "inputs": []
    },
    {
      "type": "error",
      "name": "MaxSupplyCanNotBeLowerThanActual",
      "inputs": []
    },
    {
      "type": "error",
      "name": "MaxSupplyCanNotBeMoreThan300",
      "inputs": []
    },
    {
      "type": "error",
      "name": "MaxSupplyCanNotbeOdd",
      "inputs": []
    },
    {
      "type": "error",
      "name": "NoReserveToken1",
      "inputs": []
    },
    {
      "type": "error",
      "name": "NoReserveToken2",
      "inputs": []
    },
    {
      "type": "error",
      "name": "PercentCanNotBeMoreThan100Percent",
      "inputs": []
    },
    {
      "type": "error",
      "name": "PublicSaleNotStarted",
      "inputs": []
    },
    {
      "type": "error",
      "name": "WihdrawToZeroAddress",
      "inputs": []
    },
    {
      "type": "error",
      "name": "ZeroAddress",
      "inputs": []
    },
    {
      "type": "error",
      "name": "exceedAllowedToken1Mint",
      "inputs": []
    },
    {
      "type": "error",
      "name": "exceedAllowedToken2Mint",
      "inputs": []
    },
    {
      "type": "error",
      "name": "failWhithdraw",
      "inputs": []
    },
    {
      "type": "error",
      "name": "invalidAmountSend",
      "inputs": []
    },
    {
      "type": "error",
      "name": "invalidSignature",
      "inputs": []
    },
    {
      "type": "error",
      "name": "maxSupplyToken1Reach",
      "inputs": []
    },
    {
      "type": "error",
      "name": "maxSupplyToken2Reach",
      "inputs": []
    },
    {
      "type": "error",
      "name": "noSupplyAvailableToken1",
      "inputs": []
    },
    {
      "type": "error",
      "name": "noSupplyAvailableToken2",
      "inputs": []
    },
    {
      "type": "error",
      "name": "whithdrawZeroValue",
      "inputs": []
    }
  ],
  "bytecode": {
    "object": "0x60e060405260356080818152906200399e60a039600b90620000229082620004b2565b50604051806060016040528060358152602001620038f460359139600c906200004c9082620004b2565b506040518060600160405280603581526020016200396960359139600d90620000769082620004b2565b506040518060600160405280603081526020016200388460309139600e90620000a09082620004b2565b506040518060600160405280604081526020016200392960409139600f90620000ca9082620004b2565b50604051806060016040528060408152602001620038b460409139601090620000f49082620004b2565b5061012c6011556000601281905560135566038d7ea4c680006014556605543df729c000601555601e6016819055601755611770601855601980546001600160a01b0319167390d41fa17a8df96e7dff80227b4fc7d208dfd0261790553480156200015e57600080fd5b506040518060400160405280601381526020017f554e444f5858454420424f4f4b20566f6c2e31000000000000000000000000008152506040518060400160405280600781526020016615539116160c8d60ca1b8152508160009081620001c69190620004b2565b506001620001d58282620004b2565b505050620001f2620001ec6200023e60201b60201c565b62000242565b604080518082019091523381527319c013b64b7b2c7daa59b96514662b687665e85260208201526200022990601a90600262000399565b50620002383361012c62000294565b6200057e565b3390565b600680546001600160a01b038381166001600160a01b0319831681179093556040519116919082907f8be0079c531659141344cd1fd0a4f28419497f9722a3daafe3b4186f6b6457e090600090a35050565b6127106001600160601b0382161115620003085760405162461bcd60e51b815260206004820152602a60248201527f455243323938313a20726f79616c7479206665652077696c6c206578636565646044820152692073616c65507269636560b01b60648201526084015b60405180910390fd5b6001600160a01b038216620003605760405162461bcd60e51b815260206004820152601960248201527f455243323938313a20696e76616c6964207265636569766572000000000000006044820152606401620002ff565b604080518082019091526001600160a01b039092168083526001600160601b039091166020909201829052600160a01b90910217600755565b8260028101928215620003e4579160200282015b82811115620003e457825182546001600160a01b0319166001600160a01b03909116178255602090920191600190910190620003ad565b50620003f2929150620003f6565b5090565b5b80821115620003f25760008155600101620003f7565b634e487b7160e01b600052604160045260246000fd5b600181811c908216806200043857607f821691505b6020821081036200045957634e487b7160e01b600052602260045260246000fd5b50919050565b601f821115620004ad57600081815260208120601f850160051c81016020861015620004885750805b601f850160051c820191505b81811015620004a95782815560010162000494565b5050505b505050565b81516001600160401b03811115620004ce57620004ce6200040d565b620004e681620004df845462000423565b846200045f565b602080601f8311600181146200051e5760008415620005055750858301515b600019600386901b1c1916600185901b178555620004a9565b600085815260208120601f198616915b828110156200054f578886015182559484019460019091019084016200052e565b50858210156200056e5787850151600019600388901b60f8161c191681555b5050505050600190811b01905550565b6132f6806200058e6000396000f3fe6080604052600436106102885760003560e01c80637b4b0a431161015a578063cd02771a116100c1578063e985e9c51161007a578063e985e9c51461076d578063f01c94741461078d578063f029da5c146107a2578063f2fde38b146107b5578063fb5d9aea146107d5578063fee4a6b4146107f557600080fd5b8063cd02771a146106c9578063d44ae1e3146106e9578063d70e689214610709578063dbe16c071461071e578063dc9a15351461073e578063de914f261461075857600080fd5b8063aec7a9a011610113578063aec7a9a014610601578063b0b6099d14610614578063b88d4fde14610634578063bb13486e14610654578063c627525514610689578063c87b56dd146106a957600080fd5b80637b4b0a431461055757806385ac09c0146105795780638b927e14146105995780638da5cb5b146105ae57806395d89b41146105cc578063a22cb465146105e157600080fd5b8063363e86fe116101fe5780636f8b44b0116101b75780636f8b44b0146104b857806370a08231146104d8578063715018a6146104f8578063717d57d31461050d5780637695c7441461052d57806377e563571461054257600080fd5b8063363e86fe146104195780633ccfd60b1461042e57806342842e0e146104435780634c0f38c2146104635780636352211e146104785780636c19e7831461049857600080fd5b80631a092541116102505780631a0925411461035d5780631aca9e6a146103725780631b2ef1ca1461038757806323b872dd1461039a5780632a55205a146103ba5780632c3a0f22146103f957600080fd5b806301ffc9a71461028d57806306fdde03146102c2578063081812fc146102e4578063095ea7b31461031c5780630da51cd71461033e575b600080fd5b34801561029957600080fd5b506102ad6102a836600461291d565b610815565b60405190151581526020015b60405180910390f35b3480156102ce57600080fd5b506102d7610826565b6040516102b99190612991565b3480156102f057600080fd5b506103046102ff3660046129a4565b6108b8565b6040516001600160a01b0390911681526020016102b9565b34801561032857600080fd5b5061033c6103373660046129d9565b6108df565b005b34801561034a57600080fd5b506014545b6040519081526020016102b9565b34801561036957600080fd5b506102d76109f9565b34801561037e57600080fd5b5061034f610a1c565b61033c610395366004612a03565b610a32565b3480156103a657600080fd5b5061033c6103b5366004612a25565b610b1a565b3480156103c657600080fd5b506103da6103d5366004612a03565b610b4b565b604080516001600160a01b0390931683526020830191909152016102b9565b34801561040557600080fd5b5061033c6104143660046129a4565b610bf7565b34801561042557600080fd5b5060155461034f565b34801561043a57600080fd5b5061033c610c39565b34801561044f57600080fd5b5061033c61045e366004612a25565b610db4565b34801561046f57600080fd5b5060115461034f565b34801561048457600080fd5b506103046104933660046129a4565b610dcf565b3480156104a457600080fd5b5061033c6104b3366004612a61565b610e2f565b3480156104c457600080fd5b5061033c6104d33660046129a4565b610e59565b3480156104e457600080fd5b5061034f6104f3366004612a61565b610efe565b34801561050457600080fd5b5061033c610f84565b34801561051957600080fd5b5061033c6105283660046129a4565b610f98565b34801561053957600080fd5b506102d7610fa5565b34801561054e57600080fd5b5061033c610fc5565b34801561056357600080fd5b5061056c610fdc565b6040516102b99190612a7c565b34801561058557600080fd5b5061033c610594366004612b6c565b611112565b3480156105a557600080fd5b5060125461034f565b3480156105ba57600080fd5b506006546001600160a01b0316610304565b3480156105d857600080fd5b506102d7611369565b3480156105ed57600080fd5b5061033c6105fc366004612bd0565b611378565b61033c61060f366004612b6c565b611387565b34801561062057600080fd5b5061033c61062f3660046129a4565b6115a0565b34801561064057600080fd5b5061033c61064f366004612c0c565b6115e2565b34801561066057600080fd5b5061067461066f366004612c74565b611614565b604080519283526020830191909152016102b9565b34801561069557600080fd5b5061033c6106a43660046129a4565b61165e565b3480156106b557600080fd5b506102d76106c43660046129a4565b61166b565b3480156106d557600080fd5b5061033c6106e4366004612ca9565b611769565b3480156106f557600080fd5b5061033c610704366004612ce1565b6117a7565b34801561071557600080fd5b5061034f611818565b34801561072a57600080fd5b506102d76107393660046129a4565b61182a565b34801561074a57600080fd5b50601c546102ad9060ff1681565b34801561076457600080fd5b5060135461034f565b34801561077957600080fd5b506102ad610788366004612ce1565b6118ca565b34801561079957600080fd5b5061034f6118f8565b61033c6107b0366004612b6c565b61190a565b3480156107c157600080fd5b5061033c6107d0366004612a61565b611ae2565b3480156107e157600080fd5b5061033c6107f03660046129a4565b611b5b565b34801561080157600080fd5b506102d76108103660046129a4565b611b8b565b600061082082611ccb565b92915050565b60606000805461083590612d14565b80601f016020809104026020016040519081016040528092919081815260200182805461086190612d14565b80156108ae5780601f10610883576101008083540402835291602001916108ae565b820191906000526020600020905b81548152906001019060200180831161089157829003601f168201915b5050505050905090565b60006108c382611cf0565b506000908152600460205260409020546001600160a01b031690565b60006108ea82610dcf565b9050806001600160a01b0316836001600160a01b03160361095c5760405162461bcd60e51b815260206004820152602160248201527f4552433732313a20617070726f76616c20746f2063757272656e74206f776e656044820152603960f91b60648201526084015b60405180910390fd5b336001600160a01b0382161480610978575061097881336118ca565b6109ea5760405162461bcd60e51b815260206004820152603d60248201527f4552433732313a20617070726f76652063616c6c6572206973206e6f7420746f60448201527f6b656e206f776e6572206f7220617070726f76656420666f7220616c6c0000006064820152608401610953565b6109f48383611d4f565b505050565b6060604051806101a0016040528061017181526020016131106101719139905090565b60006002601154610a2d9190612d7a565b905090565b336000610a3d610a1c565b601c5490915060ff16610a635760405163ac4d09c760e01b815260040160405180910390fd5b8060165485601254610a759190612d8e565b610a7f9190612d8e565b1115610a9e576040516306ab2e5160e01b815260040160405180910390fd5b8060175484601354610ab09190612d8e565b610aba9190612d8e565b1115610ad95760405163c62be36d60e01b815260040160405180910390fd5b34601554848601021115610b0057604051631bfc08e760e11b815260040160405180910390fd5b610b0a8285611dbd565b610b148284611e83565b50505050565b610b243382611ec6565b610b405760405162461bcd60e51b815260040161095390612da1565b6109f4838383611f25565b60008281526008602090815260408083208151808301909252546001600160a01b038116808352600160a01b9091046001600160601b0316928201929092528291610bc05750604080518082019091526007546001600160a01b0381168252600160a01b90046001600160601b031660208201525b602081015160009061271090610bdf906001600160601b031687612dee565b610be99190612d7a565b915196919550909350505050565b610bff612089565b610c07610a1c565b81601254610c159190612d8e565b1115610c34576040516313f38bd360e11b815260040160405180910390fd5b601755565b610c41612089565b601a546001600160a01b03161580610c625750601b546001600160a01b0316155b15610c8057604051633bbc0f0760e01b815260040160405180910390fd5b476000819003610ca3576040516304abc4f760e21b815260040160405180910390fd5b600061271060185483610cb69190612dee565b610cc09190612d7a565b601a546040519192506000916001600160a01b039091169083908381818185875af1925050503d8060008114610d12576040519150601f19603f3d011682016040523d82523d6000602084013e610d17565b606091505b5050905080610d39576040516391ac981760e01b815260040160405180910390fd5b601b546001600160a01b0316610d4f8385612e05565b604051600081818185875af1925050503d8060008114610d8b576040519150601f19603f3d011682016040523d82523d6000602084013e610d90565b606091505b505080915050806109f4576040516391ac981760e01b815260040160405180910390fd5b6109f4838383604051806020016040528060008152506115e2565b6000818152600260205260408120546001600160a01b0316806108205760405162461bcd60e51b8152602060048201526018602482015277115490cdcc8c4e881a5b9d985b1a59081d1bdad95b88125160421b6044820152606401610953565b610e37612089565b601980546001600160a01b0319166001600160a01b0392909216919091179055565b610e61612089565b61012c811115610e8457604051630b4c3db160e41b815260040160405180910390fd5b60c8811015610ea657604051639da2208f60e01b815260040160405180910390fd5b610eb1600282612e18565b600103610ed157604051635461466f60e01b815260040160405180910390fd5b610ed96118f8565b811115610ef95760405163cddfa3f160e01b815260040160405180910390fd5b601155565b60006001600160a01b038216610f685760405162461bcd60e51b815260206004820152602960248201527f4552433732313a2061646472657373207a65726f206973206e6f7420612076616044820152683634b21037bbb732b960b91b6064820152608401610953565b506001600160a01b031660009081526003602052604090205490565b610f8c612089565b610f9660006120e3565b565b610fa0612089565b601455565b606060405180606001604052806040815260200161328160409139905090565b610fcd612089565b601c805460ff19166001179055565b610fe46128e0565b6040518060400160405280600d8054610ffc90612d14565b80601f016020809104026020016040519081016040528092919081815260200182805461102890612d14565b80156110755780601f1061104a57610100808354040283529160200191611075565b820191906000526020600020905b81548152906001019060200180831161105857829003601f168201915b50505050508152602001600e805461108c90612d14565b80601f01602080910402602001604051908101604052809291908181526020018280546110b890612d14565b80156111055780601f106110da57610100808354040283529160200191611105565b820191906000526020600020905b8154815290600101906020018083116110e857829003601f168201915b5050505050815250905090565b6019543390849084906001908590611137906001600160a01b03168686868686612135565b611154576040516368e6090160e11b815260040160405180910390fd5b33600061115f610a1c565b905089601d896040516111729190612e2c565b9081526020016040518091039020548d61118c9190612d8e565b11156111ab57604051632508c3ed60e11b815260040160405180910390fd5b88601e896040516111bc9190612e2c565b9081526020016040518091039020548c6111d69190612d8e565b11156111f55760405163d4b4828d60e01b815260040160405180910390fd5b808c6012546112049190612d8e565b1115611223576040516306ab2e5160e01b815260040160405180910390fd5b808b6013546112329190612d8e565b11156112515760405163c62be36d60e01b815260040160405180910390fd5b60008c1180156112615750601654155b8061126d57506016548c115b1561128b576040516306b347d360e51b815260040160405180910390fd5b60008b11801561129b5750601754155b806112a757506017548b115b156112c55760405163783aece160e11b815260040160405180910390fd5b8b601d896040516112d69190612e2c565b90815260405190819003602001812080549092019091558b90601e906112fd908b90612e2c565b90815260405190819003602001902080549091019055601680548d9190600090611328908490612e05565b925050819055508a601760008282546113419190612e05565b909155506113519050828d611dbd565b61135b828c611e83565b505050505050505050505050565b60606001805461083590612d14565b6113833383836121cc565b5050565b60195433908490849060069085906113ac906001600160a01b03168686868686612135565b6113c9576040516368e6090160e11b815260040160405180910390fd5b600033905088601d886040516113df9190612e2c565b9081526020016040518091039020548c6113f99190612d8e565b111561141857604051632508c3ed60e11b815260040160405180910390fd5b87601e886040516114299190612e2c565b9081526020016040518091039020548b6114439190612d8e565b11156114625760405163d4b4828d60e01b815260040160405180910390fd5b60008b1180156114725750601654155b8061147e57506016548b115b1561149c576040516306b347d360e51b815260040160405180910390fd5b60008a1180156114ac5750601754155b806114b857506017548a115b156114d65760405163783aece160e11b815260040160405180910390fd5b346014548b8d010211156114fd57604051631bfc08e760e11b815260040160405180910390fd5b8a601d8860405161150e9190612e2c565b90815260405190819003602001812080549092019091558a90601e90611535908a90612e2c565b90815260405190819003602001902080549091019055601680548c9190600090611560908490612e05565b9250508190555089601760008282546115799190612e05565b909155506115899050818c611dbd565b611593818b611e83565b5050505050505050505050565b6115a8612089565b6115b0610a1c565b816012546115be9190612d8e565b11156115dd5760405163ba14ba6f60e01b815260040160405180910390fd5b601655565b6115ec3383611ec6565b6116085760405162461bcd60e51b815260040161095390612da1565b610b148484848461229a565b600080601d836040516116279190612e2c565b9081526020016040518091039020549150601e836040516116489190612e2c565b9081526020016040518091039020549050915091565b611666612089565b601555565b6000818152600260205260409020546060906001600160a01b031661169e57505060408051602081019091526000815290565b600f6040516116ad9190612e48565b60405180910390206116be83611b8b565b805190602001200361175c57600b80546116d790612d14565b80601f016020809104026020016040519081016040528092919081815260200182805461170390612d14565b80156117505780601f1061172557610100808354040283529160200191611750565b820191906000526020600020905b81548152906001019060200180831161173357829003601f168201915b50505050509050919050565b600c80546116d790612d14565b611771612089565b6103e8816001600160601b0316111561179d57604051633f3aca3d60e21b815260040160405180910390fd5b61138382826122cd565b6117af612089565b6001600160a01b03821615806117cc57506001600160a01b038116155b156117ea5760405163d92e233d60e01b815260040160405180910390fd5b601a80546001600160a01b039384166001600160a01b031991821617909155601b8054929093169116179055565b6000601754601654610a2d9190612d8e565b6060600f60405161183b9190612e48565b604051809103902061184c83611b8b565b805190602001200361189157505060408051808201909152601981527f554e444f5858454420424f4f4b20766f6c2e3120426c61636b00000000000000602082015290565b505060408051808201909152601a81527f554e444f5858454420424f4f4b20766f6c2e3120507572706c65000000000000602082015290565b6001600160a01b03918216600090815260056020908152604080832093909416825291909152205460ff1690565b6000601354601254610a2d9190612d8e565b601954339084908490600290859061192f906001600160a01b03168686868686612135565b61194c576040516368e6090160e11b815260040160405180910390fd5b336000611957610a1c565b905089601d8960405161196a9190612e2c565b9081526020016040518091039020548d6119849190612d8e565b11156119a357604051632508c3ed60e11b815260040160405180910390fd5b88601e896040516119b49190612e2c565b9081526020016040518091039020548c6119ce9190612d8e565b11156119ed5760405163d4b4828d60e01b815260040160405180910390fd5b806016548d6012546119ff9190612d8e565b611a099190612d8e565b1115611a28576040516306ab2e5160e01b815260040160405180910390fd5b806017548c601354611a3a9190612d8e565b611a449190612d8e565b1115611a635760405163c62be36d60e01b815260040160405180910390fd5b346014548c8e01021115611a8a57604051631bfc08e760e11b815260040160405180910390fd5b8b601d89604051611a9b9190612e2c565b90815260405190819003602001812080549092019091558b90601e90611ac2908b90612e2c565b90815260405190819003602001902080549091019055611351828d611dbd565b611aea612089565b6001600160a01b038116611b4f5760405162461bcd60e51b815260206004820152602660248201527f4f776e61626c653a206e6577206f776e657220697320746865207a65726f206160448201526564647265737360d01b6064820152608401610953565b611b58816120e3565b50565b611b63612089565b612710811115611b8657604051630f1cc57b60e01b815260040160405180910390fd5b601855565b6060611b9682611cf0565b6000828152600a602052604081208054611baf90612d14565b80601f0160208091040260200160405190810160405280929190818152602001828054611bdb90612d14565b8015611c285780601f10611bfd57610100808354040283529160200191611c28565b820191906000526020600020905b815481529060010190602001808311611c0b57829003601f168201915b5050505050905080516000036108205760098054611c4590612d14565b80601f0160208091040260200160405190810160405280929190818152602001828054611c7190612d14565b8015611cbe5780601f10611c9357610100808354040283529160200191611cbe565b820191906000526020600020905b815481529060010190602001808311611ca157829003601f168201915b5050505050915050919050565b60006001600160e01b0319821663152a902d60e11b14806108205750610820826123ca565b6000818152600260205260409020546001600160a01b0316611b585760405162461bcd60e51b8152602060048201526018602482015277115490cdcc8c4e881a5b9d985b1a59081d1bdad95b88125160421b6044820152606401610953565b600081815260046020526040902080546001600160a01b0319166001600160a01b0384169081179091558190611d8482610dcf565b6001600160a01b03167f8c5be1e5ebec7d5bd14f71427d1e84f3dd0314c0f7b2291e5b200ac8c7c3b92560405160405180910390a45050565b60005b818110156109f45760135460125401600101611ddc848261241a565b611e7081600f8054611ded90612d14565b80601f0160208091040260200160405190810160405280929190818152602001828054611e1990612d14565b8015611e665780601f10611e3b57610100808354040283529160200191611e66565b820191906000526020600020905b815481529060010190602001808311611e4957829003601f168201915b50505050506125a5565b5060128054600190810190915501611dc0565b60005b818110156109f45760135460125401600101611ea2848261241a565b611eb38160108054611ded90612d14565b5060138054600190810190915501611e86565b600080611ed283610dcf565b9050806001600160a01b0316846001600160a01b03161480611ef95750611ef981856118ca565b80611f1d5750836001600160a01b0316611f12846108b8565b6001600160a01b0316145b949350505050565b826001600160a01b0316611f3882610dcf565b6001600160a01b031614611f5e5760405162461bcd60e51b815260040161095390612ebe565b6001600160a01b038216611fc05760405162461bcd60e51b8152602060048201526024808201527f4552433732313a207472616e7366657220746f20746865207a65726f206164646044820152637265737360e01b6064820152608401610953565b826001600160a01b0316611fd382610dcf565b6001600160a01b031614611ff95760405162461bcd60e51b815260040161095390612ebe565b600081815260046020908152604080832080546001600160a01b03199081169091556001600160a01b0387811680865260038552838620805460001901905590871680865283862080546001019055868652600290945282852080549092168417909155905184937fddf252ad1be2c89b69c2b068fc378daa952ba7f163c4a11628f55a4df523b3ef91a4505050565b6006546001600160a01b03163314610f965760405162461bcd60e51b815260206004820181905260248201527f4f776e61626c653a2063616c6c6572206973206e6f7420746865206f776e65726044820152606401610953565b600680546001600160a01b038381166001600160a01b0319831681179093556040519116919082907f8be0079c531659141344cd1fd0a4f28419497f9722a3daafe3b4186f6b6457e090600090a35050565b600080612144878787876126b6565b9050600061219f826040517f19457468657265756d205369676e6564204d6573736167653a0a3332000000006020820152603c8101829052600090605c01604051602081830303815290604052805190602001209050919050565b9050886001600160a01b03166121b582866126ef565b6001600160a01b0316149998505050505050505050565b816001600160a01b0316836001600160a01b03160361222d5760405162461bcd60e51b815260206004820152601960248201527f4552433732313a20617070726f766520746f2063616c6c6572000000000000006044820152606401610953565b6001600160a01b03838116600081815260056020908152604080832094871680845294825291829020805460ff191686151590811790915591519182527f17307eab39ab6107e8899845ad3d59bd9653f200f220920489ca2b5937696c31910160405180910390a3505050565b6122a5848484611f25565b6122b18484848461276e565b610b145760405162461bcd60e51b815260040161095390612f03565b6127106001600160601b038216111561233b5760405162461bcd60e51b815260206004820152602a60248201527f455243323938313a20726f79616c7479206665652077696c6c206578636565646044820152692073616c65507269636560b01b6064820152608401610953565b6001600160a01b0382166123915760405162461bcd60e51b815260206004820152601960248201527f455243323938313a20696e76616c6964207265636569766572000000000000006044820152606401610953565b604080518082019091526001600160a01b039092168083526001600160601b039091166020909201829052600160a01b90910217600755565b60006001600160e01b031982166380ac58cd60e01b14806123fb57506001600160e01b03198216635b5e139f60e01b145b8061082057506301ffc9a760e01b6001600160e01b0319831614610820565b6001600160a01b0382166124705760405162461bcd60e51b815260206004820181905260248201527f4552433732313a206d696e7420746f20746865207a65726f20616464726573736044820152606401610953565b6000818152600260205260409020546001600160a01b0316156124d55760405162461bcd60e51b815260206004820152601c60248201527f4552433732313a20746f6b656e20616c7265616479206d696e746564000000006044820152606401610953565b6000818152600260205260409020546001600160a01b03161561253a5760405162461bcd60e51b815260206004820152601c60248201527f4552433732313a20746f6b656e20616c7265616479206d696e746564000000006044820152606401610953565b6001600160a01b038216600081815260036020908152604080832080546001019055848352600290915280822080546001600160a01b0319168417905551839291907fddf252ad1be2c89b69c2b068fc378daa952ba7f163c4a11628f55a4df523b3ef908290a45050565b6000828152600260205260409020546001600160a01b03166126265760405162461bcd60e51b815260206004820152603460248201527f4552433732315065726d616e656e7450726f6f663a2050726f6f66207365742060448201527337b3103737b732bc34b9ba32b73a103a37b5b2b760611b6064820152608401610953565b6000828152600a60205260409020805461263f90612d14565b15905061269e5760405162461bcd60e51b815260206004820152602760248201527f4552433732315065726d616e656e7450726f6f663a2050726f6f6620616c726560448201526618591e481cd95d60ca1b6064820152608401610953565b6000828152600a602052604090206109f48282612fa3565b6000848484846040516020016126cf9493929190613063565b604051602081830303815290604052805190602001209050949350505050565b6000806000806126fe8561286c565b6040805160008152602081018083528b905260ff8316918101919091526060810184905260808101839052929550909350915060019060a0016020604051602081039080840390855afa158015612759573d6000803e3d6000fd5b5050604051601f190151979650505050505050565b60006001600160a01b0384163b1561286457604051630a85bd0160e11b81526001600160a01b0385169063150b7a02906127b29033908990889088906004016130b5565b6020604051808303816000875af19250505080156127ed575060408051601f3d908101601f191682019092526127ea918101906130f2565b60015b61284a573d80801561281b576040519150601f19603f3d011682016040523d82523d6000602084013e612820565b606091505b5080516000036128425760405162461bcd60e51b815260040161095390612f03565b805181602001fd5b6001600160e01b031916630a85bd0160e11b149050611f1d565b506001611f1d565b600080600083516041146128c25760405162461bcd60e51b815260206004820152601860248201527f696e76616c6964207369676e6174757265206c656e67746800000000000000006044820152606401610953565b50505060208101516040820151606090920151909260009190911a90565b60405180604001604052806002905b60608152602001906001900390816128ef5790505090565b6001600160e01b031981168114611b5857600080fd5b60006020828403121561292f57600080fd5b813561293a81612907565b9392505050565b60005b8381101561295c578181015183820152602001612944565b50506000910152565b6000815180845261297d816020860160208601612941565b601f01601f19169290920160200192915050565b60208152600061293a6020830184612965565b6000602082840312156129b657600080fd5b5035919050565b80356001600160a01b03811681146129d457600080fd5b919050565b600080604083850312156129ec57600080fd5b6129f5836129bd565b946020939093013593505050565b60008060408385031215612a1657600080fd5b50508035926020909101359150565b600080600060608486031215612a3a57600080fd5b612a43846129bd565b9250612a51602085016129bd565b9150604084013590509250925092565b600060208284031215612a7357600080fd5b61293a826129bd565b60208082526000906060830183820185845b6002811015612abd57601f19878503018352612aab848351612965565b93509184019190840190600101612a8e565b50919695505050505050565b634e487b7160e01b600052604160045260246000fd5b600082601f830112612af057600080fd5b813567ffffffffffffffff80821115612b0b57612b0b612ac9565b604051601f8301601f19908116603f01168101908282118183101715612b3357612b33612ac9565b81604052838152866020858801011115612b4c57600080fd5b836020870160208301376000602085830101528094505050505092915050565b600080600080600060a08688031215612b8457600080fd5b85359450602086013593506040860135925060608601359150608086013567ffffffffffffffff811115612bb757600080fd5b612bc388828901612adf565b9150509295509295909350565b60008060408385031215612be357600080fd5b612bec836129bd565b915060208301358015158114612c0157600080fd5b809150509250929050565b60008060008060808587031215612c2257600080fd5b612c2b856129bd565b9350612c39602086016129bd565b925060408501359150606085013567ffffffffffffffff811115612c5c57600080fd5b612c6887828801612adf565b91505092959194509250565b600060208284031215612c8657600080fd5b813567ffffffffffffffff811115612c9d57600080fd5b611f1d84828501612adf565b60008060408385031215612cbc57600080fd5b612cc5836129bd565b915060208301356001600160601b0381168114612c0157600080fd5b60008060408385031215612cf457600080fd5b612cfd836129bd565b9150612d0b602084016129bd565b90509250929050565b600181811c90821680612d2857607f821691505b602082108103612d4857634e487b7160e01b600052602260045260246000fd5b50919050565b634e487b7160e01b600052601260045260246000fd5b634e487b7160e01b600052601160045260246000fd5b600082612d8957612d89612d4e565b500490565b8082018082111561082057610820612d64565b6020808252602d908201527f4552433732313a2063616c6c6572206973206e6f7420746f6b656e206f776e6560408201526c1c881bdc88185c1c1c9bdd9959609a1b606082015260800190565b808202811582820484141761082057610820612d64565b8181038181111561082057610820612d64565b600082612e2757612e27612d4e565b500690565b60008251612e3e818460208701612941565b9190910192915050565b6000808354612e5681612d14565b60018281168015612e6e5760018114612e8357612eb2565b60ff1984168752821515830287019450612eb2565b8760005260208060002060005b85811015612ea95781548a820152908401908201612e90565b50505082870194505b50929695505050505050565b60208082526025908201527f4552433732313a207472616e736665722066726f6d20696e636f72726563742060408201526437bbb732b960d91b606082015260800190565b60208082526032908201527f4552433732313a207472616e7366657220746f206e6f6e20455243373231526560408201527131b2b4bb32b91034b6b83632b6b2b73a32b960711b606082015260800190565b601f8211156109f457600081815260208120601f850160051c81016020861015612f7c5750805b601f850160051c820191505b81811015612f9b57828155600101612f88565b505050505050565b815167ffffffffffffffff811115612fbd57612fbd612ac9565b612fd181612fcb8454612d14565b84612f55565b602080601f8311600181146130065760008415612fee5750858301515b600019600386901b1c1916600185901b178555612f9b565b600085815260208120601f198616915b8281101561303557888601518255948401946001909101908401613016565b50858210156130535787850151600019600388901b60f8161c191681555b5050505050600190811b01905550565b6001600160601b03198560601b16815283601482015282603482015260006007831061309f57634e487b7160e01b600052602160045260246000fd5b5060f89190911b60548201526055019392505050565b6001600160a01b03858116825284166020820152604081018390526080606082018190526000906130e890830184612965565b9695505050505050565b60006020828403121561310457600080fd5b815161293a8161290756fe554e444f585845442c207468652066696e65737420696e206469676974616c206c6966657374796c652063756c747572652c20697320616e20616e6e75616c2068796272696420626f6f6b2074686174206d65726765732073747265657420616e64206c6966657374796c652063756c74757265207769746820746865206469676974616c20776f726c642e20497420666f6375736573206f6e2066617368696f6e2c20736e65616b6572732c20616e6420737472656574776561722c20636174616c6f67696e67207468652062657374206f6620706879676974616c2063756c747572652e2054686973207075626c69636174696f6e20627269646765732074686520706879736963616c20616e64206469676974616c207265616c6d732077697468696e207468652065766f6c76696e6720576562332073706163652e203344206279205279616e204f776572732041727420446972656374696f6e20616e64204d7573696320627920584552414b37326437373935626664353165633666303263373036353064316265613035356531303738623765316166386338323137336436313764333036383537303231a26469706673582212204f4cef0536db315954a5828894d88ef0f2132ac3df32f34491b8d63ac4b4eeae64736f6c6343000813003361723a2f2f464f39422d6b526e557a4958474345534666737350335044414a3850752d6e715a3446697369694d52354532366439653866356235656433623339626131653037373238386237646639393633626137323735366332313563343234656231373963393333326363326234697066733a2f2f516d555271364c46775148617a6a4e423667664847704b3552576d4674464e56775a564657544b39774a4762473938383063353964356164323965653132386466623865393862376261633736633663343461306531636537643965323537623734316232343764626466323237697066733a2f2f516d5272575771525273344350466e67344748727a6f37627a524353715750584b55506763655436765875376267697066733a2f2f516d57764c41314b444c366d6f4d32576a565935726f777234766f6832756163664e7175424c7a69724a4a6e5571",
    "linkReferences": {}
  },
  "methodIdentifiers": {
    "allowlistMint(uint256,uint256,uint256,uint256,bytes)": "85ac09c0",
    "approve(address,uint256)": "095ea7b3",
    "balanceOf(address)": "70a08231",
    "getAllSupply()": "f01c9474",
    "getApproved(uint256)": "081812fc",
    "getBalanceMintBySign(bytes)": "bb13486e",
    "getDescription()": "1a092541",
    "getMaxSupply()": "4c0f38c2",
    "getMaxSupplyCover()": "1aca9e6a",
    "getMediaProofPermanent()": "7695c744",
    "getPublicPrice()": "363e86fe",
    "getToken1Supply()": "8b927e14",
    "getToken2Supply()": "de914f26",
    "getTokenMediaPermanent()": "7b4b0a43",
    "getTokenName(uint256)": "dbe16c07",
    "getTotalReservedCover()": "d70e6892",
    "getWhitelistPrice()": "0da51cd7",
    "isApprovedForAll(address,address)": "e985e9c5",
    "isPublic()": "dc9a1535",
    "mint(uint256,uint256)": "1b2ef1ca",
    "name()": "06fdde03",
    "owner()": "8da5cb5b",
    "ownerOf(uint256)": "6352211e",
    "privateWhitelistMint(uint256,uint256,uint256,uint256,bytes)": "aec7a9a0",
    "renounceOwnership()": "715018a6",
    "royaltyInfo(uint256,uint256)": "2a55205a",
    "safeTransferFrom(address,address,uint256)": "42842e0e",
    "safeTransferFrom(address,address,uint256,bytes)": "b88d4fde",
    "setApprovalForAll(address,bool)": "a22cb465",
    "setDefaultRoyalties(address,uint96)": "cd02771a",
    "setFundsReceivers(address,address)": "d44ae1e3",
    "setMaxSupply(uint256)": "6f8b44b0",
    "setPercentReceiver(uint256)": "fb5d9aea",
    "setPublic()": "77e56357",
    "setPublicPrice(uint256)": "c6275255",
    "setReserveToken1(uint256)": "b0b6099d",
    "setReserveToken2(uint256)": "2c3a0f22",
    "setSigner(address)": "6c19e783",
    "setWhitelistPrice(uint256)": "717d57d3",
    "supportsInterface(bytes4)": "01ffc9a7",
    "symbol()": "95d89b41",
    "tokenProofPermanent(uint256)": "fee4a6b4",
    "tokenURI(uint256)": "c87b56dd",
    "transferFrom(address,address,uint256)": "23b872dd",
    "transferOwnership(address)": "f2fde38b",
    "whitelistMint(uint256,uint256,uint256,uint256,bytes)": "f029da5c",
    "withdraw()": "3ccfd60b"
  },
  "id": 34
}