{
  "abi": [
    {
      "type": "constructor",
      "inputs": [],
      "stateMutability": "nonpayable"
    },
    {
      "type": "function",
      "name": "allowlistMint",
      "inputs": [
        {
          "name": "_amount1",
          "type": "uint256",
          "internalType": "uint256"
        },
        {
          "name": "_amount2",
          "type": "uint256",
          "internalType": "uint256"
        },
        {
          "name": "_amount1Sign",
          "type": "uint256",
          "internalType": "uint256"
        },
        {
          "name": "_amount2Sign",
          "type": "uint256",
          "internalType": "uint256"
        },
        {
          "name": "_sign",
          "type": "bytes",
          "internalType": "bytes"
        }
      ],
      "outputs": [],
      "stateMutability": "nonpayable"
    },
    {
      "type": "function",
      "name": "approve",
      "inputs": [
        {
          "name": "to",
          "type": "address",
          "internalType": "address"
        },
        {
          "name": "tokenId",
          "type": "uint256",
          "internalType": "uint256"
        }
      ],
      "outputs": [],
      "stateMutability": "nonpayable"
    },
    {
      "type": "function",
      "name": "balanceOf",
      "inputs": [
        {
          "name": "owner",
          "type": "address",
          "internalType": "address"
        }
      ],
      "outputs": [
        {
          "name": "",
          "type": "uint256",
          "internalType": "uint256"
        }
      ],
      "stateMutability": "view"
    },
    {
      "type": "function",
      "name": "cover1Reserved",
      "inputs": [],
      "outputs": [
        {
          "name": "",
          "type": "uint256",
          "internalType": "uint256"
        }
      ],
      "stateMutability": "view"
    },
    {
      "type": "function",
      "name": "cover2Reserved",
      "inputs": [],
      "outputs": [
        {
          "name": "",
          "type": "uint256",
          "internalType": "uint256"
        }
      ],
      "stateMutability": "view"
    },
    {
      "type": "function",
      "name": "getAllSupply",
      "inputs": [],
      "outputs": [
        {
          "name": "",
          "type": "uint256",
          "internalType": "uint256"
        }
      ],
      "stateMutability": "view"
    },
    {
      "type": "function",
      "name": "getApproved",
      "inputs": [
        {
          "name": "tokenId",
          "type": "uint256",
          "internalType": "uint256"
        }
      ],
      "outputs": [
        {
          "name": "",
          "type": "address",
          "internalType": "address"
        }
      ],
      "stateMutability": "view"
    },
    {
      "type": "function",
      "name": "getBalanceMintBySign",
      "inputs": [
        {
          "name": "_sign",
          "type": "bytes",
          "internalType": "bytes"
        }
      ],
      "outputs": [
        {
          "name": "cover1",
          "type": "uint256",
          "internalType": "uint256"
        },
        {
          "name": "cover2",
          "type": "uint256",
          "internalType": "uint256"
        }
      ],
      "stateMutability": "view"
    },
    {
      "type": "function",
      "name": "getDescription",
      "inputs": [],
      "outputs": [
        {
          "name": "",
          "type": "string",
          "internalType": "string"
        }
      ],
      "stateMutability": "pure"
    },
    {
      "type": "function",
      "name": "getMaxSupply",
      "inputs": [],
      "outputs": [
        {
          "name": "",
          "type": "uint256",
          "internalType": "uint256"
        }
      ],
      "stateMutability": "view"
    },
    {
      "type": "function",
      "name": "getMaxSupplyCover",
      "inputs": [],
      "outputs": [
        {
          "name": "",
          "type": "uint256",
          "internalType": "uint256"
        }
      ],
      "stateMutability": "view"
    },
    {
      "type": "function",
      "name": "getMediaProofPermanent",
      "inputs": [],
      "outputs": [
        {
          "name": "",
          "type": "string",
          "internalType": "string"
        }
      ],
      "stateMutability": "pure"
    },
    {
      "type": "function",
      "name": "getPublicPrice",
      "inputs": [],
      "outputs": [
        {
          "name": "",
          "type": "uint256",
          "internalType": "uint256"
        }
      ],
      "stateMutability": "view"
    },
    {
      "type": "function",
      "name": "getToken1Supply",
      "inputs": [],
      "outputs": [
        {
          "name": "",
          "type": "uint256",
          "internalType": "uint256"
        }
      ],
      "stateMutability": "view"
    },
    {
      "type": "function",
      "name": "getToken2Supply",
      "inputs": [],
      "outputs": [
        {
          "name": "",
          "type": "uint256",
          "internalType": "uint256"
        }
      ],
      "stateMutability": "view"
    },
    {
      "type": "function",
      "name": "getTokenMediaPermanent",
      "inputs": [],
      "outputs": [
        {
          "name": "",
          "type": "string[2]",
          "internalType": "string[2]"
        }
      ],
      "stateMutability": "view"
    },
    {
      "type": "function",
      "name": "getTokenName",
      "inputs": [
        {
          "name": "_tokenId",
          "type": "uint256",
          "internalType": "uint256"
        }
      ],
      "outputs": [
        {
          "name": "",
          "type": "string",
          "internalType": "string"
        }
      ],
      "stateMutability": "view"
    },
    {
      "type": "function",
      "name": "getTotalReservedCover",
      "inputs": [],
      "outputs": [
        {
          "name": "",
          "type": "uint256",
          "internalType": "uint256"
        }
      ],
      "stateMutability": "view"
    },
    {
      "type": "function",
      "name": "getWhitelistPrice",
      "inputs": [],
      "outputs": [
        {
          "name": "",
          "type": "uint256",
          "internalType": "uint256"
        }
      ],
      "stateMutability": "view"
    },
    {
      "type": "function",
      "name": "isApprovedForAll",
      "inputs": [
        {
          "name": "owner",
          "type": "address",
          "internalType": "address"
        },
        {
          "name": "operator",
          "type": "address",
          "internalType": "address"
        }
      ],
      "outputs": [
        {
          "name": "",
          "type": "bool",
          "internalType": "bool"
        }
      ],
      "stateMutability": "view"
    },
    {
      "type": "function",
      "name": "isPublic",
      "inputs": [],
      "outputs": [
        {
          "name": "",
          "type": "bool",
          "internalType": "bool"
        }
      ],
      "stateMutability": "view"
    },
    {
      "type": "function",
      "name": "mint",
      "inputs": [
        {
          "name": "_amount1",
          "type": "uint256",
          "internalType": "uint256"
        },
        {
          "name": "_amount2",
          "type": "uint256",
          "internalType": "uint256"
        }
      ],
      "outputs": [],
      "stateMutability": "payable"
    },
    {
      "type": "function",
      "name": "name",
      "inputs": [],
      "outputs": [
        {
          "name": "",
          "type": "string",
          "internalType": "string"
        }
      ],
      "stateMutability": "view"
    },
    {
      "type": "function",
      "name": "owner",
      "inputs": [],
      "outputs": [
        {
          "name": "",
          "type": "address",
          "internalType": "address"
        }
      ],
      "stateMutability": "view"
    },
    {
      "type": "function",
      "name": "ownerOf",
      "inputs": [
        {
          "name": "tokenId",
          "type": "uint256",
          "internalType": "uint256"
        }
      ],
      "outputs": [
        {
          "name": "",
          "type": "address",
          "internalType": "address"
        }
      ],
      "stateMutability": "view"
    },
    {
      "type": "function",
      "name": "privateWhitelistMint",
      "inputs": [
        {
          "name": "_amount1",
          "type": "uint256",
          "internalType": "uint256"
        },
        {
          "name": "_amount2",
          "type": "uint256",
          "internalType": "uint256"
        },
        {
          "name": "_amount1Sign",
          "type": "uint256",
          "internalType": "uint256"
        },
        {
          "name": "_amount2Sign",
          "type": "uint256",
          "internalType": "uint256"
        },
        {
          "name": "_sign",
          "type": "bytes",
          "internalType": "bytes"
        }
      ],
      "outputs": [],
      "stateMutability": "payable"
    },
    {
      "type": "function",
      "name": "renounceOwnership",
      "inputs": [],
      "outputs": [],
      "stateMutability": "nonpayable"
    },
    {
      "type": "function",
      "name": "royaltyInfo",
      "inputs": [
        {
          "name": "tokenId",
          "type": "uint256",
          "internalType": "uint256"
        },
        {
          "name": "salePrice",
          "type": "uint256",
          "internalType": "uint256"
        }
      ],
      "outputs": [
        {
          "name": "",
          "type": "address",
          "internalType": "address"
        },
        {
          "name": "",
          "type": "uint256",
          "internalType": "uint256"
        }
      ],
      "stateMutability": "view"
    },
    {
      "type": "function",
      "name": "safeTransferFrom",
      "inputs": [
        {
          "name": "from",
          "type": "address",
          "internalType": "address"
        },
        {
          "name": "to",
          "type": "address",
          "internalType": "address"
        },
        {
          "name": "tokenId",
          "type": "uint256",
          "internalType": "uint256"
        }
      ],
      "outputs": [],
      "stateMutability": "nonpayable"
    },
    {
      "type": "function",
      "name": "safeTransferFrom",
      "inputs": [
        {
          "name": "from",
          "type": "address",
          "internalType": "address"
        },
        {
          "name": "to",
          "type": "address",
          "internalType": "address"
        },
        {
          "name": "tokenId",
          "type": "uint256",
          "internalType": "uint256"
        },
        {
          "name": "data",
          "type": "bytes",
          "internalType": "bytes"
        }
      ],
      "outputs": [],
      "stateMutability": "nonpayable"
    },
    {
      "type": "function",
      "name": "sealSupply",
      "inputs": [],
      "outputs": [],
      "stateMutability": "nonpayable"
    },
    {
      "type": "function",
      "name": "setApprovalForAll",
      "inputs": [
        {
          "name": "operator",
          "type": "address",
          "internalType": "address"
        },
        {
          "name": "approved",
          "type": "bool",
          "internalType": "bool"
        }
      ],
      "outputs": [],
      "stateMutability": "nonpayable"
    },
    {
      "type": "function",
      "name": "setDefaultRoyalties",
      "inputs": [
        {
          "name": "_recipient",
          "type": "address",
          "internalType": "address"
        },
        {
          "name": "_feeNumerator",
          "type": "uint96",
          "internalType": "uint96"
        }
      ],
      "outputs": [],
      "stateMutability": "nonpayable"
    },
    {
      "type": "function",
      "name": "setFundsReceivers",
      "inputs": [
        {
          "name": "_firstReceiver",
          "type": "address",
          "internalType": "address"
        },
        {
          "name": "_secondReceiver",
          "type": "address",
          "internalType": "address"
        }
      ],
      "outputs": [],
      "stateMutability": "nonpayable"
    },
    {
      "type": "function",
      "name": "setMaxSupply",
      "inputs": [
        {
          "name": "_newMaxSupply",
          "type": "uint256",
          "internalType": "uint256"
        }
      ],
      "outputs": [],
      "stateMutability": "nonpayable"
    },
    {
      "type": "function",
      "name": "setPercentReceiver",
      "inputs": [
        {
          "name": "_percent",
          "type": "uint256",
          "internalType": "uint256"
        }
      ],
      "outputs": [],
      "stateMutability": "nonpayable"
    },
    {
      "type": "function",
      "name": "setPublic",
      "inputs": [],
      "outputs": [],
      "stateMutability": "nonpayable"
    },
    {
      "type": "function",
      "name": "setPublicPrice",
      "inputs": [
        {
          "name": "_newPublicPrice",
          "type": "uint256",
          "internalType": "uint256"
        }
      ],
      "outputs": [],
      "stateMutability": "nonpayable"
    },
    {
      "type": "function",
      "name": "setReserveToken1",
      "inputs": [
        {
          "name": "_amountToken1",
          "type": "uint256",
          "internalType": "uint256"
        }
      ],
      "outputs": [],
      "stateMutability": "nonpayable"
    },
    {
      "type": "function",
      "name": "setReserveToken2",
      "inputs": [
        {
          "name": "_amountToken2",
          "type": "uint256",
          "internalType": "uint256"
        }
      ],
      "outputs": [],
      "stateMutability": "nonpayable"
    },
    {
      "type": "function",
      "name": "setSigner",
      "inputs": [
        {
          "name": "_newSigner",
          "type": "address",
          "internalType": "address"
        }
      ],
      "outputs": [],
      "stateMutability": "nonpayable"
    },
    {
      "type": "function",
      "name": "setWhitelistPrice",
      "inputs": [
        {
          "name": "_newWhitelistPrice",
          "type": "uint256",
          "internalType": "uint256"
        }
      ],
      "outputs": [],
      "stateMutability": "nonpayable"
    },
    {
      "type": "function",
      "name": "supplySealed",
      "inputs": [],
      "outputs": [
        {
          "name": "",
          "type": "bool",
          "internalType": "bool"
        }
      ],
      "stateMutability": "view"
    },
    {
      "type": "function",
      "name": "supportsInterface",
      "inputs": [
        {
          "name": "interfaceId",
          "type": "bytes4",
          "internalType": "bytes4"
        }
      ],
      "outputs": [
        {
          "name": "",
          "type": "bool",
          "internalType": "bool"
        }
      ],
      "stateMutability": "view"
    },
    {
      "type": "function",
      "name": "symbol",
      "inputs": [],
      "outputs": [
        {
          "name": "",
          "type": "string",
          "internalType": "string"
        }
      ],
      "stateMutability": "view"
    },
    {
      "type": "function",
      "name": "tokenProofPermanent",
      "inputs": [
        {
          "name": "tokenId",
          "type": "uint256",
          "internalType": "uint256"
        }
      ],
      "outputs": [
        {
          "name": "",
          "type": "string",
          "internalType": "string"
        }
      ],
      "stateMutability": "view"
    },
    {
      "type": "function",
      "name": "tokenURI",
      "inputs": [
        {
          "name": "tokenId",
          "type": "uint256",
          "internalType": "uint256"
        }
      ],
      "outputs": [
        {
          "name": "",
          "type": "string",
          "internalType": "string"
        }
      ],
      "stateMutability": "view"
    },
    {
      "type": "function",
      "name": "transferFrom",
      "inputs": [
        {
          "name": "from",
          "type": "address",
          "internalType": "address"
        },
        {
          "name": "to",
          "type": "address",
          "internalType": "address"
        },
        {
          "name": "tokenId",
          "type": "uint256",
          "internalType": "uint256"
        }
      ],
      "outputs": [],
      "stateMutability": "nonpayable"
    },
    {
      "type": "function",
      "name": "transferOwnership",
      "inputs": [
        {
          "name": "newOwner",
          "type": "address",
          "internalType": "address"
        }
      ],
      "outputs": [],
      "stateMutability": "nonpayable"
    },
    {
      "type": "function",
      "name": "whitelistMint",
      "inputs": [
        {
          "name": "_amount1",
          "type": "uint256",
          "internalType": "uint256"
        },
        {
          "name": "_amount2",
          "type": "uint256",
          "internalType": "uint256"
        },
        {
          "name": "_amount1Sign",
          "type": "uint256",
          "internalType": "uint256"
        },
        {
          "name": "_amount2Sign",
          "type": "uint256",
          "internalType": "uint256"
        },
        {
          "name": "_sign",
          "type": "bytes",
          "internalType": "bytes"
        }
      ],
      "outputs": [],
      "stateMutability": "payable"
    },
    {
      "type": "function",
      "name": "withdraw",
      "inputs": [],
      "outputs": [],
      "stateMutability": "nonpayable"
    },
    {
      "type": "event",
      "name": "Approval",
      "inputs": [
        {
          "name": "owner",
          "type": "address",
          "indexed": true,
          "internalType": "address"
        },
        {
          "name": "approved",
          "type": "address",
          "indexed": true,
          "internalType": "address"
        },
        {
          "name": "tokenId",
          "type": "uint256",
          "indexed": true,
          "internalType": "uint256"
        }
      ],
      "anonymous": false
    },
    {
      "type": "event",
      "name": "ApprovalForAll",
      "inputs": [
        {
          "name": "owner",
          "type": "address",
          "indexed": true,
          "internalType": "address"
        },
        {
          "name": "operator",
          "type": "address",
          "indexed": true,
          "internalType": "address"
        },
        {
          "name": "approved",
          "type": "bool",
          "indexed": false,
          "internalType": "bool"
        }
      ],
      "anonymous": false
    },
    {
      "type": "event",
      "name": "OwnershipTransferred",
      "inputs": [
        {
          "name": "previousOwner",
          "type": "address",
          "indexed": true,
          "internalType": "address"
        },
        {
          "name": "newOwner",
          "type": "address",
          "indexed": true,
          "internalType": "address"
        }
      ],
      "anonymous": false
    },
    {
      "type": "event",
      "name": "Transfer",
      "inputs": [
        {
          "name": "from",
          "type": "address",
          "indexed": true,
          "internalType": "address"
        },
        {
          "name": "to",
          "type": "address",
          "indexed": true,
          "internalType": "address"
        },
        {
          "name": "tokenId",
          "type": "uint256",
          "indexed": true,
          "internalType": "uint256"
        }
      ],
      "anonymous": false
    },
    {
      "type": "error",
      "name": "FeeExceed10Percent",
      "inputs": []
    },
    {
      "type": "error",
      "name": "MaxSupplyCanNotBeLowerThanActual",
      "inputs": []
    },
    {
      "type": "error",
      "name": "MaxSupplyCanNotBeMoreThan500",
      "inputs": []
    },
    {
      "type": "error",
      "name": "MaxSupplyCanNotbeOdd",
      "inputs": []
    },
    {
      "type": "error",
      "name": "NoReserveToken1",
      "inputs": []
    },
    {
      "type": "error",
      "name": "NoReserveToken2",
      "inputs": []
    },
    {
      "type": "error",
      "name": "PercentCanNotBeMoreThan100Percent",
      "inputs": []
    },
    {
      "type": "error",
      "name": "PublicSaleNotStarted",
      "inputs": []
    },
    {
      "type": "error",
      "name": "SupplySealed",
      "inputs": []
    },
    {
      "type": "error",
      "name": "WihdrawToZeroAddress",
      "inputs": []
    },
    {
      "type": "error",
      "name": "ZeroAddress",
      "inputs": []
    },
    {
      "type": "error",
      "name": "exceedAllowedToken1Mint",
      "inputs": []
    },
    {
      "type": "error",
      "name": "exceedAllowedToken2Mint",
      "inputs": []
    },
    {
      "type": "error",
      "name": "failWhithdraw",
      "inputs": []
    },
    {
      "type": "error",
      "name": "invalidAmountSend",
      "inputs": []
    },
    {
      "type": "error",
      "name": "invalidSignature",
      "inputs": []
    },
    {
      "type": "error",
      "name": "maxSupplyToken1Reach",
      "inputs": []
    },
    {
      "type": "error",
      "name": "maxSupplyToken2Reach",
      "inputs": []
    },
    {
      "type": "error",
      "name": "noSupplyAvailableToken1",
      "inputs": []
    },
    {
      "type": "error",
      "name": "noSupplyAvailableToken2",
      "inputs": []
    },
    {
      "type": "error",
      "name": "whithdrawZeroValue",
      "inputs": []
    }
  ],
  "bytecode": {
    "object": "0x60e06040526035608081815290620038f060a039600b90620000229082620004b2565b506040518060600160405280603581526020016200396560359139600c906200004c9082620004b2565b5060405180606001604052806035815260200162003a0a60359139600d90620000769082620004b2565b50604051806060016040528060308152602001620039da60309139600e90620000a09082620004b2565b506040518060600160405280604081526020016200399a60409139600f90620000ca9082620004b2565b506040518060600160405280604081526020016200392560409139601090620000f49082620004b2565b5061012c6011556000601281905560135566038d7ea4c680006014556605543df729c00060155560276016556024601755611770601855601980546001600160a01b0319167390d41fa17a8df96e7dff80227b4fc7d208dfd0261790553480156200015e57600080fd5b506040518060400160405280601381526020017f554e444f5858454420424f4f4b20566f6c2e31000000000000000000000000008152506040518060400160405280600781526020016615539116160c8d60ca1b8152508160009081620001c69190620004b2565b506001620001d58282620004b2565b505050620001f2620001ec6200023e60201b60201c565b62000242565b604080518082019091523381527319c013b64b7b2c7daa59b96514662b687665e85260208201526200022990601a90600262000399565b50620002383361012c62000294565b6200057e565b3390565b600680546001600160a01b038381166001600160a01b0319831681179093556040519116919082907f8be0079c531659141344cd1fd0a4f28419497f9722a3daafe3b4186f6b6457e090600090a35050565b6127106001600160601b0382161115620003085760405162461bcd60e51b815260206004820152602a60248201527f455243323938313a20726f79616c7479206665652077696c6c206578636565646044820152692073616c65507269636560b01b60648201526084015b60405180910390fd5b6001600160a01b038216620003605760405162461bcd60e51b815260206004820152601960248201527f455243323938313a20696e76616c6964207265636569766572000000000000006044820152606401620002ff565b604080518082019091526001600160a01b039092168083526001600160601b039091166020909201829052600160a01b90910217600755565b8260028101928215620003e4579160200282015b82811115620003e457825182546001600160a01b0319166001600160a01b03909116178255602090920191600190910190620003ad565b50620003f2929150620003f6565b5090565b5b80821115620003f25760008155600101620003f7565b634e487b7160e01b600052604160045260246000fd5b600181811c908216806200043857607f821691505b6020821081036200045957634e487b7160e01b600052602260045260246000fd5b50919050565b601f821115620004ad57600081815260208120601f850160051c81016020861015620004885750805b601f850160051c820191505b81811015620004a95782815560010162000494565b5050505b505050565b81516001600160401b03811115620004ce57620004ce6200040d565b620004e681620004df845462000423565b846200045f565b602080601f8311600181146200051e5760008415620005055750858301515b600019600386901b1c1916600185901b178555620004a9565b600085815260208120601f198616915b828110156200054f578886015182559484019460019091019084016200052e565b50858210156200056e5787850151600019600388901b60f8161c191681555b5050505050600190811b01905550565b613362806200058e6000396000f3fe6080604052600436106102e45760003560e01c806377e5635711610190578063cd02771a116100dc578063e985e9c511610095578063f029da5c1161006f578063f029da5c14610862578063f2fde38b14610875578063fb5d9aea14610895578063fee4a6b4146108b557600080fd5b8063e985e9c514610817578063eae241ac14610837578063f01c94741461084d57600080fd5b8063cd02771a14610773578063d44ae1e314610793578063d70e6892146107b3578063dbe16c07146107c8578063dc9a1535146107e8578063de914f261461080257600080fd5b8063a22cb46511610149578063b88d4fde11610123578063b88d4fde146106de578063bb13486e146106fe578063c627525514610733578063c87b56dd1461075357600080fd5b8063a22cb4651461068b578063aec7a9a0146106ab578063b0b6099d146106be57600080fd5b806377e56357146105ec5780637b4b0a431461060157806385ac09c0146106235780638b927e14146106435780638da5cb5b1461065857806395d89b411461067657600080fd5b80632ef06a5d1161024f5780636352211e1161020857806370a08231116101e257806370a0823114610582578063715018a6146105a2578063717d57d3146105b75780637695c744146105d757600080fd5b80636352211e146105225780636c19e783146105425780636f8b44b01461056257600080fd5b80632ef06a5d1461048f578063363e86fe146104ae5780633c52ad56146104c35780633ccfd60b146104d857806342842e0e146104ed5780634c0f38c21461050d57600080fd5b80631a092541116102a15780631a092541146103d35780631aca9e6a146103e85780631b2ef1ca146103fd57806323b872dd146104105780632a55205a146104305780632c3a0f221461046f57600080fd5b806301ffc9a7146102e957806304bc96781461031e57806306fdde0314610342578063081812fc14610364578063095ea7b31461039c5780630da51cd7146103be575b600080fd5b3480156102f557600080fd5b50610309610304366004612987565b6108d5565b60405190151581526020015b60405180910390f35b34801561032a57600080fd5b5061033460175481565b604051908152602001610315565b34801561034e57600080fd5b506103576108e6565b60405161031591906129fb565b34801561037057600080fd5b5061038461037f366004612a0e565b610978565b6040516001600160a01b039091168152602001610315565b3480156103a857600080fd5b506103bc6103b7366004612a43565b61099f565b005b3480156103ca57600080fd5b50601454610334565b3480156103df57600080fd5b50610357610ab9565b3480156103f457600080fd5b50610334610adc565b6103bc61040b366004612a6d565b610af2565b34801561041c57600080fd5b506103bc61042b366004612a8f565b610bda565b34801561043c57600080fd5b5061045061044b366004612a6d565b610c0b565b604080516001600160a01b039093168352602083019190915201610315565b34801561047b57600080fd5b506103bc61048a366004612a0e565b610cb7565b34801561049b57600080fd5b50601c5461030990610100900460ff1681565b3480156104ba57600080fd5b50601554610334565b3480156104cf57600080fd5b506103bc610cf9565b3480156104e457600080fd5b506103bc610d25565b3480156104f957600080fd5b506103bc610508366004612a8f565b610ea0565b34801561051957600080fd5b50601154610334565b34801561052e57600080fd5b5061038461053d366004612a0e565b610ebb565b34801561054e57600080fd5b506103bc61055d366004612acb565b610f1b565b34801561056e57600080fd5b506103bc61057d366004612a0e565b610f45565b34801561058e57600080fd5b5061033461059d366004612acb565b611003565b3480156105ae57600080fd5b506103bc611089565b3480156105c357600080fd5b506103bc6105d2366004612a0e565b61109d565b3480156105e357600080fd5b506103576110aa565b3480156105f857600080fd5b506103bc6110ca565b34801561060d57600080fd5b506106166110e1565b6040516103159190612ae6565b34801561062f57600080fd5b506103bc61063e366004612bd6565b611217565b34801561064f57600080fd5b50601254610334565b34801561066457600080fd5b506006546001600160a01b0316610384565b34801561068257600080fd5b50610357611440565b34801561069757600080fd5b506103bc6106a6366004612c3a565b61144f565b6103bc6106b9366004612bd6565b61145e565b3480156106ca57600080fd5b506103bc6106d9366004612a0e565b61160a565b3480156106ea57600080fd5b506103bc6106f9366004612c76565b61164c565b34801561070a57600080fd5b5061071e610719366004612cde565b61167e565b60408051928352602083019190915201610315565b34801561073f57600080fd5b506103bc61074e366004612a0e565b6116c8565b34801561075f57600080fd5b5061035761076e366004612a0e565b6116d5565b34801561077f57600080fd5b506103bc61078e366004612d13565b6117d3565b34801561079f57600080fd5b506103bc6107ae366004612d4b565b611811565b3480156107bf57600080fd5b50610334611882565b3480156107d457600080fd5b506103576107e3366004612a0e565b611894565b3480156107f457600080fd5b50601c546103099060ff1681565b34801561080e57600080fd5b50601354610334565b34801561082357600080fd5b50610309610832366004612d4b565b611934565b34801561084357600080fd5b5061033460165481565b34801561085957600080fd5b50610334611962565b6103bc610870366004612bd6565b611974565b34801561088157600080fd5b506103bc610890366004612acb565b611b4c565b3480156108a157600080fd5b506103bc6108b0366004612a0e565b611bc5565b3480156108c157600080fd5b506103576108d0366004612a0e565b611bf5565b60006108e082611d35565b92915050565b6060600080546108f590612d7e565b80601f016020809104026020016040519081016040528092919081815260200182805461092190612d7e565b801561096e5780601f106109435761010080835404028352916020019161096e565b820191906000526020600020905b81548152906001019060200180831161095157829003601f168201915b5050505050905090565b600061098382611d5a565b506000908152600460205260409020546001600160a01b031690565b60006109aa82610ebb565b9050806001600160a01b0316836001600160a01b031603610a1c5760405162461bcd60e51b815260206004820152602160248201527f4552433732313a20617070726f76616c20746f2063757272656e74206f776e656044820152603960f91b60648201526084015b60405180910390fd5b336001600160a01b0382161480610a385750610a388133611934565b610aaa5760405162461bcd60e51b815260206004820152603d60248201527f4552433732313a20617070726f76652063616c6c6572206973206e6f7420746f60448201527f6b656e206f776e6572206f7220617070726f76656420666f7220616c6c0000006064820152608401610a13565b610ab48383611db9565b505050565b6060604051806101a00160405280610173815260200161317a6101739139905090565b60006002601154610aed9190612de4565b905090565b336000610afd610adc565b601c5490915060ff16610b235760405163ac4d09c760e01b815260040160405180910390fd5b8060165485601254610b359190612df8565b610b3f9190612df8565b1115610b5e576040516306ab2e5160e01b815260040160405180910390fd5b8060175484601354610b709190612df8565b610b7a9190612df8565b1115610b995760405163c62be36d60e01b815260040160405180910390fd5b34601554848601021115610bc057604051631bfc08e760e11b815260040160405180910390fd5b610bca8285611e27565b610bd48284611eed565b50505050565b610be43382611f30565b610c005760405162461bcd60e51b8152600401610a1390612e0b565b610ab4838383611f8f565b60008281526008602090815260408083208151808301909252546001600160a01b038116808352600160a01b9091046001600160601b0316928201929092528291610c805750604080518082019091526007546001600160a01b0381168252600160a01b90046001600160601b031660208201525b602081015160009061271090610c9f906001600160601b031687612e58565b610ca99190612de4565b915196919550909350505050565b610cbf6120f3565b610cc7610adc565b81601354610cd59190612df8565b1115610cf4576040516313f38bd360e11b815260040160405180910390fd5b601755565b610d016120f3565b601354601254610d119190612df8565b601155601c805461ff001916610100179055565b610d2d6120f3565b601a546001600160a01b03161580610d4e5750601b546001600160a01b0316155b15610d6c57604051633bbc0f0760e01b815260040160405180910390fd5b476000819003610d8f576040516304abc4f760e21b815260040160405180910390fd5b600061271060185483610da29190612e58565b610dac9190612de4565b601a546040519192506000916001600160a01b039091169083908381818185875af1925050503d8060008114610dfe576040519150601f19603f3d011682016040523d82523d6000602084013e610e03565b606091505b5050905080610e25576040516391ac981760e01b815260040160405180910390fd5b601b546001600160a01b0316610e3b8385612e6f565b604051600081818185875af1925050503d8060008114610e77576040519150601f19603f3d011682016040523d82523d6000602084013e610e7c565b606091505b50508091505080610ab4576040516391ac981760e01b815260040160405180910390fd5b610ab48383836040518060200160405280600081525061164c565b6000818152600260205260408120546001600160a01b0316806108e05760405162461bcd60e51b8152602060048201526018602482015277115490cdcc8c4e881a5b9d985b1a59081d1bdad95b88125160421b6044820152606401610a13565b610f236120f3565b601980546001600160a01b0319166001600160a01b0392909216919091179055565b610f4d6120f3565b6101f4811115610f7057604051632a1601a160e11b815260040160405180910390fd5b610f7b600282612e82565b600103610f9b57604051635461466f60e01b815260040160405180910390fd5b610fa3611882565b610fab611962565b610fb59190612df8565b811115610fd55760405163cddfa3f160e01b815260040160405180910390fd5b601c54610100900460ff1615610ffe576040516331479d0960e01b815260040160405180910390fd5b601155565b60006001600160a01b03821661106d5760405162461bcd60e51b815260206004820152602960248201527f4552433732313a2061646472657373207a65726f206973206e6f7420612076616044820152683634b21037bbb732b960b91b6064820152608401610a13565b506001600160a01b031660009081526003602052604090205490565b6110916120f3565b61109b600061214d565b565b6110a56120f3565b601455565b60606040518060600160405280604081526020016132ed60409139905090565b6110d26120f3565b601c805460ff19166001179055565b6110e961294a565b6040518060400160405280600d805461110190612d7e565b80601f016020809104026020016040519081016040528092919081815260200182805461112d90612d7e565b801561117a5780601f1061114f5761010080835404028352916020019161117a565b820191906000526020600020905b81548152906001019060200180831161115d57829003601f168201915b50505050508152602001600e805461119190612d7e565b80601f01602080910402602001604051908101604052809291908181526020018280546111bd90612d7e565b801561120a5780601f106111df5761010080835404028352916020019161120a565b820191906000526020600020905b8154815290600101906020018083116111ed57829003601f168201915b5050505050815250905090565b601954339084908490600190859061123c906001600160a01b0316868686868661219f565b611259576040516368e6090160e11b815260040160405180910390fd5b336000611264610adc565b905089601d896040516112779190612e96565b9081526020016040518091039020548d6112919190612df8565b11156112b057604051632508c3ed60e11b815260040160405180910390fd5b88601e896040516112c19190612e96565b9081526020016040518091039020548c6112db9190612df8565b11156112fa5760405163d4b4828d60e01b815260040160405180910390fd5b808c6012546113099190612df8565b1115611328576040516306ab2e5160e01b815260040160405180910390fd5b808b6013546113379190612df8565b11156113565760405163c62be36d60e01b815260040160405180910390fd5b6016548c1115611379576040516306b347d360e51b815260040160405180910390fd5b6017548b111561139c5760405163783aece160e11b815260040160405180910390fd5b8b601d896040516113ad9190612e96565b90815260405190819003602001812080549092019091558b90601e906113d4908b90612e96565b90815260405190819003602001902080549091019055601680548d91906000906113ff908490612e6f565b925050819055508a601760008282546114189190612e6f565b909155506114289050828d611e27565b611432828c611eed565b505050505050505050505050565b6060600180546108f590612d7e565b61145a338383612236565b5050565b6019543390849084906006908590611483906001600160a01b0316868686868661219f565b6114a0576040516368e6090160e11b815260040160405180910390fd5b3360006114ab610adc565b905089601d896040516114be9190612e96565b9081526020016040518091039020548d6114d89190612df8565b11156114f757604051632508c3ed60e11b815260040160405180910390fd5b88601e896040516115089190612e96565b9081526020016040518091039020548c6115229190612df8565b11156115415760405163d4b4828d60e01b815260040160405180910390fd5b808c6012546115509190612df8565b111561156f576040516306ab2e5160e01b815260040160405180910390fd5b808b60135461157e9190612df8565b111561159d5760405163c62be36d60e01b815260040160405180910390fd5b6016548c11156115c0576040516306b347d360e51b815260040160405180910390fd5b6017548b11156115e35760405163783aece160e11b815260040160405180910390fd5b346014548c8e0102111561139c57604051631bfc08e760e11b815260040160405180910390fd5b6116126120f3565b61161a610adc565b816012546116289190612df8565b11156116475760405163ba14ba6f60e01b815260040160405180910390fd5b601655565b6116563383611f30565b6116725760405162461bcd60e51b8152600401610a1390612e0b565b610bd484848484612304565b600080601d836040516116919190612e96565b9081526020016040518091039020549150601e836040516116b29190612e96565b9081526020016040518091039020549050915091565b6116d06120f3565b601555565b6000818152600260205260409020546060906001600160a01b031661170857505060408051602081019091526000815290565b600f6040516117179190612eb2565b604051809103902061172883611bf5565b80519060200120036117c657600b805461174190612d7e565b80601f016020809104026020016040519081016040528092919081815260200182805461176d90612d7e565b80156117ba5780601f1061178f576101008083540402835291602001916117ba565b820191906000526020600020905b81548152906001019060200180831161179d57829003601f168201915b50505050509050919050565b600c805461174190612d7e565b6117db6120f3565b6103e8816001600160601b0316111561180757604051633f3aca3d60e21b815260040160405180910390fd5b61145a8282612337565b6118196120f3565b6001600160a01b038216158061183657506001600160a01b038116155b156118545760405163d92e233d60e01b815260040160405180910390fd5b601a80546001600160a01b039384166001600160a01b031991821617909155601b8054929093169116179055565b6000601754601654610aed9190612df8565b6060600f6040516118a59190612eb2565b60405180910390206118b683611bf5565b80519060200120036118fb57505060408051808201909152601981527f554e444f5858454420424f4f4b20766f6c2e3120426c61636b00000000000000602082015290565b505060408051808201909152601a81527f554e444f5858454420424f4f4b20766f6c2e3120507572706c65000000000000602082015290565b6001600160a01b03918216600090815260056020908152604080832093909416825291909152205460ff1690565b6000601354601254610aed9190612df8565b6019543390849084906002908590611999906001600160a01b0316868686868661219f565b6119b6576040516368e6090160e11b815260040160405180910390fd5b3360006119c1610adc565b905089601d896040516119d49190612e96565b9081526020016040518091039020548d6119ee9190612df8565b1115611a0d57604051632508c3ed60e11b815260040160405180910390fd5b88601e89604051611a1e9190612e96565b9081526020016040518091039020548c611a389190612df8565b1115611a575760405163d4b4828d60e01b815260040160405180910390fd5b806016548d601254611a699190612df8565b611a739190612df8565b1115611a92576040516306ab2e5160e01b815260040160405180910390fd5b806017548c601354611aa49190612df8565b611aae9190612df8565b1115611acd5760405163c62be36d60e01b815260040160405180910390fd5b346014548c8e01021115611af457604051631bfc08e760e11b815260040160405180910390fd5b8b601d89604051611b059190612e96565b90815260405190819003602001812080549092019091558b90601e90611b2c908b90612e96565b90815260405190819003602001902080549091019055611428828d611e27565b611b546120f3565b6001600160a01b038116611bb95760405162461bcd60e51b815260206004820152602660248201527f4f776e61626c653a206e6577206f776e657220697320746865207a65726f206160448201526564647265737360d01b6064820152608401610a13565b611bc28161214d565b50565b611bcd6120f3565b612710811115611bf057604051630f1cc57b60e01b815260040160405180910390fd5b601855565b6060611c0082611d5a565b6000828152600a602052604081208054611c1990612d7e565b80601f0160208091040260200160405190810160405280929190818152602001828054611c4590612d7e565b8015611c925780601f10611c6757610100808354040283529160200191611c92565b820191906000526020600020905b815481529060010190602001808311611c7557829003601f168201915b5050505050905080516000036108e05760098054611caf90612d7e565b80601f0160208091040260200160405190810160405280929190818152602001828054611cdb90612d7e565b8015611d285780601f10611cfd57610100808354040283529160200191611d28565b820191906000526020600020905b815481529060010190602001808311611d0b57829003601f168201915b5050505050915050919050565b60006001600160e01b0319821663152a902d60e11b14806108e057506108e082612434565b6000818152600260205260409020546001600160a01b0316611bc25760405162461bcd60e51b8152602060048201526018602482015277115490cdcc8c4e881a5b9d985b1a59081d1bdad95b88125160421b6044820152606401610a13565b600081815260046020526040902080546001600160a01b0319166001600160a01b0384169081179091558190611dee82610ebb565b6001600160a01b03167f8c5be1e5ebec7d5bd14f71427d1e84f3dd0314c0f7b2291e5b200ac8c7c3b92560405160405180910390a45050565b60005b81811015610ab45760135460125401600101611e468482612484565b611eda81600f8054611e5790612d7e565b80601f0160208091040260200160405190810160405280929190818152602001828054611e8390612d7e565b8015611ed05780601f10611ea557610100808354040283529160200191611ed0565b820191906000526020600020905b815481529060010190602001808311611eb357829003601f168201915b505050505061260f565b5060128054600190810190915501611e2a565b60005b81811015610ab45760135460125401600101611f0c8482612484565b611f1d8160108054611e5790612d7e565b5060138054600190810190915501611ef0565b600080611f3c83610ebb565b9050806001600160a01b0316846001600160a01b03161480611f635750611f638185611934565b80611f875750836001600160a01b0316611f7c84610978565b6001600160a01b0316145b949350505050565b826001600160a01b0316611fa282610ebb565b6001600160a01b031614611fc85760405162461bcd60e51b8152600401610a1390612f28565b6001600160a01b03821661202a5760405162461bcd60e51b8152602060048201526024808201527f4552433732313a207472616e7366657220746f20746865207a65726f206164646044820152637265737360e01b6064820152608401610a13565b826001600160a01b031661203d82610ebb565b6001600160a01b0316146120635760405162461bcd60e51b8152600401610a1390612f28565b600081815260046020908152604080832080546001600160a01b03199081169091556001600160a01b0387811680865260038552838620805460001901905590871680865283862080546001019055868652600290945282852080549092168417909155905184937fddf252ad1be2c89b69c2b068fc378daa952ba7f163c4a11628f55a4df523b3ef91a4505050565b6006546001600160a01b0316331461109b5760405162461bcd60e51b815260206004820181905260248201527f4f776e61626c653a2063616c6c6572206973206e6f7420746865206f776e65726044820152606401610a13565b600680546001600160a01b038381166001600160a01b0319831681179093556040519116919082907f8be0079c531659141344cd1fd0a4f28419497f9722a3daafe3b4186f6b6457e090600090a35050565b6000806121ae87878787612720565b90506000612209826040517f19457468657265756d205369676e6564204d6573736167653a0a3332000000006020820152603c8101829052600090605c01604051602081830303815290604052805190602001209050919050565b9050886001600160a01b031661221f8286612759565b6001600160a01b0316149998505050505050505050565b816001600160a01b0316836001600160a01b0316036122975760405162461bcd60e51b815260206004820152601960248201527f4552433732313a20617070726f766520746f2063616c6c6572000000000000006044820152606401610a13565b6001600160a01b03838116600081815260056020908152604080832094871680845294825291829020805460ff191686151590811790915591519182527f17307eab39ab6107e8899845ad3d59bd9653f200f220920489ca2b5937696c31910160405180910390a3505050565b61230f848484611f8f565b61231b848484846127d8565b610bd45760405162461bcd60e51b8152600401610a1390612f6d565b6127106001600160601b03821611156123a55760405162461bcd60e51b815260206004820152602a60248201527f455243323938313a20726f79616c7479206665652077696c6c206578636565646044820152692073616c65507269636560b01b6064820152608401610a13565b6001600160a01b0382166123fb5760405162461bcd60e51b815260206004820152601960248201527f455243323938313a20696e76616c6964207265636569766572000000000000006044820152606401610a13565b604080518082019091526001600160a01b039092168083526001600160601b039091166020909201829052600160a01b90910217600755565b60006001600160e01b031982166380ac58cd60e01b148061246557506001600160e01b03198216635b5e139f60e01b145b806108e057506301ffc9a760e01b6001600160e01b03198316146108e0565b6001600160a01b0382166124da5760405162461bcd60e51b815260206004820181905260248201527f4552433732313a206d696e7420746f20746865207a65726f20616464726573736044820152606401610a13565b6000818152600260205260409020546001600160a01b03161561253f5760405162461bcd60e51b815260206004820152601c60248201527f4552433732313a20746f6b656e20616c7265616479206d696e746564000000006044820152606401610a13565b6000818152600260205260409020546001600160a01b0316156125a45760405162461bcd60e51b815260206004820152601c60248201527f4552433732313a20746f6b656e20616c7265616479206d696e746564000000006044820152606401610a13565b6001600160a01b038216600081815260036020908152604080832080546001019055848352600290915280822080546001600160a01b0319168417905551839291907fddf252ad1be2c89b69c2b068fc378daa952ba7f163c4a11628f55a4df523b3ef908290a45050565b6000828152600260205260409020546001600160a01b03166126905760405162461bcd60e51b815260206004820152603460248201527f4552433732315065726d616e656e7450726f6f663a2050726f6f66207365742060448201527337b3103737b732bc34b9ba32b73a103a37b5b2b760611b6064820152608401610a13565b6000828152600a6020526040902080546126a990612d7e565b1590506127085760405162461bcd60e51b815260206004820152602760248201527f4552433732315065726d616e656e7450726f6f663a2050726f6f6620616c726560448201526618591e481cd95d60ca1b6064820152608401610a13565b6000828152600a60205260409020610ab4828261300d565b60008484848460405160200161273994939291906130cd565b604051602081830303815290604052805190602001209050949350505050565b600080600080612768856128d6565b6040805160008152602081018083528b905260ff8316918101919091526060810184905260808101839052929550909350915060019060a0016020604051602081039080840390855afa1580156127c3573d6000803e3d6000fd5b5050604051601f190151979650505050505050565b60006001600160a01b0384163b156128ce57604051630a85bd0160e11b81526001600160a01b0385169063150b7a029061281c90339089908890889060040161311f565b6020604051808303816000875af1925050508015612857575060408051601f3d908101601f191682019092526128549181019061315c565b60015b6128b4573d808015612885576040519150601f19603f3d011682016040523d82523d6000602084013e61288a565b606091505b5080516000036128ac5760405162461bcd60e51b8152600401610a1390612f6d565b805181602001fd5b6001600160e01b031916630a85bd0160e11b149050611f87565b506001611f87565b6000806000835160411461292c5760405162461bcd60e51b815260206004820152601860248201527f696e76616c6964207369676e6174757265206c656e67746800000000000000006044820152606401610a13565b50505060208101516040820151606090920151909260009190911a90565b60405180604001604052806002905b60608152602001906001900390816129595790505090565b6001600160e01b031981168114611bc257600080fd5b60006020828403121561299957600080fd5b81356129a481612971565b9392505050565b60005b838110156129c65781810151838201526020016129ae565b50506000910152565b600081518084526129e78160208601602086016129ab565b601f01601f19169290920160200192915050565b6020815260006129a460208301846129cf565b600060208284031215612a2057600080fd5b5035919050565b80356001600160a01b0381168114612a3e57600080fd5b919050565b60008060408385031215612a5657600080fd5b612a5f83612a27565b946020939093013593505050565b60008060408385031215612a8057600080fd5b50508035926020909101359150565b600080600060608486031215612aa457600080fd5b612aad84612a27565b9250612abb60208501612a27565b9150604084013590509250925092565b600060208284031215612add57600080fd5b6129a482612a27565b60208082526000906060830183820185845b6002811015612b2757601f19878503018352612b158483516129cf565b93509184019190840190600101612af8565b50919695505050505050565b634e487b7160e01b600052604160045260246000fd5b600082601f830112612b5a57600080fd5b813567ffffffffffffffff80821115612b7557612b75612b33565b604051601f8301601f19908116603f01168101908282118183101715612b9d57612b9d612b33565b81604052838152866020858801011115612bb657600080fd5b836020870160208301376000602085830101528094505050505092915050565b600080600080600060a08688031215612bee57600080fd5b85359450602086013593506040860135925060608601359150608086013567ffffffffffffffff811115612c2157600080fd5b612c2d88828901612b49565b9150509295509295909350565b60008060408385031215612c4d57600080fd5b612c5683612a27565b915060208301358015158114612c6b57600080fd5b809150509250929050565b60008060008060808587031215612c8c57600080fd5b612c9585612a27565b9350612ca360208601612a27565b925060408501359150606085013567ffffffffffffffff811115612cc657600080fd5b612cd287828801612b49565b91505092959194509250565b600060208284031215612cf057600080fd5b813567ffffffffffffffff811115612d0757600080fd5b611f8784828501612b49565b60008060408385031215612d2657600080fd5b612d2f83612a27565b915060208301356001600160601b0381168114612c6b57600080fd5b60008060408385031215612d5e57600080fd5b612d6783612a27565b9150612d7560208401612a27565b90509250929050565b600181811c90821680612d9257607f821691505b602082108103612db257634e487b7160e01b600052602260045260246000fd5b50919050565b634e487b7160e01b600052601260045260246000fd5b634e487b7160e01b600052601160045260246000fd5b600082612df357612df3612db8565b500490565b808201808211156108e0576108e0612dce565b6020808252602d908201527f4552433732313a2063616c6c6572206973206e6f7420746f6b656e206f776e6560408201526c1c881bdc88185c1c1c9bdd9959609a1b606082015260800190565b80820281158282048414176108e0576108e0612dce565b818103818111156108e0576108e0612dce565b600082612e9157612e91612db8565b500690565b60008251612ea88184602087016129ab565b9190910192915050565b6000808354612ec081612d7e565b60018281168015612ed85760018114612eed57612f1c565b60ff1984168752821515830287019450612f1c565b8760005260208060002060005b85811015612f135781548a820152908401908201612efa565b50505082870194505b50929695505050505050565b60208082526025908201527f4552433732313a207472616e736665722066726f6d20696e636f72726563742060408201526437bbb732b960d91b606082015260800190565b60208082526032908201527f4552433732313a207472616e7366657220746f206e6f6e20455243373231526560408201527131b2b4bb32b91034b6b83632b6b2b73a32b960711b606082015260800190565b601f821115610ab457600081815260208120601f850160051c81016020861015612fe65750805b601f850160051c820191505b8181101561300557828155600101612ff2565b505050505050565b815167ffffffffffffffff81111561302757613027612b33565b61303b816130358454612d7e565b84612fbf565b602080601f83116001811461307057600084156130585750858301515b600019600386901b1c1916600185901b178555613005565b600085815260208120601f198616915b8281101561309f57888601518255948401946001909101908401613080565b50858210156130bd5787850151600019600388901b60f8161c191681555b5050505050600190811b01905550565b6001600160601b03198560601b16815283601482015282603482015260006007831061310957634e487b7160e01b600052602160045260246000fd5b5060f89190911b60548201526055019392505050565b6001600160a01b0385811682528416602082015260408101839052608060608201819052600090613152908301846129cf565b9695505050505050565b60006020828403121561316e57600080fd5b81516129a48161297156fe554e444f585845442c207468652066696e65737420696e206469676974616c206c6966657374796c652063756c747572652c20697320616e20616e6e75616c2068796272696420626f6f6b2074686174206d65726765732073747265657420616e64206c6966657374796c652063756c74757265207769746820746865206469676974616c20776f726c642e20497420666f6375736573206f6e2066617368696f6e2c20736e65616b6572732c20616e6420737472656574776561722c20636174616c6f67696e67207468652062657374206f6620706879676974616c2063756c747572652e2054686973207075626c69636174696f6e20627269646765732074686520706879736963616c20616e64206469676974616c207265616c6d732077697468696e207468652065766f6c76696e6720576562332073706163652e203344206279205279616e204f776572732c2041727420446972656374696f6e20616e64204d7573696320627920584552414b2e37326437373935626664353165633666303263373036353064316265613035356531303738623765316166386338323137336436313764333036383537303231a264697066735822122024a366635d6402568c77164040768609274414bf45cbddfc23acd048c473cf6964736f6c63430008130033697066733a2f2f516d626f364d4570373838454b5766335947526b527844567262454c314c335a6a34633243345732454744586e5535656438373364623637376162363035393661353631383161663038353735623632333833383734663566393861616237353834303666346630303565353337697066733a2f2f516d506f6a695451795a6b3763704a334c766248726f4a4a4e70746f5834355a4c6a3172355255655771645379583137643731343237653938626532303039376339356664666666613035366265386537376532383331336434373264656336353765373131656631623138626461723a2f2f2d626b32463238766d766768576f3930677242484b624331324154496a674b47334e4c3047327430473163697066733a2f2f516d585377615453674d61694552317a4b4d366d646a6a414436594d58654567514242424668643476767443566b",
    "linkReferences": {}
  },
  "methodIdentifiers": {
    "allowlistMint(uint256,uint256,uint256,uint256,bytes)": "85ac09c0",
    "approve(address,uint256)": "095ea7b3",
    "balanceOf(address)": "70a08231",
    "cover1Reserved()": "eae241ac",
    "cover2Reserved()": "04bc9678",
    "getAllSupply()": "f01c9474",
    "getApproved(uint256)": "081812fc",
    "getBalanceMintBySign(bytes)": "bb13486e",
    "getDescription()": "1a092541",
    "getMaxSupply()": "4c0f38c2",
    "getMaxSupplyCover()": "1aca9e6a",
    "getMediaProofPermanent()": "7695c744",
    "getPublicPrice()": "363e86fe",
    "getToken1Supply()": "8b927e14",
    "getToken2Supply()": "de914f26",
    "getTokenMediaPermanent()": "7b4b0a43",
    "getTokenName(uint256)": "dbe16c07",
    "getTotalReservedCover()": "d70e6892",
    "getWhitelistPrice()": "0da51cd7",
    "isApprovedForAll(address,address)": "e985e9c5",
    "isPublic()": "dc9a1535",
    "mint(uint256,uint256)": "1b2ef1ca",
    "name()": "06fdde03",
    "owner()": "8da5cb5b",
    "ownerOf(uint256)": "6352211e",
    "privateWhitelistMint(uint256,uint256,uint256,uint256,bytes)": "aec7a9a0",
    "renounceOwnership()": "715018a6",
    "royaltyInfo(uint256,uint256)": "2a55205a",
    "safeTransferFrom(address,address,uint256)": "42842e0e",
    "safeTransferFrom(address,address,uint256,bytes)": "b88d4fde",
    "sealSupply()": "3c52ad56",
    "setApprovalForAll(address,bool)": "a22cb465",
    "setDefaultRoyalties(address,uint96)": "cd02771a",
    "setFundsReceivers(address,address)": "d44ae1e3",
    "setMaxSupply(uint256)": "6f8b44b0",
    "setPercentReceiver(uint256)": "fb5d9aea",
    "setPublic()": "77e56357",
    "setPublicPrice(uint256)": "c6275255",
    "setReserveToken1(uint256)": "b0b6099d",
    "setReserveToken2(uint256)": "2c3a0f22",
    "setSigner(address)": "6c19e783",
    "setWhitelistPrice(uint256)": "717d57d3",
    "supplySealed()": "2ef06a5d",
    "supportsInterface(bytes4)": "01ffc9a7",
    "symbol()": "95d89b41",
    "tokenProofPermanent(uint256)": "fee4a6b4",
    "tokenURI(uint256)": "c87b56dd",
    "transferFrom(address,address,uint256)": "23b872dd",
    "transferOwnership(address)": "f2fde38b",
    "whitelistMint(uint256,uint256,uint256,uint256,bytes)": "f029da5c",
    "withdraw()": "3ccfd60b"
  },
  "id": 34
}