{
  "abi": [
    {
      "type": "constructor",
      "inputs": [],
      "stateMutability": "nonpayable"
    },
    {
      "type": "function",
      "name": "addPermanentTokenURI",
      "inputs": [
        {
          "name": "_tokenId",
          "type": "uint256",
          "internalType": "uint256"
        },
        {
          "name": "_tokenURI",
          "type": "string",
          "internalType": "string"
        }
      ],
      "outputs": [],
      "stateMutability": "nonpayable"
    },
    {
      "type": "function",
      "name": "allowlistMint",
      "inputs": [
        {
          "name": "_amount1",
          "type": "uint256",
          "internalType": "uint256"
        },
        {
          "name": "_amount2",
          "type": "uint256",
          "internalType": "uint256"
        },
        {
          "name": "_amount1Sign",
          "type": "uint256",
          "internalType": "uint256"
        },
        {
          "name": "_amount2Sign",
          "type": "uint256",
          "internalType": "uint256"
        },
        {
          "name": "_sign",
          "type": "bytes",
          "internalType": "bytes"
        }
      ],
      "outputs": [],
      "stateMutability": "nonpayable"
    },
    {
      "type": "function",
      "name": "approve",
      "inputs": [
        {
          "name": "to",
          "type": "address",
          "internalType": "address"
        },
        {
          "name": "tokenId",
          "type": "uint256",
          "internalType": "uint256"
        }
      ],
      "outputs": [],
      "stateMutability": "nonpayable"
    },
    {
      "type": "function",
      "name": "balanceOf",
      "inputs": [
        {
          "name": "owner",
          "type": "address",
          "internalType": "address"
        }
      ],
      "outputs": [
        {
          "name": "",
          "type": "uint256",
          "internalType": "uint256"
        }
      ],
      "stateMutability": "view"
    },
    {
      "type": "function",
      "name": "getAllSupply",
      "inputs": [],
      "outputs": [
        {
          "name": "",
          "type": "uint256",
          "internalType": "uint256"
        }
      ],
      "stateMutability": "view"
    },
    {
      "type": "function",
      "name": "getApproved",
      "inputs": [
        {
          "name": "tokenId",
          "type": "uint256",
          "internalType": "uint256"
        }
      ],
      "outputs": [
        {
          "name": "",
          "type": "address",
          "internalType": "address"
        }
      ],
      "stateMutability": "view"
    },
    {
      "type": "function",
      "name": "getBalanceMintBySign",
      "inputs": [
        {
          "name": "_sign",
          "type": "bytes",
          "internalType": "bytes"
        }
      ],
      "outputs": [
        {
          "name": "cover1",
          "type": "uint256",
          "internalType": "uint256"
        },
        {
          "name": "cover2",
          "type": "uint256",
          "internalType": "uint256"
        }
      ],
      "stateMutability": "view"
    },
    {
      "type": "function",
      "name": "getDescription",
      "inputs": [],
      "outputs": [
        {
          "name": "",
          "type": "string",
          "internalType": "string"
        }
      ],
      "stateMutability": "pure"
    },
    {
      "type": "function",
      "name": "getMaxSupplyCover",
      "inputs": [],
      "outputs": [
        {
          "name": "",
          "type": "uint256",
          "internalType": "uint256"
        }
      ],
      "stateMutability": "view"
    },
    {
      "type": "function",
      "name": "getPublicPrice",
      "inputs": [],
      "outputs": [
        {
          "name": "",
          "type": "uint256",
          "internalType": "uint256"
        }
      ],
      "stateMutability": "view"
    },
    {
      "type": "function",
      "name": "getToken1Supply",
      "inputs": [],
      "outputs": [
        {
          "name": "",
          "type": "uint256",
          "internalType": "uint256"
        }
      ],
      "stateMutability": "view"
    },
    {
      "type": "function",
      "name": "getToken2Supply",
      "inputs": [],
      "outputs": [
        {
          "name": "",
          "type": "uint256",
          "internalType": "uint256"
        }
      ],
      "stateMutability": "view"
    },
    {
      "type": "function",
      "name": "getTokenMedia",
      "inputs": [
        {
          "name": "_tokenId",
          "type": "uint256",
          "internalType": "uint256"
        }
      ],
      "outputs": [
        {
          "name": "",
          "type": "string",
          "internalType": "string"
        }
      ],
      "stateMutability": "view"
    },
    {
      "type": "function",
      "name": "getTokenName",
      "inputs": [
        {
          "name": "_tokenId",
          "type": "uint256",
          "internalType": "uint256"
        }
      ],
      "outputs": [
        {
          "name": "",
          "type": "string",
          "internalType": "string"
        }
      ],
      "stateMutability": "view"
    },
    {
      "type": "function",
      "name": "getWhitelistPrice",
      "inputs": [],
      "outputs": [
        {
          "name": "",
          "type": "uint256",
          "internalType": "uint256"
        }
      ],
      "stateMutability": "view"
    },
    {
      "type": "function",
      "name": "isApprovedForAll",
      "inputs": [
        {
          "name": "owner",
          "type": "address",
          "internalType": "address"
        },
        {
          "name": "operator",
          "type": "address",
          "internalType": "address"
        }
      ],
      "outputs": [
        {
          "name": "",
          "type": "bool",
          "internalType": "bool"
        }
      ],
      "stateMutability": "view"
    },
    {
      "type": "function",
      "name": "isPublic",
      "inputs": [],
      "outputs": [
        {
          "name": "",
          "type": "bool",
          "internalType": "bool"
        }
      ],
      "stateMutability": "view"
    },
    {
      "type": "function",
      "name": "mint",
      "inputs": [
        {
          "name": "_amount1",
          "type": "uint256",
          "internalType": "uint256"
        },
        {
          "name": "_amount2",
          "type": "uint256",
          "internalType": "uint256"
        }
      ],
      "outputs": [],
      "stateMutability": "payable"
    },
    {
      "type": "function",
      "name": "name",
      "inputs": [],
      "outputs": [
        {
          "name": "",
          "type": "string",
          "internalType": "string"
        }
      ],
      "stateMutability": "view"
    },
    {
      "type": "function",
      "name": "owner",
      "inputs": [],
      "outputs": [
        {
          "name": "",
          "type": "address",
          "internalType": "address"
        }
      ],
      "stateMutability": "view"
    },
    {
      "type": "function",
      "name": "ownerOf",
      "inputs": [
        {
          "name": "tokenId",
          "type": "uint256",
          "internalType": "uint256"
        }
      ],
      "outputs": [
        {
          "name": "",
          "type": "address",
          "internalType": "address"
        }
      ],
      "stateMutability": "view"
    },
    {
      "type": "function",
      "name": "privateWhitelistMint",
      "inputs": [
        {
          "name": "_amount1",
          "type": "uint256",
          "internalType": "uint256"
        },
        {
          "name": "_amount2",
          "type": "uint256",
          "internalType": "uint256"
        },
        {
          "name": "_amount1Sign",
          "type": "uint256",
          "internalType": "uint256"
        },
        {
          "name": "_amount2Sign",
          "type": "uint256",
          "internalType": "uint256"
        },
        {
          "name": "_sign",
          "type": "bytes",
          "internalType": "bytes"
        }
      ],
      "outputs": [],
      "stateMutability": "payable"
    },
    {
      "type": "function",
      "name": "renounceOwnership",
      "inputs": [],
      "outputs": [],
      "stateMutability": "nonpayable"
    },
    {
      "type": "function",
      "name": "royaltyInfo",
      "inputs": [
        {
          "name": "tokenId",
          "type": "uint256",
          "internalType": "uint256"
        },
        {
          "name": "salePrice",
          "type": "uint256",
          "internalType": "uint256"
        }
      ],
      "outputs": [
        {
          "name": "",
          "type": "address",
          "internalType": "address"
        },
        {
          "name": "",
          "type": "uint256",
          "internalType": "uint256"
        }
      ],
      "stateMutability": "view"
    },
    {
      "type": "function",
      "name": "safeTransferFrom",
      "inputs": [
        {
          "name": "from",
          "type": "address",
          "internalType": "address"
        },
        {
          "name": "to",
          "type": "address",
          "internalType": "address"
        },
        {
          "name": "tokenId",
          "type": "uint256",
          "internalType": "uint256"
        }
      ],
      "outputs": [],
      "stateMutability": "nonpayable"
    },
    {
      "type": "function",
      "name": "safeTransferFrom",
      "inputs": [
        {
          "name": "from",
          "type": "address",
          "internalType": "address"
        },
        {
          "name": "to",
          "type": "address",
          "internalType": "address"
        },
        {
          "name": "tokenId",
          "type": "uint256",
          "internalType": "uint256"
        },
        {
          "name": "data",
          "type": "bytes",
          "internalType": "bytes"
        }
      ],
      "outputs": [],
      "stateMutability": "nonpayable"
    },
    {
      "type": "function",
      "name": "setApprovalForAll",
      "inputs": [
        {
          "name": "operator",
          "type": "address",
          "internalType": "address"
        },
        {
          "name": "approved",
          "type": "bool",
          "internalType": "bool"
        }
      ],
      "outputs": [],
      "stateMutability": "nonpayable"
    },
    {
      "type": "function",
      "name": "setBaseMediaURICover1",
      "inputs": [
        {
          "name": "_newBaseURI",
          "type": "string",
          "internalType": "string"
        }
      ],
      "outputs": [],
      "stateMutability": "nonpayable"
    },
    {
      "type": "function",
      "name": "setBaseMediaURICover2",
      "inputs": [
        {
          "name": "_newBaseURI",
          "type": "string",
          "internalType": "string"
        }
      ],
      "outputs": [],
      "stateMutability": "nonpayable"
    },
    {
      "type": "function",
      "name": "setCover1BaseURI",
      "inputs": [
        {
          "name": "_newBaseURI",
          "type": "string",
          "internalType": "string"
        }
      ],
      "outputs": [],
      "stateMutability": "nonpayable"
    },
    {
      "type": "function",
      "name": "setCover2BaseURI",
      "inputs": [
        {
          "name": "_newBaseURI",
          "type": "string",
          "internalType": "string"
        }
      ],
      "outputs": [],
      "stateMutability": "nonpayable"
    },
    {
      "type": "function",
      "name": "setDefaultRoyalties",
      "inputs": [
        {
          "name": "_recipient",
          "type": "address",
          "internalType": "address"
        },
        {
          "name": "_feeNumerator",
          "type": "uint96",
          "internalType": "uint96"
        }
      ],
      "outputs": [],
      "stateMutability": "nonpayable"
    },
    {
      "type": "function",
      "name": "setFundsReceivers",
      "inputs": [
        {
          "name": "_firstReceiver",
          "type": "address",
          "internalType": "address"
        },
        {
          "name": "_secondReceiver",
          "type": "address",
          "internalType": "address"
        }
      ],
      "outputs": [],
      "stateMutability": "nonpayable"
    },
    {
      "type": "function",
      "name": "setMaxSupply",
      "inputs": [
        {
          "name": "_newMaxSupply",
          "type": "uint256",
          "internalType": "uint256"
        }
      ],
      "outputs": [],
      "stateMutability": "nonpayable"
    },
    {
      "type": "function",
      "name": "setPercentReceiver",
      "inputs": [
        {
          "name": "_percent",
          "type": "uint256",
          "internalType": "uint256"
        }
      ],
      "outputs": [],
      "stateMutability": "nonpayable"
    },
    {
      "type": "function",
      "name": "setPrivatewhitelistToken1",
      "inputs": [
        {
          "name": "_amountToken1",
          "type": "uint256",
          "internalType": "uint256"
        }
      ],
      "outputs": [],
      "stateMutability": "nonpayable"
    },
    {
      "type": "function",
      "name": "setPrivatewhitelistToken2",
      "inputs": [
        {
          "name": "_amountToken2",
          "type": "uint256",
          "internalType": "uint256"
        }
      ],
      "outputs": [],
      "stateMutability": "nonpayable"
    },
    {
      "type": "function",
      "name": "setPublic",
      "inputs": [],
      "outputs": [],
      "stateMutability": "nonpayable"
    },
    {
      "type": "function",
      "name": "setPublicPrice",
      "inputs": [
        {
          "name": "_newPublicPrice",
          "type": "uint256",
          "internalType": "uint256"
        }
      ],
      "outputs": [],
      "stateMutability": "nonpayable"
    },
    {
      "type": "function",
      "name": "setSigner",
      "inputs": [
        {
          "name": "_newSigner",
          "type": "address",
          "internalType": "address"
        }
      ],
      "outputs": [],
      "stateMutability": "nonpayable"
    },
    {
      "type": "function",
      "name": "setTokenProof1",
      "inputs": [
        {
          "name": "_tokenProof",
          "type": "string",
          "internalType": "string"
        }
      ],
      "outputs": [],
      "stateMutability": "nonpayable"
    },
    {
      "type": "function",
      "name": "setTokenProof2",
      "inputs": [
        {
          "name": "_tokenProof",
          "type": "string",
          "internalType": "string"
        }
      ],
      "outputs": [],
      "stateMutability": "nonpayable"
    },
    {
      "type": "function",
      "name": "setWhitelistPrice",
      "inputs": [
        {
          "name": "_newWhitelistPrice",
          "type": "uint256",
          "internalType": "uint256"
        }
      ],
      "outputs": [],
      "stateMutability": "nonpayable"
    },
    {
      "type": "function",
      "name": "supportsInterface",
      "inputs": [
        {
          "name": "interfaceId",
          "type": "bytes4",
          "internalType": "bytes4"
        }
      ],
      "outputs": [
        {
          "name": "",
          "type": "bool",
          "internalType": "bool"
        }
      ],
      "stateMutability": "view"
    },
    {
      "type": "function",
      "name": "symbol",
      "inputs": [],
      "outputs": [
        {
          "name": "",
          "type": "string",
          "internalType": "string"
        }
      ],
      "stateMutability": "view"
    },
    {
      "type": "function",
      "name": "tokenProofPermanent",
      "inputs": [
        {
          "name": "tokenId",
          "type": "uint256",
          "internalType": "uint256"
        }
      ],
      "outputs": [
        {
          "name": "",
          "type": "string",
          "internalType": "string"
        }
      ],
      "stateMutability": "view"
    },
    {
      "type": "function",
      "name": "tokenURI",
      "inputs": [
        {
          "name": "tokenId",
          "type": "uint256",
          "internalType": "uint256"
        }
      ],
      "outputs": [
        {
          "name": "",
          "type": "string",
          "internalType": "string"
        }
      ],
      "stateMutability": "view"
    },
    {
      "type": "function",
      "name": "tokenURIsPermanent",
      "inputs": [
        {
          "name": "tokenId",
          "type": "uint256",
          "internalType": "uint256"
        }
      ],
      "outputs": [
        {
          "name": "",
          "type": "string[]",
          "internalType": "string[]"
        }
      ],
      "stateMutability": "view"
    },
    {
      "type": "function",
      "name": "transferFrom",
      "inputs": [
        {
          "name": "from",
          "type": "address",
          "internalType": "address"
        },
        {
          "name": "to",
          "type": "address",
          "internalType": "address"
        },
        {
          "name": "tokenId",
          "type": "uint256",
          "internalType": "uint256"
        }
      ],
      "outputs": [],
      "stateMutability": "nonpayable"
    },
    {
      "type": "function",
      "name": "transferOwnership",
      "inputs": [
        {
          "name": "newOwner",
          "type": "address",
          "internalType": "address"
        }
      ],
      "outputs": [],
      "stateMutability": "nonpayable"
    },
    {
      "type": "function",
      "name": "whitelistMint",
      "inputs": [
        {
          "name": "_amount1",
          "type": "uint256",
          "internalType": "uint256"
        },
        {
          "name": "_amount2",
          "type": "uint256",
          "internalType": "uint256"
        },
        {
          "name": "_amount1Sign",
          "type": "uint256",
          "internalType": "uint256"
        },
        {
          "name": "_amount2Sign",
          "type": "uint256",
          "internalType": "uint256"
        },
        {
          "name": "_sign",
          "type": "bytes",
          "internalType": "bytes"
        }
      ],
      "outputs": [],
      "stateMutability": "payable"
    },
    {
      "type": "function",
      "name": "withdraw",
      "inputs": [],
      "outputs": [],
      "stateMutability": "nonpayable"
    },
    {
      "type": "event",
      "name": "Approval",
      "inputs": [
        {
          "name": "owner",
          "type": "address",
          "indexed": true,
          "internalType": "address"
        },
        {
          "name": "approved",
          "type": "address",
          "indexed": true,
          "internalType": "address"
        },
        {
          "name": "tokenId",
          "type": "uint256",
          "indexed": true,
          "internalType": "uint256"
        }
      ],
      "anonymous": false
    },
    {
      "type": "event",
      "name": "ApprovalForAll",
      "inputs": [
        {
          "name": "owner",
          "type": "address",
          "indexed": true,
          "internalType": "address"
        },
        {
          "name": "operator",
          "type": "address",
          "indexed": true,
          "internalType": "address"
        },
        {
          "name": "approved",
          "type": "bool",
          "indexed": false,
          "internalType": "bool"
        }
      ],
      "anonymous": false
    },
    {
      "type": "event",
      "name": "OwnershipTransferred",
      "inputs": [
        {
          "name": "previousOwner",
          "type": "address",
          "indexed": true,
          "internalType": "address"
        },
        {
          "name": "newOwner",
          "type": "address",
          "indexed": true,
          "internalType": "address"
        }
      ],
      "anonymous": false
    },
    {
      "type": "event",
      "name": "Transfer",
      "inputs": [
        {
          "name": "from",
          "type": "address",
          "indexed": true,
          "internalType": "address"
        },
        {
          "name": "to",
          "type": "address",
          "indexed": true,
          "internalType": "address"
        },
        {
          "name": "tokenId",
          "type": "uint256",
          "indexed": true,
          "internalType": "uint256"
        }
      ],
      "anonymous": false
    },
    {
      "type": "error",
      "name": "AmountCanNotBeLowerThanCurrent",
      "inputs": [
        {
          "name": "",
          "type": "uint256",
          "internalType": "uint256"
        }
      ]
    },
    {
      "type": "error",
      "name": "MaxSupplyCanNotBeLowerThan200",
      "inputs": []
    },
    {
      "type": "error",
      "name": "MaxSupplyCanNotBeLowerThanActual",
      "inputs": []
    },
    {
      "type": "error",
      "name": "MaxSupplyCanNotBeMoreThan300",
      "inputs": []
    },
    {
      "type": "error",
      "name": "MaxSupplyCanNotbeOdd",
      "inputs": []
    },
    {
      "type": "error",
      "name": "PublicSaleNotStarted",
      "inputs": []
    },
    {
      "type": "error",
      "name": "WihdrawToZeroAddress",
      "inputs": []
    },
    {
      "type": "error",
      "name": "ZeroAddress",
      "inputs": []
    },
    {
      "type": "error",
      "name": "exceedAllowedToken1Mint",
      "inputs": []
    },
    {
      "type": "error",
      "name": "exceedAllowedToken2Mint",
      "inputs": []
    },
    {
      "type": "error",
      "name": "failWhithdraw",
      "inputs": []
    },
    {
      "type": "error",
      "name": "invalidAmountSend",
      "inputs": []
    },
    {
      "type": "error",
      "name": "invalidSignature",
      "inputs": []
    },
    {
      "type": "error",
      "name": "maxSupplyToken1Reach",
      "inputs": []
    },
    {
      "type": "error",
      "name": "maxSupplyToken2Reach",
      "inputs": []
    },
    {
      "type": "error",
      "name": "noSupplyAvailableToken1",
      "inputs": []
    },
    {
      "type": "error",
      "name": "noSupplyAvailableToken2",
      "inputs": []
    },
    {
      "type": "error",
      "name": "privateWhitelistToken1SoldOut",
      "inputs": []
    },
    {
      "type": "error",
      "name": "privateWhitelistToken2SoldOut",
      "inputs": []
    },
    {
      "type": "error",
      "name": "whithdrawZeroValue",
      "inputs": []
    }
  ],
  "bytecode": {
    "object": "0x6000600b5560e0604052603560808181529062003fd160a039601090620000279082620004b0565b5060405180606001604052806035815260200162003f9c60359139601190620000519082620004b0565b5060405180606001604052806035815260200162003f67603591396012906200007b9082620004b0565b5060405180606001604052806035815260200162003f3260359139601390620000a59082620004b0565b5060408051808201909152600c81526b70726f6f6620636f7665723160a01b6020820152601490620000d89082620004b0565b5060408051808201909152600c81526b383937b7b31031b7bb32b91960a11b60208201526015906200010b9082620004b0565b5060c860165560006017819055601881905566038d7ea4c680006019556605543df729c000601a55601b819055601c55611770601d55601e80546001600160a01b0319167390d41fa17a8df96e7dff80227b4fc7d208dfd0261790553480156200017457600080fd5b506040518060400160405280600881526020016715539113d616115160c21b815250604051806040016040528060048152602001630aa9c88b60e31b8152508160009081620001c49190620004b0565b506001620001d38282620004b0565b505050620001f0620001ea6200023c60201b60201c565b62000240565b604080518082019091523381527319c013b64b7b2c7daa59b96514662b687665e85260208201526200022790601f90600262000397565b50620002363361012c62000292565b6200057c565b3390565b600680546001600160a01b038381166001600160a01b0319831681179093556040519116919082907f8be0079c531659141344cd1fd0a4f28419497f9722a3daafe3b4186f6b6457e090600090a35050565b6127106001600160601b0382161115620003065760405162461bcd60e51b815260206004820152602a60248201527f455243323938313a20726f79616c7479206665652077696c6c206578636565646044820152692073616c65507269636560b01b60648201526084015b60405180910390fd5b6001600160a01b0382166200035e5760405162461bcd60e51b815260206004820152601960248201527f455243323938313a20696e76616c6964207265636569766572000000000000006044820152606401620002fd565b604080518082019091526001600160a01b039092168083526001600160601b039091166020909201829052600160a01b90910217600755565b8260028101928215620003e2579160200282015b82811115620003e257825182546001600160a01b0319166001600160a01b03909116178255602090920191600190910190620003ab565b50620003f0929150620003f4565b5090565b5b80821115620003f05760008155600101620003f5565b634e487b7160e01b600052604160045260246000fd5b600181811c908216806200043657607f821691505b6020821081036200045757634e487b7160e01b600052602260045260246000fd5b50919050565b601f821115620004ab57600081815260208120601f850160051c81016020861015620004865750805b601f850160051c820191505b81811015620004a75782815560010162000492565b5050505b505050565b81516001600160401b03811115620004cc57620004cc6200040b565b620004e481620004dd845462000421565b846200045d565b602080601f8311600181146200051c5760008415620005035750858301515b600019600386901b1c1916600185901b178555620004a7565b600085815260208120601f198616915b828110156200054d578886015182559484019460019091019084016200052c565b50858210156200056c5787850151600019600388901b60f8161c191681555b5050505050600190811b01905550565b6139a6806200058c6000396000f3fe6080604052600436106102ff5760003560e01c806378e5f96311610190578063c8b4296a116100dc578063e93f7ed211610095578063f029da5c1161006f578063f029da5c146108e5578063f2fde38b146108f8578063fb5d9aea14610918578063fee4a6b41461093857600080fd5b8063e93f7ed214610890578063e985e9c5146108b0578063f01c9474146108d057600080fd5b8063c8b4296a146107e1578063cd02771a14610801578063d44ae1e314610821578063dbe16c0714610841578063dc9a153514610861578063de914f261461087b57600080fd5b8063a22cb46511610149578063b88d4fde11610123578063b88d4fde1461074c578063bb13486e1461076c578063c6275255146107a1578063c87b56dd146107c157600080fd5b8063a22cb465146106f9578063aec7a9a014610719578063b64759d41461072c57600080fd5b806378e5f9631461065157806385ac09c01461067157806389c28b28146106915780638b927e14146106b15780638da5cb5b146106c657806395d89b41146106e457600080fd5b8063363e86fe1161024f5780636f8b44b011610208578063715018a6116101e2578063715018a6146105da578063717d57d3146105ef578063752e8a0d1461060f57806377e563571461063c57600080fd5b80636f8b44b01461057a5780637077ee891461059a57806370a08231146105ba57600080fd5b8063363e86fe146104d05780633ccfd60b146104e557806342842e0e146104fa57806354b488771461051a5780636352211e1461053a5780636c19e7831461055a57600080fd5b80630e4dc255116102bc5780631b2ef1ca116102965780631b2ef1ca1461043e57806323b872dd1461045157806324029e79146104715780632a55205a1461049157600080fd5b80630e4dc255146103f45780631a092541146104145780631aca9e6a1461042957600080fd5b806301f307401461030457806301ffc9a71461032657806306fdde031461035b578063081812fc1461037d578063095ea7b3146103b55780630da51cd7146103d5575b600080fd5b34801561031057600080fd5b5061032461031f366004612e74565b610958565b005b34801561033257600080fd5b50610346610341366004612ecc565b610972565b60405190151581526020015b60405180910390f35b34801561036757600080fd5b50610370610983565b6040516103529190612f40565b34801561038957600080fd5b5061039d610398366004612f53565b610a15565b6040516001600160a01b039091168152602001610352565b3480156103c157600080fd5b506103246103d0366004612f88565b610a3c565b3480156103e157600080fd5b506019545b604051908152602001610352565b34801561040057600080fd5b5061032461040f366004612e74565b610b51565b34801561042057600080fd5b50610370610b66565b34801561043557600080fd5b506103e6610b89565b61032461044c366004612fb2565b610b9f565b34801561045d57600080fd5b5061032461046c366004612fd4565b610c87565b34801561047d57600080fd5b5061032461048c366004612e74565b610cb8565b34801561049d57600080fd5b506104b16104ac366004612fb2565b610ccd565b604080516001600160a01b039093168352602083019190915201610352565b3480156104dc57600080fd5b50601a546103e6565b3480156104f157600080fd5b50610324610d7b565b34801561050657600080fd5b50610324610515366004612fd4565b610efe565b34801561052657600080fd5b50610324610535366004612f53565b610f19565b34801561054657600080fd5b5061039d610555366004612f53565b610f8a565b34801561056657600080fd5b50610324610575366004613010565b610fea565b34801561058657600080fd5b50610324610595366004612f53565b611014565b3480156105a657600080fd5b506103246105b5366004612f53565b6110b4565b3480156105c657600080fd5b506103e66105d5366004613010565b611125565b3480156105e657600080fd5b506103246111ab565b3480156105fb57600080fd5b5061032461060a366004612f53565b6111bf565b34801561061b57600080fd5b5061062f61062a366004612f53565b6111cc565b604051610352919061302b565b34801561064857600080fd5b506103246114a8565b34801561065d57600080fd5b5061037061066c366004612f53565b6114bf565b34801561067d57600080fd5b5061032461068c366004613130565b61158c565b34801561069d57600080fd5b506103246106ac366004612e74565b611755565b3480156106bd57600080fd5b506017546103e6565b3480156106d257600080fd5b506006546001600160a01b031661039d565b3480156106f057600080fd5b5061037061176a565b34801561070557600080fd5b50610324610714366004613194565b611779565b610324610727366004613130565b611788565b34801561073857600080fd5b50610324610747366004612e74565b611989565b34801561075857600080fd5b506103246107673660046131d0565b61199e565b34801561077857600080fd5b5061078c610787366004613238565b6119d0565b60408051928352602083019190915201610352565b3480156107ad57600080fd5b506103246107bc366004612f53565b611a1a565b3480156107cd57600080fd5b506103706107dc366004612f53565b611a27565b3480156107ed57600080fd5b506103246107fc366004612e74565b611a7a565b34801561080d57600080fd5b5061032461081c36600461326d565b611a8f565b34801561082d57600080fd5b5061032461083c3660046132a5565b611aa1565b34801561084d57600080fd5b5061037061085c366004612f53565b611b12565b34801561086d57600080fd5b506021546103469060ff1681565b34801561088757600080fd5b506018546103e6565b34801561089c57600080fd5b506103246108ab3660046132d8565b611b9b565b3480156108bc57600080fd5b506103466108cb3660046132a5565b611be3565b3480156108dc57600080fd5b506103e6611c11565b6103246108f3366004613130565b611c23565b34801561090457600080fd5b50610324610913366004613010565b611da3565b34801561092457600080fd5b50610324610933366004612f53565b611e1c565b34801561094457600080fd5b50610370610953366004612f53565b611e29565b610960611f69565b601161096d8284836133ac565b505050565b600061097d82611fc3565b92915050565b60606000805461099290613324565b80601f01602080910402602001604051908101604052809291908181526020018280546109be90613324565b8015610a0b5780601f106109e057610100808354040283529160200191610a0b565b820191906000526020600020905b8154815290600101906020018083116109ee57829003601f168201915b5050505050905090565b6000610a2082611fe8565b506000908152600460205260409020546001600160a01b031690565b6000610a4782610f8a565b9050806001600160a01b0316836001600160a01b031603610ab95760405162461bcd60e51b815260206004820152602160248201527f4552433732313a20617070726f76616c20746f2063757272656e74206f776e656044820152603960f91b60648201526084015b60405180910390fd5b336001600160a01b0382161480610ad55750610ad58133611be3565b610b475760405162461bcd60e51b815260206004820152603d60248201527f4552433732313a20617070726f76652063616c6c6572206973206e6f7420746f60448201527f6b656e206f776e6572206f7220617070726f76656420666f7220616c6c0000006064820152608401610ab0565b61096d8383612038565b610b59611f69565b601261096d8284836133ac565b606060405180610160016040528061013f815260200161383261013f9139905090565b60006002601654610b9a9190613498565b905090565b336000610baa610b89565b60215490915060ff16610bd05760405163ac4d09c760e01b815260040160405180910390fd5b80601b5485601754610be291906134ac565b610bec91906134ac565b1115610c0b576040516306ab2e5160e01b815260040160405180910390fd5b80601c5484601854610c1d91906134ac565b610c2791906134ac565b1115610c465760405163c62be36d60e01b815260040160405180910390fd5b34601a54848601021115610c6d57604051631bfc08e760e11b815260040160405180910390fd5b610c7782856120a6565b610c818284612200565b50505050565b610c913382612254565b610cad5760405162461bcd60e51b8152600401610ab0906134bf565b61096d8383836122b3565b610cc0611f69565b601461096d8284836133ac565b60008281526008602090815260408083208151808301909252546001600160a01b038116808352600160a01b9091046001600160601b0316928201929092528291610d425750604080518082019091526007546001600160a01b0381168252600160a01b90046001600160601b031660208201525b602081015160009061271090610d61906001600160601b03168761350c565b610d6b9190613498565b91519350909150505b9250929050565b610d83611f69565b601f546020546001600160a01b039182169116811580610daa57506001600160a01b038116155b15610dc857604051633bbc0f0760e01b815260040160405180910390fd5b476000819003610deb576040516304abc4f760e21b815260040160405180910390fd5b6000612710601d5483610dfe919061350c565b610e089190613498565b90506000846001600160a01b03168260405160006040518083038185875af1925050503d8060008114610e57576040519150601f19603f3d011682016040523d82523d6000602084013e610e5c565b606091505b5050905080610e7e576040516391ac981760e01b815260040160405180910390fd5b6001600160a01b038416610e928385613539565b604051600081818185875af1925050503d8060008114610ece576040519150601f19603f3d011682016040523d82523d6000602084013e610ed3565b606091505b50508091505080610ef7576040516391ac981760e01b815260040160405180910390fd5b5050505050565b61096d8383836040518060200160405280600081525061199e565b610f21611f69565b6002601654610f309190613498565b81601754610f3e91906134ac565b1115610f5d576040516313f38bd360e11b815260040160405180910390fd5b601c54811015610f8557601c546040516238ed1560e91b8152600401610ab091815260200190565b601c55565b6000818152600260205260408120546001600160a01b03168061097d5760405162461bcd60e51b8152602060048201526018602482015277115490cdcc8c4e881a5b9d985b1a59081d1bdad95b88125160421b6044820152606401610ab0565b610ff2611f69565b601e80546001600160a01b0319166001600160a01b0392909216919091179055565b61101c611f69565b61012c81111561103f57604051630b4c3db160e41b815260040160405180910390fd5b60c881101561106157604051639da2208f60e01b815260040160405180910390fd5b61106c60028261354c565b60010361108c57604051635461466f60e01b815260040160405180910390fd5b6016548111156110af5760405163cddfa3f160e01b815260040160405180910390fd5b601655565b6110bc611f69565b60026016546110cb9190613498565b816017546110d991906134ac565b11156110f85760405163ba14ba6f60e01b815260040160405180910390fd5b601b5481101561112057601b546040516238ed1560e91b8152600401610ab091815260200190565b601b55565b60006001600160a01b03821661118f5760405162461bcd60e51b815260206004820152602960248201527f4552433732313a2061646472657373207a65726f206973206e6f7420612076616044820152683634b21037bbb732b960b91b6064820152608401610ab0565b506001600160a01b031660009081526003602052604090205490565b6111b3611f69565b6111bd6000612424565b565b6111c7611f69565b601955565b60606111d782611fe8565b6000828152600a6020526040812054600b546009548392916111f8916134ac565b61120291906134ac565b67ffffffffffffffff81111561121a5761121a61308d565b60405190808252806020026020018201604052801561124d57816020015b60608152602001906001900390816112385790505b50905060005b60095481101561132c576009818154811061127057611270613523565b90600052602060002001805461128590613324565b80601f01602080910402602001604051908101604052809291908181526020018280546112b190613324565b80156112fe5780601f106112d3576101008083540402835291602001916112fe565b820191906000526020600020905b8154815290600101906020018083116112e157829003601f168201915b505050505082848151811061131557611315613523565b602090810291909101015260019283019201611253565b5060005b600b548110156113aa576000818152600c6020526040902061135186612476565b6000838152600d6020908152604091829020915161137294939291016135d3565b60405160208183030381529060405282848151811061139357611393613523565b602090810291909101015260019283019201611330565b5060005b6000858152600a60205260409020548110156114a0576000858152600a602052604090208054829081106113e4576113e4613523565b9060005260206000200180546113f990613324565b80601f016020809104026020016040519081016040528092919081815260200182805461142590613324565b80156114725780601f1061144757610100808354040283529160200191611472565b820191906000526020600020905b81548152906001019060200180831161145557829003601f168201915b505050505082848151811061148957611489613523565b6020908102919091010152600192830192016113ae565b509392505050565b6114b0611f69565b6021805460ff19166001179055565b606060146040516114d09190613606565b60405180910390206114e183611e29565b805190602001200361157f57601280546114fa90613324565b80601f016020809104026020016040519081016040528092919081815260200182805461152690613324565b80156115735780601f1061154857610100808354040283529160200191611573565b820191906000526020600020905b81548152906001019060200180831161155657829003601f168201915b50505050509050919050565b601380546114fa90613324565b601e5433908490849060019085906115b1906001600160a01b03168686868686612509565b6115ce576040516368e6090160e11b815260040160405180910390fd5b3360006115d9610b89565b9050896022896040516115ec9190613612565b9081526020016040518091039020548d61160691906134ac565b111561162557604051632508c3ed60e11b815260040160405180910390fd5b886023896040516116369190613612565b9081526020016040518091039020548c61165091906134ac565b111561166f5760405163d4b4828d60e01b815260040160405180910390fd5b80601b548d60175461168191906134ac565b61168b91906134ac565b11156116aa576040516306ab2e5160e01b815260040160405180910390fd5b80601c548c6018546116bc91906134ac565b6116c691906134ac565b11156116e55760405163c62be36d60e01b815260040160405180910390fd5b8b6022896040516116f69190613612565b90815260405190819003602001812080549092019091558b9060239061171d908b90613612565b9081526040519081900360200190208054909101905561173d828d6120a6565b611747828c612200565b505050505050505050505050565b61175d611f69565b601061096d8284836133ac565b60606001805461099290613324565b6117843383836125a0565b5050565b601e5433908490849060069085906117ad906001600160a01b03168686868686612509565b6117ca576040516368e6090160e11b815260040160405180910390fd5b6000339050886022886040516117e09190613612565b9081526020016040518091039020548c6117fa91906134ac565b111561181957604051632508c3ed60e11b815260040160405180910390fd5b8760238860405161182a9190613612565b9081526020016040518091039020548b61184491906134ac565b11156118635760405163d4b4828d60e01b815260040160405180910390fd5b60008b1180156118735750601b54155b156118915760405163271c716d60e01b815260040160405180910390fd5b60008a1180156118a15750601c54155b156118bf576040516322d5841360e11b815260040160405180910390fd5b346019548b8d010211156118e657604051631bfc08e760e11b815260040160405180910390fd5b8a6022886040516118f79190613612565b90815260405190819003602001812080549092019091558a9060239061191e908a90613612565b90815260405190819003602001902080549091019055601b80548c9190600090611949908490613539565b9250508190555089601c60008282546119629190613539565b909155506119729050818c6120a6565b61197c818b612200565b5050505050505050505050565b611991611f69565b601361096d8284836133ac565b6119a83383612254565b6119c45760405162461bcd60e51b8152600401610ab0906134bf565b610c818484848461266e565b6000806022836040516119e39190613612565b9081526020016040518091039020549150602383604051611a049190613612565b9081526020016040518091039020549050915091565b611a22611f69565b601a55565b6060611a32826126a1565b611a4a57505060408051602081019091526000815290565b6000611a55836111cc565b905080600081518110611a6a57611a6a613523565b6020026020010151915050919050565b611a82611f69565b601561096d8284836133ac565b611a97611f69565b61178482826126be565b611aa9611f69565b6001600160a01b0382161580611ac657506001600160a01b038116155b15611ae45760405163d92e233d60e01b815260040160405180910390fd5b601f80546001600160a01b039384166001600160a01b03199182161790915560208054929093169116179055565b60606014604051611b239190613606565b6040518091039020611b3483611e29565b8051906020012003611b6d575050604080518082019091526011815270554e44585820766f6c2e3120426c61636b60781b602082015290565b5050604080518082019091526012815271554e44585820766f6c2e3120507572706c6560701b602082015290565b611ba3611f69565b61096d8383838080601f0160208091040260200160405190810160405280939291908181526020018383808284376000920191909152506127bb92505050565b6001600160a01b03918216600090815260056020908152604080832093909416825291909152205460ff1690565b6000601854601754610b9a91906134ac565b601e543390849084906002908590611c48906001600160a01b03168686868686612509565b611c65576040516368e6090160e11b815260040160405180910390fd5b336000611c70610b89565b905089602289604051611c839190613612565b9081526020016040518091039020548d611c9d91906134ac565b1115611cbc57604051632508c3ed60e11b815260040160405180910390fd5b88602389604051611ccd9190613612565b9081526020016040518091039020548c611ce791906134ac565b1115611d065760405163d4b4828d60e01b815260040160405180910390fd5b80601b548d601754611d1891906134ac565b611d2291906134ac565b1115611d41576040516306ab2e5160e01b815260040160405180910390fd5b80601c548c601854611d5391906134ac565b611d5d91906134ac565b1115611d7c5760405163c62be36d60e01b815260040160405180910390fd5b346019548c8e010211156116e557604051631bfc08e760e11b815260040160405180910390fd5b611dab611f69565b6001600160a01b038116611e105760405162461bcd60e51b815260206004820152602660248201527f4f776e61626c653a206e6577206f776e657220697320746865207a65726f206160448201526564647265737360d01b6064820152608401610ab0565b611e1981612424565b50565b611e24611f69565b601d55565b6060611e3482611fe8565b6000828152600f602052604081208054611e4d90613324565b80601f0160208091040260200160405190810160405280929190818152602001828054611e7990613324565b8015611ec65780601f10611e9b57610100808354040283529160200191611ec6565b820191906000526020600020905b815481529060010190602001808311611ea957829003601f168201915b50505050509050805160000361097d57600e8054611ee390613324565b80601f0160208091040260200160405190810160405280929190818152602001828054611f0f90613324565b8015611f5c5780601f10611f3157610100808354040283529160200191611f5c565b820191906000526020600020905b815481529060010190602001808311611f3f57829003601f168201915b5050505050915050919050565b6006546001600160a01b031633146111bd5760405162461bcd60e51b815260206004820181905260248201527f4f776e61626c653a2063616c6c6572206973206e6f7420746865206f776e65726044820152606401610ab0565b60006001600160e01b0319821663152a902d60e11b148061097d575061097d8261285e565b611ff1816126a1565b611e195760405162461bcd60e51b8152602060048201526018602482015277115490cdcc8c4e881a5b9d985b1a59081d1bdad95b88125160421b6044820152606401610ab0565b600081815260046020526040902080546001600160a01b0319166001600160a01b038416908117909155819061206d82610f8a565b6001600160a01b03167f8c5be1e5ebec7d5bd14f71427d1e84f3dd0314c0f7b2291e5b200ac8c7c3b92560405160405180910390a45050565b60005b8181101561096d57601854601754016001016120c584826128ae565b61215981601080546120d690613324565b80601f016020809104026020016040519081016040528092919081815260200182805461210290613324565b801561214f5780601f106121245761010080835404028352916020019161214f565b820191906000526020600020905b81548152906001019060200180831161213257829003601f168201915b50505050506127bb565b6121ed816014805461216a90613324565b80601f016020809104026020016040519081016040528092919081815260200182805461219690613324565b80156121e35780601f106121b8576101008083540402835291602001916121e3565b820191906000526020600020905b8154815290600101906020018083116121c657829003601f168201915b5050505050612a29565b50601780546001908101909155016120a9565b60005b8181101561096d576018546017540160010161221f84826128ae565b61223081601180546120d690613324565b612241816015805461216a90613324565b5060188054600190810190915501612203565b60008061226083610f8a565b9050806001600160a01b0316846001600160a01b0316148061228757506122878185611be3565b806122ab5750836001600160a01b03166122a084610a15565b6001600160a01b0316145b949350505050565b826001600160a01b03166122c682610f8a565b6001600160a01b0316146122ec5760405162461bcd60e51b8152600401610ab09061362e565b6001600160a01b03821661234e5760405162461bcd60e51b8152602060048201526024808201527f4552433732313a207472616e7366657220746f20746865207a65726f206164646044820152637265737360e01b6064820152608401610ab0565b61235b8383836001612b2b565b826001600160a01b031661236e82610f8a565b6001600160a01b0316146123945760405162461bcd60e51b8152600401610ab09061362e565b600081815260046020908152604080832080546001600160a01b03199081169091556001600160a01b0387811680865260038552838620805460001901905590871680865283862080546001019055868652600290945282852080549092168417909155905184937fddf252ad1be2c89b69c2b068fc378daa952ba7f163c4a11628f55a4df523b3ef91a4505050565b600680546001600160a01b038381166001600160a01b0319831681179093556040519116919082907f8be0079c531659141344cd1fd0a4f28419497f9722a3daafe3b4186f6b6457e090600090a35050565b6060600061248383612b30565b600101905060008167ffffffffffffffff8111156124a3576124a361308d565b6040519080825280601f01601f1916602001820160405280156124cd576020820181803683370190505b5090508181016020015b600019016f181899199a1a9b1b9c1cb0b131b232b360811b600a86061a8153600a85049450846124d757509392505050565b60008061251887878787612c08565b90506000612573826040517f19457468657265756d205369676e6564204d6573736167653a0a3332000000006020820152603c8101829052600090605c01604051602081830303815290604052805190602001209050919050565b9050886001600160a01b03166125898286612c41565b6001600160a01b0316149998505050505050505050565b816001600160a01b0316836001600160a01b0316036126015760405162461bcd60e51b815260206004820152601960248201527f4552433732313a20617070726f766520746f2063616c6c6572000000000000006044820152606401610ab0565b6001600160a01b03838116600081815260056020908152604080832094871680845294825291829020805460ff191686151590811790915591519182527f17307eab39ab6107e8899845ad3d59bd9653f200f220920489ca2b5937696c31910160405180910390a3505050565b6126798484846122b3565b61268584848484612cc0565b610c815760405162461bcd60e51b8152600401610ab090613673565b6000908152600260205260409020546001600160a01b0316151590565b6127106001600160601b038216111561272c5760405162461bcd60e51b815260206004820152602a60248201527f455243323938313a20726f79616c7479206665652077696c6c206578636565646044820152692073616c65507269636560b01b6064820152608401610ab0565b6001600160a01b0382166127825760405162461bcd60e51b815260206004820152601960248201527f455243323938313a20696e76616c6964207265636569766572000000000000006044820152606401610ab0565b604080518082019091526001600160a01b039092168083526001600160601b039091166020909201829052600160a01b90910217600755565b6127c4826126a1565b6128365760405162461bcd60e51b815260206004820152603a60248201527f4552433732315065726d616e656e74555249733a205065726d616e656e74555260448201527f4920736574206f66206e6f6e6578697374656e7420746f6b656e0000000000006064820152608401610ab0565b6000828152600a602090815260408220805460018101825590835291200161096d82826136c5565b60006001600160e01b031982166380ac58cd60e01b148061288f57506001600160e01b03198216635b5e139f60e01b145b8061097d57506301ffc9a760e01b6001600160e01b031983161461097d565b6001600160a01b0382166129045760405162461bcd60e51b815260206004820181905260248201527f4552433732313a206d696e7420746f20746865207a65726f20616464726573736044820152606401610ab0565b61290d816126a1565b1561295a5760405162461bcd60e51b815260206004820152601c60248201527f4552433732313a20746f6b656e20616c7265616479206d696e746564000000006044820152606401610ab0565b612968600083836001612b2b565b612971816126a1565b156129be5760405162461bcd60e51b815260206004820152601c60248201527f4552433732313a20746f6b656e20616c7265616479206d696e746564000000006044820152606401610ab0565b6001600160a01b038216600081815260036020908152604080832080546001019055848352600290915280822080546001600160a01b0319168417905551839291907fddf252ad1be2c89b69c2b068fc378daa952ba7f163c4a11628f55a4df523b3ef908290a45050565b612a32826126a1565b612a9b5760405162461bcd60e51b815260206004820152603460248201527f4552433732315065726d616e656e7450726f6f663a2050726f6f66207365742060448201527337b3103737b732bc34b9ba32b73a103a37b5b2b760611b6064820152608401610ab0565b6000828152600f602052604090208054612ab490613324565b159050612b135760405162461bcd60e51b815260206004820152602760248201527f4552433732315065726d616e656e7450726f6f663a2050726f6f6620616c726560448201526618591e481cd95d60ca1b6064820152608401610ab0565b6000828152600f6020526040902061096d82826136c5565b610c81565b60008072184f03e93ff9f4daa797ed6e38ed64bf6a1f0160401b8310612b6f5772184f03e93ff9f4daa797ed6e38ed64bf6a1f0160401b830492506040015b6d04ee2d6d415b85acef81000000008310612b9b576d04ee2d6d415b85acef8100000000830492506020015b662386f26fc100008310612bb957662386f26fc10000830492506010015b6305f5e1008310612bd1576305f5e100830492506008015b6127108310612be557612710830492506004015b60648310612bf7576064830492506002015b600a831061097d5760010192915050565b600084848484604051602001612c219493929190613785565b604051602081830303815290604052805190602001209050949350505050565b600080600080612c5085612dbe565b6040805160008152602081018083528b905260ff8316918101919091526060810184905260808101839052929550909350915060019060a0016020604051602081039080840390855afa158015612cab573d6000803e3d6000fd5b5050604051601f190151979650505050505050565b60006001600160a01b0384163b15612db657604051630a85bd0160e11b81526001600160a01b0385169063150b7a0290612d049033908990889088906004016137d7565b6020604051808303816000875af1925050508015612d3f575060408051601f3d908101601f19168201909252612d3c91810190613814565b60015b612d9c573d808015612d6d576040519150601f19603f3d011682016040523d82523d6000602084013e612d72565b606091505b508051600003612d945760405162461bcd60e51b8152600401610ab090613673565b805181602001fd5b6001600160e01b031916630a85bd0160e11b1490506122ab565b5060016122ab565b60008060008351604114612e145760405162461bcd60e51b815260206004820152601860248201527f696e76616c6964207369676e6174757265206c656e67746800000000000000006044820152606401610ab0565b50505060208101516040820151606090920151909260009190911a90565b60008083601f840112612e4457600080fd5b50813567ffffffffffffffff811115612e5c57600080fd5b602083019150836020828501011115610d7457600080fd5b60008060208385031215612e8757600080fd5b823567ffffffffffffffff811115612e9e57600080fd5b612eaa85828601612e32565b90969095509350505050565b6001600160e01b031981168114611e1957600080fd5b600060208284031215612ede57600080fd5b8135612ee981612eb6565b9392505050565b60005b83811015612f0b578181015183820152602001612ef3565b50506000910152565b60008151808452612f2c816020860160208601612ef0565b601f01601f19169290920160200192915050565b602081526000612ee96020830184612f14565b600060208284031215612f6557600080fd5b5035919050565b80356001600160a01b0381168114612f8357600080fd5b919050565b60008060408385031215612f9b57600080fd5b612fa483612f6c565b946020939093013593505050565b60008060408385031215612fc557600080fd5b50508035926020909101359150565b600080600060608486031215612fe957600080fd5b612ff284612f6c565b925061300060208501612f6c565b9150604084013590509250925092565b60006020828403121561302257600080fd5b612ee982612f6c565b6000602080830181845280855180835260408601915060408160051b870101925083870160005b8281101561308057603f1988860301845261306e858351612f14565b94509285019290850190600101613052565b5092979650505050505050565b634e487b7160e01b600052604160045260246000fd5b600082601f8301126130b457600080fd5b813567ffffffffffffffff808211156130cf576130cf61308d565b604051601f8301601f19908116603f011681019082821181831017156130f7576130f761308d565b8160405283815286602085880101111561311057600080fd5b836020870160208301376000602085830101528094505050505092915050565b600080600080600060a0868803121561314857600080fd5b85359450602086013593506040860135925060608601359150608086013567ffffffffffffffff81111561317b57600080fd5b613187888289016130a3565b9150509295509295909350565b600080604083850312156131a757600080fd5b6131b083612f6c565b9150602083013580151581146131c557600080fd5b809150509250929050565b600080600080608085870312156131e657600080fd5b6131ef85612f6c565b93506131fd60208601612f6c565b925060408501359150606085013567ffffffffffffffff81111561322057600080fd5b61322c878288016130a3565b91505092959194509250565b60006020828403121561324a57600080fd5b813567ffffffffffffffff81111561326157600080fd5b6122ab848285016130a3565b6000806040838503121561328057600080fd5b61328983612f6c565b915060208301356001600160601b03811681146131c557600080fd5b600080604083850312156132b857600080fd5b6132c183612f6c565b91506132cf60208401612f6c565b90509250929050565b6000806000604084860312156132ed57600080fd5b83359250602084013567ffffffffffffffff81111561330b57600080fd5b61331786828701612e32565b9497909650939450505050565b600181811c9082168061333857607f821691505b60208210810361335857634e487b7160e01b600052602260045260246000fd5b50919050565b601f82111561096d57600081815260208120601f850160051c810160208610156133855750805b601f850160051c820191505b818110156133a457828155600101613391565b505050505050565b67ffffffffffffffff8311156133c4576133c461308d565b6133d8836133d28354613324565b8361335e565b6000601f84116001811461340c57600085156133f45750838201355b600019600387901b1c1916600186901b178355610ef7565b600083815260209020601f19861690835b8281101561343d578685013582556020948501946001909201910161341d565b508682101561345a5760001960f88860031b161c19848701351681555b505060018560011b0183555050505050565b634e487b7160e01b600052601260045260246000fd5b634e487b7160e01b600052601160045260246000fd5b6000826134a7576134a761346c565b500490565b8082018082111561097d5761097d613482565b6020808252602d908201527f4552433732313a2063616c6c6572206973206e6f7420746f6b656e206f776e6560408201526c1c881bdc88185c1c1c9bdd9959609a1b606082015260800190565b808202811582820484141761097d5761097d613482565b634e487b7160e01b600052603260045260246000fd5b8181038181111561097d5761097d613482565b60008261355b5761355b61346c565b500690565b6000815461356d81613324565b60018281168015613585576001811461359a576135c9565b60ff19841687528215158302870194506135c9565b8560005260208060002060005b858110156135c05781548a8201529084019082016135a7565b50505082870194505b5050505092915050565b60006135df8286613560565b84516135ef818360208901612ef0565b6135fb81830186613560565b979650505050505050565b6000612ee98284613560565b60008251613624818460208701612ef0565b9190910192915050565b60208082526025908201527f4552433732313a207472616e736665722066726f6d20696e636f72726563742060408201526437bbb732b960d91b606082015260800190565b60208082526032908201527f4552433732313a207472616e7366657220746f206e6f6e20455243373231526560408201527131b2b4bb32b91034b6b83632b6b2b73a32b960711b606082015260800190565b815167ffffffffffffffff8111156136df576136df61308d565b6136f3816136ed8454613324565b8461335e565b602080601f83116001811461372857600084156137105750858301515b600019600386901b1c1916600185901b1785556133a4565b600085815260208120601f198616915b8281101561375757888601518255948401946001909101908401613738565b50858210156137755787850151600019600388901b60f8161c191681555b5050505050600190811b01905550565b6001600160601b03198560601b1681528360148201528260348201526000600783106137c157634e487b7160e01b600052602160045260246000fd5b5060f89190911b60548201526055019392505050565b6001600160a01b038581168252841660208201526040810183905260806060820181905260009061380a90830184612f14565b9695505050505050565b60006020828403121561382657600080fd5b8151612ee981612eb656fe554e444f585845442c207468652066696e65737420696e206469676974616c206c6966657374796c652063756c747572652c20697320616e20616e6e75616c2068796272696420626f6f6b2074686174206d65726765732073747265657420616e64206c6966657374796c652063756c74757265207769746820746865206469676974616c20776f726c642e20497420666f6375736573206f6e2066617368696f6e2c20736e65616b6572732c20616e6420737472656574776561722c20636174616c6f67696e67207468652062657374206f6620706879676974616c2063756c747572652e2054686973207075626c69636174696f6e20627269646765732074686520706879736963616c20616e64206469676974616c207265616c6d732077697468696e207468652065766f6c76696e6720576562332073706163652ea264697066735822122077d71b090f78c558051e67e5050c53a32a9901faf9ab67b21a50fdd6fa37debb64736f6c63430008130033697066733a2f2f516d58586345747853764a6e7545557970477072754d7867516f31444e7750414a5835436f424673715448527863697066733a2f2f516d66373539544c724e46534c3867503165553542747837424647466261796831766e4342675547615a484e4e56697066733a2f2f516d5935726f676d794a72626275565a7479584b76626e677878474d37457970744a555148535833454a6a656a69697066733a2f2f516d524b6d484a6653635571375a45384463586a6f554d76484868517658736f37797a664754625745636b365041",
    "linkReferences": {}
  },
  "methodIdentifiers": {
    "addPermanentTokenURI(uint256,string)": "e93f7ed2",
    "allowlistMint(uint256,uint256,uint256,uint256,bytes)": "85ac09c0",
    "approve(address,uint256)": "095ea7b3",
    "balanceOf(address)": "70a08231",
    "getAllSupply()": "f01c9474",
    "getApproved(uint256)": "081812fc",
    "getBalanceMintBySign(bytes)": "bb13486e",
    "getDescription()": "1a092541",
    "getMaxSupplyCover()": "1aca9e6a",
    "getPublicPrice()": "363e86fe",
    "getToken1Supply()": "8b927e14",
    "getToken2Supply()": "de914f26",
    "getTokenMedia(uint256)": "78e5f963",
    "getTokenName(uint256)": "dbe16c07",
    "getWhitelistPrice()": "0da51cd7",
    "isApprovedForAll(address,address)": "e985e9c5",
    "isPublic()": "dc9a1535",
    "mint(uint256,uint256)": "1b2ef1ca",
    "name()": "06fdde03",
    "owner()": "8da5cb5b",
    "ownerOf(uint256)": "6352211e",
    "privateWhitelistMint(uint256,uint256,uint256,uint256,bytes)": "aec7a9a0",
    "renounceOwnership()": "715018a6",
    "royaltyInfo(uint256,uint256)": "2a55205a",
    "safeTransferFrom(address,address,uint256)": "42842e0e",
    "safeTransferFrom(address,address,uint256,bytes)": "b88d4fde",
    "setApprovalForAll(address,bool)": "a22cb465",
    "setBaseMediaURICover1(string)": "0e4dc255",
    "setBaseMediaURICover2(string)": "b64759d4",
    "setCover1BaseURI(string)": "89c28b28",
    "setCover2BaseURI(string)": "01f30740",
    "setDefaultRoyalties(address,uint96)": "cd02771a",
    "setFundsReceivers(address,address)": "d44ae1e3",
    "setMaxSupply(uint256)": "6f8b44b0",
    "setPercentReceiver(uint256)": "fb5d9aea",
    "setPrivatewhitelistToken1(uint256)": "7077ee89",
    "setPrivatewhitelistToken2(uint256)": "54b48877",
    "setPublic()": "77e56357",
    "setPublicPrice(uint256)": "c6275255",
    "setSigner(address)": "6c19e783",
    "setTokenProof1(string)": "24029e79",
    "setTokenProof2(string)": "c8b4296a",
    "setWhitelistPrice(uint256)": "717d57d3",
    "supportsInterface(bytes4)": "01ffc9a7",
    "symbol()": "95d89b41",
    "tokenProofPermanent(uint256)": "fee4a6b4",
    "tokenURI(uint256)": "c87b56dd",
    "tokenURIsPermanent(uint256)": "752e8a0d",
    "transferFrom(address,address,uint256)": "23b872dd",
    "transferOwnership(address)": "f2fde38b",
    "whitelistMint(uint256,uint256,uint256,uint256,bytes)": "f029da5c",
    "withdraw()": "3ccfd60b"
  },
  "id": 34
}