{
  "abi": [
    {
      "type": "constructor",
      "inputs": [],
      "stateMutability": "nonpayable"
    },
    {
      "type": "function",
      "name": "addPermanentBaseURI",
      "inputs": [
        {
          "name": "prefixURI",
          "type": "string",
          "internalType": "string"
        },
        {
          "name": "suffixURI",
          "type": "string",
          "internalType": "string"
        }
      ],
      "outputs": [],
      "stateMutability": "nonpayable"
    },
    {
      "type": "function",
      "name": "allowlistMint",
      "inputs": [
        {
          "name": "_to",
          "type": "address",
          "internalType": "address"
        },
        {
          "name": "_amount1",
          "type": "uint256",
          "internalType": "uint256"
        },
        {
          "name": "_amount2",
          "type": "uint256",
          "internalType": "uint256"
        },
        {
          "name": "_amount1Sign",
          "type": "uint256",
          "internalType": "uint256"
        },
        {
          "name": "_amount2Sign",
          "type": "uint256",
          "internalType": "uint256"
        },
        {
          "name": "_sign",
          "type": "bytes",
          "internalType": "bytes"
        }
      ],
      "outputs": [],
      "stateMutability": "nonpayable"
    },
    {
      "type": "function",
      "name": "approve",
      "inputs": [
        {
          "name": "to",
          "type": "address",
          "internalType": "address"
        },
        {
          "name": "tokenId",
          "type": "uint256",
          "internalType": "uint256"
        }
      ],
      "outputs": [],
      "stateMutability": "nonpayable"
    },
    {
      "type": "function",
      "name": "balanceOf",
      "inputs": [
        {
          "name": "owner",
          "type": "address",
          "internalType": "address"
        }
      ],
      "outputs": [
        {
          "name": "",
          "type": "uint256",
          "internalType": "uint256"
        }
      ],
      "stateMutability": "view"
    },
    {
      "type": "function",
      "name": "fiatPaymentMint",
      "inputs": [
        {
          "name": "_to",
          "type": "address",
          "internalType": "address"
        },
        {
          "name": "_amount1",
          "type": "uint256",
          "internalType": "uint256"
        },
        {
          "name": "_amount2",
          "type": "uint256",
          "internalType": "uint256"
        },
        {
          "name": "_amount1Sign",
          "type": "uint256",
          "internalType": "uint256"
        },
        {
          "name": "_amount2Sign",
          "type": "uint256",
          "internalType": "uint256"
        },
        {
          "name": "_sign",
          "type": "bytes",
          "internalType": "bytes"
        }
      ],
      "outputs": [],
      "stateMutability": "payable"
    },
    {
      "type": "function",
      "name": "freezeContract",
      "inputs": [],
      "outputs": [],
      "stateMutability": "nonpayable"
    },
    {
      "type": "function",
      "name": "getAllSupply",
      "inputs": [],
      "outputs": [
        {
          "name": "",
          "type": "uint256",
          "internalType": "uint256"
        }
      ],
      "stateMutability": "view"
    },
    {
      "type": "function",
      "name": "getApproved",
      "inputs": [
        {
          "name": "tokenId",
          "type": "uint256",
          "internalType": "uint256"
        }
      ],
      "outputs": [
        {
          "name": "",
          "type": "address",
          "internalType": "address"
        }
      ],
      "stateMutability": "view"
    },
    {
      "type": "function",
      "name": "getBalanceOfCover1",
      "inputs": [
        {
          "name": "_address",
          "type": "address",
          "internalType": "address"
        }
      ],
      "outputs": [
        {
          "name": "",
          "type": "uint256",
          "internalType": "uint256"
        }
      ],
      "stateMutability": "view"
    },
    {
      "type": "function",
      "name": "getBalanceOfCover2",
      "inputs": [
        {
          "name": "_address",
          "type": "address",
          "internalType": "address"
        }
      ],
      "outputs": [
        {
          "name": "",
          "type": "uint256",
          "internalType": "uint256"
        }
      ],
      "stateMutability": "view"
    },
    {
      "type": "function",
      "name": "getCurrentStatus",
      "inputs": [],
      "outputs": [
        {
          "name": "",
          "type": "uint8",
          "internalType": "enum Status"
        }
      ],
      "stateMutability": "view"
    },
    {
      "type": "function",
      "name": "getDescription",
      "inputs": [],
      "outputs": [
        {
          "name": "",
          "type": "string",
          "internalType": "string"
        }
      ],
      "stateMutability": "pure"
    },
    {
      "type": "function",
      "name": "getPublicPrice",
      "inputs": [],
      "outputs": [
        {
          "name": "",
          "type": "uint256",
          "internalType": "uint256"
        }
      ],
      "stateMutability": "view"
    },
    {
      "type": "function",
      "name": "getToken1Supply",
      "inputs": [],
      "outputs": [
        {
          "name": "",
          "type": "uint256",
          "internalType": "uint256"
        }
      ],
      "stateMutability": "view"
    },
    {
      "type": "function",
      "name": "getToken2Supply",
      "inputs": [],
      "outputs": [
        {
          "name": "",
          "type": "uint256",
          "internalType": "uint256"
        }
      ],
      "stateMutability": "view"
    },
    {
      "type": "function",
      "name": "getTokenMedia",
      "inputs": [
        {
          "name": "_tokenId",
          "type": "uint256",
          "internalType": "uint256"
        }
      ],
      "outputs": [
        {
          "name": "",
          "type": "string",
          "internalType": "string"
        }
      ],
      "stateMutability": "view"
    },
    {
      "type": "function",
      "name": "getTokenName",
      "inputs": [
        {
          "name": "_tokenId",
          "type": "uint256",
          "internalType": "uint256"
        }
      ],
      "outputs": [
        {
          "name": "",
          "type": "string",
          "internalType": "string"
        }
      ],
      "stateMutability": "pure"
    },
    {
      "type": "function",
      "name": "getWhitelistPrice",
      "inputs": [],
      "outputs": [
        {
          "name": "",
          "type": "uint256",
          "internalType": "uint256"
        }
      ],
      "stateMutability": "view"
    },
    {
      "type": "function",
      "name": "isApprovedForAll",
      "inputs": [
        {
          "name": "owner",
          "type": "address",
          "internalType": "address"
        },
        {
          "name": "operator",
          "type": "address",
          "internalType": "address"
        }
      ],
      "outputs": [
        {
          "name": "",
          "type": "bool",
          "internalType": "bool"
        }
      ],
      "stateMutability": "view"
    },
    {
      "type": "function",
      "name": "mint",
      "inputs": [
        {
          "name": "_to",
          "type": "address",
          "internalType": "address"
        },
        {
          "name": "_amount1",
          "type": "uint256",
          "internalType": "uint256"
        },
        {
          "name": "_amount2",
          "type": "uint256",
          "internalType": "uint256"
        }
      ],
      "outputs": [],
      "stateMutability": "payable"
    },
    {
      "type": "function",
      "name": "name",
      "inputs": [],
      "outputs": [
        {
          "name": "",
          "type": "string",
          "internalType": "string"
        }
      ],
      "stateMutability": "view"
    },
    {
      "type": "function",
      "name": "owner",
      "inputs": [],
      "outputs": [
        {
          "name": "",
          "type": "address",
          "internalType": "address"
        }
      ],
      "stateMutability": "view"
    },
    {
      "type": "function",
      "name": "ownerOf",
      "inputs": [
        {
          "name": "tokenId",
          "type": "uint256",
          "internalType": "uint256"
        }
      ],
      "outputs": [
        {
          "name": "",
          "type": "address",
          "internalType": "address"
        }
      ],
      "stateMutability": "view"
    },
    {
      "type": "function",
      "name": "privateWhitelistMint",
      "inputs": [
        {
          "name": "_to",
          "type": "address",
          "internalType": "address"
        },
        {
          "name": "_amount1",
          "type": "uint256",
          "internalType": "uint256"
        },
        {
          "name": "_amount2",
          "type": "uint256",
          "internalType": "uint256"
        },
        {
          "name": "_amount1Sign",
          "type": "uint256",
          "internalType": "uint256"
        },
        {
          "name": "_amount2Sign",
          "type": "uint256",
          "internalType": "uint256"
        },
        {
          "name": "_sign",
          "type": "bytes",
          "internalType": "bytes"
        }
      ],
      "outputs": [],
      "stateMutability": "payable"
    },
    {
      "type": "function",
      "name": "renounceOwnership",
      "inputs": [],
      "outputs": [],
      "stateMutability": "nonpayable"
    },
    {
      "type": "function",
      "name": "royaltyInfo",
      "inputs": [
        {
          "name": "tokenId",
          "type": "uint256",
          "internalType": "uint256"
        },
        {
          "name": "salePrice",
          "type": "uint256",
          "internalType": "uint256"
        }
      ],
      "outputs": [
        {
          "name": "",
          "type": "address",
          "internalType": "address"
        },
        {
          "name": "",
          "type": "uint256",
          "internalType": "uint256"
        }
      ],
      "stateMutability": "view"
    },
    {
      "type": "function",
      "name": "safeTransferFrom",
      "inputs": [
        {
          "name": "from",
          "type": "address",
          "internalType": "address"
        },
        {
          "name": "to",
          "type": "address",
          "internalType": "address"
        },
        {
          "name": "tokenId",
          "type": "uint256",
          "internalType": "uint256"
        }
      ],
      "outputs": [],
      "stateMutability": "nonpayable"
    },
    {
      "type": "function",
      "name": "safeTransferFrom",
      "inputs": [
        {
          "name": "from",
          "type": "address",
          "internalType": "address"
        },
        {
          "name": "to",
          "type": "address",
          "internalType": "address"
        },
        {
          "name": "tokenId",
          "type": "uint256",
          "internalType": "uint256"
        },
        {
          "name": "data",
          "type": "bytes",
          "internalType": "bytes"
        }
      ],
      "outputs": [],
      "stateMutability": "nonpayable"
    },
    {
      "type": "function",
      "name": "setApprovalForAll",
      "inputs": [
        {
          "name": "operator",
          "type": "address",
          "internalType": "address"
        },
        {
          "name": "approved",
          "type": "bool",
          "internalType": "bool"
        }
      ],
      "outputs": [],
      "stateMutability": "nonpayable"
    },
    {
      "type": "function",
      "name": "setBaseMediaURICover1",
      "inputs": [
        {
          "name": "_newBaseURI",
          "type": "string",
          "internalType": "string"
        }
      ],
      "outputs": [],
      "stateMutability": "nonpayable"
    },
    {
      "type": "function",
      "name": "setBaseMediaURICover2",
      "inputs": [
        {
          "name": "_newBaseURI",
          "type": "string",
          "internalType": "string"
        }
      ],
      "outputs": [],
      "stateMutability": "nonpayable"
    },
    {
      "type": "function",
      "name": "setBaseURI",
      "inputs": [
        {
          "name": "_newBaseURI",
          "type": "string",
          "internalType": "string"
        }
      ],
      "outputs": [],
      "stateMutability": "nonpayable"
    },
    {
      "type": "function",
      "name": "setDefaultRoyalties",
      "inputs": [
        {
          "name": "_recipient",
          "type": "address",
          "internalType": "address"
        },
        {
          "name": "_feeNumerator",
          "type": "uint96",
          "internalType": "uint96"
        }
      ],
      "outputs": [],
      "stateMutability": "nonpayable"
    },
    {
      "type": "function",
      "name": "setFiatPayment",
      "inputs": [
        {
          "name": "_newFiatPayment",
          "type": "address",
          "internalType": "address"
        }
      ],
      "outputs": [],
      "stateMutability": "nonpayable"
    },
    {
      "type": "function",
      "name": "setMaxMintWallet",
      "inputs": [
        {
          "name": "_newMaxMintWallet",
          "type": "uint256",
          "internalType": "uint256"
        }
      ],
      "outputs": [],
      "stateMutability": "nonpayable"
    },
    {
      "type": "function",
      "name": "setPublicPrice",
      "inputs": [
        {
          "name": "_newPublicPrice",
          "type": "uint256",
          "internalType": "uint256"
        }
      ],
      "outputs": [],
      "stateMutability": "nonpayable"
    },
    {
      "type": "function",
      "name": "setSigner",
      "inputs": [
        {
          "name": "_newSigner",
          "type": "address",
          "internalType": "address"
        }
      ],
      "outputs": [],
      "stateMutability": "nonpayable"
    },
    {
      "type": "function",
      "name": "setStatus",
      "inputs": [
        {
          "name": "_newStatus",
          "type": "uint8",
          "internalType": "enum Status"
        }
      ],
      "outputs": [],
      "stateMutability": "nonpayable"
    },
    {
      "type": "function",
      "name": "setSufixURI",
      "inputs": [
        {
          "name": "_newSufixURI",
          "type": "string",
          "internalType": "string"
        }
      ],
      "outputs": [],
      "stateMutability": "nonpayable"
    },
    {
      "type": "function",
      "name": "setTokenProof1",
      "inputs": [
        {
          "name": "_tokenProof",
          "type": "string",
          "internalType": "string"
        }
      ],
      "outputs": [],
      "stateMutability": "nonpayable"
    },
    {
      "type": "function",
      "name": "setTokenProof2",
      "inputs": [
        {
          "name": "_tokenProof",
          "type": "string",
          "internalType": "string"
        }
      ],
      "outputs": [],
      "stateMutability": "nonpayable"
    },
    {
      "type": "function",
      "name": "setWhitelistPrice",
      "inputs": [
        {
          "name": "_newWhitelistPrice",
          "type": "uint256",
          "internalType": "uint256"
        }
      ],
      "outputs": [],
      "stateMutability": "nonpayable"
    },
    {
      "type": "function",
      "name": "supportsInterface",
      "inputs": [
        {
          "name": "interfaceId",
          "type": "bytes4",
          "internalType": "bytes4"
        }
      ],
      "outputs": [
        {
          "name": "",
          "type": "bool",
          "internalType": "bool"
        }
      ],
      "stateMutability": "view"
    },
    {
      "type": "function",
      "name": "symbol",
      "inputs": [],
      "outputs": [
        {
          "name": "",
          "type": "string",
          "internalType": "string"
        }
      ],
      "stateMutability": "view"
    },
    {
      "type": "function",
      "name": "tokenByIndex",
      "inputs": [
        {
          "name": "index",
          "type": "uint256",
          "internalType": "uint256"
        }
      ],
      "outputs": [
        {
          "name": "",
          "type": "uint256",
          "internalType": "uint256"
        }
      ],
      "stateMutability": "view"
    },
    {
      "type": "function",
      "name": "tokenOfOwnerByIndex",
      "inputs": [
        {
          "name": "owner",
          "type": "address",
          "internalType": "address"
        },
        {
          "name": "index",
          "type": "uint256",
          "internalType": "uint256"
        }
      ],
      "outputs": [
        {
          "name": "",
          "type": "uint256",
          "internalType": "uint256"
        }
      ],
      "stateMutability": "view"
    },
    {
      "type": "function",
      "name": "tokenProofPermanent",
      "inputs": [
        {
          "name": "tokenId",
          "type": "uint256",
          "internalType": "uint256"
        }
      ],
      "outputs": [
        {
          "name": "",
          "type": "string",
          "internalType": "string"
        }
      ],
      "stateMutability": "view"
    },
    {
      "type": "function",
      "name": "tokenURI",
      "inputs": [
        {
          "name": "tokenId",
          "type": "uint256",
          "internalType": "uint256"
        }
      ],
      "outputs": [
        {
          "name": "",
          "type": "string",
          "internalType": "string"
        }
      ],
      "stateMutability": "view"
    },
    {
      "type": "function",
      "name": "tokenURIsPermanent",
      "inputs": [
        {
          "name": "tokenId",
          "type": "uint256",
          "internalType": "uint256"
        }
      ],
      "outputs": [
        {
          "name": "",
          "type": "string[]",
          "internalType": "string[]"
        }
      ],
      "stateMutability": "view"
    },
    {
      "type": "function",
      "name": "totalSupply",
      "inputs": [],
      "outputs": [
        {
          "name": "",
          "type": "uint256",
          "internalType": "uint256"
        }
      ],
      "stateMutability": "view"
    },
    {
      "type": "function",
      "name": "transferFrom",
      "inputs": [
        {
          "name": "from",
          "type": "address",
          "internalType": "address"
        },
        {
          "name": "to",
          "type": "address",
          "internalType": "address"
        },
        {
          "name": "tokenId",
          "type": "uint256",
          "internalType": "uint256"
        }
      ],
      "outputs": [],
      "stateMutability": "nonpayable"
    },
    {
      "type": "function",
      "name": "transferOwnership",
      "inputs": [
        {
          "name": "newOwner",
          "type": "address",
          "internalType": "address"
        }
      ],
      "outputs": [],
      "stateMutability": "nonpayable"
    },
    {
      "type": "function",
      "name": "whitelistMint",
      "inputs": [
        {
          "name": "_to",
          "type": "address",
          "internalType": "address"
        },
        {
          "name": "_amount1",
          "type": "uint256",
          "internalType": "uint256"
        },
        {
          "name": "_amount2",
          "type": "uint256",
          "internalType": "uint256"
        },
        {
          "name": "_amount1Sign",
          "type": "uint256",
          "internalType": "uint256"
        },
        {
          "name": "_amount2Sign",
          "type": "uint256",
          "internalType": "uint256"
        },
        {
          "name": "_sign",
          "type": "bytes",
          "internalType": "bytes"
        }
      ],
      "outputs": [],
      "stateMutability": "payable"
    },
    {
      "type": "function",
      "name": "withdraw",
      "inputs": [],
      "outputs": [],
      "stateMutability": "nonpayable"
    },
    {
      "type": "event",
      "name": "Approval",
      "inputs": [
        {
          "name": "owner",
          "type": "address",
          "indexed": true,
          "internalType": "address"
        },
        {
          "name": "approved",
          "type": "address",
          "indexed": true,
          "internalType": "address"
        },
        {
          "name": "tokenId",
          "type": "uint256",
          "indexed": true,
          "internalType": "uint256"
        }
      ],
      "anonymous": false
    },
    {
      "type": "event",
      "name": "ApprovalForAll",
      "inputs": [
        {
          "name": "owner",
          "type": "address",
          "indexed": true,
          "internalType": "address"
        },
        {
          "name": "operator",
          "type": "address",
          "indexed": true,
          "internalType": "address"
        },
        {
          "name": "approved",
          "type": "bool",
          "indexed": false,
          "internalType": "bool"
        }
      ],
      "anonymous": false
    },
    {
      "type": "event",
      "name": "OwnershipTransferred",
      "inputs": [
        {
          "name": "previousOwner",
          "type": "address",
          "indexed": true,
          "internalType": "address"
        },
        {
          "name": "newOwner",
          "type": "address",
          "indexed": true,
          "internalType": "address"
        }
      ],
      "anonymous": false
    },
    {
      "type": "event",
      "name": "Transfer",
      "inputs": [
        {
          "name": "from",
          "type": "address",
          "indexed": true,
          "internalType": "address"
        },
        {
          "name": "to",
          "type": "address",
          "indexed": true,
          "internalType": "address"
        },
        {
          "name": "tokenId",
          "type": "uint256",
          "indexed": true,
          "internalType": "uint256"
        }
      ],
      "anonymous": false
    },
    {
      "type": "error",
      "name": "contractFreezed",
      "inputs": []
    },
    {
      "type": "error",
      "name": "exceedAllowedToken1Mint",
      "inputs": []
    },
    {
      "type": "error",
      "name": "exceedAllowedToken2Mint",
      "inputs": []
    },
    {
      "type": "error",
      "name": "failWhithdraw",
      "inputs": []
    },
    {
      "type": "error",
      "name": "invalidAmountSend",
      "inputs": []
    },
    {
      "type": "error",
      "name": "invalidSaleStatus",
      "inputs": []
    },
    {
      "type": "error",
      "name": "invalidSignature",
      "inputs": []
    },
    {
      "type": "error",
      "name": "maxMintWalletReachToken1",
      "inputs": []
    },
    {
      "type": "error",
      "name": "maxMintWalletReachToken2",
      "inputs": []
    },
    {
      "type": "error",
      "name": "maxSupplyToken1Reach",
      "inputs": []
    },
    {
      "type": "error",
      "name": "maxSupplyToken2Reach",
      "inputs": []
    },
    {
      "type": "error",
      "name": "onlyApprovedPaymentAddress",
      "inputs": []
    },
    {
      "type": "error",
      "name": "whithdrawZeroValue",
      "inputs": []
    }
  ],
  "bytecode": {
    "object": "0x6000600f5560c0604052600e60809081526d594f55522042415345205552492f60901b60a05260149062000034908262000379565b5060408051808201909152601681527f594f5552204241534520555249204d4544494120312f00000000000000000000602082015260159062000078908262000379565b506040805180820190915260168082527f594f5552204241534520555249204d4544494120312f00000000000000000000602083015290620000bb908262000379565b50604080518082019091526005815264173539b7b760d91b6020820152601990620000e7908262000379565b5061012c601a55600a601b556001601c556097601d5566038d7ea4c68000601e556605543df729c000601f5560006020819055602155602280546001600160a01b0319167390d41fa17a8df96e7dff80227b4fc7d208dfd0261790553480156200015057600080fd5b506040518060400160405280600881526020016715539113d616115160c21b815250604051806040016040528060048152602001630aa9c88b60e31b8152508160009081620001a0919062000379565b506001620001af828262000379565b50505033600a556200027760148054620001c990620002ea565b80601f0160208091040260200160405190810160405280929190818152602001828054620001f790620002ea565b8015620002485780601f106200021c5761010080835404028352916020019162000248565b820191906000526020600020905b8154815290600101906020018083116200022a57829003601f168201915b505050505060405180604001604052806005815260200164173539b7b760d91b8152506200027d60201b60201c565b6200046d565b600f5460009081526010602052604090206200029a838262000379565b50600f546000908152601160205260409020620002b8828262000379565b50600f8054906000620002cb8362000445565b91905055505050565b634e487b7160e01b600052604160045260246000fd5b600181811c90821680620002ff57607f821691505b6020821081036200032057634e487b7160e01b600052602260045260246000fd5b50919050565b601f8211156200037457600081815260208120601f850160051c810160208610156200034f5750805b601f850160051c820191505b8181101562000370578281556001016200035b565b5050505b505050565b81516001600160401b03811115620003955762000395620002d4565b620003ad81620003a68454620002ea565b8462000326565b602080601f831160018114620003e55760008415620003cc5750858301515b600019600386901b1c1916600185901b17855562000370565b600085815260208120601f198616915b828110156200041657888601518255948401946001909101908401620003f5565b5085821015620004355787850151600019600388901b60f8161c191681555b5050505050600190811b01905550565b6000600182016200046657634e487b7160e01b600052601160045260246000fd5b5060010190565b61441b806200047d6000396000f3fe6080604052600436106103355760003560e01c8063717d57d3116101ab578063b64759d4116100f7578063dbe16c0711610095578063e985e9c51161006f578063e985e9c51461097f578063f01c9474146109c8578063f2fde38b146109dd578063fee4a6b4146109fd57600080fd5b8063dbe16c0714610937578063dc17a3bb14610957578063de914f261461096a57600080fd5b8063c87b56dd116100d1578063c87b56dd14610895578063c8b4296a146108b5578063cd02771a146108d5578063d998922a146108f557600080fd5b8063b64759d414610835578063b88d4fde14610855578063c62752551461087557600080fd5b80638da5cb5b116101645780639e69413d1161013e5780639e69413d14610797578063a22cb465146107d9578063a3dd2619146107f9578063a584a9b51461082057600080fd5b80638da5cb5b1461074d57806395d89b4114610762578063991f48ea1461077757600080fd5b8063717d57d314610698578063752e8a0d146106b857806378e5f963146106e55780637a275d19146107055780637dd36e34146107185780638b927e141461073857600080fd5b80632e49d78b116102855780634f6ccce7116102235780636352211e116101fd5780636352211e146106235780636c19e7831461064357806370a0823114610663578063715018a61461068357600080fd5b80634f6ccce7146105c357806355f804b3146105e3578063632228121461060357600080fd5b806330b8a5691161025f57806330b8a56914610559578063363e86fe146105795780633ccfd60b1461058e57806342842e0e146105a357600080fd5b80632e49d78b146104f95780632ee52fe7146105195780632f745c591461053957600080fd5b8063156e29f6116102f25780631b851194116102cc5780631b8511941461046757806323b872dd1461047a57806324029e791461049a5780632a55205a146104ba57600080fd5b8063156e29f61461042a57806318160ddd1461043d5780631a0925411461045257600080fd5b806301ffc9a71461033a57806306fdde031461036f578063081812fc14610391578063095ea7b3146103c95780630da51cd7146103eb5780630e4dc2551461040a575b600080fd5b34801561034657600080fd5b5061035a610355366004613797565b610a1d565b60405190151581526020015b60405180910390f35b34801561037b57600080fd5b50610384610a2e565b604051610366919061380b565b34801561039d57600080fd5b506103b16103ac36600461381e565b610ac0565b6040516001600160a01b039091168152602001610366565b3480156103d557600080fd5b506103e96103e4366004613853565b610ae7565b005b3480156103f757600080fd5b50601e545b604051908152602001610366565b34801561041657600080fd5b506103e96104253660046138bf565b610c01565b6103e9610438366004613901565b610c53565b34801561044957600080fd5b506008546103fc565b34801561045e57600080fd5b50610384610e30565b6103e96104753660046139d7565b610e53565b34801561048657600080fd5b506103e9610495366004613a4a565b6110e2565b3480156104a657600080fd5b506103e96104b53660046138bf565b611113565b3480156104c657600080fd5b506104da6104d5366004613a86565b61113a565b604080516001600160a01b039093168352602083019190915201610366565b34801561050557600080fd5b506103e9610514366004613aa8565b6111e8565b34801561052557600080fd5b506103e9610534366004613ac9565b61125a565b34801561054557600080fd5b506103fc610554366004613853565b611298565b34801561056557600080fd5b506103e96105743660046139d7565b61132e565b34801561058557600080fd5b50601f546103fc565b34801561059a57600080fd5b506103e961156c565b3480156105af57600080fd5b506103e96105be366004613a4a565b611616565b3480156105cf57600080fd5b506103fc6105de36600461381e565b611631565b3480156105ef57600080fd5b506103e96105fe3660046138bf565b6116c4565b34801561060f57600080fd5b506103e961061e36600461381e565b611716565b34801561062f57600080fd5b506103b161063e36600461381e565b611760565b34801561064f57600080fd5b506103e961065e366004613ac9565b6117c0565b34801561066f57600080fd5b506103fc61067e366004613ac9565b611827565b34801561068f57600080fd5b506103e96118ad565b3480156106a457600080fd5b506103e96106b336600461381e565b6118d3565b3480156106c457600080fd5b506106d86106d336600461381e565b61191d565b6040516103669190613ae4565b3480156106f157600080fd5b5061038461070036600461381e565b611bf9565b6103e96107133660046139d7565b611ca3565b34801561072457600080fd5b506103e9610733366004613b46565b611f37565b34801561074457600080fd5b506103fc611fc4565b34801561075957600080fd5b506103b1611fda565b34801561076e57600080fd5b50610384611fe8565b34801561078357600080fd5b506103e96107923660046138bf565b611ff7565b3480156107a357600080fd5b506103fc6107b2366004613ac9565b6001600160a01b031660009081526024602090815260408083206002845290915290205490565b3480156107e557600080fd5b506103e96107f4366004613bb2565b612049565b34801561080557600080fd5b50602254600160a81b900460ff166040516103669190613c04565b34801561082c57600080fd5b506103e9612054565b34801561084157600080fd5b506103e96108503660046138bf565b6120ae565b34801561086157600080fd5b506103e9610870366004613c2c565b612100565b34801561088157600080fd5b506103e961089036600461381e565b612132565b3480156108a157600080fd5b506103846108b036600461381e565b61217c565b3480156108c157600080fd5b506103e96108d03660046138bf565b6121e4565b3480156108e157600080fd5b506103e96108f0366004613c94565b61220b565b34801561090157600080fd5b506103fc610910366004613ac9565b6001600160a01b031660009081526024602090815260408083206001845290915290205490565b34801561094357600080fd5b5061038461095236600461381e565b61222f565b6103e96109653660046139d7565b61226c565b34801561097657600080fd5b506103fc61255d565b34801561098b57600080fd5b5061035a61099a366004613ccc565b6001600160a01b03918216600090815260056020908152604080832093909416825291909152205460ff1690565b3480156109d457600080fd5b506103fc61256e565b3480156109e957600080fd5b506103e96109f8366004613ac9565b61258c565b348015610a0957600080fd5b50610384610a1836600461381e565b6125c8565b6000610a2882612708565b92915050565b606060008054610a3d90613cff565b80601f0160208091040260200160405190810160405280929190818152602001828054610a6990613cff565b8015610ab65780601f10610a8b57610100808354040283529160200191610ab6565b820191906000526020600020905b815481529060010190602001808311610a9957829003601f168201915b5050505050905090565b6000610acb8261272d565b506000908152600460205260409020546001600160a01b031690565b6000610af282611760565b9050806001600160a01b0316836001600160a01b031603610b645760405162461bcd60e51b815260206004820152602160248201527f4552433732313a20617070726f76616c20746f2063757272656e74206f776e656044820152603960f91b60648201526084015b60405180910390fd5b336001600160a01b0382161480610b805750610b80813361099a565b610bf25760405162461bcd60e51b815260206004820152603d60248201527f4552433732313a20617070726f76652063616c6c6572206973206e6f7420746f60448201527f6b656e206f776e6572206f7220617070726f76656420666f7220616c6c0000006064820152608401610b5b565b610bfc838361278c565b505050565b600a543314610c1b5763bbe424b960e01b60005260046000fd5b602254600160a01b900460ff1615610c4657604051631342a2d360e31b815260040160405180910390fd5b6015610bfc828483613d87565b600380602254600160a81b900460ff166006811115610c7457610c74613bee565b14610c9257604051639cc783ed60e01b815260040160405180910390fd5b336001600160a01b03851614610cd2573360009081526023602052604090205460ff16610cd257604051634b25c25160e01b815260040160405180910390fd5b601b546001600160a01b038516600090815260246020908152604080832060018452909152902054610d05908590613e5d565b1115610d2457604051634c9664e760e01b815260040160405180910390fd5b601b546001600160a01b038516600090815260246020908152604080832060028452909152902054610d57908490613e5d565b1115610d765760405163816c37b360e01b815260040160405180910390fd5b609760205484601c54610d899190613e5d565b610d939190613e5d565b1115610db2576040516306ab2e5160e01b815260040160405180910390fd5b61012d60215483601d54610dc69190613e5d565b610dd09190613e5d565b1115610def5760405163c62be36d60e01b815260040160405180910390fd5b34601f54838501021115610e1657604051631bfc08e760e11b815260040160405180910390fd5b610e2084846127fa565b610e2a84836128b9565b50505050565b606060405180610160016040528061013f81526020016142a761013f9139905090565b6022548690849084906002908590610e78906001600160a01b031686868686866128f5565b610e95576040516368e6090160e11b815260040160405180910390fd5b6002602254600160a81b900460ff166006811115610eb557610eb5613bee565b14158015610ee157506003602254600160a81b900460ff166006811115610ede57610ede613bee565b14155b15610eff57604051639cc783ed60e01b815260040160405180910390fd5b336001600160a01b038c1614610f3f573360009081526023602052604090205460ff16610f3f57604051634b25c25160e01b815260040160405180910390fd5b87602587604051610f509190613e70565b9081526020016040518091039020548b610f6a9190613e5d565b1115610f8957604051632508c3ed60e11b815260040160405180910390fd5b86602687604051610f9a9190613e70565b9081526020016040518091039020548a610fb49190613e5d565b1115610fd35760405163d4b4828d60e01b815260040160405180910390fd5b60976020548b601c54610fe69190613e5d565b610ff09190613e5d565b111561100f576040516306ab2e5160e01b815260040160405180910390fd5b61012d6021548a601d546110239190613e5d565b61102d9190613e5d565b111561104c5760405163c62be36d60e01b815260040160405180910390fd5b34601e548a8c0102111561107357604051631bfc08e760e11b815260040160405180910390fd5b896025876040516110849190613e70565b908152604051908190036020018120805490920190915589906026906110ab908990613e70565b908152604051908190036020019020805490910190556110cb8b8b6127fa565b6110d58b8a6128b9565b5050505050505050505050565b6110ec338261298c565b6111085760405162461bcd60e51b8152600401610b5b90613e8c565b610bfc838383612a0b565b600a54331461112d5763bbe424b960e01b60005260046000fd5b6017610bfc828483613d87565b6000828152600c602090815260408083208151808301909252546001600160a01b038116808352600160a01b9091046001600160601b03169282019290925282916111af575060408051808201909152600b546001600160a01b0381168252600160a01b90046001600160601b031660208201525b6020810151600090612710906111ce906001600160601b031687613ed9565b6111d89190613ef0565b91519350909150505b9250929050565b600a5433146112025763bbe424b960e01b60005260046000fd5b602254600160a01b900460ff161561122d57604051631342a2d360e31b815260040160405180910390fd5b6022805482919060ff60a81b1916600160a81b83600681111561125257611252613bee565b021790555050565b600a5433146112745763bbe424b960e01b60005260046000fd5b6001600160a01b03166000908152602360205260409020805460ff19166001179055565b60006112a383611827565b82106113055760405162461bcd60e51b815260206004820152602b60248201527f455243373231456e756d657261626c653a206f776e657220696e646578206f7560448201526a74206f6620626f756e647360a81b6064820152608401610b5b565b506001600160a01b03919091166000908152600660209081526040808320938352929052205490565b600180602254600160a81b900460ff16600681111561134f5761134f613bee565b1461136d57604051639cc783ed60e01b815260040160405180910390fd5b6022548790859085906001908690611392906001600160a01b031686868686866128f5565b6113af576040516368e6090160e11b815260040160405180910390fd5b336001600160a01b038d16146113ef573360009081526023602052604090205460ff166113ef57604051634b25c25160e01b815260040160405180910390fd5b886025886040516114009190613e70565b9081526020016040518091039020548c61141a9190613e5d565b111561143957604051632508c3ed60e11b815260040160405180910390fd5b8760268860405161144a9190613e70565b9081526020016040518091039020548b6114649190613e5d565b11156114835760405163d4b4828d60e01b815260040160405180910390fd5b60976020548c601c546114969190613e5d565b6114a09190613e5d565b11156114bf576040516306ab2e5160e01b815260040160405180910390fd5b61012d6021548b601d546114d39190613e5d565b6114dd9190613e5d565b11156114fc5760405163c62be36d60e01b815260040160405180910390fd5b8a60258860405161150d9190613e70565b90815260405190819003602001812080549092019091558a90602690611534908a90613e70565b908152604051908190036020019020805490910190556115548c8c6127fa565b61155e8c8b6128b9565b505050505050505050505050565b600a5433146115865763bbe424b960e01b60005260046000fd5b4760008190036115a9576040516304abc4f760e21b815260040160405180910390fd5b604051600090339047908381818185875af1925050503d80600081146115eb576040519150601f19603f3d011682016040523d82523d6000602084013e6115f0565b606091505b5050905080611612576040516391ac981760e01b815260040160405180910390fd5b5050565b610bfc83838360405180602001604052806000815250612100565b600061163c60085490565b821061169f5760405162461bcd60e51b815260206004820152602c60248201527f455243373231456e756d657261626c653a20676c6f62616c20696e646578206f60448201526b7574206f6620626f756e647360a01b6064820152608401610b5b565b600882815481106116b2576116b2613f12565b90600052602060002001549050919050565b600a5433146116de5763bbe424b960e01b60005260046000fd5b602254600160a01b900460ff161561170957604051631342a2d360e31b815260040160405180910390fd5b6014610bfc828483613d87565b600a5433146117305763bbe424b960e01b60005260046000fd5b602254600160a01b900460ff161561175b57604051631342a2d360e31b815260040160405180910390fd5b601b55565b6000818152600260205260408120546001600160a01b031680610a285760405162461bcd60e51b8152602060048201526018602482015277115490cdcc8c4e881a5b9d985b1a59081d1bdad95b88125160421b6044820152606401610b5b565b600a5433146117da5763bbe424b960e01b60005260046000fd5b602254600160a01b900460ff161561180557604051631342a2d360e31b815260040160405180910390fd5b602280546001600160a01b0319166001600160a01b0392909216919091179055565b60006001600160a01b0382166118915760405162461bcd60e51b815260206004820152602960248201527f4552433732313a2061646472657373207a65726f206973206e6f7420612076616044820152683634b21037bbb732b960b91b6064820152608401610b5b565b506001600160a01b031660009081526003602052604090205490565b600a5433146118c75763bbe424b960e01b60005260046000fd5b6118d16000612b7c565b565b600a5433146118ed5763bbe424b960e01b60005260046000fd5b602254600160a01b900460ff161561191857604051631342a2d360e31b815260040160405180910390fd5b601e55565b60606119288261272d565b6000828152600e6020526040812054600f54600d5483929161194991613e5d565b6119539190613e5d565b67ffffffffffffffff81111561196b5761196b613934565b60405190808252806020026020018201604052801561199e57816020015b60608152602001906001900390816119895790505b50905060005b600d54811015611a7d57600d81815481106119c1576119c1613f12565b9060005260206000200180546119d690613cff565b80601f0160208091040260200160405190810160405280929190818152602001828054611a0290613cff565b8015611a4f5780601f10611a2457610100808354040283529160200191611a4f565b820191906000526020600020905b815481529060010190602001808311611a3257829003601f168201915b5050505050828481518110611a6657611a66613f12565b6020908102919091010152600192830192016119a4565b5060005b600f54811015611afb576000818152601060205260409020611aa286612bae565b6000838152601160209081526040918290209151611ac39493929101613f9b565b604051602081830303815290604052828481518110611ae457611ae4613f12565b602090810291909101015260019283019201611a81565b5060005b6000858152600e6020526040902054811015611bf1576000858152600e60205260409020805482908110611b3557611b35613f12565b906000526020600020018054611b4a90613cff565b80601f0160208091040260200160405190810160405280929190818152602001828054611b7690613cff565b8015611bc35780601f10611b9857610100808354040283529160200191611bc3565b820191906000526020600020905b815481529060010190602001808311611ba657829003601f168201915b5050505050828481518110611bda57611bda613f12565b602090810291909101015260019283019201611aff565b509392505050565b60606097821015611c965760158054611c1190613cff565b80601f0160208091040260200160405190810160405280929190818152602001828054611c3d90613cff565b8015611c8a5780601f10611c5f57610100808354040283529160200191611c8a565b820191906000526020600020905b815481529060010190602001808311611c6d57829003601f168201915b50505050509050919050565b60168054611c1190613cff565b6022548690849084906006908590611cc8906001600160a01b031686868686866128f5565b611ce5576040516368e6090160e11b815260040160405180910390fd5b6002602254600160a81b900460ff166006811115611d0557611d05613bee565b14158015611d3157506003602254600160a81b900460ff166006811115611d2e57611d2e613bee565b14155b15611d4f57604051639cc783ed60e01b815260040160405180910390fd5b336001600160a01b038c1614611d8f573360009081526023602052604090205460ff16611d8f57604051634b25c25160e01b815260040160405180910390fd5b87602587604051611da09190613e70565b9081526020016040518091039020548b611dba9190613e5d565b1115611dd957604051632508c3ed60e11b815260040160405180910390fd5b86602687604051611dea9190613e70565b9081526020016040518091039020548a611e049190613e5d565b1115611e235760405163d4b4828d60e01b815260040160405180910390fd5b60978a601c54611e339190613e5d565b1115611e52576040516306ab2e5160e01b815260040160405180910390fd5b61012d89601d54611e639190613e5d565b1115611e825760405163c62be36d60e01b815260040160405180910390fd5b34601f548a8c01021115611ea957604051631bfc08e760e11b815260040160405180910390fd5b89602587604051611eba9190613e70565b90815260405190819003602001812080549092019091558990602690611ee1908990613e70565b9081526020016040518091039020600082825401925050819055508960206000828254611f0e9190613fce565b925050819055508860216000828254611f279190613fce565b909155506110cb90508b8b6127fa565b600a543314611f515763bbe424b960e01b60005260046000fd5b610e2a84848080601f01602080910402602001604051908101604052809392919081815260200183838082843760009201919091525050604080516020601f88018190048102820181019092528681529250869150859081908401838280828437600092019190915250612c4192505050565b60006001601c54611fd59190613fce565b905090565b6000600a5460005260206000f35b606060018054610a3d90613cff565b600a5433146120115763bbe424b960e01b60005260046000fd5b602254600160a01b900460ff161561203c57604051631342a2d360e31b815260040160405180910390fd5b6019610bfc828483613d87565b611612338383612c92565b600a54331461206e5763bbe424b960e01b60005260046000fd5b602254600160a01b900460ff161561209957604051631342a2d360e31b815260040160405180910390fd5b6022805460ff60a01b1916600160a01b179055565b600a5433146120c85763bbe424b960e01b60005260046000fd5b602254600160a01b900460ff16156120f357604051631342a2d360e31b815260040160405180910390fd5b6016610bfc828483613d87565b61210a338361298c565b6121265760405162461bcd60e51b8152600401610b5b90613e8c565b610e2a84848484612d60565b600a54331461214c5763bbe424b960e01b60005260046000fd5b602254600160a01b900460ff161561217757604051631342a2d360e31b815260040160405180910390fd5b601f55565b6000818152600260205260409020546060906001600160a01b03166121af57505060408051602081019091526000815290565b60146121ba83612bae565b60196040516020016121ce93929190613f9b565b6040516020818303038152906040529050919050565b600a5433146121fe5763bbe424b960e01b60005260046000fd5b6018610bfc828483613d87565b600a5433146122255763bbe424b960e01b60005260046000fd5b6116128282612d93565b606060978210156122535761224382612bae565b6040516020016121ce9190613fe1565b61225c82612bae565b6040516020016121ce919061402a565b3360009081526023602052604090205460ff1661229c57604051634b25c25160e01b815260040160405180910390fd5b6002602254600160a81b900460ff1660068111156122bc576122bc613bee565b036123c6576022546122e9906001600160a01b03811690889086908690600160a81b900460ff16866128f5565b612306576040516368e6090160e11b815260040160405180910390fd5b826025826040516123179190613e70565b908152602001604051809103902054866123319190613e5d565b111561235057604051632508c3ed60e11b815260040160405180910390fd5b816026826040516123619190613e70565b9081526020016040518091039020548561237b9190613e5d565b111561239a5760405163d4b4828d60e01b815260040160405180910390fd5b34601e548587010211156123c157604051631bfc08e760e11b815260040160405180910390fd5b6124cf565b6003602254600160a81b900460ff1660068111156123e6576123e6613bee565b036124b657601b546001600160a01b03871660009081526024602090815260408083206001845290915290205461241e908790613e5d565b111561243d57604051634c9664e760e01b815260040160405180910390fd5b601b546001600160a01b038716600090815260246020908152604080832060028452909152902054612470908690613e5d565b111561248f5760405163816c37b360e01b815260040160405180910390fd5b34601f548587010211156123c157604051631bfc08e760e11b815260040160405180910390fd5b604051639cc783ed60e01b815260040160405180910390fd5b6124d986866127fa565b6124e386856128b9565b6001600160a01b03861660009081526024602090815260408083206001845290915281208054879290612517908490613e5d565b90915550506001600160a01b03861660009081526024602090815260408083206002845290915281208054869290612550908490613e5d565b9091555050505050505050565b60006097601d54611fd59190613fce565b60006098601d54601c546125829190613e5d565b611fd59190613fce565b600a5433146125a65763bbe424b960e01b60005260046000fd5b806125bc5763bbee60dd60e01b60005260046000fd5b6125c581612b7c565b50565b60606125d38261272d565b600082815260136020526040812080546125ec90613cff565b80601f016020809104026020016040519081016040528092919081815260200182805461261890613cff565b80156126655780601f1061263a57610100808354040283529160200191612665565b820191906000526020600020905b81548152906001019060200180831161264857829003601f168201915b505050505090508051600003610a28576012805461268290613cff565b80601f01602080910402602001604051908101604052809291908181526020018280546126ae90613cff565b80156126fb5780601f106126d0576101008083540402835291602001916126fb565b820191906000526020600020905b8154815290600101906020018083116126de57829003601f168201915b5050505050915050919050565b60006001600160e01b0319821663152a902d60e11b1480610a285750610a2882612e90565b6000818152600260205260409020546001600160a01b03166125c55760405162461bcd60e51b8152602060048201526018602482015277115490cdcc8c4e881a5b9d985b1a59081d1bdad95b88125160421b6044820152606401610b5b565b600081815260046020526040902080546001600160a01b0319166001600160a01b03841690811790915581906127c182611760565b6001600160a01b03167f8c5be1e5ebec7d5bd14f71427d1e84f3dd0314c0f7b2291e5b200ac8c7c3b92560405160405180910390a45050565b60005b81811015610bfc5761281183601c54612eb5565b6128a7601c546017805461282490613cff565b80601f016020809104026020016040519081016040528092919081815260200182805461285090613cff565b801561289d5780601f106128725761010080835404028352916020019161289d565b820191906000526020600020905b81548152906001019060200180831161288057829003601f168201915b505050505061304e565b601c80546001908101909155016127fd565b60005b81811015610bfc576128d083601d54612eb5565b6128e3601d546018805461282490613cff565b601d80546001908101909155016128bc565b6000806129048787878761315f565b9050600061295f826040517f19457468657265756d205369676e6564204d6573736167653a0a3332000000006020820152603c8101829052600090605c01604051602081830303815290604052805190602001209050919050565b9050886001600160a01b03166129758286613198565b6001600160a01b0316149998505050505050505050565b60008061299883611760565b9050806001600160a01b0316846001600160a01b031614806129df57506001600160a01b0380821660009081526005602090815260408083209388168352929052205460ff165b80612a035750836001600160a01b03166129f884610ac0565b6001600160a01b0316145b949350505050565b826001600160a01b0316612a1e82611760565b6001600160a01b031614612a445760405162461bcd60e51b8152600401610b5b90614074565b6001600160a01b038216612aa65760405162461bcd60e51b8152602060048201526024808201527f4552433732313a207472616e7366657220746f20746865207a65726f206164646044820152637265737360e01b6064820152608401610b5b565b612ab38383836001613217565b826001600160a01b0316612ac682611760565b6001600160a01b031614612aec5760405162461bcd60e51b8152600401610b5b90614074565b600081815260046020908152604080832080546001600160a01b03199081169091556001600160a01b0387811680865260038552838620805460001901905590871680865283862080546001019055868652600290945282852080549092168417909155905184937fddf252ad1be2c89b69c2b068fc378daa952ba7f163c4a11628f55a4df523b3ef91a4505050565b600a5481600a5581817f8be0079c531659141344cd1fd0a4f28419497f9722a3daafe3b4186f6b6457e0600080a35050565b60606000612bbb83613223565b600101905060008167ffffffffffffffff811115612bdb57612bdb613934565b6040519080825280601f01601f191660200182016040528015612c05576020820181803683370190505b5090508181016020015b600019016f181899199a1a9b1b9c1cb0b131b232b360811b600a86061a8153600a8504945084612c0f57509392505050565b600f546000908152601060205260409020612c5c83826140b9565b50600f546000908152601160205260409020612c7882826140b9565b50600f8054906000612c8983614179565b91905055505050565b816001600160a01b0316836001600160a01b031603612cf35760405162461bcd60e51b815260206004820152601960248201527f4552433732313a20617070726f766520746f2063616c6c6572000000000000006044820152606401610b5b565b6001600160a01b03838116600081815260056020908152604080832094871680845294825291829020805460ff191686151590811790915591519182527f17307eab39ab6107e8899845ad3d59bd9653f200f220920489ca2b5937696c31910160405180910390a3505050565b612d6b848484612a0b565b612d77848484846132fb565b610e2a5760405162461bcd60e51b8152600401610b5b90614192565b6127106001600160601b0382161115612e015760405162461bcd60e51b815260206004820152602a60248201527f455243323938313a20726f79616c7479206665652077696c6c206578636565646044820152692073616c65507269636560b01b6064820152608401610b5b565b6001600160a01b038216612e575760405162461bcd60e51b815260206004820152601960248201527f455243323938313a20696e76616c6964207265636569766572000000000000006044820152606401610b5b565b604080518082019091526001600160a01b039092168083526001600160601b039091166020909201829052600160a01b90910217600b55565b60006001600160e01b0319821663780e9d6360e01b1480610a285750610a28826133f9565b6001600160a01b038216612f0b5760405162461bcd60e51b815260206004820181905260248201527f4552433732313a206d696e7420746f20746865207a65726f20616464726573736044820152606401610b5b565b6000818152600260205260409020546001600160a01b031615612f705760405162461bcd60e51b815260206004820152601c60248201527f4552433732313a20746f6b656e20616c7265616479206d696e746564000000006044820152606401610b5b565b612f7e600083836001613217565b6000818152600260205260409020546001600160a01b031615612fe35760405162461bcd60e51b815260206004820152601c60248201527f4552433732313a20746f6b656e20616c7265616479206d696e746564000000006044820152606401610b5b565b6001600160a01b038216600081815260036020908152604080832080546001019055848352600290915280822080546001600160a01b0319168417905551839291907fddf252ad1be2c89b69c2b068fc378daa952ba7f163c4a11628f55a4df523b3ef908290a45050565b6000828152600260205260409020546001600160a01b03166130cf5760405162461bcd60e51b815260206004820152603460248201527f4552433732315065726d616e656e7450726f6f663a2050726f6f66207365742060448201527337b3103737b732bc34b9ba32b73a103a37b5b2b760611b6064820152608401610b5b565b600082815260136020526040902080546130e890613cff565b1590506131475760405162461bcd60e51b815260206004820152602760248201527f4552433732315065726d616e656e7450726f6f663a2050726f6f6620616c726560448201526618591e481cd95d60ca1b6064820152608401610b5b565b6000828152601360205260409020610bfc82826140b9565b60008484848460405160200161317894939291906141e4565b604051602081830303815290604052805190602001209050949350505050565b6000806000806131a785613449565b6040805160008152602081018083528b905260ff8316918101919091526060810184905260808101839052929550909350915060019060a0016020604051602081039080840390855afa158015613202573d6000803e3d6000fd5b5050604051601f190151979650505050505050565b610e2a848484846134bd565b60008072184f03e93ff9f4daa797ed6e38ed64bf6a1f0160401b83106132625772184f03e93ff9f4daa797ed6e38ed64bf6a1f0160401b830492506040015b6d04ee2d6d415b85acef8100000000831061328e576d04ee2d6d415b85acef8100000000830492506020015b662386f26fc1000083106132ac57662386f26fc10000830492506010015b6305f5e10083106132c4576305f5e100830492506008015b61271083106132d857612710830492506004015b606483106132ea576064830492506002015b600a8310610a285760010192915050565b60006001600160a01b0384163b156133f157604051630a85bd0160e11b81526001600160a01b0385169063150b7a029061333f903390899088908890600401614236565b6020604051808303816000875af192505050801561337a575060408051601f3d908101601f1916820190925261337791810190614273565b60015b6133d7573d8080156133a8576040519150601f19603f3d011682016040523d82523d6000602084013e6133ad565b606091505b5080516000036133cf5760405162461bcd60e51b8152600401610b5b90614192565b805181602001fd5b6001600160e01b031916630a85bd0160e11b149050612a03565b506001612a03565b60006001600160e01b031982166380ac58cd60e01b148061342a57506001600160e01b03198216635b5e139f60e01b145b80610a2857506301ffc9a760e01b6001600160e01b0319831614610a28565b6000806000835160411461349f5760405162461bcd60e51b815260206004820152601860248201527f696e76616c6964207369676e6174757265206c656e67746800000000000000006044820152606401610b5b565b50505060208101516040820151606090920151909260009190911a90565b600181111561352c5760405162461bcd60e51b815260206004820152603560248201527f455243373231456e756d657261626c653a20636f6e7365637574697665207472604482015274185b9cd9995c9cc81b9bdd081cdd5c1c1bdc9d1959605a1b6064820152608401610b5b565b816001600160a01b0385166135885761358381600880546000838152600960205260408120829055600182018355919091527ff3f7a9fe364faab93b216da50a3214154f22a0a2b415b23a84c8169e8b636ee30155565b6135ab565b836001600160a01b0316856001600160a01b0316146135ab576135ab85826135f1565b6001600160a01b0384166135c7576135c28161368e565b6135ea565b846001600160a01b0316846001600160a01b0316146135ea576135ea848261373d565b5050505050565b600060016135fe84611827565b6136089190613fce565b60008381526007602052604090205490915080821461365b576001600160a01b03841660009081526006602090815260408083208584528252808320548484528184208190558352600790915290208190555b5060009182526007602090815260408084208490556001600160a01b039094168352600681528383209183525290812055565b6008546000906136a090600190613fce565b600083815260096020526040812054600880549394509092849081106136c8576136c8613f12565b9060005260206000200154905080600883815481106136e9576136e9613f12565b600091825260208083209091019290925582815260099091526040808220849055858252812055600880548061372157613721614290565b6001900381819060005260206000200160009055905550505050565b600061374883611827565b6001600160a01b039093166000908152600660209081526040808320868452825280832085905593825260079052919091209190915550565b6001600160e01b0319811681146125c557600080fd5b6000602082840312156137a957600080fd5b81356137b481613781565b9392505050565b60005b838110156137d65781810151838201526020016137be565b50506000910152565b600081518084526137f78160208601602086016137bb565b601f01601f19169290920160200192915050565b6020815260006137b460208301846137df565b60006020828403121561383057600080fd5b5035919050565b80356001600160a01b038116811461384e57600080fd5b919050565b6000806040838503121561386657600080fd5b61386f83613837565b946020939093013593505050565b60008083601f84011261388f57600080fd5b50813567ffffffffffffffff8111156138a757600080fd5b6020830191508360208285010111156111e157600080fd5b600080602083850312156138d257600080fd5b823567ffffffffffffffff8111156138e957600080fd5b6138f58582860161387d565b90969095509350505050565b60008060006060848603121561391657600080fd5b61391f84613837565b95602085013595506040909401359392505050565b634e487b7160e01b600052604160045260246000fd5b600082601f83011261395b57600080fd5b813567ffffffffffffffff8082111561397657613976613934565b604051601f8301601f19908116603f0116810190828211818310171561399e5761399e613934565b816040528381528660208588010111156139b757600080fd5b836020870160208301376000602085830101528094505050505092915050565b60008060008060008060c087890312156139f057600080fd5b6139f987613837565b95506020870135945060408701359350606087013592506080870135915060a087013567ffffffffffffffff811115613a3157600080fd5b613a3d89828a0161394a565b9150509295509295509295565b600080600060608486031215613a5f57600080fd5b613a6884613837565b9250613a7660208501613837565b9150604084013590509250925092565b60008060408385031215613a9957600080fd5b50508035926020909101359150565b600060208284031215613aba57600080fd5b8135600781106137b457600080fd5b600060208284031215613adb57600080fd5b6137b482613837565b6000602080830181845280855180835260408601915060408160051b870101925083870160005b82811015613b3957603f19888603018452613b278583516137df565b94509285019290850190600101613b0b565b5092979650505050505050565b60008060008060408587031215613b5c57600080fd5b843567ffffffffffffffff80821115613b7457600080fd5b613b808883890161387d565b90965094506020870135915080821115613b9957600080fd5b50613ba68782880161387d565b95989497509550505050565b60008060408385031215613bc557600080fd5b613bce83613837565b915060208301358015158114613be357600080fd5b809150509250929050565b634e487b7160e01b600052602160045260246000fd5b6020810160078310613c2657634e487b7160e01b600052602160045260246000fd5b91905290565b60008060008060808587031215613c4257600080fd5b613c4b85613837565b9350613c5960208601613837565b925060408501359150606085013567ffffffffffffffff811115613c7c57600080fd5b613c888782880161394a565b91505092959194509250565b60008060408385031215613ca757600080fd5b613cb083613837565b915060208301356001600160601b0381168114613be357600080fd5b60008060408385031215613cdf57600080fd5b613ce883613837565b9150613cf660208401613837565b90509250929050565b600181811c90821680613d1357607f821691505b602082108103613d3357634e487b7160e01b600052602260045260246000fd5b50919050565b601f821115610bfc57600081815260208120601f850160051c81016020861015613d605750805b601f850160051c820191505b81811015613d7f57828155600101613d6c565b505050505050565b67ffffffffffffffff831115613d9f57613d9f613934565b613db383613dad8354613cff565b83613d39565b6000601f841160018114613de75760008515613dcf5750838201355b600019600387901b1c1916600186901b1783556135ea565b600083815260209020601f19861690835b82811015613e185786850135825560209485019460019092019101613df8565b5086821015613e355760001960f88860031b161c19848701351681555b505060018560011b0183555050505050565b634e487b7160e01b600052601160045260246000fd5b80820180821115610a2857610a28613e47565b60008251613e828184602087016137bb565b9190910192915050565b6020808252602d908201527f4552433732313a2063616c6c6572206973206e6f7420746f6b656e206f776e6560408201526c1c881bdc88185c1c1c9bdd9959609a1b606082015260800190565b8082028115828204841417610a2857610a28613e47565b600082613f0d57634e487b7160e01b600052601260045260246000fd5b500490565b634e487b7160e01b600052603260045260246000fd5b60008154613f3581613cff565b60018281168015613f4d5760018114613f6257613f91565b60ff1984168752821515830287019450613f91565b8560005260208060002060005b85811015613f885781548a820152908401908201613f6f565b50505082870194505b5050505092915050565b6000613fa78286613f28565b8451613fb78183602089016137bb565b613fc381830186613f28565b979650505050505050565b81810381811115610a2857610a28613e47565b72554e44585820766f6c2e3120426c61636b202360681b81526000825161400f8160138501602087016137bb565b6302f3330360e41b6013939091019283015250601701919050565b73554e44585820766f6c2e3120507572706c65202360601b8152600082516140598160148501602087016137bb565b6302f3330360e41b6014939091019283015250601801919050565b60208082526025908201527f4552433732313a207472616e736665722066726f6d20696e636f72726563742060408201526437bbb732b960d91b606082015260800190565b815167ffffffffffffffff8111156140d3576140d3613934565b6140e7816140e18454613cff565b84613d39565b602080601f83116001811461411c57600084156141045750858301515b600019600386901b1c1916600185901b178555613d7f565b600085815260208120601f198616915b8281101561414b5788860151825594840194600190910190840161412c565b50858210156141695787850151600019600388901b60f8161c191681555b5050505050600190811b01905550565b60006001820161418b5761418b613e47565b5060010190565b60208082526032908201527f4552433732313a207472616e7366657220746f206e6f6e20455243373231526560408201527131b2b4bb32b91034b6b83632b6b2b73a32b960711b606082015260800190565b6001600160601b03198560601b16815283601482015282603482015260006007831061422057634e487b7160e01b600052602160045260246000fd5b5060f89190911b60548201526055019392505050565b6001600160a01b0385811682528416602082015260408101839052608060608201819052600090614269908301846137df565b9695505050505050565b60006020828403121561428557600080fd5b81516137b481613781565b634e487b7160e01b600052603160045260246000fdfe554e444f585845442c207468652066696e65737420696e206469676974616c206c6966657374796c652063756c747572652c20697320616e20616e6e75616c2068796272696420626f6f6b2074686174206d65726765732073747265657420616e64206c6966657374796c652063756c74757265207769746820746865206469676974616c20776f726c642e20497420666f6375736573206f6e2066617368696f6e2c20736e65616b6572732c20616e6420737472656574776561722c20636174616c6f67696e67207468652062657374206f6620706879676974616c2063756c747572652e2054686973207075626c69636174696f6e20627269646765732074686520706879736963616c20616e64206469676974616c207265616c6d732077697468696e207468652065766f6c76696e6720576562332073706163652ea2646970667358221220ff22eddc54cb7ee97518b880c7b8028bfb59988db94dc879ee98a64a5bb67ed564736f6c63430008130033",
    "linkReferences": {}
  },
  "methodIdentifiers": {
    "addPermanentBaseURI(string,string)": "7dd36e34",
    "allowlistMint(address,uint256,uint256,uint256,uint256,bytes)": "30b8a569",
    "approve(address,uint256)": "095ea7b3",
    "balanceOf(address)": "70a08231",
    "fiatPaymentMint(address,uint256,uint256,uint256,uint256,bytes)": "dc17a3bb",
    "freezeContract()": "a584a9b5",
    "getAllSupply()": "f01c9474",
    "getApproved(uint256)": "081812fc",
    "getBalanceOfCover1(address)": "d998922a",
    "getBalanceOfCover2(address)": "9e69413d",
    "getCurrentStatus()": "a3dd2619",
    "getDescription()": "1a092541",
    "getPublicPrice()": "363e86fe",
    "getToken1Supply()": "8b927e14",
    "getToken2Supply()": "de914f26",
    "getTokenMedia(uint256)": "78e5f963",
    "getTokenName(uint256)": "dbe16c07",
    "getWhitelistPrice()": "0da51cd7",
    "isApprovedForAll(address,address)": "e985e9c5",
    "mint(address,uint256,uint256)": "156e29f6",
    "name()": "06fdde03",
    "owner()": "8da5cb5b",
    "ownerOf(uint256)": "6352211e",
    "privateWhitelistMint(address,uint256,uint256,uint256,uint256,bytes)": "7a275d19",
    "renounceOwnership()": "715018a6",
    "royaltyInfo(uint256,uint256)": "2a55205a",
    "safeTransferFrom(address,address,uint256)": "42842e0e",
    "safeTransferFrom(address,address,uint256,bytes)": "b88d4fde",
    "setApprovalForAll(address,bool)": "a22cb465",
    "setBaseMediaURICover1(string)": "0e4dc255",
    "setBaseMediaURICover2(string)": "b64759d4",
    "setBaseURI(string)": "55f804b3",
    "setDefaultRoyalties(address,uint96)": "cd02771a",
    "setFiatPayment(address)": "2ee52fe7",
    "setMaxMintWallet(uint256)": "63222812",
    "setPublicPrice(uint256)": "c6275255",
    "setSigner(address)": "6c19e783",
    "setStatus(uint8)": "2e49d78b",
    "setSufixURI(string)": "991f48ea",
    "setTokenProof1(string)": "24029e79",
    "setTokenProof2(string)": "c8b4296a",
    "setWhitelistPrice(uint256)": "717d57d3",
    "supportsInterface(bytes4)": "01ffc9a7",
    "symbol()": "95d89b41",
    "tokenByIndex(uint256)": "4f6ccce7",
    "tokenOfOwnerByIndex(address,uint256)": "2f745c59",
    "tokenProofPermanent(uint256)": "fee4a6b4",
    "tokenURI(uint256)": "c87b56dd",
    "tokenURIsPermanent(uint256)": "752e8a0d",
    "totalSupply()": "18160ddd",
    "transferFrom(address,address,uint256)": "23b872dd",
    "transferOwnership(address)": "f2fde38b",
    "whitelistMint(address,uint256,uint256,uint256,uint256,bytes)": "1b851194",
    "withdraw()": "3ccfd60b"
  },
  "id": 47
}