{
  "abi": [
    {
      "inputs": [],
      "stateMutability": "nonpayable",
      "type": "constructor"
    },
    {
      "inputs": [],
      "name": "contractFreezed",
      "type": "error"
    },
    {
      "inputs": [],
      "name": "exceedAllowedToken1Mint",
      "type": "error"
    },
    {
      "inputs": [],
      "name": "exceedAllowedToken2Mint",
      "type": "error"
    },
    {
      "inputs": [],
      "name": "invalidAmountSend",
      "type": "error"
    },
    {
      "inputs": [],
      "name": "invalidSaleStatus",
      "type": "error"
    },
    {
      "inputs": [],
      "name": "invalidSignature",
      "type": "error"
    },
    {
      "inputs": [],
      "name": "maxMintWalletReachToken1",
      "type": "error"
    },
    {
      "inputs": [],
      "name": "maxMintWalletReachToken2",
      "type": "error"
    },
    {
      "inputs": [],
      "name": "maxSupplyToken1Reach",
      "type": "error"
    },
    {
      "inputs": [],
      "name": "maxSupplyToken2Reach",
      "type": "error"
    },
    {
      "inputs": [],
      "name": "onlyApprovedPaymentAddress",
      "type": "error"
    },
    {
      "anonymous": false,
      "inputs": [
        {
          "indexed": true,
          "internalType": "address",
          "name": "owner",
          "type": "address"
        },
        {
          "indexed": true,
          "internalType": "address",
          "name": "approved",
          "type": "address"
        },
        {
          "indexed": true,
          "internalType": "uint256",
          "name": "tokenId",
          "type": "uint256"
        }
      ],
      "name": "Approval",
      "type": "event"
    },
    {
      "anonymous": false,
      "inputs": [
        {
          "indexed": true,
          "internalType": "address",
          "name": "owner",
          "type": "address"
        },
        {
          "indexed": true,
          "internalType": "address",
          "name": "operator",
          "type": "address"
        },
        {
          "indexed": false,
          "internalType": "bool",
          "name": "approved",
          "type": "bool"
        }
      ],
      "name": "ApprovalForAll",
      "type": "event"
    },
    {
      "anonymous": false,
      "inputs": [
        {
          "indexed": true,
          "internalType": "address",
          "name": "previousOwner",
          "type": "address"
        },
        {
          "indexed": true,
          "internalType": "address",
          "name": "newOwner",
          "type": "address"
        }
      ],
      "name": "OwnershipTransferred",
      "type": "event"
    },
    {
      "anonymous": false,
      "inputs": [
        {
          "indexed": true,
          "internalType": "address",
          "name": "from",
          "type": "address"
        },
        {
          "indexed": true,
          "internalType": "address",
          "name": "to",
          "type": "address"
        },
        {
          "indexed": true,
          "internalType": "uint256",
          "name": "tokenId",
          "type": "uint256"
        }
      ],
      "name": "Transfer",
      "type": "event"
    },
    {
      "inputs": [
        {
          "internalType": "string",
          "name": "prefixURI",
          "type": "string"
        },
        {
          "internalType": "string",
          "name": "suffixURI",
          "type": "string"
        }
      ],
      "name": "addPermanentBaseURI",
      "outputs": [],
      "stateMutability": "nonpayable",
      "type": "function"
    },
    {
      "inputs": [
        {
          "internalType": "string",
          "name": "permanentGlobalUri",
          "type": "string"
        }
      ],
      "name": "addPermanentGlobalURI",
      "outputs": [],
      "stateMutability": "nonpayable",
      "type": "function"
    },
    {
      "inputs": [
        {
          "internalType": "uint256",
          "name": "tokenId",
          "type": "uint256"
        },
        {
          "internalType": "string",
          "name": "permanentTokenURI",
          "type": "string"
        }
      ],
      "name": "addPermanentTokenURI",
      "outputs": [],
      "stateMutability": "nonpayable",
      "type": "function"
    },
    {
      "inputs": [
        {
          "internalType": "address",
          "name": "_to",
          "type": "address"
        },
        {
          "internalType": "uint256",
          "name": "_amount1",
          "type": "uint256"
        },
        {
          "internalType": "uint256",
          "name": "_amount2",
          "type": "uint256"
        },
        {
          "internalType": "uint256",
          "name": "_amount1Sign",
          "type": "uint256"
        },
        {
          "internalType": "uint256",
          "name": "_amount2Sign",
          "type": "uint256"
        },
        {
          "internalType": "bytes",
          "name": "_sign",
          "type": "bytes"
        }
      ],
      "name": "allowlistMint",
      "outputs": [],
      "stateMutability": "nonpayable",
      "type": "function"
    },
    {
      "inputs": [
        {
          "internalType": "address",
          "name": "to",
          "type": "address"
        },
        {
          "internalType": "uint256",
          "name": "tokenId",
          "type": "uint256"
        }
      ],
      "name": "approve",
      "outputs": [],
      "stateMutability": "nonpayable",
      "type": "function"
    },
    {
      "inputs": [
        {
          "internalType": "address",
          "name": "owner",
          "type": "address"
        }
      ],
      "name": "balanceOf",
      "outputs": [
        {
          "internalType": "uint256",
          "name": "",
          "type": "uint256"
        }
      ],
      "stateMutability": "view",
      "type": "function"
    },
    {
      "inputs": [],
      "name": "freezeContract",
      "outputs": [],
      "stateMutability": "nonpayable",
      "type": "function"
    },
    {
      "inputs": [],
      "name": "getAllSupply",
      "outputs": [
        {
          "internalType": "uint256",
          "name": "",
          "type": "uint256"
        }
      ],
      "stateMutability": "view",
      "type": "function"
    },
    {
      "inputs": [
        {
          "internalType": "uint256",
          "name": "tokenId",
          "type": "uint256"
        }
      ],
      "name": "getApproved",
      "outputs": [
        {
          "internalType": "address",
          "name": "",
          "type": "address"
        }
      ],
      "stateMutability": "view",
      "type": "function"
    },
    {
      "inputs": [],
      "name": "getCurrentStatus",
      "outputs": [
        {
          "internalType": "enum Status",
          "name": "",
          "type": "uint8"
        }
      ],
      "stateMutability": "view",
      "type": "function"
    },
    {
      "inputs": [],
      "name": "getToken1Supply",
      "outputs": [
        {
          "internalType": "uint256",
          "name": "",
          "type": "uint256"
        }
      ],
      "stateMutability": "view",
      "type": "function"
    },
    {
      "inputs": [],
      "name": "getToken2Supply",
      "outputs": [
        {
          "internalType": "uint256",
          "name": "",
          "type": "uint256"
        }
      ],
      "stateMutability": "view",
      "type": "function"
    },
    {
      "inputs": [
        {
          "internalType": "address",
          "name": "owner",
          "type": "address"
        },
        {
          "internalType": "address",
          "name": "operator",
          "type": "address"
        }
      ],
      "name": "isApprovedForAll",
      "outputs": [
        {
          "internalType": "bool",
          "name": "",
          "type": "bool"
        }
      ],
      "stateMutability": "view",
      "type": "function"
    },
    {
      "inputs": [
        {
          "internalType": "address",
          "name": "_to",
          "type": "address"
        },
        {
          "internalType": "uint256",
          "name": "_amount1",
          "type": "uint256"
        },
        {
          "internalType": "uint256",
          "name": "_amount2",
          "type": "uint256"
        }
      ],
      "name": "mint",
      "outputs": [],
      "stateMutability": "payable",
      "type": "function"
    },
    {
      "inputs": [],
      "name": "name",
      "outputs": [
        {
          "internalType": "string",
          "name": "",
          "type": "string"
        }
      ],
      "stateMutability": "view",
      "type": "function"
    },
    {
      "inputs": [],
      "name": "owner",
      "outputs": [
        {
          "internalType": "address",
          "name": "",
          "type": "address"
        }
      ],
      "stateMutability": "view",
      "type": "function"
    },
    {
      "inputs": [
        {
          "internalType": "uint256",
          "name": "tokenId",
          "type": "uint256"
        }
      ],
      "name": "ownerOf",
      "outputs": [
        {
          "internalType": "address",
          "name": "",
          "type": "address"
        }
      ],
      "stateMutability": "view",
      "type": "function"
    },
    {
      "inputs": [],
      "name": "renounceOwnership",
      "outputs": [],
      "stateMutability": "nonpayable",
      "type": "function"
    },
    {
      "inputs": [
        {
          "internalType": "uint256",
          "name": "tokenId",
          "type": "uint256"
        },
        {
          "internalType": "uint256",
          "name": "salePrice",
          "type": "uint256"
        }
      ],
      "name": "royaltyInfo",
      "outputs": [
        {
          "internalType": "address",
          "name": "",
          "type": "address"
        },
        {
          "internalType": "uint256",
          "name": "",
          "type": "uint256"
        }
      ],
      "stateMutability": "view",
      "type": "function"
    },
    {
      "inputs": [
        {
          "internalType": "address",
          "name": "from",
          "type": "address"
        },
        {
          "internalType": "address",
          "name": "to",
          "type": "address"
        },
        {
          "internalType": "uint256",
          "name": "tokenId",
          "type": "uint256"
        }
      ],
      "name": "safeTransferFrom",
      "outputs": [],
      "stateMutability": "nonpayable",
      "type": "function"
    },
    {
      "inputs": [
        {
          "internalType": "address",
          "name": "from",
          "type": "address"
        },
        {
          "internalType": "address",
          "name": "to",
          "type": "address"
        },
        {
          "internalType": "uint256",
          "name": "tokenId",
          "type": "uint256"
        },
        {
          "internalType": "bytes",
          "name": "data",
          "type": "bytes"
        }
      ],
      "name": "safeTransferFrom",
      "outputs": [],
      "stateMutability": "nonpayable",
      "type": "function"
    },
    {
      "inputs": [
        {
          "internalType": "address",
          "name": "operator",
          "type": "address"
        },
        {
          "internalType": "bool",
          "name": "approved",
          "type": "bool"
        }
      ],
      "name": "setApprovalForAll",
      "outputs": [],
      "stateMutability": "nonpayable",
      "type": "function"
    },
    {
      "inputs": [
        {
          "internalType": "string",
          "name": "_newBaseURI",
          "type": "string"
        }
      ],
      "name": "setBaseURI",
      "outputs": [],
      "stateMutability": "nonpayable",
      "type": "function"
    },
    {
      "inputs": [
        {
          "internalType": "address",
          "name": "_recipient",
          "type": "address"
        },
        {
          "internalType": "uint96",
          "name": "_feeNumerator",
          "type": "uint96"
        }
      ],
      "name": "setDefaultRoyalties",
      "outputs": [],
      "stateMutability": "nonpayable",
      "type": "function"
    },
    {
      "inputs": [
        {
          "internalType": "uint256",
          "name": "_newMaxMintWallet",
          "type": "uint256"
        }
      ],
      "name": "setMaxMintWallet",
      "outputs": [],
      "stateMutability": "nonpayable",
      "type": "function"
    },
    {
      "inputs": [
        {
          "internalType": "uint256",
          "name": "_newPublicPrice",
          "type": "uint256"
        }
      ],
      "name": "setPublicPrice",
      "outputs": [],
      "stateMutability": "nonpayable",
      "type": "function"
    },
    {
      "inputs": [
        {
          "internalType": "address",
          "name": "_newSigner",
          "type": "address"
        }
      ],
      "name": "setSigner",
      "outputs": [],
      "stateMutability": "nonpayable",
      "type": "function"
    },
    {
      "inputs": [
        {
          "internalType": "enum Status",
          "name": "_newStatus",
          "type": "uint8"
        }
      ],
      "name": "setStatus",
      "outputs": [],
      "stateMutability": "nonpayable",
      "type": "function"
    },
    {
      "inputs": [
        {
          "internalType": "string",
          "name": "_newSufixURI",
          "type": "string"
        }
      ],
      "name": "setSufixURI",
      "outputs": [],
      "stateMutability": "nonpayable",
      "type": "function"
    },
    {
      "inputs": [
        {
          "internalType": "uint256",
          "name": "_newWhitelistPrice",
          "type": "uint256"
        }
      ],
      "name": "setWhitelistPrice",
      "outputs": [],
      "stateMutability": "nonpayable",
      "type": "function"
    },
    {
      "inputs": [
        {
          "internalType": "bytes4",
          "name": "interfaceId",
          "type": "bytes4"
        }
      ],
      "name": "supportsInterface",
      "outputs": [
        {
          "internalType": "bool",
          "name": "",
          "type": "bool"
        }
      ],
      "stateMutability": "view",
      "type": "function"
    },
    {
      "inputs": [],
      "name": "symbol",
      "outputs": [
        {
          "internalType": "string",
          "name": "",
          "type": "string"
        }
      ],
      "stateMutability": "view",
      "type": "function"
    },
    {
      "inputs": [
        {
          "internalType": "uint256",
          "name": "index",
          "type": "uint256"
        }
      ],
      "name": "tokenByIndex",
      "outputs": [
        {
          "internalType": "uint256",
          "name": "",
          "type": "uint256"
        }
      ],
      "stateMutability": "view",
      "type": "function"
    },
    {
      "inputs": [
        {
          "internalType": "address",
          "name": "owner",
          "type": "address"
        },
        {
          "internalType": "uint256",
          "name": "index",
          "type": "uint256"
        }
      ],
      "name": "tokenOfOwnerByIndex",
      "outputs": [
        {
          "internalType": "uint256",
          "name": "",
          "type": "uint256"
        }
      ],
      "stateMutability": "view",
      "type": "function"
    },
    {
      "inputs": [
        {
          "internalType": "uint256",
          "name": "tokenId",
          "type": "uint256"
        }
      ],
      "name": "tokenURI",
      "outputs": [
        {
          "internalType": "string",
          "name": "",
          "type": "string"
        }
      ],
      "stateMutability": "view",
      "type": "function"
    },
    {
      "inputs": [
        {
          "internalType": "uint256",
          "name": "tokenId",
          "type": "uint256"
        }
      ],
      "name": "tokenURIsPermanent",
      "outputs": [
        {
          "internalType": "string[]",
          "name": "",
          "type": "string[]"
        }
      ],
      "stateMutability": "view",
      "type": "function"
    },
    {
      "inputs": [],
      "name": "totalSupply",
      "outputs": [
        {
          "internalType": "uint256",
          "name": "",
          "type": "uint256"
        }
      ],
      "stateMutability": "view",
      "type": "function"
    },
    {
      "inputs": [
        {
          "internalType": "address",
          "name": "from",
          "type": "address"
        },
        {
          "internalType": "address",
          "name": "to",
          "type": "address"
        },
        {
          "internalType": "uint256",
          "name": "tokenId",
          "type": "uint256"
        }
      ],
      "name": "transferFrom",
      "outputs": [],
      "stateMutability": "nonpayable",
      "type": "function"
    },
    {
      "inputs": [
        {
          "internalType": "address",
          "name": "newOwner",
          "type": "address"
        }
      ],
      "name": "transferOwnership",
      "outputs": [],
      "stateMutability": "nonpayable",
      "type": "function"
    },
    {
      "inputs": [
        {
          "internalType": "address",
          "name": "_to",
          "type": "address"
        },
        {
          "internalType": "uint256",
          "name": "_amount1",
          "type": "uint256"
        },
        {
          "internalType": "uint256",
          "name": "_amount2",
          "type": "uint256"
        },
        {
          "internalType": "uint256",
          "name": "_amount1Sign",
          "type": "uint256"
        },
        {
          "internalType": "uint256",
          "name": "_amount2Sign",
          "type": "uint256"
        },
        {
          "internalType": "bytes",
          "name": "_sign",
          "type": "bytes"
        }
      ],
      "name": "whitelistMint",
      "outputs": [],
      "stateMutability": "payable",
      "type": "function"
    }
  ],
  "bytecode": {
    "object": "0x6000600f5560c0604052600e60809081526d594f55522042415345205552492f60901b60a052601290620000349082620001aa565b50604080518082019091526005815264173539b7b760d91b6020820152601390620000609082620001aa565b506101f46014556005601555600160165560fb60175566038d7ea4c680006018556605543df729c0006019553480156200009957600080fd5b506040518060400160405280600881526020016715539113d616115160c21b815250604051806040016040528060048152602001630aa9c88b60e31b8152508160009081620000e99190620001aa565b506001620000f88282620001aa565b50505033600a5562000276565b634e487b7160e01b600052604160045260246000fd5b600181811c908216806200013057607f821691505b6020821081036200015157634e487b7160e01b600052602260045260246000fd5b50919050565b601f821115620001a557600081815260208120601f850160051c81016020861015620001805750805b601f850160051c820191505b81811015620001a1578281556001016200018c565b5050505b505050565b81516001600160401b03811115620001c657620001c662000105565b620001de81620001d784546200011b565b8462000157565b602080601f831160018114620002165760008415620001fd5750858301515b600019600386901b1c1916600185901b178555620001a1565b600085815260208120601f198616915b82811015620002475788860151825594840194600190910190840162000226565b5085821015620002665787850151600019600388901b60f8161c191681555b5050505050600190811b01905550565b61360d80620002866000396000f3fe60806040526004361061023b5760003560e01c8063717d57d31161012e578063a6722dc8116100ab578063de914f261161006f578063de914f26146106b2578063e93f7ed2146106c7578063e985e9c5146106e7578063f01c947414610730578063f2fde38b1461074557600080fd5b8063a6722dc814610612578063b88d4fde14610632578063c627525514610652578063c87b56dd14610672578063cd02771a1461069257600080fd5b806395d89b41116100f257806395d89b4114610581578063991f48ea14610596578063a22cb465146105b6578063a3dd2619146105d6578063a584a9b5146105fd57600080fd5b8063717d57d3146104ea578063752e8a0d1461050a5780637dd36e34146105375780638b927e14146105575780638da5cb5b1461056c57600080fd5b80632f745c59116101bc578063632228121161018057806363222812146104555780636352211e146104755780636c19e7831461049557806370a08231146104b5578063715018a6146104d557600080fd5b80632f745c59146103b557806330b8a569146103d557806342842e0e146103f55780634f6ccce71461041557806355f804b31461043557600080fd5b806318160ddd1161020357806318160ddd146103045780631b8511941461032357806323b872dd146103365780632a55205a146103565780632e49d78b1461039557600080fd5b806301ffc9a71461024057806306fdde0314610275578063081812fc14610297578063095ea7b3146102cf578063156e29f6146102f1575b600080fd5b34801561024c57600080fd5b5061026061025b366004612b0f565b610765565b60405190151581526020015b60405180910390f35b34801561028157600080fd5b5061028a610776565b60405161026c9190612b83565b3480156102a357600080fd5b506102b76102b2366004612b96565b610808565b6040516001600160a01b03909116815260200161026c565b3480156102db57600080fd5b506102ef6102ea366004612bcb565b61082f565b005b6102ef6102ff366004612bf5565b610949565b34801561031057600080fd5b506008545b60405190815260200161026c565b6102ef610331366004612ccb565b610aad565b34801561034257600080fd5b506102ef610351366004612d3e565b610d3d565b34801561036257600080fd5b50610376610371366004612d7a565b610d6e565b604080516001600160a01b03909316835260208301919091520161026c565b3480156103a157600080fd5b506102ef6103b0366004612d9c565b610e1c565b3480156103c157600080fd5b506103156103d0366004612bcb565b610e8e565b3480156103e157600080fd5b506102ef6103f0366004612ccb565b610f24565b34801561040157600080fd5b506102ef610410366004612d3e565b61111d565b34801561042157600080fd5b50610315610430366004612b96565b611138565b34801561044157600080fd5b506102ef610450366004612dff565b6111cb565b34801561046157600080fd5b506102ef610470366004612b96565b61121d565b34801561048157600080fd5b506102b7610490366004612b96565b611267565b3480156104a157600080fd5b506102ef6104b0366004612e41565b6112c7565b3480156104c157600080fd5b506103156104d0366004612e41565b61132e565b3480156104e157600080fd5b506102ef6113b4565b3480156104f657600080fd5b506102ef610505366004612b96565b6113da565b34801561051657600080fd5b5061052a610525366004612b96565b611424565b60405161026c9190612e5c565b34801561054357600080fd5b506102ef610552366004612ebe565b611700565b34801561056357600080fd5b5061031561178d565b34801561057857600080fd5b506102b76117a3565b34801561058d57600080fd5b5061028a6117b1565b3480156105a257600080fd5b506102ef6105b1366004612dff565b6117c0565b3480156105c257600080fd5b506102ef6105d1366004612f2a565b611812565b3480156105e257600080fd5b50601a54600160a81b900460ff1660405161026c9190612f7c565b34801561060957600080fd5b506102ef611821565b34801561061e57600080fd5b506102ef61062d366004612dff565b61187b565b34801561063e57600080fd5b506102ef61064d366004612fa4565b6118d4565b34801561065e57600080fd5b506102ef61066d366004612b96565b611906565b34801561067e57600080fd5b5061028a61068d366004612b96565b611950565b34801561069e57600080fd5b506102ef6106ad36600461300c565b6119b8565b3480156106be57600080fd5b506103156119dc565b3480156106d357600080fd5b506102ef6106e2366004613044565b6119ed565b3480156106f357600080fd5b50610260610702366004613090565b6001600160a01b03918216600090815260056020908152604080832093909416825291909152205460ff1690565b34801561073c57600080fd5b50610315611a47565b34801561075157600080fd5b506102ef610760366004612e41565b611a65565b600061077082611aa1565b92915050565b606060008054610785906130c3565b80601f01602080910402602001604051908101604052809291908181526020018280546107b1906130c3565b80156107fe5780601f106107d3576101008083540402835291602001916107fe565b820191906000526020600020905b8154815290600101906020018083116107e157829003601f168201915b5050505050905090565b600061081382611ac6565b506000908152600460205260409020546001600160a01b031690565b600061083a82611267565b9050806001600160a01b0316836001600160a01b0316036108ac5760405162461bcd60e51b815260206004820152602160248201527f4552433732313a20617070726f76616c20746f2063757272656e74206f776e656044820152603960f91b60648201526084015b60405180910390fd5b336001600160a01b03821614806108c857506108c88133610702565b61093a5760405162461bcd60e51b815260206004820152603d60248201527f4552433732313a20617070726f76652063616c6c6572206973206e6f7420746f60448201527f6b656e206f776e6572206f7220617070726f76656420666f7220616c6c00000060648201526084016108a3565b6109448383611b25565b505050565b600380601a54600160a81b900460ff16600581111561096a5761096a612f66565b1461098857604051639cc783ed60e01b815260040160405180910390fd5b336001600160a01b038516146109c857336000908152601b602052604090205460ff166109c857604051634b25c25160e01b815260040160405180910390fd5b6015546001600160a01b0385166000908152601c60209081526040808320600184529091529020546109fb908590613113565b1115610a1a57604051634c9664e760e01b815260040160405180910390fd5b6015546001600160a01b0385166000908152601c6020908152604080832060028452909152902054610a4d908490613113565b1115610a6c5760405163816c37b360e01b815260040160405180910390fd5b34601954838501021115610a9357604051631bfc08e760e11b815260040160405180910390fd5b610a9d8484611b93565b610aa78483611c11565b50505050565b600280601a54600160a81b900460ff166005811115610ace57610ace612f66565b14610aec57604051639cc783ed60e01b815260040160405180910390fd5b601a548790859085906002908690610b11906001600160a01b03168686868686611c90565b610b2e576040516368e6090160e11b815260040160405180910390fd5b336001600160a01b038d1614610b6e57336000908152601b602052604090205460ff16610b6e57604051634b25c25160e01b815260040160405180910390fd5b6015546001600160a01b038d166000908152601c6020908152604080832060018452909152902054610ba1908d90613113565b1115610bc057604051634c9664e760e01b815260040160405180910390fd5b6015546001600160a01b038d166000908152601c6020908152604080832060028452909152902054610bf3908c90613113565b1115610c125760405163816c37b360e01b815260040160405180910390fd5b88601d88604051610c239190613126565b9081526020016040518091039020548c610c3d9190613113565b1115610c5c57604051632508c3ed60e11b815260040160405180910390fd5b87601e88604051610c6d9190613126565b9081526020016040518091039020548b610c879190613113565b1115610ca65760405163d4b4828d60e01b815260040160405180910390fd5b346018548b8d01021115610ccd57604051631bfc08e760e11b815260040160405180910390fd5b8a601d88604051610cde9190613126565b90815260405190819003602001812080549092019091558a90601e90610d05908a90613126565b90815260405190819003602001902080549091019055610d258c8c611b93565b610d2f8c8b611c11565b505050505050505050505050565b610d473382611d27565b610d635760405162461bcd60e51b81526004016108a390613142565b610944838383611da6565b6000828152600c602090815260408083208151808301909252546001600160a01b038116808352600160a01b9091046001600160601b0316928201929092528291610de3575060408051808201909152600b546001600160a01b0381168252600160a01b90046001600160601b031660208201525b602081015160009061271090610e02906001600160601b03168761318f565b610e0c91906131a6565b91519350909150505b9250929050565b600a543314610e365763bbe424b960e01b60005260046000fd5b601a54600160a01b900460ff1615610e6157604051631342a2d360e31b815260040160405180910390fd5b601a805482919060ff60a81b1916600160a81b836005811115610e8657610e86612f66565b021790555050565b6000610e998361132e565b8210610efb5760405162461bcd60e51b815260206004820152602b60248201527f455243373231456e756d657261626c653a206f776e657220696e646578206f7560448201526a74206f6620626f756e647360a81b60648201526084016108a3565b506001600160a01b03919091166000908152600660209081526040808320938352929052205490565b600180601a54600160a81b900460ff166005811115610f4557610f45612f66565b14610f6357604051639cc783ed60e01b815260040160405180910390fd5b601a548790859085906001908690610f88906001600160a01b03168686868686611c90565b610fa5576040516368e6090160e11b815260040160405180910390fd5b336001600160a01b038d1614610fe557336000908152601b602052604090205460ff16610fe557604051634b25c25160e01b815260040160405180910390fd5b6015546001600160a01b038d166000908152601c6020908152604080832060018452909152902054611018908d90613113565b111561103757604051634c9664e760e01b815260040160405180910390fd5b6015546001600160a01b038d166000908152601c602090815260408083206002845290915290205461106a908c90613113565b11156110895760405163816c37b360e01b815260040160405180910390fd5b88601d8860405161109a9190613126565b9081526020016040518091039020548c6110b49190613113565b11156110d357604051632508c3ed60e11b815260040160405180910390fd5b87601e886040516110e49190613126565b9081526020016040518091039020548b6110fe9190613113565b1115610ccd5760405163d4b4828d60e01b815260040160405180910390fd5b610944838383604051806020016040528060008152506118d4565b600061114360085490565b82106111a65760405162461bcd60e51b815260206004820152602c60248201527f455243373231456e756d657261626c653a20676c6f62616c20696e646578206f60448201526b7574206f6620626f756e647360a01b60648201526084016108a3565b600882815481106111b9576111b96131c8565b90600052602060002001549050919050565b600a5433146111e55763bbe424b960e01b60005260046000fd5b601a54600160a01b900460ff161561121057604051631342a2d360e31b815260040160405180910390fd5b601261094482848361322c565b600a5433146112375763bbe424b960e01b60005260046000fd5b601a54600160a01b900460ff161561126257604051631342a2d360e31b815260040160405180910390fd5b601555565b6000818152600260205260408120546001600160a01b0316806107705760405162461bcd60e51b8152602060048201526018602482015277115490cdcc8c4e881a5b9d985b1a59081d1bdad95b88125160421b60448201526064016108a3565b600a5433146112e15763bbe424b960e01b60005260046000fd5b601a54600160a01b900460ff161561130c57604051631342a2d360e31b815260040160405180910390fd5b601a80546001600160a01b0319166001600160a01b0392909216919091179055565b60006001600160a01b0382166113985760405162461bcd60e51b815260206004820152602960248201527f4552433732313a2061646472657373207a65726f206973206e6f7420612076616044820152683634b21037bbb732b960b91b60648201526084016108a3565b506001600160a01b031660009081526003602052604090205490565b600a5433146113ce5763bbe424b960e01b60005260046000fd5b6113d86000611f17565b565b600a5433146113f45763bbe424b960e01b60005260046000fd5b601a54600160a01b900460ff161561141f57604051631342a2d360e31b815260040160405180910390fd5b601855565b606061142f82611ac6565b6000828152600e6020526040812054600f54600d5483929161145091613113565b61145a9190613113565b67ffffffffffffffff81111561147257611472612c28565b6040519080825280602002602001820160405280156114a557816020015b60608152602001906001900390816114905790505b50905060005b600d5481101561158457600d81815481106114c8576114c86131c8565b9060005260206000200180546114dd906130c3565b80601f0160208091040260200160405190810160405280929190818152602001828054611509906130c3565b80156115565780601f1061152b57610100808354040283529160200191611556565b820191906000526020600020905b81548152906001019060200180831161153957829003601f168201915b505050505082848151811061156d5761156d6131c8565b6020908102919091010152600192830192016114ab565b5060005b600f548110156116025760008181526010602052604090206115a986611f49565b60008381526011602090815260409182902091516115ca949392910161335f565b6040516020818303038152906040528284815181106115eb576115eb6131c8565b602090810291909101015260019283019201611588565b5060005b6000858152600e60205260409020548110156116f8576000858152600e6020526040902080548290811061163c5761163c6131c8565b906000526020600020018054611651906130c3565b80601f016020809104026020016040519081016040528092919081815260200182805461167d906130c3565b80156116ca5780601f1061169f576101008083540402835291602001916116ca565b820191906000526020600020905b8154815290600101906020018083116116ad57829003601f168201915b50505050508284815181106116e1576116e16131c8565b602090810291909101015260019283019201611606565b509392505050565b600a54331461171a5763bbe424b960e01b60005260046000fd5b610aa784848080601f01602080910402602001604051908101604052809392919081815260200183838082843760009201919091525050604080516020601f88018190048102820181019092528681529250869150859081908401838280828437600092019190915250611fdc92505050565b6000600160165461179e9190613392565b905090565b6000600a5460005260206000f35b606060018054610785906130c3565b600a5433146117da5763bbe424b960e01b60005260046000fd5b601a54600160a01b900460ff161561180557604051631342a2d360e31b815260040160405180910390fd5b601361094482848361322c565b61181d33838361202d565b5050565b600a54331461183b5763bbe424b960e01b60005260046000fd5b601a54600160a01b900460ff161561186657604051631342a2d360e31b815260040160405180910390fd5b601a805460ff60a01b1916600160a01b179055565b600a5433146118955763bbe424b960e01b60005260046000fd5b61181d82828080601f0160208091040260200160405190810160405280939291908181526020018383808284376000920191909152506120fb92505050565b6118de3383611d27565b6118fa5760405162461bcd60e51b81526004016108a390613142565b610aa784848484612137565b600a5433146119205763bbe424b960e01b60005260046000fd5b601a54600160a01b900460ff161561194b57604051631342a2d360e31b815260040160405180910390fd5b601955565b6000818152600260205260409020546060906001600160a01b031661198357505060408051602081019091526000815290565b601261198e83611f49565b60136040516020016119a29392919061335f565b6040516020818303038152906040529050919050565b600a5433146119d25763bbe424b960e01b60005260046000fd5b61181d828261216a565b600060fb60175461179e9190613392565b600a543314611a075763bbe424b960e01b60005260046000fd5b6109448383838080601f01602080910402602001604051908101604052809392919081815260200183838082843760009201919091525061226792505050565b60006002601754601654611a5b9190613113565b61179e9190613392565b600a543314611a7f5763bbe424b960e01b60005260046000fd5b80611a955763bbee60dd60e01b60005260046000fd5b611a9e81611f17565b50565b60006001600160e01b0319821663152a902d60e11b1480610770575061077082612319565b6000818152600260205260409020546001600160a01b0316611a9e5760405162461bcd60e51b8152602060048201526018602482015277115490cdcc8c4e881a5b9d985b1a59081d1bdad95b88125160421b60448201526064016108a3565b600081815260046020526040902080546001600160a01b0319166001600160a01b0384169081179091558190611b5a82611267565b6001600160a01b03167f8c5be1e5ebec7d5bd14f71427d1e84f3dd0314c0f7b2291e5b200ac8c7c3b92560405160405180910390a45050565b60fb81601654011115611bb9576040516306ab2e5160e01b815260040160405180910390fd5b60005b81811015611be257611bd08360165461233e565b60168054600190810190915501611bbc565b506001600160a01b039091166000908152601c6020908152604080832060018452909152902080549091019055565b6101f581601754011115611c385760405163c62be36d60e01b815260040160405180910390fd5b60005b81811015611c6157611c4f8360175461233e565b60178054600190810190915501611c3b565b506001600160a01b039091166000908152601c6020908152604080832060028452909152902080549091019055565b600080611c9f878787876124d7565b90506000611cfa826040517f19457468657265756d205369676e6564204d6573736167653a0a3332000000006020820152603c8101829052600090605c01604051602081830303815290604052805190602001209050919050565b9050886001600160a01b0316611d108286612510565b6001600160a01b0316149998505050505050505050565b600080611d3383611267565b9050806001600160a01b0316846001600160a01b03161480611d7a57506001600160a01b0380821660009081526005602090815260408083209388168352929052205460ff165b80611d9e5750836001600160a01b0316611d9384610808565b6001600160a01b0316145b949350505050565b826001600160a01b0316611db982611267565b6001600160a01b031614611ddf5760405162461bcd60e51b81526004016108a3906133a5565b6001600160a01b038216611e415760405162461bcd60e51b8152602060048201526024808201527f4552433732313a207472616e7366657220746f20746865207a65726f206164646044820152637265737360e01b60648201526084016108a3565b611e4e838383600161258f565b826001600160a01b0316611e6182611267565b6001600160a01b031614611e875760405162461bcd60e51b81526004016108a3906133a5565b600081815260046020908152604080832080546001600160a01b03199081169091556001600160a01b0387811680865260038552838620805460001901905590871680865283862080546001019055868652600290945282852080549092168417909155905184937fddf252ad1be2c89b69c2b068fc378daa952ba7f163c4a11628f55a4df523b3ef91a4505050565b600a5481600a5581817f8be0079c531659141344cd1fd0a4f28419497f9722a3daafe3b4186f6b6457e0600080a35050565b60606000611f568361259b565b600101905060008167ffffffffffffffff811115611f7657611f76612c28565b6040519080825280601f01601f191660200182016040528015611fa0576020820181803683370190505b5090508181016020015b600019016f181899199a1a9b1b9c1cb0b131b232b360811b600a86061a8153600a8504945084611faa57509392505050565b600f546000908152601060205260409020611ff783826133ea565b50600f54600090815260116020526040902061201382826133ea565b50600f8054906000612024836134aa565b91905055505050565b816001600160a01b0316836001600160a01b03160361208e5760405162461bcd60e51b815260206004820152601960248201527f4552433732313a20617070726f766520746f2063616c6c65720000000000000060448201526064016108a3565b6001600160a01b03838116600081815260056020908152604080832094871680845294825291829020805460ff191686151590811790915591519182527f17307eab39ab6107e8899845ad3d59bd9653f200f220920489ca2b5937696c31910160405180910390a3505050565b600d80546001810182556000919091527fd7b6990105719101dabeb77144f2a3385c8033acd3af97e9423a695e81ad1eb50161181d82826133ea565b612142848484611da6565b61214e84848484612673565b610aa75760405162461bcd60e51b81526004016108a3906134c3565b6127106001600160601b03821611156121d85760405162461bcd60e51b815260206004820152602a60248201527f455243323938313a20726f79616c7479206665652077696c6c206578636565646044820152692073616c65507269636560b01b60648201526084016108a3565b6001600160a01b03821661222e5760405162461bcd60e51b815260206004820152601960248201527f455243323938313a20696e76616c69642072656365697665720000000000000060448201526064016108a3565b604080518082019091526001600160a01b039092168083526001600160601b039091166020909201829052600160a01b90910217600b55565b6000828152600260205260409020546001600160a01b03166122f15760405162461bcd60e51b815260206004820152603a60248201527f4552433732315065726d616e656e74555249733a205065726d616e656e74555260448201527f4920736574206f66206e6f6e6578697374656e7420746f6b656e00000000000060648201526084016108a3565b6000828152600e602090815260408220805460018101825590835291200161094482826133ea565b60006001600160e01b0319821663780e9d6360e01b1480610770575061077082612771565b6001600160a01b0382166123945760405162461bcd60e51b815260206004820181905260248201527f4552433732313a206d696e7420746f20746865207a65726f206164647265737360448201526064016108a3565b6000818152600260205260409020546001600160a01b0316156123f95760405162461bcd60e51b815260206004820152601c60248201527f4552433732313a20746f6b656e20616c7265616479206d696e7465640000000060448201526064016108a3565b61240760008383600161258f565b6000818152600260205260409020546001600160a01b03161561246c5760405162461bcd60e51b815260206004820152601c60248201527f4552433732313a20746f6b656e20616c7265616479206d696e7465640000000060448201526064016108a3565b6001600160a01b038216600081815260036020908152604080832080546001019055848352600290915280822080546001600160a01b0319168417905551839291907fddf252ad1be2c89b69c2b068fc378daa952ba7f163c4a11628f55a4df523b3ef908290a45050565b6000848484846040516020016124f09493929190613515565b604051602081830303815290604052805190602001209050949350505050565b60008060008061251f856127c1565b6040805160008152602081018083528b905260ff8316918101919091526060810184905260808101839052929550909350915060019060a0016020604051602081039080840390855afa15801561257a573d6000803e3d6000fd5b5050604051601f190151979650505050505050565b610aa784848484612835565b60008072184f03e93ff9f4daa797ed6e38ed64bf6a1f0160401b83106125da5772184f03e93ff9f4daa797ed6e38ed64bf6a1f0160401b830492506040015b6d04ee2d6d415b85acef81000000008310612606576d04ee2d6d415b85acef8100000000830492506020015b662386f26fc10000831061262457662386f26fc10000830492506010015b6305f5e100831061263c576305f5e100830492506008015b612710831061265057612710830492506004015b60648310612662576064830492506002015b600a83106107705760010192915050565b60006001600160a01b0384163b1561276957604051630a85bd0160e11b81526001600160a01b0385169063150b7a02906126b7903390899088908890600401613567565b6020604051808303816000875af19250505080156126f2575060408051601f3d908101601f191682019092526126ef918101906135a4565b60015b61274f573d808015612720576040519150601f19603f3d011682016040523d82523d6000602084013e612725565b606091505b5080516000036127475760405162461bcd60e51b81526004016108a3906134c3565b805181602001fd5b6001600160e01b031916630a85bd0160e11b149050611d9e565b506001611d9e565b60006001600160e01b031982166380ac58cd60e01b14806127a257506001600160e01b03198216635b5e139f60e01b145b8061077057506301ffc9a760e01b6001600160e01b0319831614610770565b600080600083516041146128175760405162461bcd60e51b815260206004820152601860248201527f696e76616c6964207369676e6174757265206c656e677468000000000000000060448201526064016108a3565b50505060208101516040820151606090920151909260009190911a90565b60018111156128a45760405162461bcd60e51b815260206004820152603560248201527f455243373231456e756d657261626c653a20636f6e7365637574697665207472604482015274185b9cd9995c9cc81b9bdd081cdd5c1c1bdc9d1959605a1b60648201526084016108a3565b816001600160a01b038516612900576128fb81600880546000838152600960205260408120829055600182018355919091527ff3f7a9fe364faab93b216da50a3214154f22a0a2b415b23a84c8169e8b636ee30155565b612923565b836001600160a01b0316856001600160a01b031614612923576129238582612969565b6001600160a01b03841661293f5761293a81612a06565b612962565b846001600160a01b0316846001600160a01b031614612962576129628482612ab5565b5050505050565b600060016129768461132e565b6129809190613392565b6000838152600760205260409020549091508082146129d3576001600160a01b03841660009081526006602090815260408083208584528252808320548484528184208190558352600790915290208190555b5060009182526007602090815260408084208490556001600160a01b039094168352600681528383209183525290812055565b600854600090612a1890600190613392565b60008381526009602052604081205460088054939450909284908110612a4057612a406131c8565b906000526020600020015490508060088381548110612a6157612a616131c8565b6000918252602080832090910192909255828152600990915260408082208490558582528120556008805480612a9957612a996135c1565b6001900381819060005260206000200160009055905550505050565b6000612ac08361132e565b6001600160a01b039093166000908152600660209081526040808320868452825280832085905593825260079052919091209190915550565b6001600160e01b031981168114611a9e57600080fd5b600060208284031215612b2157600080fd5b8135612b2c81612af9565b9392505050565b60005b83811015612b4e578181015183820152602001612b36565b50506000910152565b60008151808452612b6f816020860160208601612b33565b601f01601f19169290920160200192915050565b602081526000612b2c6020830184612b57565b600060208284031215612ba857600080fd5b5035919050565b80356001600160a01b0381168114612bc657600080fd5b919050565b60008060408385031215612bde57600080fd5b612be783612baf565b946020939093013593505050565b600080600060608486031215612c0a57600080fd5b612c1384612baf565b95602085013595506040909401359392505050565b634e487b7160e01b600052604160045260246000fd5b600082601f830112612c4f57600080fd5b813567ffffffffffffffff80821115612c6a57612c6a612c28565b604051601f8301601f19908116603f01168101908282118183101715612c9257612c92612c28565b81604052838152866020858801011115612cab57600080fd5b836020870160208301376000602085830101528094505050505092915050565b60008060008060008060c08789031215612ce457600080fd5b612ced87612baf565b95506020870135945060408701359350606087013592506080870135915060a087013567ffffffffffffffff811115612d2557600080fd5b612d3189828a01612c3e565b9150509295509295509295565b600080600060608486031215612d5357600080fd5b612d5c84612baf565b9250612d6a60208501612baf565b9150604084013590509250925092565b60008060408385031215612d8d57600080fd5b50508035926020909101359150565b600060208284031215612dae57600080fd5b813560068110612b2c57600080fd5b60008083601f840112612dcf57600080fd5b50813567ffffffffffffffff811115612de757600080fd5b602083019150836020828501011115610e1557600080fd5b60008060208385031215612e1257600080fd5b823567ffffffffffffffff811115612e2957600080fd5b612e3585828601612dbd565b90969095509350505050565b600060208284031215612e5357600080fd5b612b2c82612baf565b6000602080830181845280855180835260408601915060408160051b870101925083870160005b82811015612eb157603f19888603018452612e9f858351612b57565b94509285019290850190600101612e83565b5092979650505050505050565b60008060008060408587031215612ed457600080fd5b843567ffffffffffffffff80821115612eec57600080fd5b612ef888838901612dbd565b90965094506020870135915080821115612f1157600080fd5b50612f1e87828801612dbd565b95989497509550505050565b60008060408385031215612f3d57600080fd5b612f4683612baf565b915060208301358015158114612f5b57600080fd5b809150509250929050565b634e487b7160e01b600052602160045260246000fd5b6020810160068310612f9e57634e487b7160e01b600052602160045260246000fd5b91905290565b60008060008060808587031215612fba57600080fd5b612fc385612baf565b9350612fd160208601612baf565b925060408501359150606085013567ffffffffffffffff811115612ff457600080fd5b61300087828801612c3e565b91505092959194509250565b6000806040838503121561301f57600080fd5b61302883612baf565b915060208301356001600160601b0381168114612f5b57600080fd5b60008060006040848603121561305957600080fd5b83359250602084013567ffffffffffffffff81111561307757600080fd5b61308386828701612dbd565b9497909650939450505050565b600080604083850312156130a357600080fd5b6130ac83612baf565b91506130ba60208401612baf565b90509250929050565b600181811c908216806130d757607f821691505b6020821081036130f757634e487b7160e01b600052602260045260246000fd5b50919050565b634e487b7160e01b600052601160045260246000fd5b80820180821115610770576107706130fd565b60008251613138818460208701612b33565b9190910192915050565b6020808252602d908201527f4552433732313a2063616c6c6572206973206e6f7420746f6b656e206f776e6560408201526c1c881bdc88185c1c1c9bdd9959609a1b606082015260800190565b8082028115828204841417610770576107706130fd565b6000826131c357634e487b7160e01b600052601260045260246000fd5b500490565b634e487b7160e01b600052603260045260246000fd5b601f82111561094457600081815260208120601f850160051c810160208610156132055750805b601f850160051c820191505b8181101561322457828155600101613211565b505050505050565b67ffffffffffffffff83111561324457613244612c28565b6132588361325283546130c3565b836131de565b6000601f84116001811461328c57600085156132745750838201355b600019600387901b1c1916600186901b178355612962565b600083815260209020601f19861690835b828110156132bd578685013582556020948501946001909201910161329d565b50868210156132da5760001960f88860031b161c19848701351681555b505060018560011b0183555050505050565b600081546132f9816130c3565b60018281168015613311576001811461332657613355565b60ff1984168752821515830287019450613355565b8560005260208060002060005b8581101561334c5781548a820152908401908201613333565b50505082870194505b5050505092915050565b600061336b82866132ec565b845161337b818360208901612b33565b613387818301866132ec565b979650505050505050565b81810381811115610770576107706130fd565b60208082526025908201527f4552433732313a207472616e736665722066726f6d20696e636f72726563742060408201526437bbb732b960d91b606082015260800190565b815167ffffffffffffffff81111561340457613404612c28565b6134188161341284546130c3565b846131de565b602080601f83116001811461344d57600084156134355750858301515b600019600386901b1c1916600185901b178555613224565b600085815260208120601f198616915b8281101561347c5788860151825594840194600190910190840161345d565b508582101561349a5787850151600019600388901b60f8161c191681555b5050505050600190811b01905550565b6000600182016134bc576134bc6130fd565b5060010190565b60208082526032908201527f4552433732313a207472616e7366657220746f206e6f6e20455243373231526560408201527131b2b4bb32b91034b6b83632b6b2b73a32b960711b606082015260800190565b6001600160601b03198560601b16815283601482015282603482015260006006831061355157634e487b7160e01b600052602160045260246000fd5b5060f89190911b60548201526055019392505050565b6001600160a01b038581168252841660208201526040810183905260806060820181905260009061359a90830184612b57565b9695505050505050565b6000602082840312156135b657600080fd5b8151612b2c81612af9565b634e487b7160e01b600052603160045260246000fdfea2646970667358221220bdff04ee30be68762707bc0fc5edff9b035486614dd244d14ea477cf2384cf3964736f6c63430008130033",
    "linkReferences": {}
  },
  "methodIdentifiers": {
    "addPermanentBaseURI(string,string)": "7dd36e34",
    "addPermanentGlobalURI(string)": "a6722dc8",
    "addPermanentTokenURI(uint256,string)": "e93f7ed2",
    "allowlistMint(address,uint256,uint256,uint256,uint256,bytes)": "30b8a569",
    "approve(address,uint256)": "095ea7b3",
    "balanceOf(address)": "70a08231",
    "freezeContract()": "a584a9b5",
    "getAllSupply()": "f01c9474",
    "getApproved(uint256)": "081812fc",
    "getCurrentStatus()": "a3dd2619",
    "getToken1Supply()": "8b927e14",
    "getToken2Supply()": "de914f26",
    "isApprovedForAll(address,address)": "e985e9c5",
    "mint(address,uint256,uint256)": "156e29f6",
    "name()": "06fdde03",
    "owner()": "8da5cb5b",
    "ownerOf(uint256)": "6352211e",
    "renounceOwnership()": "715018a6",
    "royaltyInfo(uint256,uint256)": "2a55205a",
    "safeTransferFrom(address,address,uint256)": "42842e0e",
    "safeTransferFrom(address,address,uint256,bytes)": "b88d4fde",
    "setApprovalForAll(address,bool)": "a22cb465",
    "setBaseURI(string)": "55f804b3",
    "setDefaultRoyalties(address,uint96)": "cd02771a",
    "setMaxMintWallet(uint256)": "63222812",
    "setPublicPrice(uint256)": "c6275255",
    "setSigner(address)": "6c19e783",
    "setStatus(uint8)": "2e49d78b",
    "setSufixURI(string)": "991f48ea",
    "setWhitelistPrice(uint256)": "717d57d3",
    "supportsInterface(bytes4)": "01ffc9a7",
    "symbol()": "95d89b41",
    "tokenByIndex(uint256)": "4f6ccce7",
    "tokenOfOwnerByIndex(address,uint256)": "2f745c59",
    "tokenURI(uint256)": "c87b56dd",
    "tokenURIsPermanent(uint256)": "752e8a0d",
    "totalSupply()": "18160ddd",
    "transferFrom(address,address,uint256)": "23b872dd",
    "transferOwnership(address)": "f2fde38b",
    "whitelistMint(address,uint256,uint256,uint256,uint256,bytes)": "1b851194"
  },
  "id": 46
}