{
  "abi": [
    {
      "type": "constructor",
      "inputs": [],
      "stateMutability": "nonpayable"
    },
    {
      "type": "function",
      "name": "allowlistMint",
      "inputs": [
        {
          "name": "_amount1",
          "type": "uint256",
          "internalType": "uint256"
        },
        {
          "name": "_amount2",
          "type": "uint256",
          "internalType": "uint256"
        },
        {
          "name": "_amount1Sign",
          "type": "uint256",
          "internalType": "uint256"
        },
        {
          "name": "_amount2Sign",
          "type": "uint256",
          "internalType": "uint256"
        },
        {
          "name": "_sign",
          "type": "bytes",
          "internalType": "bytes"
        }
      ],
      "outputs": [],
      "stateMutability": "nonpayable"
    },
    {
      "type": "function",
      "name": "approve",
      "inputs": [
        {
          "name": "to",
          "type": "address",
          "internalType": "address"
        },
        {
          "name": "tokenId",
          "type": "uint256",
          "internalType": "uint256"
        }
      ],
      "outputs": [],
      "stateMutability": "nonpayable"
    },
    {
      "type": "function",
      "name": "balanceOf",
      "inputs": [
        {
          "name": "owner",
          "type": "address",
          "internalType": "address"
        }
      ],
      "outputs": [
        {
          "name": "",
          "type": "uint256",
          "internalType": "uint256"
        }
      ],
      "stateMutability": "view"
    },
    {
      "type": "function",
      "name": "getAllSupply",
      "inputs": [],
      "outputs": [
        {
          "name": "",
          "type": "uint256",
          "internalType": "uint256"
        }
      ],
      "stateMutability": "view"
    },
    {
      "type": "function",
      "name": "getApproved",
      "inputs": [
        {
          "name": "tokenId",
          "type": "uint256",
          "internalType": "uint256"
        }
      ],
      "outputs": [
        {
          "name": "",
          "type": "address",
          "internalType": "address"
        }
      ],
      "stateMutability": "view"
    },
    {
      "type": "function",
      "name": "getBalanceMintBySign",
      "inputs": [
        {
          "name": "_sign",
          "type": "bytes",
          "internalType": "bytes"
        }
      ],
      "outputs": [
        {
          "name": "cover1",
          "type": "uint256",
          "internalType": "uint256"
        },
        {
          "name": "cover2",
          "type": "uint256",
          "internalType": "uint256"
        }
      ],
      "stateMutability": "view"
    },
    {
      "type": "function",
      "name": "getDescription",
      "inputs": [],
      "outputs": [
        {
          "name": "",
          "type": "string",
          "internalType": "string"
        }
      ],
      "stateMutability": "pure"
    },
    {
      "type": "function",
      "name": "getMaxSupplyCover",
      "inputs": [],
      "outputs": [
        {
          "name": "",
          "type": "uint256",
          "internalType": "uint256"
        }
      ],
      "stateMutability": "view"
    },
    {
      "type": "function",
      "name": "getPublicPrice",
      "inputs": [],
      "outputs": [
        {
          "name": "",
          "type": "uint256",
          "internalType": "uint256"
        }
      ],
      "stateMutability": "view"
    },
    {
      "type": "function",
      "name": "getToken1Supply",
      "inputs": [],
      "outputs": [
        {
          "name": "",
          "type": "uint256",
          "internalType": "uint256"
        }
      ],
      "stateMutability": "view"
    },
    {
      "type": "function",
      "name": "getToken2Supply",
      "inputs": [],
      "outputs": [
        {
          "name": "",
          "type": "uint256",
          "internalType": "uint256"
        }
      ],
      "stateMutability": "view"
    },
    {
      "type": "function",
      "name": "getTokenMedia",
      "inputs": [
        {
          "name": "_tokenId",
          "type": "uint256",
          "internalType": "uint256"
        }
      ],
      "outputs": [
        {
          "name": "",
          "type": "string[2]",
          "internalType": "string[2]"
        }
      ],
      "stateMutability": "view"
    },
    {
      "type": "function",
      "name": "getTokenName",
      "inputs": [
        {
          "name": "_tokenId",
          "type": "uint256",
          "internalType": "uint256"
        }
      ],
      "outputs": [
        {
          "name": "",
          "type": "string",
          "internalType": "string"
        }
      ],
      "stateMutability": "view"
    },
    {
      "type": "function",
      "name": "getTotalReservedCover",
      "inputs": [],
      "outputs": [
        {
          "name": "",
          "type": "uint256",
          "internalType": "uint256"
        }
      ],
      "stateMutability": "view"
    },
    {
      "type": "function",
      "name": "getWhitelistPrice",
      "inputs": [],
      "outputs": [
        {
          "name": "",
          "type": "uint256",
          "internalType": "uint256"
        }
      ],
      "stateMutability": "view"
    },
    {
      "type": "function",
      "name": "isApprovedForAll",
      "inputs": [
        {
          "name": "owner",
          "type": "address",
          "internalType": "address"
        },
        {
          "name": "operator",
          "type": "address",
          "internalType": "address"
        }
      ],
      "outputs": [
        {
          "name": "",
          "type": "bool",
          "internalType": "bool"
        }
      ],
      "stateMutability": "view"
    },
    {
      "type": "function",
      "name": "isPublic",
      "inputs": [],
      "outputs": [
        {
          "name": "",
          "type": "bool",
          "internalType": "bool"
        }
      ],
      "stateMutability": "view"
    },
    {
      "type": "function",
      "name": "mint",
      "inputs": [
        {
          "name": "_amount1",
          "type": "uint256",
          "internalType": "uint256"
        },
        {
          "name": "_amount2",
          "type": "uint256",
          "internalType": "uint256"
        }
      ],
      "outputs": [],
      "stateMutability": "payable"
    },
    {
      "type": "function",
      "name": "name",
      "inputs": [],
      "outputs": [
        {
          "name": "",
          "type": "string",
          "internalType": "string"
        }
      ],
      "stateMutability": "view"
    },
    {
      "type": "function",
      "name": "owner",
      "inputs": [],
      "outputs": [
        {
          "name": "",
          "type": "address",
          "internalType": "address"
        }
      ],
      "stateMutability": "view"
    },
    {
      "type": "function",
      "name": "ownerOf",
      "inputs": [
        {
          "name": "tokenId",
          "type": "uint256",
          "internalType": "uint256"
        }
      ],
      "outputs": [
        {
          "name": "",
          "type": "address",
          "internalType": "address"
        }
      ],
      "stateMutability": "view"
    },
    {
      "type": "function",
      "name": "privateWhitelistMint",
      "inputs": [
        {
          "name": "_amount1",
          "type": "uint256",
          "internalType": "uint256"
        },
        {
          "name": "_amount2",
          "type": "uint256",
          "internalType": "uint256"
        },
        {
          "name": "_amount1Sign",
          "type": "uint256",
          "internalType": "uint256"
        },
        {
          "name": "_amount2Sign",
          "type": "uint256",
          "internalType": "uint256"
        },
        {
          "name": "_sign",
          "type": "bytes",
          "internalType": "bytes"
        }
      ],
      "outputs": [],
      "stateMutability": "payable"
    },
    {
      "type": "function",
      "name": "renounceOwnership",
      "inputs": [],
      "outputs": [],
      "stateMutability": "nonpayable"
    },
    {
      "type": "function",
      "name": "royaltyInfo",
      "inputs": [
        {
          "name": "tokenId",
          "type": "uint256",
          "internalType": "uint256"
        },
        {
          "name": "salePrice",
          "type": "uint256",
          "internalType": "uint256"
        }
      ],
      "outputs": [
        {
          "name": "",
          "type": "address",
          "internalType": "address"
        },
        {
          "name": "",
          "type": "uint256",
          "internalType": "uint256"
        }
      ],
      "stateMutability": "view"
    },
    {
      "type": "function",
      "name": "safeTransferFrom",
      "inputs": [
        {
          "name": "from",
          "type": "address",
          "internalType": "address"
        },
        {
          "name": "to",
          "type": "address",
          "internalType": "address"
        },
        {
          "name": "tokenId",
          "type": "uint256",
          "internalType": "uint256"
        }
      ],
      "outputs": [],
      "stateMutability": "nonpayable"
    },
    {
      "type": "function",
      "name": "safeTransferFrom",
      "inputs": [
        {
          "name": "from",
          "type": "address",
          "internalType": "address"
        },
        {
          "name": "to",
          "type": "address",
          "internalType": "address"
        },
        {
          "name": "tokenId",
          "type": "uint256",
          "internalType": "uint256"
        },
        {
          "name": "data",
          "type": "bytes",
          "internalType": "bytes"
        }
      ],
      "outputs": [],
      "stateMutability": "nonpayable"
    },
    {
      "type": "function",
      "name": "setApprovalForAll",
      "inputs": [
        {
          "name": "operator",
          "type": "address",
          "internalType": "address"
        },
        {
          "name": "approved",
          "type": "bool",
          "internalType": "bool"
        }
      ],
      "outputs": [],
      "stateMutability": "nonpayable"
    },
    {
      "type": "function",
      "name": "setDefaultRoyalties",
      "inputs": [
        {
          "name": "_recipient",
          "type": "address",
          "internalType": "address"
        },
        {
          "name": "_feeNumerator",
          "type": "uint96",
          "internalType": "uint96"
        }
      ],
      "outputs": [],
      "stateMutability": "nonpayable"
    },
    {
      "type": "function",
      "name": "setFundsReceivers",
      "inputs": [
        {
          "name": "_firstReceiver",
          "type": "address",
          "internalType": "address"
        },
        {
          "name": "_secondReceiver",
          "type": "address",
          "internalType": "address"
        }
      ],
      "outputs": [],
      "stateMutability": "nonpayable"
    },
    {
      "type": "function",
      "name": "setMaxSupply",
      "inputs": [
        {
          "name": "_newMaxSupply",
          "type": "uint256",
          "internalType": "uint256"
        }
      ],
      "outputs": [],
      "stateMutability": "nonpayable"
    },
    {
      "type": "function",
      "name": "setPercentReceiver",
      "inputs": [
        {
          "name": "_percent",
          "type": "uint256",
          "internalType": "uint256"
        }
      ],
      "outputs": [],
      "stateMutability": "nonpayable"
    },
    {
      "type": "function",
      "name": "setPublic",
      "inputs": [],
      "outputs": [],
      "stateMutability": "nonpayable"
    },
    {
      "type": "function",
      "name": "setPublicPrice",
      "inputs": [
        {
          "name": "_newPublicPrice",
          "type": "uint256",
          "internalType": "uint256"
        }
      ],
      "outputs": [],
      "stateMutability": "nonpayable"
    },
    {
      "type": "function",
      "name": "setReserveToken1",
      "inputs": [
        {
          "name": "_amountToken1",
          "type": "uint256",
          "internalType": "uint256"
        }
      ],
      "outputs": [],
      "stateMutability": "nonpayable"
    },
    {
      "type": "function",
      "name": "setReserveToken2",
      "inputs": [
        {
          "name": "_amountToken2",
          "type": "uint256",
          "internalType": "uint256"
        }
      ],
      "outputs": [],
      "stateMutability": "nonpayable"
    },
    {
      "type": "function",
      "name": "setSigner",
      "inputs": [
        {
          "name": "_newSigner",
          "type": "address",
          "internalType": "address"
        }
      ],
      "outputs": [],
      "stateMutability": "nonpayable"
    },
    {
      "type": "function",
      "name": "setWhitelistPrice",
      "inputs": [
        {
          "name": "_newWhitelistPrice",
          "type": "uint256",
          "internalType": "uint256"
        }
      ],
      "outputs": [],
      "stateMutability": "nonpayable"
    },
    {
      "type": "function",
      "name": "supportsInterface",
      "inputs": [
        {
          "name": "interfaceId",
          "type": "bytes4",
          "internalType": "bytes4"
        }
      ],
      "outputs": [
        {
          "name": "",
          "type": "bool",
          "internalType": "bool"
        }
      ],
      "stateMutability": "view"
    },
    {
      "type": "function",
      "name": "symbol",
      "inputs": [],
      "outputs": [
        {
          "name": "",
          "type": "string",
          "internalType": "string"
        }
      ],
      "stateMutability": "view"
    },
    {
      "type": "function",
      "name": "tokenProofPermanent",
      "inputs": [
        {
          "name": "tokenId",
          "type": "uint256",
          "internalType": "uint256"
        }
      ],
      "outputs": [
        {
          "name": "",
          "type": "string",
          "internalType": "string"
        }
      ],
      "stateMutability": "view"
    },
    {
      "type": "function",
      "name": "tokenURI",
      "inputs": [
        {
          "name": "tokenId",
          "type": "uint256",
          "internalType": "uint256"
        }
      ],
      "outputs": [
        {
          "name": "",
          "type": "string",
          "internalType": "string"
        }
      ],
      "stateMutability": "view"
    },
    {
      "type": "function",
      "name": "transferFrom",
      "inputs": [
        {
          "name": "from",
          "type": "address",
          "internalType": "address"
        },
        {
          "name": "to",
          "type": "address",
          "internalType": "address"
        },
        {
          "name": "tokenId",
          "type": "uint256",
          "internalType": "uint256"
        }
      ],
      "outputs": [],
      "stateMutability": "nonpayable"
    },
    {
      "type": "function",
      "name": "transferOwnership",
      "inputs": [
        {
          "name": "newOwner",
          "type": "address",
          "internalType": "address"
        }
      ],
      "outputs": [],
      "stateMutability": "nonpayable"
    },
    {
      "type": "function",
      "name": "whitelistMint",
      "inputs": [
        {
          "name": "_amount1",
          "type": "uint256",
          "internalType": "uint256"
        },
        {
          "name": "_amount2",
          "type": "uint256",
          "internalType": "uint256"
        },
        {
          "name": "_amount1Sign",
          "type": "uint256",
          "internalType": "uint256"
        },
        {
          "name": "_amount2Sign",
          "type": "uint256",
          "internalType": "uint256"
        },
        {
          "name": "_sign",
          "type": "bytes",
          "internalType": "bytes"
        }
      ],
      "outputs": [],
      "stateMutability": "payable"
    },
    {
      "type": "function",
      "name": "withdraw",
      "inputs": [],
      "outputs": [],
      "stateMutability": "nonpayable"
    },
    {
      "type": "event",
      "name": "Approval",
      "inputs": [
        {
          "name": "owner",
          "type": "address",
          "indexed": true,
          "internalType": "address"
        },
        {
          "name": "approved",
          "type": "address",
          "indexed": true,
          "internalType": "address"
        },
        {
          "name": "tokenId",
          "type": "uint256",
          "indexed": true,
          "internalType": "uint256"
        }
      ],
      "anonymous": false
    },
    {
      "type": "event",
      "name": "ApprovalForAll",
      "inputs": [
        {
          "name": "owner",
          "type": "address",
          "indexed": true,
          "internalType": "address"
        },
        {
          "name": "operator",
          "type": "address",
          "indexed": true,
          "internalType": "address"
        },
        {
          "name": "approved",
          "type": "bool",
          "indexed": false,
          "internalType": "bool"
        }
      ],
      "anonymous": false
    },
    {
      "type": "event",
      "name": "OwnershipTransferred",
      "inputs": [
        {
          "name": "previousOwner",
          "type": "address",
          "indexed": true,
          "internalType": "address"
        },
        {
          "name": "newOwner",
          "type": "address",
          "indexed": true,
          "internalType": "address"
        }
      ],
      "anonymous": false
    },
    {
      "type": "event",
      "name": "Transfer",
      "inputs": [
        {
          "name": "from",
          "type": "address",
          "indexed": true,
          "internalType": "address"
        },
        {
          "name": "to",
          "type": "address",
          "indexed": true,
          "internalType": "address"
        },
        {
          "name": "tokenId",
          "type": "uint256",
          "indexed": true,
          "internalType": "uint256"
        }
      ],
      "anonymous": false
    },
    {
      "type": "error",
      "name": "AmountCanNotBeLowerThanCurrent",
      "inputs": [
        {
          "name": "",
          "type": "uint256",
          "internalType": "uint256"
        }
      ]
    },
    {
      "type": "error",
      "name": "MaxSupplyCanNotBeLowerThan200",
      "inputs": []
    },
    {
      "type": "error",
      "name": "MaxSupplyCanNotBeLowerThanActual",
      "inputs": []
    },
    {
      "type": "error",
      "name": "MaxSupplyCanNotBeMoreThan300",
      "inputs": []
    },
    {
      "type": "error",
      "name": "MaxSupplyCanNotbeOdd",
      "inputs": []
    },
    {
      "type": "error",
      "name": "NoReserveToken1",
      "inputs": []
    },
    {
      "type": "error",
      "name": "NoReserveToken2",
      "inputs": []
    },
    {
      "type": "error",
      "name": "PublicSaleNotStarted",
      "inputs": []
    },
    {
      "type": "error",
      "name": "WihdrawToZeroAddress",
      "inputs": []
    },
    {
      "type": "error",
      "name": "ZeroAddress",
      "inputs": []
    },
    {
      "type": "error",
      "name": "exceedAllowedToken1Mint",
      "inputs": []
    },
    {
      "type": "error",
      "name": "exceedAllowedToken2Mint",
      "inputs": []
    },
    {
      "type": "error",
      "name": "failWhithdraw",
      "inputs": []
    },
    {
      "type": "error",
      "name": "invalidAmountSend",
      "inputs": []
    },
    {
      "type": "error",
      "name": "invalidSignature",
      "inputs": []
    },
    {
      "type": "error",
      "name": "maxSupplyToken1Reach",
      "inputs": []
    },
    {
      "type": "error",
      "name": "maxSupplyToken2Reach",
      "inputs": []
    },
    {
      "type": "error",
      "name": "noSupplyAvailableToken1",
      "inputs": []
    },
    {
      "type": "error",
      "name": "noSupplyAvailableToken2",
      "inputs": []
    },
    {
      "type": "error",
      "name": "whithdrawZeroValue",
      "inputs": []
    }
  ],
  "bytecode": {
    "object": "0x60e060405260356080818152906200398760a039600b9062000022908262000517565b506040518060600160405280603581526020016200395260359139600c906200004c908262000517565b506040518060600160405280603581526020016200391d60359139600d9062000076908262000517565b50604051806060016040528060358152602001620038e860359139600e90620000a0908262000517565b506040518060600160405280603581526020016200391d60359139600f90620000ca908262000517565b50604051806060016040528060358152602001620038e860359139601090620000f4908262000517565b5060408051808201909152600c81526b70726f6f6620636f7665723160a01b602082015260119062000127908262000517565b5060408051808201909152600c81526b383937b7b31031b7bb32b91960a11b60208201526012906200015a908262000517565b5060c860135560006014819055601581905566038d7ea4c680006016556605543df729c0006017556018819055601955611770601a55601b80546001600160a01b0319167390d41fa17a8df96e7dff80227b4fc7d208dfd026179055348015620001c357600080fd5b506040518060400160405280601381526020017f554e444f5858454420424f4f4b20566f6c2e31000000000000000000000000008152506040518060400160405280600781526020016615539116160c8d60ca1b81525081600090816200022b919062000517565b5060016200023a828262000517565b5050506200025762000251620002a360201b60201c565b620002a7565b604080518082019091523381527319c013b64b7b2c7daa59b96514662b687665e85260208201526200028e90601c906002620003fe565b506200029d3361012c620002f9565b620005e3565b3390565b600680546001600160a01b038381166001600160a01b0319831681179093556040519116919082907f8be0079c531659141344cd1fd0a4f28419497f9722a3daafe3b4186f6b6457e090600090a35050565b6127106001600160601b03821611156200036d5760405162461bcd60e51b815260206004820152602a60248201527f455243323938313a20726f79616c7479206665652077696c6c206578636565646044820152692073616c65507269636560b01b60648201526084015b60405180910390fd5b6001600160a01b038216620003c55760405162461bcd60e51b815260206004820152601960248201527f455243323938313a20696e76616c696420726563656976657200000000000000604482015260640162000364565b604080518082019091526001600160a01b039092168083526001600160601b039091166020909201829052600160a01b90910217600755565b826002810192821562000449579160200282015b828111156200044957825182546001600160a01b0319166001600160a01b0390911617825560209092019160019091019062000412565b50620004579291506200045b565b5090565b5b808211156200045757600081556001016200045c565b634e487b7160e01b600052604160045260246000fd5b600181811c908216806200049d57607f821691505b602082108103620004be57634e487b7160e01b600052602260045260246000fd5b50919050565b601f8211156200051257600081815260208120601f850160051c81016020861015620004ed5750805b601f850160051c820191505b818110156200050e57828155600101620004f9565b5050505b505050565b81516001600160401b0381111562000533576200053362000472565b6200054b8162000544845462000488565b84620004c4565b602080601f8311600181146200058357600084156200056a5750858301515b600019600386901b1c1916600185901b1785556200050e565b600085815260208120601f198616915b82811015620005b45788860151825594840194600190910190840162000593565b5085821015620005d35787850151600019600388901b60f8161c191681555b5050505050600190811b01905550565b6132f580620005f36000396000f3fe6080604052600436106102725760003560e01c806385ac09c01161014f578063cd02771a116100c1578063e985e9c51161007a578063e985e9c514610738578063f01c947414610758578063f029da5c1461076d578063f2fde38b14610780578063fb5d9aea146107a0578063fee4a6b4146107c057600080fd5b8063cd02771a14610694578063d44ae1e3146106b4578063d70e6892146106d4578063dbe16c07146106e9578063dc9a153514610709578063de914f261461072357600080fd5b8063aec7a9a011610113578063aec7a9a0146105cc578063b0b6099d146105df578063b88d4fde146105ff578063bb13486e1461061f578063c627525514610654578063c87b56dd1461067457600080fd5b806385ac09c0146105445780638b927e14146105645780638da5cb5b1461057957806395d89b4114610597578063a22cb465146105ac57600080fd5b8063363e86fe116101e85780636f8b44b0116101ac5780636f8b44b01461048d57806370a08231146104ad578063715018a6146104cd578063717d57d3146104e257806377e563571461050257806378e5f9631461051757600080fd5b8063363e86fe146104035780633ccfd60b1461041857806342842e0e1461042d5780636352211e1461044d5780636c19e7831461046d57600080fd5b80631a0925411161023a5780631a092541146103475780631aca9e6a1461035c5780631b2ef1ca1461037157806323b872dd146103845780632a55205a146103a45780632c3a0f22146103e357600080fd5b806301ffc9a71461027757806306fdde03146102ac578063081812fc146102ce578063095ea7b3146103065780630da51cd714610328575b600080fd5b34801561028357600080fd5b5061029761029236600461298e565b6107e0565b60405190151581526020015b60405180910390f35b3480156102b857600080fd5b506102c16107f1565b6040516102a39190612a02565b3480156102da57600080fd5b506102ee6102e9366004612a15565b610883565b6040516001600160a01b0390911681526020016102a3565b34801561031257600080fd5b50610326610321366004612a4a565b6108aa565b005b34801561033457600080fd5b506016545b6040519081526020016102a3565b34801561035357600080fd5b506102c16109c4565b34801561036857600080fd5b506103396109e7565b61032661037f366004612a74565b6109fd565b34801561039057600080fd5b5061032661039f366004612a96565b610ae5565b3480156103b057600080fd5b506103c46103bf366004612a74565b610b16565b604080516001600160a01b0390931683526020830191909152016102a3565b3480156103ef57600080fd5b506103266103fe366004612a15565b610bc2565b34801561040f57600080fd5b50601754610339565b34801561042457600080fd5b50610326610c33565b34801561043957600080fd5b50610326610448366004612a96565b610dae565b34801561045957600080fd5b506102ee610468366004612a15565b610dc9565b34801561047957600080fd5b50610326610488366004612ad2565b610e29565b34801561049957600080fd5b506103266104a8366004612a15565b610e53565b3480156104b957600080fd5b506103396104c8366004612ad2565b610ef3565b3480156104d957600080fd5b50610326610f79565b3480156104ee57600080fd5b506103266104fd366004612a15565b610f8d565b34801561050e57600080fd5b50610326610f9a565b34801561052357600080fd5b50610537610532366004612a15565b610fb1565b6040516102a39190612aed565b34801561055057600080fd5b5061032661055f366004612bdd565b6111bd565b34801561057057600080fd5b50601454610339565b34801561058557600080fd5b506006546001600160a01b03166102ee565b3480156105a357600080fd5b506102c1611413565b3480156105b857600080fd5b506103266105c7366004612c41565b611422565b6103266105da366004612bdd565b611431565b3480156105eb57600080fd5b506103266105fa366004612a15565b611649565b34801561060b57600080fd5b5061032661061a366004612c7d565b6116ba565b34801561062b57600080fd5b5061063f61063a366004612ce5565b6116ec565b604080519283526020830191909152016102a3565b34801561066057600080fd5b5061032661066f366004612a15565b611736565b34801561068057600080fd5b506102c161068f366004612a15565b611743565b3480156106a057600080fd5b506103266106af366004612d1a565b611841565b3480156106c057600080fd5b506103266106cf366004612d52565b611853565b3480156106e057600080fd5b506103396118c4565b3480156106f557600080fd5b506102c1610704366004612a15565b6118d6565b34801561071557600080fd5b50601e546102979060ff1681565b34801561072f57600080fd5b50601554610339565b34801561074457600080fd5b50610297610753366004612d52565b61195f565b34801561076457600080fd5b5061033961198d565b61032661077b366004612bdd565b61199f565b34801561078c57600080fd5b5061032661079b366004612ad2565b611b76565b3480156107ac57600080fd5b506103266107bb366004612a15565b611bef565b3480156107cc57600080fd5b506102c16107db366004612a15565b611bfc565b60006107eb82611d3c565b92915050565b60606000805461080090612d85565b80601f016020809104026020016040519081016040528092919081815260200182805461082c90612d85565b80156108795780601f1061084e57610100808354040283529160200191610879565b820191906000526020600020905b81548152906001019060200180831161085c57829003601f168201915b5050505050905090565b600061088e82611d61565b506000908152600460205260409020546001600160a01b031690565b60006108b582610dc9565b9050806001600160a01b0316836001600160a01b0316036109275760405162461bcd60e51b815260206004820152602160248201527f4552433732313a20617070726f76616c20746f2063757272656e74206f776e656044820152603960f91b60648201526084015b60405180910390fd5b336001600160a01b03821614806109435750610943813361195f565b6109b55760405162461bcd60e51b815260206004820152603d60248201527f4552433732313a20617070726f76652063616c6c6572206973206e6f7420746f60448201527f6b656e206f776e6572206f7220617070726f76656420666f7220616c6c000000606482015260840161091e565b6109bf8383611dc0565b505050565b606060405180610160016040528061013f815260200161318161013f9139905090565b600060026013546109f89190612deb565b905090565b336000610a086109e7565b601e5490915060ff16610a2e5760405163ac4d09c760e01b815260040160405180910390fd5b8060185485601454610a409190612dff565b610a4a9190612dff565b1115610a69576040516306ab2e5160e01b815260040160405180910390fd5b8060195484601554610a7b9190612dff565b610a859190612dff565b1115610aa45760405163c62be36d60e01b815260040160405180910390fd5b34601754848601021115610acb57604051631bfc08e760e11b815260040160405180910390fd5b610ad58285611e2e565b610adf8284611ef4565b50505050565b610aef3382611f37565b610b0b5760405162461bcd60e51b815260040161091e90612e12565b6109bf838383611f96565b60008281526008602090815260408083208151808301909252546001600160a01b038116808352600160a01b9091046001600160601b0316928201929092528291610b8b5750604080518082019091526007546001600160a01b0381168252600160a01b90046001600160601b031660208201525b602081015160009061271090610baa906001600160601b031687612e5f565b610bb49190612deb565b915196919550909350505050565b610bca6120fa565b6002601354610bd99190612deb565b81601454610be79190612dff565b1115610c06576040516313f38bd360e11b815260040160405180910390fd5b601954811015610c2e576019546040516238ed1560e91b815260040161091e91815260200190565b601955565b610c3b6120fa565b601c546001600160a01b03161580610c5c5750601d546001600160a01b0316155b15610c7a57604051633bbc0f0760e01b815260040160405180910390fd5b476000819003610c9d576040516304abc4f760e21b815260040160405180910390fd5b6000612710601a5483610cb09190612e5f565b610cba9190612deb565b601c546040519192506000916001600160a01b039091169083908381818185875af1925050503d8060008114610d0c576040519150601f19603f3d011682016040523d82523d6000602084013e610d11565b606091505b5050905080610d33576040516391ac981760e01b815260040160405180910390fd5b601d546001600160a01b0316610d498385612e76565b604051600081818185875af1925050503d8060008114610d85576040519150601f19603f3d011682016040523d82523d6000602084013e610d8a565b606091505b505080915050806109bf576040516391ac981760e01b815260040160405180910390fd5b6109bf838383604051806020016040528060008152506116ba565b6000818152600260205260408120546001600160a01b0316806107eb5760405162461bcd60e51b8152602060048201526018602482015277115490cdcc8c4e881a5b9d985b1a59081d1bdad95b88125160421b604482015260640161091e565b610e316120fa565b601b80546001600160a01b0319166001600160a01b0392909216919091179055565b610e5b6120fa565b61012c811115610e7e57604051630b4c3db160e41b815260040160405180910390fd5b60c8811015610ea057604051639da2208f60e01b815260040160405180910390fd5b610eab600282612e89565b600103610ecb57604051635461466f60e01b815260040160405180910390fd5b601354811115610eee5760405163cddfa3f160e01b815260040160405180910390fd5b601355565b60006001600160a01b038216610f5d5760405162461bcd60e51b815260206004820152602960248201527f4552433732313a2061646472657373207a65726f206973206e6f7420612076616044820152683634b21037bbb732b960b91b606482015260840161091e565b506001600160a01b031660009081526003602052604090205490565b610f816120fa565b610f8b6000612154565b565b610f956120fa565b601655565b610fa26120fa565b601e805460ff19166001179055565b610fb9612951565b6011604051610fc89190612e9d565b6040518091039020610fd983611bfc565b8051906020012003611115576040518060400160405280600d8054610ffd90612d85565b80601f016020809104026020016040519081016040528092919081815260200182805461102990612d85565b80156110765780601f1061104b57610100808354040283529160200191611076565b820191906000526020600020905b81548152906001019060200180831161105957829003601f168201915b50505050508152602001600f805461108d90612d85565b80601f01602080910402602001604051908101604052809291908181526020018280546110b990612d85565b80156111065780601f106110db57610100808354040283529160200191611106565b820191906000526020600020905b8154815290600101906020018083116110e957829003601f168201915b50505050508152509050919050565b6040518060400160405280600e805461112d90612d85565b80601f016020809104026020016040519081016040528092919081815260200182805461115990612d85565b80156111a65780601f1061117b576101008083540402835291602001916111a6565b820191906000526020600020905b81548152906001019060200180831161118957829003601f168201915b505050505081526020016010805461108d90612d85565b601b5433908490849060019085906111e2906001600160a01b031686868686866121a6565b6111ff576040516368e6090160e11b815260040160405180910390fd5b33600061120a6109e7565b905089601f8960405161121d9190612f13565b9081526020016040518091039020548d6112379190612dff565b111561125657604051632508c3ed60e11b815260040160405180910390fd5b886020896040516112679190612f13565b9081526020016040518091039020548c6112819190612dff565b11156112a05760405163d4b4828d60e01b815260040160405180910390fd5b808c6014546112af9190612dff565b11156112ce576040516306ab2e5160e01b815260040160405180910390fd5b808b6015546112dd9190612dff565b11156112fc5760405163c62be36d60e01b815260040160405180910390fd5b60008c11801561130c5750601854155b8061131857506018548c115b15611336576040516306b347d360e51b815260040160405180910390fd5b60008b1180156113465750601954155b8061135257506019548b115b156113705760405163783aece160e11b815260040160405180910390fd5b8b601f896040516113819190612f13565b908152604051602091819003820181208054939093019092558c916113a7908b90612f13565b90815260405190819003602001902080549091019055601880548d91906000906113d2908490612e76565b925050819055508a601960008282546113eb9190612e76565b909155506113fb9050828d611e2e565b611405828c611ef4565b505050505050505050505050565b60606001805461080090612d85565b61142d33838361223d565b5050565b601b543390849084906006908590611456906001600160a01b031686868686866121a6565b611473576040516368e6090160e11b815260040160405180910390fd5b600033905088601f886040516114899190612f13565b9081526020016040518091039020548c6114a39190612dff565b11156114c257604051632508c3ed60e11b815260040160405180910390fd5b876020886040516114d39190612f13565b9081526020016040518091039020548b6114ed9190612dff565b111561150c5760405163d4b4828d60e01b815260040160405180910390fd5b60008b11801561151c5750601854155b8061152857506018548b115b15611546576040516306b347d360e51b815260040160405180910390fd5b60008a1180156115565750601954155b8061156257506019548a115b156115805760405163783aece160e11b815260040160405180910390fd5b346016548b8d010211156115a757604051631bfc08e760e11b815260040160405180910390fd5b8a601f886040516115b89190612f13565b908152604051602091819003820181208054939093019092558b916115de908a90612f13565b90815260405190819003602001902080549091019055601880548c9190600090611609908490612e76565b9250508190555089601960008282546116229190612e76565b909155506116329050818c611e2e565b61163c818b611ef4565b5050505050505050505050565b6116516120fa565b60026013546116609190612deb565b8160145461166e9190612dff565b111561168d5760405163ba14ba6f60e01b815260040160405180910390fd5b6018548110156116b5576018546040516238ed1560e91b815260040161091e91815260200190565b601855565b6116c43383611f37565b6116e05760405162461bcd60e51b815260040161091e90612e12565b610adf8484848461230b565b600080601f836040516116ff9190612f13565b90815260200160405180910390205491506020836040516117209190612f13565b9081526020016040518091039020549050915091565b61173e6120fa565b601755565b6000818152600260205260409020546060906001600160a01b031661177657505060408051602081019091526000815290565b60116040516117859190612e9d565b604051809103902061179683611bfc565b805190602001200361183457600b80546117af90612d85565b80601f01602080910402602001604051908101604052809291908181526020018280546117db90612d85565b80156118285780601f106117fd57610100808354040283529160200191611828565b820191906000526020600020905b81548152906001019060200180831161180b57829003601f168201915b50505050509050919050565b600c80546117af90612d85565b6118496120fa565b61142d828261233e565b61185b6120fa565b6001600160a01b038216158061187857506001600160a01b038116155b156118965760405163d92e233d60e01b815260040160405180910390fd5b601c80546001600160a01b039384166001600160a01b031991821617909155601d8054929093169116179055565b60006019546018546109f89190612dff565b606060116040516118e79190612e9d565b60405180910390206118f883611bfc565b8051906020012003611931575050604080518082019091526011815270554e44585820766f6c2e3120426c61636b60781b602082015290565b5050604080518082019091526012815271554e44585820766f6c2e3120507572706c6560701b602082015290565b6001600160a01b03918216600090815260056020908152604080832093909416825291909152205460ff1690565b60006015546014546109f89190612dff565b601b5433908490849060029085906119c4906001600160a01b031686868686866121a6565b6119e1576040516368e6090160e11b815260040160405180910390fd5b3360006119ec6109e7565b905089601f896040516119ff9190612f13565b9081526020016040518091039020548d611a199190612dff565b1115611a3857604051632508c3ed60e11b815260040160405180910390fd5b88602089604051611a499190612f13565b9081526020016040518091039020548c611a639190612dff565b1115611a825760405163d4b4828d60e01b815260040160405180910390fd5b806018548d601454611a949190612dff565b611a9e9190612dff565b1115611abd576040516306ab2e5160e01b815260040160405180910390fd5b806019548c601554611acf9190612dff565b611ad99190612dff565b1115611af85760405163c62be36d60e01b815260040160405180910390fd5b346016548c8e01021115611b1f57604051631bfc08e760e11b815260040160405180910390fd5b8b601f89604051611b309190612f13565b908152604051602091819003820181208054939093019092558c91611b56908b90612f13565b908152604051908190036020019020805490910190556113fb828d611e2e565b611b7e6120fa565b6001600160a01b038116611be35760405162461bcd60e51b815260206004820152602660248201527f4f776e61626c653a206e6577206f776e657220697320746865207a65726f206160448201526564647265737360d01b606482015260840161091e565b611bec81612154565b50565b611bf76120fa565b601a55565b6060611c0782611d61565b6000828152600a602052604081208054611c2090612d85565b80601f0160208091040260200160405190810160405280929190818152602001828054611c4c90612d85565b8015611c995780601f10611c6e57610100808354040283529160200191611c99565b820191906000526020600020905b815481529060010190602001808311611c7c57829003601f168201915b5050505050905080516000036107eb5760098054611cb690612d85565b80601f0160208091040260200160405190810160405280929190818152602001828054611ce290612d85565b8015611d2f5780601f10611d0457610100808354040283529160200191611d2f565b820191906000526020600020905b815481529060010190602001808311611d1257829003601f168201915b5050505050915050919050565b60006001600160e01b0319821663152a902d60e11b14806107eb57506107eb8261243b565b6000818152600260205260409020546001600160a01b0316611bec5760405162461bcd60e51b8152602060048201526018602482015277115490cdcc8c4e881a5b9d985b1a59081d1bdad95b88125160421b604482015260640161091e565b600081815260046020526040902080546001600160a01b0319166001600160a01b0384169081179091558190611df582610dc9565b6001600160a01b03167f8c5be1e5ebec7d5bd14f71427d1e84f3dd0314c0f7b2291e5b200ac8c7c3b92560405160405180910390a45050565b60005b818110156109bf5760155460145401600101611e4d848261248b565b611ee18160118054611e5e90612d85565b80601f0160208091040260200160405190810160405280929190818152602001828054611e8a90612d85565b8015611ed75780601f10611eac57610100808354040283529160200191611ed7565b820191906000526020600020905b815481529060010190602001808311611eba57829003601f168201915b5050505050612616565b5060148054600190810190915501611e31565b60005b818110156109bf5760155460145401600101611f13848261248b565b611f248160128054611e5e90612d85565b5060158054600190810190915501611ef7565b600080611f4383610dc9565b9050806001600160a01b0316846001600160a01b03161480611f6a5750611f6a818561195f565b80611f8e5750836001600160a01b0316611f8384610883565b6001600160a01b0316145b949350505050565b826001600160a01b0316611fa982610dc9565b6001600160a01b031614611fcf5760405162461bcd60e51b815260040161091e90612f2f565b6001600160a01b0382166120315760405162461bcd60e51b8152602060048201526024808201527f4552433732313a207472616e7366657220746f20746865207a65726f206164646044820152637265737360e01b606482015260840161091e565b826001600160a01b031661204482610dc9565b6001600160a01b03161461206a5760405162461bcd60e51b815260040161091e90612f2f565b600081815260046020908152604080832080546001600160a01b03199081169091556001600160a01b0387811680865260038552838620805460001901905590871680865283862080546001019055868652600290945282852080549092168417909155905184937fddf252ad1be2c89b69c2b068fc378daa952ba7f163c4a11628f55a4df523b3ef91a4505050565b6006546001600160a01b03163314610f8b5760405162461bcd60e51b815260206004820181905260248201527f4f776e61626c653a2063616c6c6572206973206e6f7420746865206f776e6572604482015260640161091e565b600680546001600160a01b038381166001600160a01b0319831681179093556040519116919082907f8be0079c531659141344cd1fd0a4f28419497f9722a3daafe3b4186f6b6457e090600090a35050565b6000806121b587878787612727565b90506000612210826040517f19457468657265756d205369676e6564204d6573736167653a0a3332000000006020820152603c8101829052600090605c01604051602081830303815290604052805190602001209050919050565b9050886001600160a01b03166122268286612760565b6001600160a01b0316149998505050505050505050565b816001600160a01b0316836001600160a01b03160361229e5760405162461bcd60e51b815260206004820152601960248201527f4552433732313a20617070726f766520746f2063616c6c657200000000000000604482015260640161091e565b6001600160a01b03838116600081815260056020908152604080832094871680845294825291829020805460ff191686151590811790915591519182527f17307eab39ab6107e8899845ad3d59bd9653f200f220920489ca2b5937696c31910160405180910390a3505050565b612316848484611f96565b612322848484846127df565b610adf5760405162461bcd60e51b815260040161091e90612f74565b6127106001600160601b03821611156123ac5760405162461bcd60e51b815260206004820152602a60248201527f455243323938313a20726f79616c7479206665652077696c6c206578636565646044820152692073616c65507269636560b01b606482015260840161091e565b6001600160a01b0382166124025760405162461bcd60e51b815260206004820152601960248201527f455243323938313a20696e76616c696420726563656976657200000000000000604482015260640161091e565b604080518082019091526001600160a01b039092168083526001600160601b039091166020909201829052600160a01b90910217600755565b60006001600160e01b031982166380ac58cd60e01b148061246c57506001600160e01b03198216635b5e139f60e01b145b806107eb57506301ffc9a760e01b6001600160e01b03198316146107eb565b6001600160a01b0382166124e15760405162461bcd60e51b815260206004820181905260248201527f4552433732313a206d696e7420746f20746865207a65726f2061646472657373604482015260640161091e565b6000818152600260205260409020546001600160a01b0316156125465760405162461bcd60e51b815260206004820152601c60248201527f4552433732313a20746f6b656e20616c7265616479206d696e74656400000000604482015260640161091e565b6000818152600260205260409020546001600160a01b0316156125ab5760405162461bcd60e51b815260206004820152601c60248201527f4552433732313a20746f6b656e20616c7265616479206d696e74656400000000604482015260640161091e565b6001600160a01b038216600081815260036020908152604080832080546001019055848352600290915280822080546001600160a01b0319168417905551839291907fddf252ad1be2c89b69c2b068fc378daa952ba7f163c4a11628f55a4df523b3ef908290a45050565b6000828152600260205260409020546001600160a01b03166126975760405162461bcd60e51b815260206004820152603460248201527f4552433732315065726d616e656e7450726f6f663a2050726f6f66207365742060448201527337b3103737b732bc34b9ba32b73a103a37b5b2b760611b606482015260840161091e565b6000828152600a6020526040902080546126b090612d85565b15905061270f5760405162461bcd60e51b815260206004820152602760248201527f4552433732315065726d616e656e7450726f6f663a2050726f6f6620616c726560448201526618591e481cd95d60ca1b606482015260840161091e565b6000828152600a602052604090206109bf8282613014565b60008484848460405160200161274094939291906130d4565b604051602081830303815290604052805190602001209050949350505050565b60008060008061276f856128dd565b6040805160008152602081018083528b905260ff8316918101919091526060810184905260808101839052929550909350915060019060a0016020604051602081039080840390855afa1580156127ca573d6000803e3d6000fd5b5050604051601f190151979650505050505050565b60006001600160a01b0384163b156128d557604051630a85bd0160e11b81526001600160a01b0385169063150b7a0290612823903390899088908890600401613126565b6020604051808303816000875af192505050801561285e575060408051601f3d908101601f1916820190925261285b91810190613163565b60015b6128bb573d80801561288c576040519150601f19603f3d011682016040523d82523d6000602084013e612891565b606091505b5080516000036128b35760405162461bcd60e51b815260040161091e90612f74565b805181602001fd5b6001600160e01b031916630a85bd0160e11b149050611f8e565b506001611f8e565b600080600083516041146129335760405162461bcd60e51b815260206004820152601860248201527f696e76616c6964207369676e6174757265206c656e6774680000000000000000604482015260640161091e565b50505060208101516040820151606090920151909260009190911a90565b60405180604001604052806002905b60608152602001906001900390816129605790505090565b6001600160e01b031981168114611bec57600080fd5b6000602082840312156129a057600080fd5b81356129ab81612978565b9392505050565b60005b838110156129cd5781810151838201526020016129b5565b50506000910152565b600081518084526129ee8160208601602086016129b2565b601f01601f19169290920160200192915050565b6020815260006129ab60208301846129d6565b600060208284031215612a2757600080fd5b5035919050565b80356001600160a01b0381168114612a4557600080fd5b919050565b60008060408385031215612a5d57600080fd5b612a6683612a2e565b946020939093013593505050565b60008060408385031215612a8757600080fd5b50508035926020909101359150565b600080600060608486031215612aab57600080fd5b612ab484612a2e565b9250612ac260208501612a2e565b9150604084013590509250925092565b600060208284031215612ae457600080fd5b6129ab82612a2e565b60208082526000906060830183820185845b6002811015612b2e57601f19878503018352612b1c8483516129d6565b93509184019190840190600101612aff565b50919695505050505050565b634e487b7160e01b600052604160045260246000fd5b600082601f830112612b6157600080fd5b813567ffffffffffffffff80821115612b7c57612b7c612b3a565b604051601f8301601f19908116603f01168101908282118183101715612ba457612ba4612b3a565b81604052838152866020858801011115612bbd57600080fd5b836020870160208301376000602085830101528094505050505092915050565b600080600080600060a08688031215612bf557600080fd5b85359450602086013593506040860135925060608601359150608086013567ffffffffffffffff811115612c2857600080fd5b612c3488828901612b50565b9150509295509295909350565b60008060408385031215612c5457600080fd5b612c5d83612a2e565b915060208301358015158114612c7257600080fd5b809150509250929050565b60008060008060808587031215612c9357600080fd5b612c9c85612a2e565b9350612caa60208601612a2e565b925060408501359150606085013567ffffffffffffffff811115612ccd57600080fd5b612cd987828801612b50565b91505092959194509250565b600060208284031215612cf757600080fd5b813567ffffffffffffffff811115612d0e57600080fd5b611f8e84828501612b50565b60008060408385031215612d2d57600080fd5b612d3683612a2e565b915060208301356001600160601b0381168114612c7257600080fd5b60008060408385031215612d6557600080fd5b612d6e83612a2e565b9150612d7c60208401612a2e565b90509250929050565b600181811c90821680612d9957607f821691505b602082108103612db957634e487b7160e01b600052602260045260246000fd5b50919050565b634e487b7160e01b600052601260045260246000fd5b634e487b7160e01b600052601160045260246000fd5b600082612dfa57612dfa612dbf565b500490565b808201808211156107eb576107eb612dd5565b6020808252602d908201527f4552433732313a2063616c6c6572206973206e6f7420746f6b656e206f776e6560408201526c1c881bdc88185c1c1c9bdd9959609a1b606082015260800190565b80820281158282048414176107eb576107eb612dd5565b818103818111156107eb576107eb612dd5565b600082612e9857612e98612dbf565b500690565b6000808354612eab81612d85565b60018281168015612ec35760018114612ed857612f07565b60ff1984168752821515830287019450612f07565b8760005260208060002060005b85811015612efe5781548a820152908401908201612ee5565b50505082870194505b50929695505050505050565b60008251612f258184602087016129b2565b9190910192915050565b60208082526025908201527f4552433732313a207472616e736665722066726f6d20696e636f72726563742060408201526437bbb732b960d91b606082015260800190565b60208082526032908201527f4552433732313a207472616e7366657220746f206e6f6e20455243373231526560408201527131b2b4bb32b91034b6b83632b6b2b73a32b960711b606082015260800190565b601f8211156109bf57600081815260208120601f850160051c81016020861015612fed5750805b601f850160051c820191505b8181101561300c57828155600101612ff9565b505050505050565b815167ffffffffffffffff81111561302e5761302e612b3a565b6130428161303c8454612d85565b84612fc6565b602080601f831160018114613077576000841561305f5750858301515b600019600386901b1c1916600185901b17855561300c565b600085815260208120601f198616915b828110156130a657888601518255948401946001909101908401613087565b50858210156130c45787850151600019600388901b60f8161c191681555b5050505050600190811b01905550565b6001600160601b03198560601b16815283601482015282603482015260006007831061311057634e487b7160e01b600052602160045260246000fd5b5060f89190911b60548201526055019392505050565b6001600160a01b0385811682528416602082015260408101839052608060608201819052600090613159908301846129d6565b9695505050505050565b60006020828403121561317557600080fd5b81516129ab8161297856fe554e444f585845442c207468652066696e65737420696e206469676974616c206c6966657374796c652063756c747572652c20697320616e20616e6e75616c2068796272696420626f6f6b2074686174206d65726765732073747265657420616e64206c6966657374796c652063756c74757265207769746820746865206469676974616c20776f726c642e20497420666f6375736573206f6e2066617368696f6e2c20736e65616b6572732c20616e6420737472656574776561722c20636174616c6f67696e67207468652062657374206f6620706879676974616c2063756c747572652e2054686973207075626c69636174696f6e20627269646765732074686520706879736963616c20616e64206469676974616c207265616c6d732077697468696e207468652065766f6c76696e6720576562332073706163652ea264697066735822122093771ea2c4e9e8f2c8257df69d15aa38677e7c050f063ff4d4b4c38d61085eca64736f6c63430008130033697066733a2f2f516d58586345747853764a6e7545557970477072754d7867516f31444e7750414a5835436f424673715448527863697066733a2f2f516d66373539544c724e46534c3867503165553542747837424647466261796831766e4342675547615a484e4e56697066733a2f2f516d5935726f676d794a72626275565a7479584b76626e677878474d37457970744a555148535833454a6a656a69697066733a2f2f516d524b6d484a6653635571375a45384463586a6f554d76484868517658736f37797a664754625745636b365041",
    "linkReferences": {}
  },
  "methodIdentifiers": {
    "allowlistMint(uint256,uint256,uint256,uint256,bytes)": "85ac09c0",
    "approve(address,uint256)": "095ea7b3",
    "balanceOf(address)": "70a08231",
    "getAllSupply()": "f01c9474",
    "getApproved(uint256)": "081812fc",
    "getBalanceMintBySign(bytes)": "bb13486e",
    "getDescription()": "1a092541",
    "getMaxSupplyCover()": "1aca9e6a",
    "getPublicPrice()": "363e86fe",
    "getToken1Supply()": "8b927e14",
    "getToken2Supply()": "de914f26",
    "getTokenMedia(uint256)": "78e5f963",
    "getTokenName(uint256)": "dbe16c07",
    "getTotalReservedCover()": "d70e6892",
    "getWhitelistPrice()": "0da51cd7",
    "isApprovedForAll(address,address)": "e985e9c5",
    "isPublic()": "dc9a1535",
    "mint(uint256,uint256)": "1b2ef1ca",
    "name()": "06fdde03",
    "owner()": "8da5cb5b",
    "ownerOf(uint256)": "6352211e",
    "privateWhitelistMint(uint256,uint256,uint256,uint256,bytes)": "aec7a9a0",
    "renounceOwnership()": "715018a6",
    "royaltyInfo(uint256,uint256)": "2a55205a",
    "safeTransferFrom(address,address,uint256)": "42842e0e",
    "safeTransferFrom(address,address,uint256,bytes)": "b88d4fde",
    "setApprovalForAll(address,bool)": "a22cb465",
    "setDefaultRoyalties(address,uint96)": "cd02771a",
    "setFundsReceivers(address,address)": "d44ae1e3",
    "setMaxSupply(uint256)": "6f8b44b0",
    "setPercentReceiver(uint256)": "fb5d9aea",
    "setPublic()": "77e56357",
    "setPublicPrice(uint256)": "c6275255",
    "setReserveToken1(uint256)": "b0b6099d",
    "setReserveToken2(uint256)": "2c3a0f22",
    "setSigner(address)": "6c19e783",
    "setWhitelistPrice(uint256)": "717d57d3",
    "supportsInterface(bytes4)": "01ffc9a7",
    "symbol()": "95d89b41",
    "tokenProofPermanent(uint256)": "fee4a6b4",
    "tokenURI(uint256)": "c87b56dd",
    "transferFrom(address,address,uint256)": "23b872dd",
    "transferOwnership(address)": "f2fde38b",
    "whitelistMint(uint256,uint256,uint256,uint256,bytes)": "f029da5c",
    "withdraw()": "3ccfd60b"
  },
  "id": 34
}